S04A0000626F6F746C6F616465722D73746F726167652D737069666C6173682D73696E676C655F65667233326D673132703433326631303234676C3132355F62726434313631612E7333378A
S3150FE10800801000205139E10FCB1EE10FD920E10F06
S3150FE10810D31EE10FAF23E10FCF25E10F000000005B
S3150FE1082000000000000000006408E10F6B26E10FF5
S3150FE108302334E10FA408E10F8F36E10F0B38E10FF7
S3150FE10840401E00D0FCE770474D58323552383033F1
S3150FE108503546000000000000010000000000000026
S3150FE108600000080007B0CD5E0100000000000C019A
S3150FE10870783100000000000000001000F0000100D8
S3150FE10880D532E10FD932E10F8D0EE10FF51DE10FF3
S3150FE10890271EE10FE408E10F611EE10FC51EE10F0F
S3150FE108A00000000013B779FAC925DDB7ADF3CFE044
S3150FE108B0F1B614B801010000000000007431000028
S3150FE108C04000000000000C010000000000000000E5
S3150FE108D00000000000000000000000000000000022
S3150FE108E00000000000010000C109E10F170AE10F46
S3150FE108F0450AE10F630AE10FA90AE10F4D38E10F4E
S3150FE109003338E10F6338E10FC90AE10FF10AE10F5D
S3150FE109104D0BE10FF310E10F0F11E10F5111E10F44
S3150FE109200912E10F0312E10F0248704702487047BF
S3150FE10930024870474A43E00F6A43E00F8642E00FF1
S3150FE1094010B5DEB04FF4BC726946002000F0BCF87A
S3150FE109500021684600F0CCF840F201218842F7D039
S3150FE1096040F20322904240F2054423D19DF8000064
S3150FE1097000F0030002281DD09DF8000081070FD576
S3150FE109800E480268019993688B4209D25A9800F092
S3150FE1099043F978B100F0A6F9099900F0B5FA09E043
S3150FE109A09DF80000C10705D503995A9800F05AF949
S3150FE109B000B1002420465EB010BD00002808E10F0B
S3150FE109C010B504000CD04FF48030206000213D4873
S3150FE109D06160027822724068E06000F0E7FA206118
S3150FE109E010BD78B5044604F5B4760D46A1B0B168ED
S3150FE109F03068802301AA00F025F80095802301AA2B
S3150FE10A00214604F1280000F0F1FDF060B068803076
S3150FE10A10B06022B070BD0246002940F2014000D11C
S3150FE10A20704710B5274B5C68A24203D300220A60D8
S3150FE10A304A6010BD03EBC20082680A60C068486075
S3150FE10A40002010BD38B500F021F800D326E000F004
S3150FE10A5017F800D225E09B68C018BDE8384000F0D2
S3150FE10A6056BB38B500F012F800D317E000F008F8DE
S3150FE10A7000D216E09B68C018BDE8384000F068BBAD
S3150FE10A8003EBC4031518DC68AC427047044608460D
S3150FE10A9011461A460B4B5D68AC42704740F2014076
S3150FE10AA032BD40F2024032BD06494A68904202D356
S3150FE10AB040F20140704701EBC000C168806800F069
S3150FE10AC0A3BB00005408E10F3EB504460D4611469F
S3150FE10AD0284601F08FF950B969462046FFF79BFF8B
S3150FE10AE028B905F5B47004600199416000203EBD57
S3150FE10AF038B584B004460D466846102101F0E6F993
S3150FE10B00029504F5B675A86888B9686829688842B8
S3150FE10B100DD269462046FFF764FFA86800281CBF7F
S3150FE10B2041F2070188420BD140F2012008E0A0789B
S3150FE10B3000281DBFE078002840F2032040F2022092
S3150FE10B4005B030BD0120187070470000F0B585B0D3
S3150FE10B5004460D46164600278DF800700DF1040088
S3150FE10B604BA1102201F0C6F9CDF804D037601C2154
S3150FE10B70284601F0ABF904F5B6779DF8000080B988
S3150FE10B8094F86E0011280CD0B86850B978683968B6
S3150FE10B90884206D201A92046FFF723FFEDE705B00C
S3150FE10BA0F0BD2078810744BF606830602178C807BF
S3150FE10BB005D51C2204F10801284601F09BF99DF8A1
S3150FE10BC00010002905BF20780028002040F20640DA
S3150FE10BD0E5E770B504460D46202304F5807204F16E
S3150FE10BE0B80104F1280000F0C5FC04F5B676B0684B
S3150FE10BF050B970683168884206D229462046FFF718
S3150FE10C00F0FEF4E7002070BDA07800281CBFE07865
S3150FE10C100028F7D0012070BD38B5E2B004460D4685
S3150FE10C2000F05DF88068A84206D24FF4BC7204A9C1
S3150FE10C302046FFF749FF08B1002008E05FF0020008
S3150FE10C4000F007F816A101F055F900F007F863B0C7
S3150FE10C5030BD8DF81100102268467047694604A829
S3150FE10C60B7E7000080B5E2B000F00DF808B100205B
S3150FE10C7007E00120FFF7EDFF0DA101F03BF9FFF7CB
S3150FE10C80EDFF63B000BD4FF4BC7204A91CE7000091
S3150FE10C9000000000450BE10F450BE10F450BE10F9E
S3150FE10CA00000000000000000000000000F0EE10F41
S3150FE10CB000000000E70DE10F00000000000000005A
S3150FE10CC000207047002070470020704701207047D1
S3150FE10CD0094801680869704708480068704706487F
S3150FE10CE0006870470548064A00680168914201D1DC
S3150FE10CF000697047002070472808E10F2800E10FCF
S3150FE10D00AD1007B001207047F8B50446E00A0D466D
S3150FE10D101646B4EBC02004BF204601F048F904F5AE
S3150FE10D200067FF0AFF0204E0384601F040F907F5D4
S3150FE10D30006730198742F7D332462946204601B07C
S3150FE10D40BDE8F040022301F039B9B8B59BB00446CE
S3150FE10D5040F204600090656BFFF7C1FF0746284636
S3150FE10D6000F07CF800283CD0287C02281AD2FFF745
S3150FE10D70ABFF20B1286A012101F05CF988B328465F
S3150FE10D8000F06CF830B1686901280BD1287C022894
S3150FE10D9008D2AD693869854228BFA54202D36349B6
S3150FE10DA08D4201D300201CE001A801F046F92A1B70
S3150FE10DB0214601A801F04BF901A801F04AF9FFF725
S3150FE10DC0B5FD0446FFF7B0FD0346009405F1200299
S3150FE10DD0294601A801F040F900900098401E804194
S3150FE10DE0C00F1CB0B0BD70B504460D461646FFF7F1
S3150FE10DF076FF01698C4222BF40693219904205D3D1
S3150FE10E00324629462046BDE870407DE770BD2DE9A3
S3150FE10E10F041044688461646FFF75EFF44490068EF
S3150FE10E20884218D1FFF75BFF0746FFF75BFF2518EF
S3150FE10E3070193E4988420ED23CB9FFF753FF7969E3
S3150FE10E4088423CBF386901F0B2F83246414628463E
S3150FE10E50BDE8F04158E7BDE8F08100007FB50446F3
S3150FE10E604FEA0D0035A1102201F044F80020464269
S3150FE10E700DEB0605225CE97B914205D1401C10285A
S3150FE10E80F5D3012004B070BD0020FBE7F8B50446A9
S3150FE10E9025686768666BFFF722FF05F1604525490F
S3150FE10EA08D4229D20069874226D320498F4223D228
S3150FE10EB04030864201D38E4205D301F0D3F9401E6D
S3150FE10EC08041C00FF2BD01F0CDF9B8B93046FFF759
S3150FE10ED0C5FFB8B1307C02280ED2706990B10228F5
S3150FE10EE00CD1B069001D011B4FF0FF32204601F016
S3150FE10EF0BBF91149884205D00020F2BD2046BDE875
S3150FE10F00F24022E70120F2BD80B54FF0FF3201F04A
S3150FE10F10ABF9094B984205D101F08EF840F2092061
S3150FE10F2001F009FA002002BD0000000001001000E7
S3150FE10F30AD1007B001000400E320BBDEB814B6F133
S3150FE10F40E0CFF3ADB7DD25C9FA79B71380B500F078
S3150FE10F50D0F80028FBD101BD80B501F0A2FA062039
S3150FE10F6001F069FABDE8014001F09DBA38B501F02B
S3150FE10F7098FA9F2001F05FFA01F07BFA054601F03E
S3150FE10F807CFA044601F08FFA012D18BF1F2D0BD005
S3150FE10F90202D18BF9D2D07D0C22D04BF42F6140098
S3150FE10FA0844201D1072032BD002032BD80B5FFF763
S3150FE10FB0CDFFFFF7DBFF072802D100BFCAA002BDB5
S3150FE10FC0002002BD10B50446FFF7C0FF14B9FFF7C5
S3150FE10FD0CDFF05E02078010002D1FFF7C7FF2070B2
S3150FE10FE0401E152824D8DFE800F01A141A14171A30
S3150FE10FF01A1D1D20171A1714171A1D0B0E11141788
S3150FE110004FF4004010BD4FF4803010BD4FF4003067
S3150FE1101010BD4FF4802010BD4FF4002010BD4FF4EA
S3150FE11020801010BD4FF4001010BD4FF4000010BD3D
S3150FE11030002010BD38B504460D461046FFF7C2FF36
S3150FE11040A84228BFA04201D2002032BD2C19054982
S3150FE110508C4201D2012032BDA0428041C043C00F74
S3150FE1106032BD00000100040010B50C4601F0E3F9B2
S3150FE110702046BDE8104001F0E0B938B504460D460B
S3150FE11080FFF764FFFFF768FF01F00BFA29462046E9
S3150FE11090FFF7EAFFBDE8314001F005BA80B501F08F
S3150FE110A087F901F017FA42F2107001F015FA01F023
S3150FE110B0F8F9AB2001F0BFF901F0F5F947F230503D
S3150FE110C001F00AFAFFF752FF10B940F2011002BD23
S3150FE110D00B3802280BD2FFF73FFF01F0E2F90120AF
S3150FE110E001F0A9F9002001F0A6F901F0DCF90020E1
S3150FE110F002BD10B501F0D5F9052001F09CF901F01B
S3150FE11100B8F9044601F0CFF904F0010010BD70B54E
S3150FE111100D461646044600223146FFF78BFF10B9FE
S3150FE1112040F2024070BDFFF711FF01F0BAF9214617
S3150FE111300320FFF799FF03E001F09BF905F8010B97
S3150FE111403046461E0028F7D101F0ADF9002070BDFB
S3150FE111502DE9F04788461446054600222146FFF75A
S3150FE1116069FF10B940F202401BE0FFF7EFFE01F015
S3150FE1117098F929460320FFF777FF27463846471E9A
S3150FE1118088B301F076F9FF28F8D040F2034008E082
S3150FE11190761BB6B203E0B4F5807F04D826461CB9B8
S3150FE111A00020BDE8F0873E46FFF7D0FEFFF7D4FEFD
S3150FE111B001F077F929460220FFF756FFB146C246FD
S3150FE111C003E01AF8010B01F036F95FEA0900A9F11C
S3150FE111D00109F6D101F067F9A41B7519B4F5807F02
S3150FE111E0B044E0D8DAE701F05EF928064FF48077EC
S3150FE111F0D1D02E0A360206F580766119B142C7D2F1
S3150FE11200CCE74FF0FF3070472DE9F8430C4600214C
S3150FE1121005468DF800106846FFF7D4FE9DF80010DD
S3150FE112208046A1F10E0240F6FF764FF6FF70042AD3
S3150FE112304FF48037814638BF064606D31239022965
S3150FE112403CBF4FF4004747F6FF7934420CBF3542B6
S3150FE1125040F2044038D16A4621462846FFF7EAFEB6
S3150FE1126010B940F202402FE0ADB9444513D1FFF773
S3150FE112706DFEFFF771FE01F014F9C72001F0DBF8FF
S3150FE1128001F011F91FE029462020FFF7F6FE05F5DB
S3150FE112908055A4F58054002C18BF15EA090FF2D139
S3150FE112A0BC420ED32946D820FFF7E7FE7D19E41B92
S3150FE112B0F6E729462020FFF7E0FE05F58055A4F570
S3150FE112C08054002CF5D10020BDE8F28380B5FFF7FD
S3150FE112D03DFE01F0E6F8B92001F0ADF801F0E3F8D3
S3150FE112E001F0F9F8002002BD010203009A010000A6
S3150FE112F00078000000100000000010004808E10F20
S3150FE113000100000070B54B688C689C4206D200F173
S3150FE1131040021B1B14781B19412B01D3002070BD12
S3150FE11320537814780D68E4188B68EE5C04F03F048B
S3150FE1133006558C68641C8C6013785B1C13708C6883
S3150FE113404B689C42ECD3012070BD90F840004A688F
S3150FE1135089681018401A7047F8B584B0144600260C
S3150FE11360054601960096082302AA00F048F841F2D5
S3150FE113700306B0423CD195F8430005F1480738B171
S3150FE1138000F038F83868082302AA02A901F0D9F863
S3150FE113909DF80A209DF80B009DF80910120442EA08
S3150FE113A000629DF8080042EA0122024322609DF89D
S3150FE113B00E009DF80F10000440EA01609DF80D1034
S3150FE113C040EA01209DF80C100843606095F8430050
S3150FE113D048B9DFF890198A421CBFDFF88C098242BF
S3150FE113E001D000F007F86068B8600021F960304677
S3150FE113F005B0F0BD7868082202A900F028BE2DE9F4
S3150FE11400F0410C4617461D468046FFF79EFFA84260
S3150FE1141008F1400606D221464046FFF773FF10B3A7
S3150FE1142000204DE000210CE0707818F800207A5486
S3150FE11430491C737830785B1C03F03F03421E7370CF
S3150FE114403270307808B1A942EED3A0686268904253
S3150FE1145038BFA9420CD22368185C7854491CA2689C
S3150FE11460521CA260F1E71220B07141F2020027E0AF
S3150FE11470A942F8D1069CB26C2946384600F0F4FE33
S3150FE11480B06424B1F0682A46394600F0E0FD0798CA
S3150FE1149038B1F07878B1B0682B463A46394601F063
S3150FE114A050F8F07838B1F069B1692818F0618842DF
S3150FE114B024BF0020F07070692D18756141F20300A9
S3150FE114C0BDE8F0812DE9F8431E467368002B4ED037
S3150FE114D00C4614F0030118BF41F2020048D115463C
S3150FE114E00746FFF7F5FB396E001D6A18824221D3D5
S3150FE114F000F1180399421DD28C46844538BF8446C4
S3150FE1150005EB010800F11802904588BF9046ACEB58
S3150FE115100101ACEB000004EB0109A8EB0C08384420
S3150FE1152042464946683000F0D5FCFF22414648461F
S3150FE1153001F016F8FFF7D6FB396E001D884222BF80
S3150FE115406A18031D9A4209D3411A601807F18001FF
S3150FE1155002680A600421FF2201F002F8214633688E
S3150FE11560386E74682A46A047386E2D183D660020FE
S3150FE11570BDE8F283F8B5064606F140070020B871DB
S3150FE115807870F87038710D4600214FF0FF303970E1
S3150FE11590797103F02003B864396279621446BB703E
S3150FE115A0FF22182106F1680000F0DAFFFF2204217D
S3150FE115B006F1800000F0D4FFFF22042106F184003A
S3150FE115C000F0CEFFBD60FC60FFF77CFB00B11DB103
S3150FE115D0FFF776FB18B114B941F20B00F2BD14B166
S3150FE115E0F86800F02AFD0020F2BD00002DE9F84F62
S3150FE115F09AB005460F4605A800210023002480E88E
S3150FE116001A000592099105F148081A9A069205F111
S3150FE1161042090EE00498C8F808000021C8F80C103A
S3150FE116200398DFF84817884240F09081022289F843
S3150FE11630042007981A99884280F04F8341F20302FA
S3150FE1164008920AAC99F80430122BF2D8DFE813F0BE
S3150FE1165014001A0049037E0170015E035B03A201C8
S3150FE116605E0394015E0394018A024203610311034F
S3150FE11670150330024203DCE700F0A4FB00F09DFB0B
S3150FE11680C8D03EE300F09EFB00F097FBF9D199F845
S3150FE11690020000283BD199F80010CA075AD599F8EC
S3150FE116A00100002856D10398DFF8C01688421CBF07
S3150FE116B0DFF8BC16884225D0DFF8B81688421FBF7F
S3150FE116C0DFF8B4168842DFF8B41688421AD0DFF88D
S3150FE116D0B01688422DD0DFF88C16884215D0DFF888
S3150FE116E0A41688421AD0DFF8A016884214D0DFF884
S3150FE116F07816884221D0DFF8941688421CBFDFF8AE
S3150FE117009016884200F022811CE010228FE70398A1
S3150FE11710DFF85416884213E00E2288E70F2089F886
S3150FE1172004000020D8F80810C8F81010C8F8140003
S3150FE117307FE7122189F8041070E0FFF7C1FA00285C
S3150FE1174041D13BE000F043FB03A800F03CFF00284A
S3150FE1175064D0E4E20398DFF81C1688421AD0DFF86A
S3150FE117601816884214D0DFF81416884216D0DFF81F
S3150FE11770F415884224D0DFF8F015884216D0DFF849
S3150FE117800C16884210D0DFF8081688420AD01DE001
S3150FE1179004224CE7062089F804004AE7072189F875
S3150FE117A0041046E70920F6E70B21F8E7FFF788FA79
S3150FE117B0002804BF99F80100002804D10C21EEE7B7
S3150FE117C099F80100002840F0C1809EE703A800F0D8
S3150FE117D0FAFED0B10398C8F84400112189F8041034
S3150FE117E0039800F0F2FE099099F800008106D8D52A
S3150FE117F0099800281CBF41680029D2D0284688479E
S3150FE11800009000980028CCD089E2122199F80100C6
S3150FE1181089F8041010B141F204005FE241F20800C9
S3150FE118205CE2E0780006B0F1407F04D000F0CFFA39
S3150FE1183041F2090052E26079217941EA00210291F0
S3150FE11840C90706D599F8000040F0010089F80000B4
S3150FE1185002E0FFF737FA40B9FFF732FA002800F056
S3150FE1186042820298C10500F13E8200F0B0FA41F2E0
S3150FE118700A0033E21C220AA907F1080000F03AFB3D
S3150FE11880387840F00100387007F10800FFF73AFAAF
S3150FE11890002803D0002100F082FA002800F01D8114
S3150FE118A0D8F80830D8F80C00984280F0358201213B
S3150FE118B00191009100F07CFA00F07FFADAD020E294
S3150FE118C0387840F002003870A078E1789DF828204A
S3150FE118D0000440EA0160617840EA01201043786034
S3150FE118E0D8F8080008387862A179E07922790904F5
S3150FE118F041EA0061607941EA002111430291FFF764
S3150FE11900EBF9DFF890140068884221D1FFF7E4F98B
S3150FE119100299C068814219D1052199F8030089F826
S3150FE11920041040F0010089F803000021C8F81C10EB
S3150FE11930D8F80C000828BFF47CAE01210191009183
S3150FE1194000F049FA00F039FABAD0DAE100F03FFADD
S3150FE11950E5E1A178E0789DF82820090441EA0061E4
S3150FE11960607841EA002111430291D8F80800052871
S3150FE1197024BF0298C8F81800D8F80C00042880F0A4
S3150FE11980D18101210191009100F011FA00F015FAD0
S3150FE11990DFD0B6E10020C8F81C000821FFE6DAF82F
S3150FE119A00030D8F81C005A460AA9A047D8F81C00FF
S3150FE119B05844C8F81C00D8F80800D8F80C10814232
S3150FE119C080F0AA81A0EB010BBBF1040F05A9284614
S3150FE119D008D3FFF7BAFC042808D205A92846FFF772
S3150FE119E091FC7AE1FFF7B1FC5845F6D3BBF1410F14
S3150FE119F028BF4FF0400B00F0D6F9584502D200F060
S3150FE11A00D2F98346BBF1040F24BF4FEA9B004FEA9D
S3150FE11A10800B00F0E6F900F0D0F9BAD199F804009D
S3150FE11A20082803D1DAF80840002CB8D1BBF1040F2E
S3150FE11A30CBF1040406D20AA8FF222146584400F04E
S3150FE11A408FFDA34499F804000A280ED1DAF80400B1
S3150FE11A5018B100F0A3F900283FD053465A460AA918
S3150FE11A602846FFF72FFD0090A5E70528A3D1787843
S3150FE11A708107A0D5DAF80C0000289CD0D8F81C0015
S3150FE11A8005280ED20BEB000107290AD30AA9091D76
S3150FE11A90081A05F1840201681160FF22042100F0A2
S3150FE11AA05FFDDAF80030D8F81C00DAF80C407AE777
S3150FE11AB099F80010880606D5D8F8440000F085FDA0
S3150FE11AC00028099041D024994868002800F02C811C
S3150FE11AD000F064F9002840F0278100F078F941F22F
S3150FE11AE00C00FBE099F80000810608D5002C1CBF1D
S3150FE11AF02169002903D028468847064600E00126DA
S3150FE11B0000F051F9B042FFF468AFD8F80800D8F801
S3150FE11B100C10A0EB010BBBF1410F28BF4FF0400BAF
S3150FE11B2000F041F9834502D300F03DF9834600F019
S3150FE11B3058F900F042F914D199F80000810640F105
S3150FE11B40F680002C1CBFA668002E00F0E8805346F5
S3150FE11B505A460AA92846B04700900098002800F097
S3150FE11B60E680CEE000200190009000F020F900F031
S3150FE11B7024F9F6D1D8F840008749884205D01222D8
S3150FE11B8089F8042041F20500A8E0FFF799F810B9AA
S3150FE11B900120F87002E0F878002849D099F803009F
S3150FE11BA010F0030F1EBF2498C468002C05D00368FC
S3150FE11BB0042205F184010420A047D8F81800002873
S3150FE11BC01EBF24994868002832D04FF0FF310291A9
S3150FE11BD005F180040422214602A800F0F9FC50B178
S3150FE11BE0FFF780F838B124990B682146249C666883
S3150FE11BF00422001DB047042205F1680102A800F096
S3150FE11C00E7FCA8B1FFF764F82499249C0B68666892
S3150FE11C10142205F16C010830B047FFF759F8249902
S3150FE11C20249C0B6805F1680165680422001DA8472D
S3150FE11C300120B8700D2189F804104EE0FEF778FE09
S3150FE11C408021009001910123D8F800000BAA02210F
S3150FE11C5000F054FCD8F80C0010285DD200210120C9
S3150FE11C6001910090102300F0A3F800F0A6F8E5D05B
S3150FE11C7047E0012089F801002AE099F8020038BB14
S3150FE11C80002101910090402300F092F800F095F8C1
S3150FE11C9037D1D8F8040000F0DCF9FEF747FE044629
S3150FE11CA0FEF742FE00940346D8F8040012AA0AA9E9
S3150FE11CB000F0D2F90090009830B10021F97000F0F0
S3150FE11CC086F841F2060009E00120F87089F8020072
S3150FE11CD0012060E541F2070000E000201BB0BDE8FE
S3150FE11CE0F08FDDF890A0D8F80C00082814D2002167
S3150FE11CF001200191009000F06EF800F05EF83FF4DC
S3150FE11D0090AD0098EAE7DDF890A0C9E5DDF890A07F
S3150FE11D1051E6DDF890A09DE7CDF890A0D8E741F226
S3150FE11D200100DBE70A2036E5DDF890A0099CD8F83B
S3150FE11D300C00D8F808108842FFF4D4AECDF890A085
S3150FE11D40099499F800108A06C2D5002C1CBFE268E7
S3150FE11D50002ABDD024992846904700900098002884
S3150FE11D60B6D0CEE7F70A0AF7FC0404FCEB17A60395
S3150FE11D70EB17A65EF40A0AF4F50909F5F60808F673
S3150FE11D80F70909F7F90707F9FA0606FAFD0303FD5D
S3150FE11D90FE0101FEAD1007B0E320BBDE012107F125
S3150FE11DA00800FEF793BF05A92846FFF7CEBA04232D
S3150FE11DB00AAA05A92846FFF722BB009000980899C1
S3150FE11DC08842704703AA05A92846FFF7C5BA12202C
S3150FE11DD089F80400704708230AAA05A92846FFF7E0
S3150FE11DE00EBB0120019000905B460AAA05A9284681
S3150FE11DF0FFF705BB10B5B1F5BC7F044602D240F241
S3150FE11E00052010BD4FF4BC7100F060F80020607042
S3150FE11E1004F5807204F1B80104F12800BDE8104021
S3150FE11E200023FFF7A7BB1CB500910446214604F139
S3150FE11E302800FFF7DBFB00281CBF41F207018842B0
S3150FE11E40C4F874010BD1A07838B1E07810B140F243
S3150FE11E50032016BD40F2022016BD40F2012016BD49
S3150FE11E602DE9F04385B004460D460C9E9046994602
S3150FE11E7001A8102100F02AF8002737601C214846F7
S3150FE11E8000F024F801A8009043462A46214604F1C2
S3150FE11E902800FFF7ABFB2078810744BF606830600D
S3150FE11EA02178C80705D51C2204F10801484600F040
S3150FE11EB021F82078002814BF002040F2064005B033
S3150FE11EC0BDE8F0834FF4BC707047FEE7002200F0E7
S3150FE11ED0B3BBFEE762B38B0708D0521E11F8013B85
S3150FE11EE000F8013B00F024808B07F6D1830740F021
S3150FE11EF0208000BF103A07D330B4B1E83810103A5A
S3150FE11F00A0E83810F9D230BC530724BFB1E8081066
S3150FE11F10A0E8081044BF51F8043B40F8043BD20750
S3150FE11F2024BF31F8022B20F8022B44BF0B78037044
S3150FE11F307047121F17D35B0009D151F8043B20F804
S3150FE11F40023B1B0C121F20F8023BF6D20BE051F8B5
S3150FE11F50043B00F8013B1B0A20F8023B1B0C121F46
S3150FE11F6000F8013BF3D238BF121D521E24BF11F800
S3150FE11F70013B00F8013BF8D8704738B58408800774
S3150FE11F80154600F007F804236A46A100284600F03B
S3150FE11F90B1FB32BD05D54FF6FF7242EA014200921F
S3150FE11FA0704741F07F4141F47F010091704780B561
S3150FE11FB000F05FFB401E8041C00F02BD2DE9F041ED
S3150FE11FC01D46082D06468846144630D201214FF4A8
S3150FE11FD0AA4000F015FC44B306F0010104F001003C
S3150FE11FE0014324D1B00708D538F8021B2A463046FB
S3150FE11FF0FFF7C3FFD8B9B61CA41E042C0DD3A7084F
S3150FE12000BF003B4642463146284600F073FB79084E
S3150FE1201008EB4108BE19E41B48B934B1B8F8001012
S3150FE120202A463046FFF7A9FF08B9012000E0002054
S3150FE12030BDE8F08100207047704710B5044600F007
S3150FE12040B3FC2046BDE81040002100F0B0BC00F023
S3150FE12050B3BC014600F0BBBC2DE9F84106000D46C5
S3150FE1206018BF002DA1B01446984606D0002C18BF14
S3150FE12070B8F1000F01D0289F17B940F2016023E0B4
S3150FE120800121134800F0BCFB402111A8FFF71EFF09
S3150FE12090414611A800F089FF394619A800F085FFDE
S3150FE120A001A84021FFF712FF294601A800F07DFFA5
S3150FE120B0214609A800F079FF01A8009011AB202273
S3150FE120C03146044800F080FF22B0BDE8F081000000
S3150FE120D000050A0000000F404FF4017000F02BB924
S3150FE120E01CB55549554A012048641068544A000EFB
S3150FE120F009D14AF6E850D0620020536B43F004034E
S3150FE121005363D06201E0012803D8106840F4005010
S3150FE1211010604C48036823F4401343F488130360BB
S3150FE12120086840F480700860116C474841F4F84143
S3150FE1213011644021C16002685103FCD401F0CAF871
S3150FE1214000F0CAF808B900F0B8F8FEF7F9FB040099
S3150FE121500ED100F0C1F808B100F0B9F840F2012054
S3150FE1216000F0E9F84FF4017000F0E5F8002016BD34
S3150FE1217000F0B2F808B900F0A5F800F0BAF80228B5
S3150FE1218002DB00F0A4F8FEE700F0C2F82F4801E009
S3150FE121900098401E009000980128F9DA40F20541B7
S3150FE121A08C42DFD140F20320DEE7000080B501214A
S3150FE121B000F053F82649086842050CD500F0DAF825
S3150FE121C040F20221401A04D0C01E02D0C01E0128DF
S3150FE121D001D800F041F80420016811F1010F05D192
S3150FE121E04FF4027000F05AF800F036F89DF801004E
S3150FE121F058B10020FEF74AFE8DF800009DF8000069
S3150FE1220018B94FF4027000F049F89DF8000088B153
S3150FE1221000F062F808B100F05AF80E4900200860A4
S3150FE1222000221046016881F3088881F30988406826
S3150FE122308746FEE701BD000000000E40FC81E00F7E
S3150FE1224064310E4020400E4004300E4000350C0044
S3150FE1225004500E4008ED00E000218DF800108DF8D6
S3150FE12260011070470020704730B50A4B1C6844F0E7
S3150FE1227040041C600125084B1D609A605D6002E019
S3150FE1228010F8014B9C610A46511E002AF8D1D86914
S3150FE1229030BD00BFB0400E4000C001404FF00051CD
S3150FE122A04AF6C03308804FF6F0704A8802409A42E8
S3150FE122B01CBF4FF20F024A8070472A494CF23C305D
S3150FE122C00880704727494AF6C0300880704725498C
S3150FE122D04FF20F000880704722490A884FF6F070D7
S3150FE122E002404AF6C0339A4201D1012070470020DD
S3150FE122F070471C4800884FF6F07101EA00024AF672
S3150FE12300C0339A4202D100F00F00704700207047A8
S3150FE1231030B5144801884FF6F07303EA01044AF623
S3150FE12320C035AC4206D101F00F020F2A34BF491C6A
S3150FE123301940018030BD80B5FFF7B0FF0A4801684B
S3150FE1234021F4E06141F400710160BFF34F8F07495A
S3150FE1235007480A6802F4E06202430A60BFF34F8F4F
S3150FE1236000BFFDE70200002000500E400CED00E03B
S3150FE123700400FA0510B54FF000524FF6F071508890
S3150FE1238001EA00034AF6C034A3421CBF4FF20F0322
S3150FE12390984201D1108810BD002804BF108801288A
S3150FE123A002D140F2022010BD4FF4007010BDFEE7DE
S3150FE123B010B501213E483F4C00F022FA01213E487B
S3150FE123C000F01EFA002304220621022000F09DFFF1
S3150FE123D0002302220721022000F097FF00230422A7
S3150FE123E00821022000F091FF01230422042100209D
S3150FE123F000F08BFF40F6AA60E0600021A160E16486
S3150FE1240040F201402D49A164206041F2050262606C
S3150FE1241000F0B4FF401E2A492A4AB0FBF1F002EA66
S3150FE12420002262611020E0600B21616705212648D9
S3150FE12430A067E16010BD01461CE038B504461D4DAD
S3150FE124402102090E00F012F82104090E00F00EF830
S3150FE1245000F00BF8284600F0D1FF284600F0CEFF3A
S3150FE124602846BDE8324000F0C9BFE1B2284600F088
S3150FE12470D3BFFF210F4800F0C5BF38B50D4CFF2183
S3150FE12480204600F0C9FFFF21204600F0C5FF204698
S3150FE1249000F0B4FF0546204600F0B0FF40EA052004
S3150FE124A032BD0A4900E00A49102008607047000072
S3150FE124B000350A000004014000520400F9FF010053
S3150FE124C00050C300F8FF7F000B0B000B0CA000447C
S3150FE124D00CA000467047704710B5044600F04EFF5A
S3150FE124E00549B0FBF1F04443A40804D02046BDE80A
S3150FE124F01040FEF7A5B910BD40420F002DE9F84394
S3150FE12500089D099F80460E4691461C4601F005F847
S3150FE125103A462946404601F003F808F12400002126
S3150FE12520016006750C22494608F13900FFF7D2FC26
S3150FE1253008F14500210C220A847001704270BDE852
S3150FE12540F1833EB5029201911C4600F128050095F3
S3150FE1255000F1380300F12402214601F004F837BDFA
S3150FE1256062F30F2262F31F42401810F0030308D003
S3150FE12570C91A1FD3DB0748BF00F8012D28BF20F882
S3150FE12580022D130030B414461546103928BF20E941
S3150FE125903C00FAD8490728BF20E90C0048BF40F8AC
S3150FE125A0042D890028BF20F8022D48BF00F8012D20
S3150FE125B030BC7047C91818BF00F8012DCB0728BFEB
S3150FE125C000F8012D70470020704700207047FEE7A5
S3150FE125D00300002013F0030F09D0521E22BF13F898
S3150FE125E0010B11F801CBB0EB0C00F3D0704711F0F2
S3150FE125F0030F14D1121F22BF53F8040B51F804CB6A
S3150FE126006045F7D0121D0AD200BA9CFA8CFCB0EBEA
S3150FE126100C0038BF6FF0000088BF01207047521ED3
S3150FE1262022BF13F8010B11F801CBB0EB0C00F6D07A
S3150FE12630521C08BF1046704700B500BF13009646FF
S3150FE126409446103928BFA0E80C50FAD85FEA417CCE
S3150FE1265028BF0CC048BF40F8042BC90728BF20F894
S3150FE12660022B48BF00F8012B00BDFEE76FF0020019
S3150FE1267070BD70B5534B54490246986B80B200B1A9
S3150FE12680012041F671349C634D4C256824681E6820
S3150FE1269046F001061E609A6001225A605C69620784
S3150FE126A004D500F01FF84FF0FF3070BD02225A60DB
S3150FE126B05A69D4070ED5002918BF491EF8D109E08A
S3150FE126C00029196802D100F00EF8CFE700F00BF8F8
S3150FE126D0002070BD5A699407F2D500F003F86FF048
S3150FE126E0010070BD196849084900196008B1002059
S3150FE126F0986370472DE9F043914602F16042334DFD
S3150FE12700AA424DD23026324A464332444FF440155F
S3150FE12710156000275760976097612A4DAE6BB6B289
S3150FE1272006B1012641F67137AF6301272C68DFF851
S3150FE12730A4C044F001042C60874026E0A96001247F
S3150FE127406C606C6964072BD44FEA9E04641E240106
S3150FE1275044F06054D460C2F810901F4CDFF87C80CF
S3150FE127605461D8F800403C43C8F8004010246C602F
S3150FE12770D8F80840C440E407FAD5CCF80870CCF88D
S3150FE1278000707144F144A3EB0E0363B101F50064EC
S3150FE12790E40AE402A4EB010E7345CFD29E46CDE7E0
S3150FE127A04FF0FF300AE004206860F6B22968490865
S3150FE127B0490029600EB10020A8630020BDE8F0832F
S3150FE127C004300E4008000E40809698000100040088
S3150FE127D080200E4020200E4418000E4020200E408F
S3150FE127E0890001EB401101F184410A607047DFF87E
S3150FE127F074104A68D30702D40A680242FCD17047C3
S3150FE1280070B50C460246110A01F00F010020491E70
S3150FE128100929DFF8545013D8DFE801F00513121236
S3150FE12820071518121B1FDFF83850C2F3043608B12B
S3150FE12830FFF7DDFF224631462846BDE87040CFE778
S3150FE1284070BD1035F1E730350120EEE73835102050
S3150FE12850EBE740354FF48030E7E7DFF81050E4E778
S3150FE1286000400E4040410E40B0400E4050410E40F8
S3150FE128702DE9FC478A461446984670B9002C43D099
S3150FE128800B990A683F2A0AD84868002818BF5FEAF9
S3150FE12890080905D10FF24C1902E0424835E0C1466D
S3150FE128A002F03F06A218A242C6F140050A6002D223
S3150FE128B04868401C48600A9F96B1AC4210D32A463D
S3150FE128C05146B819FFF706FB0120009043463A46F9
S3150FE128D04946002000F0FBFEC146AA44641B0026D0
S3150FE128E03F2C0BD9A5090095434652464946002090
S3150FE128F000F0EDFE0AEB851AA4EB851424B122460E
S3150FE129005146B819FFF7E6FA0020BDE8F687000051
S3150FE12910F8B586B00C4615461E4640BB002102AF00
S3150FE129204A42920056F82130D21D00EBC300B8544B
S3150FE1293002A8104456F82120C01E5209827056F89B
S3150FE129402120520B427056F82120520D027056F893
S3150FE129502100400F491C0129E2D9327802F03F02EA
S3150FE12960382A34BFC2F13802C2F1780201E00D48CC
S3150FE1297015E00C9F23A10196009523460020FFF752
S3150FE1298077FF019600952346082202A90020FFF75B
S3150FE129906FFF202221463846FFF79CFA002007B049
S3150FE129A0F0BD000080AFFFFF6821FFF78FBA00216E
S3150FE129B00160416000207047E0B500F12803009304
S3150FE129C0019000F108030020FFF752FF0EBD80B51D
S3150FE129D00091034603F1280203F108010020FFF7F6
S3150FE129E097FF02BD6A09E667BB67AE853C6EF37278
S3150FE129F0A54FF53A510E527F9B05688C1F83D9ABD4
S3150FE12A005BE0CD198000000000000000000000002F
S3150FE12A1000000000000000000000000000000000C0
S3150FE12A2000000000000000000000000000000000B0
S3150FE12A3000000000000000000000000000000000A0
S3150FE12A400000000010B50A684B688C68C96802601F
S3150FE12A5003600460016010BD10B502680368046885
S3150FE12A6000680A608C604B60C86010BD38B50446DB
S3150FE12A700D46FFF7E7FF05F110012046BDE83440AB
S3150FE12A80E0E738B504460D46FFF7E6FF05F110011D
S3150FE12A902046BDE83440DFE7082250F8041B21B990
S3150FE12AA0521EFAD10020C0B270471000FBD00120B0
S3150FE12AB0F9E7F8B500F065F90746294604F584709C
S3150FE12AC0FFF7D4FF314604F58670FFF7CFFF38469F
S3150FE12AD000F094FEDFF8DC0620650121616560698F
S3150FE12AE0000E00F0010080F00100F2BD2DE9F84F74
S3150FE12AF088B004460D4692461E4600F082FE834696
S3150FE12B0004F5827705F1400100F035F904F5867891
S3150FE12B10514600F029F904F588790AF12001484672
S3150FE12B20FFF7A4FF00F022F900F038FAA065E1659E
S3150FE12B3004F5847A00F065FE8346294600F01BF919
S3150FE12B4005F120015046FFF791FF05F14001484697
S3150FE12B50FFF78CFF00F00AF9DFF85C06DFF85C1689
S3150FE12B60206561650120A06504F5807900F049FED5
S3150FE12B70834606F140014846FFF783FF6946504613
S3150FE12B80FFF77FFF00F0F2F800F03BFE834600F01F
S3150FE12B90EAF800F0EBF8DFF82806DFF828162065EB
S3150FE12BA061650121DFF8200600F0E7F8804600F0C5
S3150FE12BB0E0F800F02BF9DFF81406DFF8141600F051
S3150FE12BC021F8054631465046FFF75BFF284600F0F0
S3150FE12BD015FE00F016FE054669463846FFF746FF35
S3150FE12BE0284600F00BFEDFF8EC05DFF8EC1500F0F8
S3150FE12BF009F8044600F0B3F8204600F0FFFD09B0EE
S3150FE12C00BDE8F08F206561650120A06500F0F9BD93
S3150FE12C102DE9F84F98B000F0B4F8804604F58277C5
S3150FE12C2000F0A7F800F0F2F8DFF8B005DFF8B0151D
S3150FE12C302065616504F58078DFF8A805FFF7E5FF04
S3150FE12C40814608A94046FFF71CFF484600F0D6FD2E
S3150FE12C5000F0D7FD814600F086F8484600F0CEFD3C
S3150FE12C60DFF88405DFF88415206561654FF486701A
S3150FE12C70A06504F5867900F0C4FD824610A94846A1
S3150FE12C80FFF7FFFE69464046FFF7FBFE504600F0B1
S3150FE12C90B5FD00F0B6FD824605F1400100F06BF897
S3150FE12CA0504600F0ABFDDFF848052065012161656F
S3150FE12CB004F5847A00F0A5FD834600F0C1FA00F031
S3150FE12CC055F8DFF83005DFF830152065616501212C
S3150FE12CD0DFF8280500F051F8834669465046FFF7BD
S3150FE12CE0C5FE10A94846FFF7C1FE00F03FF8DFF831
S3150FE12CF01005DFF8101520656165DFF80C05FFF7A4
S3150FE12D0084FF8346314604F58870FFF7BAFE00F07B
S3150FE12D102DF800F076FD834600F02BF805F1400122
S3150FE12D205046FFF7A3FE08A94846FFF79FFE00F0BE
S3150FE12D301DF8DFF8D804DFF8D8142065616500F0D7
S3150FE12D4060FD044606F140014046FFF79AFE00F0AA
S3150FE12D5006F8204600F052FD19B0BDE8F08F06F1F6
S3150FE12D60200148468DE6294640467FE6584600F063
S3150FE12D7045BD05F12001384678E6A065E16500F02D
S3150FE12D8040BD04460D46164600F03BBD2DE9F04128
S3150FE12D9005460E461C46174620212046FFF796F8B4
S3150FE12DA00122226000F02DFD8046394605F580703F
S3150FE12DB0FFF75CFE314605F58270FFF757FE05F525
S3150FE12DC0847621463046FFF751FE00F01FF8DFF813
S3150FE12DD0440428650BE0DFF84014DFF84004296569
S3150FE12DE06865DFF83C14DFF83C04A965E8656869B6
S3150FE12DF0C101F0D500F005FD054621463046FFF746
S3150FE12E0040FE2846BDE8F04100F0F8BC404600F030
S3150FE12E10F5BC50F8043B934203D007E050F8042B7E
S3150FE12E2022B9091F0129F9DA0120704700207047FD
S3150FE12E302DE9F04188B004460D4616469846202105
S3150FE12E406846FFF743F80122009220214046FFF73B
S3150FE12E503DF8202108F12000FFF738F8202108F18D
S3150FE12E604000FFF733F80521204600F0CFFC0020A4
S3150FE12E70206020636063FF2700F040F802D47F1ED5
S3150FE12E80002FF9DC002F36D4424641462046FFF7A4
S3150FE12E90BFFE00F033F82CD5002220214046FFF784
S3150FE12EA0B8FF00B30022202108F12000FFF7B1FFA0
S3150FE12EB0C8B10022202108F14000FFF7AAFF90B127
S3150FE12EC0202229464046FFF715F8202205F1200179
S3150FE12ED008F12000FFF70EF82022694608F14000BD
S3150FE12EE0FFF708F805E043462A4641462046FFF735
S3150FE12EF0FDFD7F1EC6E708B0BDE8F081381107EB8F
S3150FE12F00D060401156F82010A7EB4010C140CA0718
S3150FE12F1070472DE9F0410F4690B00446154605215D
S3150FE12F2000F074FC0022226022636263684620226D
S3150FE12F300FF22031FEF7DEFF08AB6A4607F14001DB
S3150FE12F402046FFF723FF00F05CFC804608A904F555
S3150FE12F508270FFF78BFD04F5867639463046FFF72B
S3150FE12F6085FD07F1200104F58870FFF77FFDFFF777
S3150FE12F704DFF00F013F8FFF700FF074605F12001BB
S3150FE12F8004F58070FFF77DFD29463046FFF779FDA1
S3150FE12F90384600F033FC10B0BDE8F0818F48A24906
S3150FE12FA0206561650121A148704738B50D46044694
S3150FE12FB02021FEF78BFFFFE71F204242295C2244C7
S3150FE12FC0401ED177F9D531BD2DE9F04FB9B007469E
S3150FE12FD00C4616461D4621A86021FEF777FF09A884
S3150FE12FE06021FEF773FF3CB1009528001CBF429D9F
S3150FE12FF0002D01D0002E02DC40F20160D5E0002069
S3150FE130003860386378630C2178680FF23C2840F01A
S3150FE1301010007860384600F0F9FB786820F44060DC
S3150FE1302040F4006078602022786820F4407040F424
S3150FE130300070786008F12C0111A8FEF75BFF11AA69
S3150FE1304029463846FFF735FD78B92846FFF724FDBF
S3150FE1305058B111AA05F120013846FFF72AFD20B92B
S3150FE1306005F12000FFF718FD10B940F202609CE070
S3150FE13070202EC8BF2026202119A8FEF727FF002002
S3150FE1308014E0321A521E09A99208A6F1010E01EBBC
S3150FE130908201AEEB000E235C0A6C4FEACE0E0EF008
S3150FE130A0180E03FA0EF31A430A64401CB042E8DB2A
S3150FE130B000F0A7FB064607F5847419A92046FFF72A
S3150FE130C0D5FC304600F09AFB5948386507F580760E
S3150FE130D000F097FB814619A93046FFF7D2FC484627
S3150FE130E000F08CFB01AB11AA05F120013846FFF781
S3150FE130F04DFE00F086FB834601A907F58270FFF7C7
S3150FE13100B5FC07F5887919A94846FFF7AFFC07F52E
S3150FE13110867A00F095F8FFF729FE46484649386565
S3150FE13120796500F06EFB834619A94846FFF7A9FCBE
S3150FE1313001A93046FFF7A5FCFFF718FE21AB19AA47
S3150FE1314008F14C013846FFF773FE009909AB01AA66
S3150FE131503846FFF76DFE21AA21A93846FFF7D9FEBA
S3150FE1316009AB21AA09A93846FFF7C0FC09AA09A9A3
S3150FE131703846FFF7CEFE00F044FB06460C213846F3
S3150FE1318000F044FB09A92046FFF770FC00F058F860
S3150FE13190304600F033FB294822493865796578696D
S3150FE131A0C1014CBF002040F2046039B0BDE8F08F99
S3150FE131B0000000003035DA10D01482CB1481E11C07
S3150FE131C08CE11C811C84D91C8391D11CE014D81489
S3150FE131D01482E11C84D31482D11CE0148AD11C81A0
S3150FE131E0821CC00C0C0C0100C00C0C83D91C83D8BB
S3150FE131F08AD11C83DA0C811482D11C81C80C0C8113
S3150FE132008CE11CD01484E31482D11C01D81483D130
S3150FE132101CC00C0139398401D02484FC1C82FED8F0
S3150FE132208B1C81A039380100D91C83D11C81E11C8B
S3150FE1323030D00C0130E11C8430D91C013035DA1461
S3150FE1324029465046FFF712BC20000000000100009E
S3150FE13250050C0000FFFFFFFFFFFFFFFFFFFFFFFF73
S3150FE132600000000000000000000000000100000067
S3150FE13270FFFFFFFF512563FCC2CAB9F3849E17A76F
S3150FE13280ADFAE6BCFFFFFFFFFFFFFFFF0000000007
S3150FE13290FFFFFFFF96C298D84539A1F4A033EB2D76
S3150FE132A0817D0377F240A463E5E6BCF847422CE162
S3150FE132B0F2D1176BF551BF376840B6CBCE5E316BA6
S3150FE132C05733CE2B169E0F7C4AEBE78E9B7F1AFE6A
S3150FE132D0E242E34FFDF7E2BEFDF7F8BF10B500F0AE
S3150FE132E00DF804F1806404E010B500F007F804F17D
S3150FE132F0C064012303FA01F1216010BD30221E4B98
S3150FE133005043184400F10C047047F8B505461746CB
S3150FE1331038000E461C4607D0002C284602D0FFF790
S3150FE13320E3FF01E0FFF7DAFF2A4630201249424375
S3150FE1333088180F22082E05D2B300416800F015F860
S3150FE13340416006E0A6F108039B00816800F00DF8E5
S3150FE1335081604FB9002C3146284602D0BDE8F440D2
S3150FE13360C2E7BDE8F440B9E7F1BD9A4021EA0202AE
S3150FE1337007FA03F11143704700A0004010B5144955
S3150FE13380086800F00700022808BF124A18D0124B4E
S3150FE133901868C0F30440112828BF104A10D200BFA5
S3150FE133A011A20F4C125C0F484243A24208D11B688F
S3150FE133B05B0E012003F0030322469840B2FBF0F2C5
S3150FE133C0C86EC0F30420401CB2FBF0F010BD000044
S3150FE133D094400E4000F0490210400E40C0EA210130
S3150FE133E000093D0040420F000400000700000D10E8
S3150FE133F013001A20263038404800000001690A06FA
S3150FE13400FCD506E002695306FCD5416301698A06DC
S3150FE13410FCD5C069C0B2704702695306FCD541635A
S3150FE134207047FEE7890001EB401101F184410A6023
S3150FE13430704710B50A684B688C68C968026003600B
S3150FE134400460016010BDF4E71FB5044611F00300F7
S3150FE1345008D010226846FEF73DFD69462046FFF784
S3150FE13460F2FF1FBD009120460099FFF7ECFF1FBD4C
S3150FE1347010B502680368046800680A608C604B60E7
S3150FE13480C86010BD1FB50C4614F0030108D069469C
S3150FE13490FFF7EEFF102269462046FEF71BFD1FBD23
S3150FE134A000940099FFF7E4FF1FBD38B5102A0446D3
S3150FE134B00D460DD101220021FFF7B4FF04F5887403
S3150FE134C029462046FFF7B5FF05F11001204606E034
S3150FE134D000220021FFF7A6FF294604F12400BDE8EB
S3150FE134E03440A6E738B5044611F0030088B0154617
S3150FE134F00CD0082D0CBF102220226846FEF7EAFCFD
S3150FE135002A4669462046FFF7D0FF04E000912046A0
S3150FE135100099FFF7CAFF09B030BD2421FEF7D6BCEB
S3150FE1352070B50D4600F010F8802E18BFB6F5807F06
S3150FE1353002D06FF0710070BD2660F2082946201D9A
S3150FE13540FEF7C8FC002070BD044616462421FEF79F
S3150FE13550BDBC594605F1800094E7011D2846C1E738
S3150FE13560484600F04BB92DE9F64F83B0002A14BF58
S3150FE13570146800240190002702680F9EDDF8408051
S3150FE135800091802A18BFB2F5807F029304D06FF0C5
S3150FE13590200068E000F070F8009887425FD2002CB7
S3150FE135A0F8D100F068F90546002068604FF4404114
S3150FE135B029604FF0000A00F024F98146019801686D
S3150FE135C080290CBF08221022FFF7C7FF029905F1E8
S3150FE135D08400FFF739FFFFF7C3FF0098A0EB070958
S3150FE135E013E000F043F80AF1010A00F00AF9834605
S3150FE135F0F11905F1A000FFF727FF08EB0701FFF728
S3150FE13600A9FF584600F0FAF81037BAEB191F15D291
S3150FE136104820A8600521A960E3E76CB94820A860B6
S3150FE136200521A96000F022F800F0EBF881460E992A
S3150FE13630FFF790FFFFF794FF00F01EF80098C01B0D
S3150FE13640EBD100F0DEF88146029905F18400FFF730
S3150FE1365019FFFFF785FF284600F018F99CE7049854
S3150FE1366000B10460002005B0BDE8F08F286981073D
S3150FE13670FCD40320A86070470E9AF15D105D4140BE
S3150FE1368008F80710641C04F00F047F1C7047FEE76F
S3150FE1369010B50A684B688C68C968026003600460FC
S3150FE136A0016010BD10B502680368046800680A601E
S3150FE136B08C604B60C86010BD38B504460D46FFF708
S3150FE136C0F1FF05F110012046BDE83440EAE72DE9A7
S3150FE136D0F84F98B006460C4690469A4600F0CBF85E
S3150FE136E0002E054650D10420286000216960E96467
S3150FE136F0686820F44060686029630020686354F8C5
S3150FE13700201009BA4DF82010401C0828F7D300F015
S3150FE1371078F8044605F5827669463046FFF7B8FF35
S3150FE1372004A93046FFF7B4FF204600F067F82F48AB
S3150FE1373028650027229C05F5D276A74240D218F0DC
S3150FE13740030008EB871906D04022494608A8FEF781
S3150FE13750C1FB0DF1200900F054F88346494600F00C
S3150FE137604BF809F1100100F047F809F1200100F0DB
S3150FE1377043F809F1300100F03FF8584600F03EF802
S3150FE137801B4828657F1CD8E71A4816E000F039F880
S3150FE13790044651463046FFF78FFF204600F02EF8DC
S3150FE137A0284600F073F800205AF8201009BA4AF8B3
S3150FE137B02010401C0828F7D3002019B0BDE8F08F80
S3150FE137C01AF0030005F58076E0D000F01AF804460A
S3150FE137D069463046FFF770FF204600F00FF82022CA
S3150FE137E069465046FEF776FBDAE70000888AC8019C
S3150FE137F0070D810180AFFFFF304649E700B962B699
S3150FE138007047EFF3108072B67047FEE742685209D0
S3150FE13810042941EA42120AD9491F022905D9C91ECB
S3150FE13820032904D9091F022902D842F01002426086
S3150FE138307047002202604FF0FF33012202E040F8A9
S3150FE138402230521C8A42FAD30020704700680028C2
S3150FE1385018BF10F1010F02D040F20450704700205B
S3150FE13860704740F202507047890001EB401101F1B8
S3150FE1387084410A60704780B5FFE7012200210C48B9
S3150FE13880FFF7F2FF0B4802BD00000000094988422D
S3150FE1389008D1002009A101EBC003002259680448B1
S3150FE138A0E2E7704704498842FBD10120F2E70000C5
S3150FE138B0B0400E4000000F4000040F4000000F40E3
S3150FE138C00000000000040F40010000000449054814
S3150FE138D008600548026842F4700202607047000012
S3150FE138E008ED00E00008E10F88ED00E04EF68851A3
S3150FE138F0CEF20001086840F470000860BFF34F8F05
S3150FE13900BFF36F8F4FF00070E1EE100A70470000C2
S3150FE1391000F00DF8002801D0AFF30080AFF300807F
S3150FE139200020AFF30080FEF7DBFB00F002F8012089
S3150FE13930704700F001B800000746384600F002F87C
S3150FE13940FBE700002021090326311820ABBEF9E77A
S3150FE1395080B5FFF7BBFFFEF729FCBDE8014000F09C
S3150FE1396000B8AFF30080FFF7C1FFFFF7D1FF00000B
S3090FE13970000000005D
S7050FE139636E
