S0370000626F6F746C6F616465722D756172742D62676170695F62676D32323070633232686E615F62726434333134612D6372632E733337B9
S31500000000201300204D360000DF060000311E0000E0
S31500000010D7070000BB0B0000230C00000000000007
S315000000200000000000000000200100005B1000003E
S315000000306310000060010000971000002715000003
S31500000040000000000000000000000040FFFFFFFF6E
S315000000500000000100000000000000000000000099
S31500000060FFFFFFFFFFFFFFFFFFFFFFFFFFFFFFFF9A
S3150000007000000000FFFFFFFFFFFFFFFFBCE6FAAD39
S31500000080A7179E84F3B9CAC2FC6325516B17D1F238
S31500000090E12C4247F8BCE6E563A440F277037D8194
S315000000A02DEB33A0F4A13945D898C2964FE342E22E
S315000000B0FE1A7F9B8EE7EB4A7C0F9E162BCE33579C
S315000000C06B315ECECBB6406837BF51F5FFFFFFFF01
S315000000D00000000100000000000000000000000019
S315000000E0FFFFFFFFFFFFFFFFFFFFFFFC5AC635D8EC
S315000000F0AA3A93E7B3EBBD55769886BC651D06B064
S31500000100CC53B0F63BCE3C3E27D2604B4C000000B1
S31500000110C0000000000000000000100020000000E9
S3150000012007B0CD5E0100000000000C01B4370000EE
S315000001300060000000000800F00010001B20000016
S315000001401F200000652700006B3600009D3600006A
S3150000015000000000D73600003B370000000000001A
S3150000016013B779FAC925DDB7ADF3CFE0F1B614B808
S315000001700101000002000000B0370000400000004E
S3150000018000000C010000000000000000000000005C
S315000001900000000000000000000000000000000059
S315000001A070B5884C4FF0806020604FF4007121607C
S315000001B00122854B1A60854D40F6AA60E860002151
S315000001C02960696541F205006860A9606961696432
S315000001D07F4A804B1A60804E3160B1613161B160F7
S315000001E0F16068602868286000F036F97B49096884
S315000001F001230422C1F38021491CB0FBF1F04FF426
S31500000200E111400100F56120B0FBF1F1744820399D
S3150000021000EAC10068610521002000F073F901239E
S3150000022001220621002000F06DF9142030604FF401
S31500000230A020B0614FF4C02131610522EA6003219C
S315000002402160684901220A604FF0F0534B60002498
S315000002500C624C63CC630C65634A10606EA0CC657F
S3150000026080088C658000C866604B536060484460B7
S31500000270046003205F4A106001244C6402205E493A
S31500000280086070BD70B50E4605461446802E02D332
S3150000029041F2031070BD00F025F810B941F20620B6
S315000002A070BD0020554902E02A5C0A54401CB04249
S315000002B0FAD3D1F88000761E022266F30E10C1F83A
S315000002C08000803189084E488900816502603CB112
S315000002D000F008F80028FBD04A4801688A06FBD5DA
S315000002E0002070BD4849CA684248930703D50222D8
S315000002F00A60026004E049688A0703D402210160AB
S3150000030001207047002070474048006840F2011104
S31500000310884208BF002007D040F2022188420EBF63
S315000003204FF480703A49401A3A4A1168814201D125
S315000003300020704701D2401A7047C1F5007140187D
S3150000034070472DE9F04107468846154600268BB1D1
S31500000350069C2CB100F014F90021204600F02DF97E
S31500000360FFF7D2FF404505D2002CF9D000F03CF94A
S315000003700028F5D0FFF7C8FF804505D8404603E0C2
S3150000038000230B6002211160864212D221490B68BC
S315000003901F4AD45C5B1C184ABC55761C0B60B3F52F
S315000003A0007FEDD0B3F5807FEED10121EBE7BDE80C
S315000003B0F08105B12E60464534BF41F2042000208D
S315000003C0F5E700006490004004100640080006406F
S315000003D0FFFF0100482006403CC6034070800040F5
S315000003E0F8FF7F00040004400040044002000500BE
S315000003F08C0004403420044010100440800000208B
S315000004004800044018000640280004406C000440E0
S315000004101001002018030020F00F100324000640EE
S315000004201001002013000000090000000001000078
S315000004300202000013000000F00F10032400064023
S315000004401002002013000000090000000002000056
S3150000045001010000D3FFFFFF10B51649086800F040
S315000004600700032808BF144A1CD04FF48020134A03
S315000004701060134B1868C0F30440112828BF114AB6
S3150000048010D200BF12A2125C0F48104C4243A24287
S3150000049008D11B68012022461B0E03F00303984077
S315000004A0B2FBF0F20868C0F30330401CB2FBF0F078
S315000004B010BD00007080004000F0490264900040CA
S315000004C008000140C0EA210140420F0000093D003A
S315000004D00400000700000D1013001A2026303840D3
S315000004E0500000003022504310B50123214C04E097
S315000004F03022504310B501231F4C03FA01F120446A
S31500000500016110BDF8B5054617460E461C46380073
S3150000051007D0002C284602D0FFF7EAFF01E0FFF7DC
S31500000520E1FF2A4630204243144988180F22082E3C
S3150000053005D24168B30000F015F8416006E0A6F167
S315000005400803C1689B0000F00DF8C1604FB9002C8C
S315000005503146284602D0BDE8F440C9E7BDE8F4407C
S31500000560C0E7F1BD9A4021EA020207FA03F11143FE
S315000005707047000000E0034000D0034000C0034085
S31500000580F8B5102022490860FFF766FF4FF47A722B
S31500000590B0FBF2F01F491022800A48604FEA0D00B6
S315000005A021A100F059F840F2FF30ADF8020069468B
S315000005B0194800F0A8F805B000BD30B5174BDD6846
S315000005C0144C626802FB0050ADB260806088A8429D
S315000005D09241D20F227011B1D9688142FCD101201B
S315000005E00F4C2060186030BD0E490A68094B187818
S315000005F002F0010210B122B9002070470AB10120B1
S3150000060070470869598888428041C043C00F7047C7
S3150000061064900040100300200080044018800440CD
S3150000062014A00440148004400100000000000000F3
S31500000630000000000000000062B38B0708D0521EC5
S3150000064011F8013B00F8013B00F024808B07F6D13E
S31500000650830740F0208000BF103A07D330B4B1E8DA
S315000006603810103AA0E83810F9D230BC530724BF2E
S31500000670B1E80810A0E8081044BF51F8043B40F860
S31500000680043BD20724BF31F8022B20F8022B44BFCB
S315000006900B7803707047121F17D35B0009D151F80E
S315000006A0043B20F8023B1B0C121F20F8023BF6D23B
S315000006B00BE051F8043B00F8013B1B0A20F8023B13
S315000006C01B0C121F00F8013BF3D238BF121D521E3D
S315000006D024BF11F8013B00F8013BF8D87047FEE74C
S315000006E0DFF8D01088421CBF334A904207D0334906
S315000006F088421FBF324A90423249884201D10120C6
S31500000700704700207047F8B504460D46FFF7E8FF2E
S31500000710204600F059F8012142F23002A1506878D3
S3150000072095F804E00028A87A4FEA0E2E14BF40215F
S3150000073000210028E87A14BF802200220028287BA6
S3150000074014BF202300230028687B14BF1026002630
S315000007500028A87914BF082700270028B5F9020049
S315000007604EEA804E687A14BF4FF4803C4FF0000C7E
S3150000077040EA0E00014311431943314339434CEA21
S3150000078001016160012141F23002A150287808B9C7
S315000007900221E16000226262697901B11021EA79E1
S315000007A02B7A43EA82031943A16008B10120E06075
S315000007B0F1BD00000080044000C004400000054078
S315000007C00040054000800540016BCA0702D501695B
S315000007D04A06F9D47047FEE7024870470248704758
S315000007E0024870474CE307006CE3070086E2070007
S315000007F0002A00D170471CB5049C009400F058F9FB
S3150000080016BD30B501B1491E524DAC68C4F3004463
S31500000810002CF9D140EA0120120702F08052104361
S31500000820184340F00040286030BDF7B51C46084626
S31500000830844286B098BF20460600079018BF002C59
S315000008401DD00E99444D002005EB412505900494DA
S31500000850AF1B0397029606AB81B000F05BF808BCAD
S3150000086003AF97E8070000F062F9A64207D2A21B81
S31500000870281B09B00021BDE8F04000F053B909B0CB
S31500000880F0BD77B51C461346D8008DB0149D43BF06
S31500000890CA1C92089200620000F01BF801A86D02C3
S315000008A000F01DF92C4900F019F805F5213500F086
S315000008B00CF8291B09A8FFF79BFF09A800F00FF900
S315000008C005A901A813E024484119009600232246F1
S315000008D070470D990026009601A889E749190096E8
S315000008E000232246091B05A805F1984580E700F07C
S315000008F0C0F810B070BD17B587B000F017F80293B6
S3150000090007AB03910021059181B000F003F808BC04
S3150000091003AC05E006CB684606C01968016070475F
S3150000092094E8070000F003F90AB010BD0C980B49D3
S31500000930049301EB4021704709490120086048688B
S31500000940C0F300400028FAD148684FF6F07108401D
S31500000950704700000420024C0082024C0080024CCA
S315000009600820024C2DE9F84187B014460DF1100E0F
S315000009700E9D0F9E01900293039400278EE80700B8
S31500000980984608FB07F00599884218D21EB9022F2F
S3150000099018BF032F0CD00DF1040C002D0097434611
S315000009A09CE8070002D1FFF7A6FF01E0FFF73DFF35
S315000009B0E00002D40199414401917F1CE1E708B0AF
S315000009C0BDE8F0810160704738B50C4601463148F4
S315000009D0FFF7F8FF304D21462846FFF7F3FF0320C7
S315000009E0686231BD0FB470B50A9C1546A14238BF86
S315000009F00C46E80002D5E41CA408A400254E1946BE
S31500000A003046FFF7DFFF099824F0704405F0E04513
S31500000A1000F0E040204340F00050B0600020F0605D
S31500000A2004991D4E30462C43FFF7CCFF44F000548A
S31500000A30B4600020706270BC5DF814FB17483F215B
S31500000A404161102202600323C361704714480168A4
S31500000A508A07FCD470471348016811F0240F11BFB0
S31500000A60406941691048014202D001210F480160E6
S31500000A70704780B5FFF7A8FF08483F214161102263
S31500000A8002600323C361016A8A07FCD4BDE8014002
S31500000A90E1E700000000024C1000024C1C00024C72
S31500000AA03C00024C2800024C1000FFFFFCFFFF3FF9
S31500000AB010B500F110044460016022F070428260BB
S31500000AC00029816804D003F070430B43836002E081
S31500000AD041F0804181600299C160103010BD012152
S31500000AE04160C26842F02002C260816841F0005154
S31500000AF081607047C268D30658BFC268C36803F0F6
S31500000B000F035B1E02D09B1E012B08D8C26801F0A2
S31500000B101F0142EA0122C26082688918816070471B
S31500000B20FFF78ABD13460A46194600F047B80FB4C8
S31500000B307FB5510038D40E9C099D0D98A54238BF4B
S31500000B402C46C10003D40C99A14238BF0C465CB3B5
S31500000B50102C11D302940BAB81B000F028F808BC1E
S31500000B6008AC94E80700FFF73DFFFFF767FFFFF7C4
S31500000B706DFFFFF770FF17E0C00010D50026A642F4
S31500000B8012D20B98AA1B042A0168089828BF0422CF
S31500000B90009169463044FFF7C3FF361DEFE708981A
S31500000BA022461946FFF7BCFF7FBC5DF814FB06CB57
S31500000BB0684606C0196801607047FEE762F30F22B7
S31500000BC062F31F42401810F0030308D0C91A1FD35E
S31500000BD0DB0748BF00F8012D28BF20F8022D1300BF
S31500000BE030B414461546103928BF20E93C00FAD81F
S31500000BF0490728BF20E90C0048BF40F8042D8900AA
S31500000C0028BF20F8022D48BF00F8012D30BC7047E0
S31500000C10C91818BF00F8012DCB0728BF00F8012D11
S31500000C207047FEE74368DFF8D820102B04D0182B56
S31500000C300ED0202B14D01CE01268D30113D5026805
S31500000C40DFF8C0309A4216D10A6842F0400218E036
S31500000C501268930107D50A6842F008020A60EEE7B7
S31500000C6013685A0101D4012070470A6842F0040251
S31500000C70F4E7072070475B1C9A4205D10A6842F0E8
S31500000C8080020A60002141600020704738B500F0FC
S31500000C9014F801D4012032BD00920246002108E07A
S31500000CA038B500F00AF801D4012032BD00920246A0
S31500000CB00121002000F049F832BD0B46DFF8401054
S31500000CC00C68E50770477FB500F011F858BF0120A2
S31500000CD003D500F004F800F00FF804B070BD089CCE
S31500000CE00293019200910346039402227047DFF8B3
S31500000CF0104025686E0770470021002000F059B8A3
S31500000D000404024C1C0300207EB56B46002400251B
S31500000D10002683E87000019200916A4692E8380046
S31500000D2080E8380077BD002A00D170471CB5049CC6
S31500000D300094FFF7BDFE16BD80B500938B68134384
S31500000D404A680968FFF7EFFF02BDFCB58BB05C6827
S31500000D5014F00F0F04D11CB1129D6E68A64201D08B
S31500000D60072018E0DFF8186196E880500FF20814A3
S31500000D7054F8211008AC84E8805008AE0796069611
S31500000D80029508AF019308AD41F48071059404966D
S31500000D90039700F054F80DB0F0BD0696059604973B
S31500000DA0039602920193009108AB2246294600F071
S31500000DB069B82DE9FC438BB000F022F845F0300508
S31500000DC011F00F0F0CD159B1159A56688E4202BF19
S31500000DD016994E68102E02BF179E7768102F01D005
S31500000DE007200AE0DFF898C09CE80043079608AFA2
S31500000DF008AE87E80043FFF7D0FF00F032B80000E6
S31500000E001C46149B0FF2700555F8215002A656F8A1
S31500000E1022100D43596870470001000000020000CF
S31500000E200004000000080000001000000020000080
S31500000E3000400000008000000000010002940095C0
S31500000E4008AB1FE001D007200BE0DFF834C09CE8B8
S31500000E500043079608AF08AE87E80043069600F001
S31500000E6003F80DB0BDE8F083059604970396019349
S31500000E700294009508AB05E00000000001000000A8
S31500000E80400000002DE9F24FCEB0044615469A46C2
S31500000E9004224EA913A8FFF737FF95E84C000CA9CA
S31500000EA0002C81E84C0040F0D0804EA90CA8FFF73A
S31500000EB0B9FE002840F0C680599D5B9EDDF870B1F2
S31500000EC095E80E0009A85A9C80E80E007068DBF8C9
S31500000ED004606F68C0F11000861B5D98C7F11007AB
S31500000EE006F00F06D0F80480A06807F00F07C8F1D7
S31500000EF0100808F00F08C10004D56068C01C8008FF
S31500000F0080006060DDF87891D9F80800C10006D548
S31500000F10D9F80400C01C80088000C9F804005B985A
S31500000F2000214268DBF804008218B21806A8FFF711
S31500000F30EBFE6268002103A800F089F8D9F80420C6
S31500000F400021684600F083F80FA8102100F086F80B
S31500000F506868002802BF5D99486800280DD15B9932
S31500000F604868002804BFDBF80400002805D11022D9
S31500000F700FA909A81027FFF7C7FE5F9D11234FF0A1
S31500000F80005213A92EA8FFF7D7FE40F611034FF023
S31500000F9000520CA9FFF7D0FE589942F611034FF004
S31500000FA00052FFF7C9FE44F611034FF000525146B6
S31500000FB0FFF7C2FE5B9941230022FFF7BDFE360212
S31500000FC046F041034FF000525946FFF7B5FE3F0287
S31500000FD047F001034FF0005209A9FFF7ADFE4FEAB3
S31500000FE0082141F001035D994FF00052FFF7A4FE7E
S31500000FF01038FFF774FD0023002206A916A8FFF794
S315000010009BFE002300222146FFF796FE00230022C6
S3150000101003A9FFF791FE002300224946FFF78CFE45
S31500001020002300226946FFF787FE00230022294697
S31500001030FFF782FE1038FFF752FD16A92EA8FFF71C
S3150000104018FD00204FB0BDE8F08F0720FAE7C2F187
S31500001050100202F00F02FFF757BEFEE7002200F073
S3150000106001B8FEE700B500BF130096469446103956
S3150000107028BFA0E80C50FAD85FEA417C28BF0CC014
S3150000108048BF40F8042BC90728BF20F8022B48BFE9
S3150000109000F8012B00BDFEE77EB56B460024002557
S315000010A0002683E87000019200916A4692E83800B3
S315000010B080E8380077BD002A00D170471CB5049C33
S315000010C00094FFF7F5FC16BD2DE9FF4FB7B038AA1F
S315000010D092E8380004A981E8380005466E1E964855
S315000010E0062E00F2E980DFE816F007000C0011007A
S315000010F016001B00200026000168CA0767D50121DB
S315000011001DE00268910762D5022212E001684A07D3
S315000011105DD5042113E00268110758D5082208E0BE
S315000011200168CA0653D5102109E0026891064ED51A
S315000011302022019204E001684A0648D54021019127
S31500001140449C02A90022C1E90022012C02D0022CF3
S3150000115037D067E00068C10339D501984FF003081E
S3150000116040F4C060019039926A1E062A58D8DFE81A
S3150000117002F0682624222004220040261320009034
S315000011804FF00053042201A90FA8FFF794FF059F13
S31500001190069B0499CDF8008043F000533A46FFF7CA
S315000011A087FC4FF0000BDA46DDF81481DDF8189164
S315000011B059E03026E2E72026E0E71C26DEE7142683
S315000011C0DCE701688A0302D50068C10301D4012067
S315000011D0AEE0DDF8E480B8F1000F04D0C8F10008F5
S315000011E008F0030806E0042202A904A84FF0040848
S315000011F0FFF752FF01994FEA082040F0A30841F497
S31500001200E0610191691E06290AD8DFE801F01A0893
S31500001210070605040600B0E7CBE7CCE7CDE7CEE747
S315000012200026ABE7681E4FF063080628F8D8DFE80B
S3150000123000F00807060605050600F1E79DE7BAE790
S31500001240BDE710269AE70C2101FB0BF1032308F1F9
S3150000125004025258414400938B68096892440BF18A
S31500001260010BFFF728FFCB45EDD3032C26D1691ED2
S3150000127006290ED8DFE801F00B080606040406006E
S31500001280402107E0202105E014213F220FE0102134
S31500001290FBE700216D1E032DF7D92D1F012D02D965
S315000012A0AD1EF2D001E07F2201E04FF0FF328F4207
S315000012B008BF1AEA020F01D0072039E0BAF1000F81
S315000012C009D1032100910023002202A94FF0040A4C
S315000012D0FFF7EEFB08E01AF0030F1ABF0AF0030A45
S315000012E0CAF1040A4FF0000AA0F110042046FFF7E5
S315000012F0F6FB51462046FFF7FDFB48983446499BCE
S315000013008642479988BF044600200090224607A8D7
S31500001310FFF7D1FE002100910023321BFFF7CBFE21
S315000013201038FFF7DCFB07A90FA8FFF7A2FB002088
S315000013303BB0BDE8F08F00000C04024CFEB586B051
S3150000134006A914C903AB012514C30C6806A90EAE81
S315000013501C600EC90327029501960097FFF7B4FE9D
S3150000136009B0F0BD7EB56B4600240025002683E853
S315000013707000019200916A4692E8380080E83800D1
S3150000138077BD2421FFF76ABE70B50D4604461646A2
S315000013902421FFF763FE802E1CBFC02EB6F5807F8A
S315000013A002D06FF0710070BD2660F2082946201D3C
S315000013B0FFF742F9002070BD78B589B014460129BF
S315000013C002681D460CBF01260226802A18BFC02AC5
S315000013D005D0B2F5807F18BF6FF0710023D1011DD3
S315000013E0D20806A8FFF7BEFF1022214603A8FFF782
S315000013F0B9FF102229466846FFF7B4FF00F094F8BB
S3150000140088B9012E6A4603A906A802D1FFF73EFC59
S3150000141001E0FFF745FC044600F094F8002C14BFE9
S315000014206FF0240000200AB070BD002A2DE9F64FA7
S315000014308FB014BF146800240290026800250E467F
S31500001440802A18BFC02A05D0B2F5807F18BF6FF07A
S3150000145071005BD1011D9946D2080CA8FFF782FFE7
S315000014601022494603A8FFF77DFF01961A9E1B9F8F
S31500001470DDF8708001E000F04CF80198854241D219
S31500001480002CF8D1401B000924D04FEA001A52461E
S31500001490791909A8FFF766FF524608EB050106A869
S315000014A0FFF760FF00F040F880BB03A8009003AB95
S315000014B006AA09A90CA8FFF706FC834600F042F825
S315000014C0BBF1000F08BF554404D06FF024001DE0A7
S315000014D000F01FF80198401BCFD0002CF8D10298DD
S315000014E033464A460121FFF767FF0020414249443F
S315000014F0CA7B521CCA73D2B2002AE9D1401C0F28FB
S31500001500F4D9E5E7109800B10460002011B0BDE8F9
S31500001510F08F795D305D641C04F00F04414008F8DB
S3150000152005106D1C7047FEE70E48016841F4005136
S3150000153001600D48026842F001020260016841F054
S3150000154002010CE00748016821F4005101600648D9
S315000015500268520852000260016821F0020101602F
S315000015600020704768800040608200401CB54FF044
S315000015708060174C20600123042207210220FEF719
S31500001580C1FF0021009102E00098401C00900098E5
S315000015906428F9DB0123022207210220FEF7B2FFAD
S315000015A0002001E00098401C00900098B0F5FA7FFA
S315000015B0F8DB08490C680123002207210220E40910
S315000015C0FEF7A0FF04F0010484F0010016BD00BF81
S315000015D06490004074C00340002342090AD0012AE7
S315000015E008BFDFF82C3005D0022A0CBFDFF8243004
S315000015F0DFF82430002900F01F0014BF03F58053E4
S3150000160003F50053012101FA00F01860704700004D
S3150000161064800040688000406082004070B5544A93
S31500001620544B554C246865070CD4C60701D41C429C
S3150000163009D100EA04058D4208D0521EF1D16FF09F
S31500001640020070BD06E06FF0010070BD1C42FAD1C9
S31500001650002070BD4FF0FF3070BD70B500F01FF870
S3150000166041F67131454C0122474BE568E1621A604B
S31500001670606002262660002121202D0CFFF7CEFF98
S3150000168005F00105010003D100212120FFF7C6FF67
S3150000169001213C4A11600DB10021E16270BD4FF499
S315000016A00031374A116070472DE9F047DFF8DC80DA
S315000016B00125C8F800504FF44026354F47F8206002
S315000016C030264643334D002735446F60AF60AF6127
S315000016D04FF400372A4C276041F671342E4E376995
S315000016E0346334683F0C07F0010744F001043460AA
S315000016F0012404FA00FC22E0B1603469640729D4AD
S315000017004FEA9E04641E240144F06054EC602A6192
S31500001710224C6C61C8F820C0214CD4F8009029FAFC
S3150000172000F95FEAC97AF8D51E4CC4F800C0C8F8BB
S3150000173024C00424746071447244A3EB0E0363B1A5
S3150000174001F50054640B6403A4EB010E7345D3D278
S315000017509E46D1E74FF0FF3007E030684008400072
S3150000176030600FB1002030630020BDE8F087000034
S3150000177080969800020001001C0003401000034000
S31500001780689000400C2003400C10034004100440F5
S3150000179000400440580004400C0003401800034079
S315000017A03400044034200440C269042A05D200EB08
S315000017B08202D160C169491CC1617047F0B501461A
S315000017C0C869052800D3F0BD504A12684FF480302E
S315000017D04F4B18604F4B504CD2031C604F4D5D6011
S315000017E05CBF4F4B186022464E4810600B680024C1
S315000017F053604D4B05E001EB8400C56843F8245067
S31500001800641CC8698442F6D30025486800E0406835
S3150000181090B10668002706E056F827C06D1C7F1CAD
S3150000182043F824C0641CD0F808C0CCF3990C674573
S31500001830F2D34668012EEAD1C86945EA006595608B
S3150000184011685068414090684140002003E053F819
S315000018502020401C5140A042F9D343F82410BFF386
S315000018604F8F32490A68324802F4E06202430A6046
S31500001870BFF34F8F00BFFDE710B5244802684FF451
S3150000188080302349D20308602A4B1968254A5CBF79
S31500001890234B18600868904213D10869401DB0F5C3
S315000018A0007F0ED20022002303E051F823405B1C88
S315000018B062408342F9D351F82000904201D10120C1
S315000018C010BD002010BD38B500F00BF85CBF144AFF
S315000018D0106004B910E0FFF7CFFF00B90FE06868A9
S315000018E010E00446094801684FF48030084AC903ED
S315000018F01060104B1D6870474FF4E02032BD4FF466
S315000019007E0032BD2060002032BD000064800040B1
S315000019106490004000C60740004C00A0004E00A0A6
S3150000192064A00040DEC0ECE50C4C00A00CED00E02D
S315000019300400FA0504C607402DE9F8430E46914611
S3150000194080461C46089D099F4FF40051104A1160BD
S315000019500223104803604046FFF713FD3A46294626
S315000019604046FFF711FD08F12400002101600675CD
S315000019700C22494608F13900FEF75EFE08F14500E3
S31500001980210C220A017042708470BDE8F1830000C8
S3150000199068900040609200403EB51C46029201915C
S315000019A000F12805009500F1380300F124022146D4
S315000019B0FFF73BFD37BD30B4002513E050F8042B8C
S315000019C0D30744BFA9F101039A18091F042942F855
S315000019D0045BFAD213468C0744BF15809B1CC907CB
S315000019E048BF1D7050F8041B0029E7D130BC704772
S315000019F07EB56B4600240025002683E87000019220
S31500001A0000916A4692E8380080E8380077BD2DE9F3
S31500001A10F84104000E46AFB01746984618BF002E90
S31500001A2006D0002F18BFB8F1000F01D0369D15B9AA
S31500001A3040F201604AE0062000901FA84021FFF70F
S31500001A400DFB0FA84021FFF709FB4FF40050214979
S31500001A500860032320480360202231460FA8FEF7C2
S31500001A60EBFD2022394617A8FEF7E6FD2022414667
S31500001A701FA8FEF7E1FD2022294627A8FEF7DCFD78
S31500001A8040221FA90CA8FFF7B3FF40220FA909A8FF
S31500001A90FFF7AEFF2022214606A8FFF7A9FF09A8F7
S31500001AA00AC803AA0CAC0AC203686E4606A81360ED
S31500001AB0A0CCA0C6276890E80E000848376000F062
S31500001AC014F80090009808B140F2046030B0BDE808
S31500001AD0F081000068900040609200400C01000018
S31500001AE0686804EB8401884270477FB582B000F0D5
S31500001AF03BF80446452C28BF01202CD2FFF7F0FF07
S31500001B001EBF06226243904207D10B99B1EB440FE8
S31500001B1004BF0E99B1EB440F01D007201BE0EB6820
S31500001B20012221463120FEF76CFE00F020F80AA8BB
S31500001B30082307C800932346FEF7A3FE00F00DF81E
S31500001B400A2000900DA907C92346FEF79AFEFEF764
S31500001B50F3FE00B1032006B070BD0C20009003A96F
S31500001B6007C92346FEF761BE054600F008B8012600
S31500001B700196009695E807002346FEF7F3BE006936
S31500001B807047000010B504464FF40051064A116034
S31500001B90022306480360204600F0ACF820460021E8
S31500001BA0BDE8104000F0A9B868900040609200407F
S31500001BB000F0A8B8014600F0B0B800002DE9FC47D7
S31500001BC08A461446984670B9002C43D00B990A6889
S31500001BD03F2A0AD84868002818BF5FEA080905D1D5
S31500001BE00FF24C1902E0424835E0C14602F03F06CA
S31500001BF0A218C6F140050A60A24202D24868401CFB
S31500001C0048600A9F96B1AC4210D32A465146B8198D
S31500001C10FEF712FD0120009043463A464946002051
S31500001C2000F0B6F8C146AA44641B00263F2C0BD927
S31500001C30A5090095434652464946002000F0A8F8FB
S31500001C400AEB851AA4EB851424B122465146B8192D
S31500001C50FEF7F2FC0020BDE8F6870000F8B586B076
S31500001C600C4615461E4640BB002102AF56F82130F1
S31500001C704A429200D21D00EBC300B85402A8104499
S31500001C8056F82120C01E5209827056F82120520BA8
S31500001C90427056F82120520D027056F82100491C58
S31500001CA0400F0129E2D9327802F03F02382A34BFC8
S31500001CB0C2F13802C2F1780201E00D4816E00C9F2D
S31500001CC0019600954FEA040321A10020FFF776FF55
S31500001CD0019600952346082202A90020FFF76EFF11
S31500001CE0202221463846FEF7A7FC002007B0F0BDAB
S31500001CF080AFFFFF6821FFF7B1B9002101604160A5
S31500001D000020704700F12803E0B50093019000F130
S31500001D1008030020FFF752FF0EBD80B50346009171
S31500001D2003F1280203F108010020FFF797FF02BD27
S31500001D306A09E667BB67AE853C6EF372A54FF53A56
S31500001D40510E527F9B05688C1F83D9AB5BE0CD1982
S31500001D5080000000000000000000000000000000FD
S31500001D60000000000000000000000000000000006D
S31500001D70000000000000000000000000000000005D
S31500001D80000000000000000000000000000000004D
S31500001D90F0B591B01D4640BB1698202306928001EF
S31500001DA00790002404930894202209A8FEF744FC17
S31500001DB009AB03930594FFF7B7FBC8B906A890C80B
S31500001DC06E4690C6076803A890E80E0037600420A8
S31500001DD0FFF7B4FA0446FFF7B5FB44B9202209A978
S31500001DE02846FEF729FC002002E0024800E00248EF
S31500001DF011B0F0BD80AFFFFF80ADFFFF70B50823C7
S31500001E00094C2360094B01251D6000265E60DA60DF
S31500001E109D6002E010F8014BDC610A46511E002A63
S31500001E20F8D1186A70BD00BF649000400480084075
S31500001E304FF4017000F0B9B810B5454800680002CB
S31500001E40000E01280CD1434801684FF48020424A15
S31500001E50106004234903414C23605CBF404A106074
S31500001E6040484FF4006101604269D106FCD400F09D
S31500001E70D4F800F094F800F0DBF800F0DBF818B1C5
S31500001E804FF4017000F091F800F0F2F8044600F00B
S31500001E90CBF9002C19BF40F20370844240F20120B6
S31500001EA000F083F840F2057084421BBF40F20671D1
S31500001EB08C4240F203204FF4017000F076F80020C7
S31500001EC010BD000080B5012100F053F826490868CE
S31500001ED042060AD500F080F840F20221401A07D0E7
S31500001EE0C01E05D0C01E012802D9FFF73FFB08B16E
S31500001EF000F03EF846F20400016811F1010F05D129
S31500001F004FF4027000F03CF800F032F89DF8010042
S31500001F1060B14FF4C04000F025FC8DF800009DF83C
S31500001F20000018B94FF4027000F02AF89DF800007E
S31500001F3068B14FF4C0410D4801600A461046016879
S31500001F4081F3088881F3098840688746FEE701BD6A
S31500001F500080E00F64800040649000402020014033
S31500001F6064A00040704000409440004008ED00E04E
S31500001F7000218DF800108DF8011070470020704781
S31500001F804FF000514A8808804FF6F07002404AF63A
S31500001F90C0339A421CBF4FF20F024A8070474CF280
S31500001FA03C30FFE709490880704780B5FFF7E8FF36
S31500001FB0BFF34F8F06490A68064802F4E0620243FF
S31500001FC00A60BFF34F8F00BFFDE70000020000204C
S31500001FD00CED00E00400FA0510B54FF000525088F1
S31500001FE04FF6F0714AF6C03401EA0003A3421CBF63
S31500001FF04FF20F03984201D1108810BD002804BF8C
S315000020001088012802D140F2022010BD4FF4007062
S3150000201010BD4FF000500088704700207047002028
S315000020207047000001790122C01C091DFEF72AB97C
S31500002030FEF7B6B880B5C2B0FFF7EBFFB0F5027F8A
S3150000204006D1684679A100F0EBF86846FFF7EAFF8B
S315000020504FEA0D00B7A100F0E3F828210A680DF158
S315000020600700936803606846FFF7DCFF43B000BDD6
S3150000207070B5ADF5846D84A80FF2C03100F0D0F8CC
S315000020800DA80FF2C0411022FEF7E6FA02A80FF2E1
S31500002090C4412C22FEF7E0FA3DA84FF48E71FEF7FC
S315000020A0DDFF2BA84821FEF7D9FF11A86821FEF70E
S315000020B0D5FF202311AA2BA93DA800F040FD40F62C
S315000020C0033540F2022608E0012100228DF816129F
S315000020D0ADF8172284A8FFF7A5FF4FF48471C6A8B0
S315000020E0FEF7BCFFFEF710F90028FBD04FF47A701C
S315000020F00090C6A8012301AA0121C01CFEF721F900
S315000021009DF81B032028EDD14FF47A71009101232D
S3150000211001AA0321C7A8FEF714F901980328DCD108
S315000021209DF81C4374B140F6B8300090C7A801234F
S3150000213001AA2146C01CFEF704F90199A14208BF75
S315000021400028CAD19DF81D030028C6D19DF81E039C
S315000021509DF81F330328C0D8DFE800F05403041AA3
S31500002160BBE7B1E70DA90091C8AA02A93DA800F0F6
S3150000217029FD022100288DF816121CBF41F2070125
S31500002180884212BFADF817520022ADF81722A1E718
S3150000219003208DF816029DF80A0000281CBF9DF842
S315000021A00B00002884A81ABF0021ADF81712ADF85D
S315000021B01752FFF737FF9DF80A0000281CBF9DF84D
S315000021C00B00002889D09DF8080041070CD50C9813
S315000021D000F02EFB20B101F062F900F039FB7CE73C
S315000021E03046FFF7E2FE78E78107FCD52820026833
S315000021F003989168814204D201F051F90B9900F0DD
S31500002200F1FA6AE79DF80A0028B19DF80B0010B9AB
S3150000221040F20320E5E7012BE2D040F20120E0E79F
S315000022204FF48472FEF718BA70470000000000A051
S31500002230020001030B000000000000000000000087
S315000022400000000000000000000000000000000088
S315000022500000000000000000000000000000000078
S315000022600000000000000000000000000000000068
S315000022700000000000000000000000000000000058
S315000022800000000000000000000000000000000048
S315000022900000000000000000000000000000000038
S315000022A00000000000000000000000000000000028
S315000022B00000000000000000000000000000000018
S315000022C00000000000000000000000000000000008
S315000022D000000000000000000000000000000000F8
S315000022E000000000000000000000000000000000E8
S315000022F000000000000000000000000000000000D8
S3150000230000000000000000000000000000000000C7
S3150000231000000000000000000000000000000000B7
S3150000232000000000000000000000000000000000A7
S3150000233000000000000000A00400000000000000F3
S315000023400000000000000000000000000000000087
S315000023500000000000000000000000000000000077
S315000023600000000000000000000000000000000067
S315000023700000000000000000000000000000000057
S315000023800000000000000000000000000000000047
S315000023900000000000000000000000000000000037
S315000023A00000000000000000000000000000000027
S315000023B00000000000000000000000000000000017
S315000023C00000000000000000000000000000000007
S315000023D000000000000000000000000000000000F7
S315000023E000000000000000000000000000000000E7
S315000023F000000000000000000000000000000000D7
S3150000240000000000000000000000000000000000C6
S3150000241000000000000000000000000000000000B6
S3150000242000000000000000000000000000000000A6
S315000024300000000000000000000000000000002076
S315000024400200000000000000000000000000000084
S315000024500000000000000000000000000000000076
S315000024600000000000000000000000000000000066
S315000024700000000000000000000000000000000056
S315000024800000000000000000000000000000000046
S315000024900000000000000000000000000000000036
S315000024A00000000000000000000000000000000026
S315000024B00000000000000000000000000000000016
S315000024C00000000000000000000000000000000006
S315000024D000000000000000000000000000000000F6
S315000024E000000000000000000000000000000000E6
S315000024F000000000000000000000000000000000D6
S3150000250000000000000000000000000000000000C5
S3150000251000000000000000000000000000000000B5
S3150000252000000000000000000000000000000000A5
S315000025300000000000000000000000000000000095
S315000025400000000000000000CB2600000000000094
S31500002550F326000000FF000000000000000000005D
S315000025600000000000000000000000000000000065
S315000025700000000000000000000000000000000055
S31500002580F8B50446600B0D461646B4EB403004BF62
S31500002590204600F08DFF04F500577F0B7F0304E013
S315000025A0384600F085FF07F5005730198742F7D304
S315000025B032462946204601B00223BDE8F04000F02D
S315000025C082BF38B504460D4600F0B4F850B16069D4
S315000025D0012805D1207C022802D2A069286002E0E9
S315000025E0002032BD2C60012032BDF0B504469DB0FE
S315000025F040F204600090656B00F04EFF07462846E7
S3150000260000F098F800285ED0287C02282CD200F032
S315000026103BFF28B1286A012100F080FF002852D034
S3150000262034200668304600F085F800284BD045F681
S31500002630C170864218D200208DF8040001A92846F0
S3150000264000F06FFF00283ED002A92846FFF7B9FF29
S31500002650002838D002983969884228BFA04203D39F
S3150000266001467148814201D300202CE003A8FFF700
S3150000267089FA02982146021B03A8FFF799FA03A8D4
S31500002680FFF798FA029C00F0FDFE203450B19DF849
S31500002690040008B1A86B00E0B06B00F124010091C2
S315000026A0031D06E0FEF79AF80546FEF795F8034681
S315000026B000950299224603A8FFF7A9F90090009811
S315000026C0401E8041C00F1DB0F0BD70B504460D46DA
S315000026D0164600F0E1FE01698C4222BF40693219BC
S315000026E0904205D3324629462046BDE8704047E76A
S315000026F070BD2DE9F04104468846164600F0CCFE32
S31500002700074600F0CCFE25187019474988420ED2BC
S315000027103CB900F0C4FE796988423CBF386900F0D4
S31500002720C7FE324641462846BDE8F04128E7BDE8E7
S31500002730F08100007FB504464FEA0D0050A110223B
S31500002740FDF78AFF002046420DEB0605E97B225C79
S31500002750914205D1401C1028F5D3012004B070BD6C
S315000027600020FBE7F8B5044625686768666B00F04D
S3150000277093FE05F1604548F201018D4229D20069B8
S31500002780874226D328498F4223D24030864201D33E
S315000027908E4205D3FFF7F2FB401E8041C00FF2BD0B
S315000027A0FFF7ECFBB8B93046FFF7C4FFB8B1307C91
S315000027B002280ED2706990B102280CD1B0694FF090
S315000027C0FF32001D011B2046FFF718FB1749884200
S315000027D005D00020F2BD2046BDE8F24005E7012005
S315000027E0F2BD000038B588B004460D464FF0FF3202
S315000027F0FFF704FB0D4B984212D100F091FE40F218
S315000028000220FFF7BDFB684621A12022FDF724FF29
S3150000281000F032F8294600F030F86846FEF7CEFFA1
S31500002820002009B030BD000001000800E320BBDE37
S315000028301CB504464FF0FF3100916846FFF743F898
S3150000284008B1002016BD0098A0428041C00F16BDF9
S3150000285010B5044688B040F20220FFF791FB6846A7
S3150000286013A12022FDF7F8FE00F006F86846FEF7F1
S31500002870A5FF002008B010BD21466846FEF794BFAC
S31500002880B814B6F1E0CFF3ADB7DD25C9FA79B713C1
S3150000289001000643000000000000000000000000E8
S315000028A00000000000000000000000000000000022
S315000028B000000343000000000000000000000000CC
S315000028C00000000000000000000000000000000002
S315000028D070B54B688C689C4206D200F140021B1B07
S315000028E014781B19412B01D3002070BD0D68537855
S315000028F01478E4188B6804F03F04EE5C06558C6887
S31500002900641C8C6013785B1C13708C684B689C424B
S31500002910ECD3012070BD90F840004A688968101811
S31500002920401A7047F8B584B014460026054601964D
S315000029300096082302AA00F047F841F20306B042C7
S315000029403BD195F8430005F1480738B100F037F858
S315000029503868082302AA02A9FFF71EF89DF80A2084
S315000029609DF80B009DF80910120442EA00629DF8DA
S31500002970080042EA0122024322609DF80E009DF8FB
S315000029800F1000F071FD9DF80D1040EA01209DF832
S315000029900C100843606095F8430048B9DFF8581AF0
S315000029A08A421CBFDFF8540A824201D000F007F8C1
S315000029B060680021F960B860304605B0F0BD7868FF
S315000029C0082202A9FFF7F4B82DE9F0410C46174694
S315000029D01D468046FFF79FFF08F14006A84206D233
S315000029E021464046FFF774FF10B300204DE000215A
S315000029F00CE0707818F800207A5473783078491C07
S31500002A005B1C03F03F03421E73703270307808B1CE
S31500002A10A942EED3A0686268904238BFA9420CD2A0
S31500002A202368185C7854A268491C521CA260F1E71E
S31500002A301520B07141F2020027E0A942F8D1B26C2C
S31500002A40069C29463846FFF7D9F9B06424B1F068E8
S31500002A502A463946FFF7ACF8079838B1F07878B1CE
S31500002A60B0682B463A463946FEF796FFF07838B1FD
S31500002A70B169F06928188842F06124BF0020F0701F
S31500002A8070692D18756141F20300BDE8F0812DE9EA
S31500002A90F8431E467368002B4ED00C4614F0030113
S31500002AA018BF41F2020048D11546074600F0F0FC77
S31500002AB0396E001D6A18824221D300F1180399422B
S31500002AC01DD28C46844505EB010800F1180238BF7B
S31500002AD084469045ACEB0101ACEB000088BF904604
S31500002AE004EB0109A8EB0C08384442464946683015
S31500002AF0FDF7A2FDFF2241464846FEF75FF800F0CB
S31500002B00CEFC396E001D884222BF6A18031D9A4208
S31500002B1009D3411A6018026807F180010A60FF2292
S31500002B200421FEF74BF821463368386E74682A464E
S31500002B30A047386E2D183D660020BDE8F283F8B533
S31500002B40064606F1400700200D46B8717870F87009
S31500002B50387100214FF0FF3014463970797103F057
S31500002B602003B86439627962BB70FF22182106F12E
S31500002B706800FEF723F8FF22042106F18000FEF725
S31500002B801DF8FF22042106F18400FEF717F8BD6048
S31500002B90FC60882106F1900000F0C6FC002086F853
S31500002BA0180100F06DFC00B11DB100F067FC18B112
S31500002BB014B941F20B00F2BD14B1F868FEF7E2FF5A
S31500002BC00020F2BD2DE9F84FB4B083460D4605A8A6
S31500002BD000210023002480E81A000592349A089107
S31500002BE041F203080692486B0990014645F6C1700A
S31500002BF081420BD3C3E304980021F160B0600398CF
S31500002C00DFF8FC1788424CD102223A7107983499B2
S31500002C100DF1280A884280F095830BF14207397935
S31500002C200BF184090BF148061529EFD8DFE811F0FE
S31500002C302C008E03FE003900D101050248019603DF
S31500002C400502F101050298010502F101AA03C50377
S31500002C504803B5031700B8039A03C503D6E79BF8E4
S31500002C6018010028D9D1099A1AAB05A9584600F0CF
S31500002C7019FC0090009841F20601884200F02E836C
S31500002C8000984045C2D067E300F0DBFB00F0DEFBB6
S31500002C90B1D061E3B87838B10398DFF8601788429D
S31500002CA04ED015223A716AE33878C10751D5787843
S31500002CB000284ED10398DFF8481788421CBFDFF87A
S31500002CC044178842EDD0DFF84017884200F0818033
S31500002CD0DFF8381788421FBFDFF834178842DFF85D
S31500002CE034178842DDD0DFF83017884221D0DFF86C
S31500002CF00817884272D0DFF82417884212D0DFF80E
S31500002D00201788420CD0DFF8F416884214D0DFF87A
S31500002D10141788421CBFDFF810178842C1D010E094
S31500002D20102272E711203871B1680020706131619C
S31500002D306CE71521397176E000F0A0FB0028B0D1D0
S31500002D4042E01520387103A800F0F1FB00286AD094
S31500002D5015E30398DFF8AC16884220D0DFF8A816F2
S31500002D60884233D0DFF8A41688421DD0DFF8A016BB
S31500002D70884216D0DFF89C16884218D0DFF87816FD
S31500002D80884228D0DFF87416884216D0DFF89416E9
S31500002D90884210D0DFF8901688420AD020E00B2235
S31500002DA033E70420387131E7062139712EE7072011
S31500002DB0F8E70921F9E70D20F4E700F05FFB0028AA
S31500002DC004BF78780028BAD10E21EEE7787800287B
S31500002DD0B5D11221E9E778780028B0D11321E4E7CC
S31500002DE003A800F0A4FBB8B10398142170643971EC
S31500002DF0039800F09EFB089038788106D6D508988F
S31500002E0000281CBF41680029D0D05846884700904A
S31500002E1000980028CAD0B2E278781521397110B12D
S31500002E2041F204008FE241F208008CE2F0680828C3
S31500002E3049D2002101200191009000F019FB00F019
S31500002E4005FB49D19AF803000006B0F1407F04D093
S31500002E501520387141F2090075E29AF805009AF8D2
S31500002E60041041EA00210291C90704D5387840F0E0
S31500002E700100387002E000F003FB30B900F0FEFA02
S31500002E800028D3D00298C105D0D41520387141F25C
S31500002E900A0058E21C220AA905F10800FDF7DCFB2E
S31500002EA0287840F00100287005F1080000F0FDFACE
S31500002EB0002803D0002100F0C0FA002800F053815A
S31500002EC0B368F068984280F03B8200F0B1FA00F0F7
S31500002ED0C6FA00F0BBFADDD03EE2287840F00400E6
S31500002EE028709AF80E009AF80F109AF80C2000F045
S31500002EF0BBFA9AF80D1040EA01201043A8626878E0
S31500002F0041072BD5EB208DF8280017218AF80110F0
S31500002F10A6208AF802005E218AF803100BF1500001
S31500002F200168C9F800100021F161F87840F002004C
S31500002F30F8703E98C4688CB1036804220AA9002080
S31500002F40A0473E983E9C08220368F069D4F80CC05E
S31500002F500CA90830E047F0691030F0610C20387198
S31500002F60F068082837D200F063FA08230CAA00F0AC
S31500002F7077FA00F06BFAB0D0EEE1287840F0020064
S31500002F8028709AF802009AF803109DF8282000F09D
S31500002F906BFA9AF8011040EA012010436860B068A5
S31500002FA0083868629AF806009AF807109AF804201A
S31500002FB000F05AFA9AF8051040EA012010437FF40F
S31500002FC070AEF9780520387141F00101F9700020E2
S31500002FD0F061F0680828BFF419AE00F029FA00F095
S31500002FE047FA00F033FAC8D0B6E19AF802109AF818
S31500002FF003009DF82820090441EA00619AF80100BF
S3150000300041EA002111430291B068052824BF0298C5
S31500003010B061F068042880F0D38100F009FA00F06E
S315000030201DFA00F013FAE0D096E10368F069524603
S315000030300AA9A047F0695044F061B068F16881427E
S3150000304080F07E81A0EB010ABAF1040F05A958466B
S3150000305008D3FFF760FC042808D205A95846FFF7F5
S3150000306037FC6FE1FFF757FC5045F6D3BAF1410F35
S3150000307005A9584628BF4FF0400AFFF74CFC5045BB
S3150000308002D200F0E7F98246BAF1040F0AAA05A9AE
S3150000309024BF4FEA9A004FEA800A0120019000906F
S315000030A053465846FFF790FC00F0D0F9BCD138796A
S315000030B0082803D13E988468002CB6D1CAF10404CE
S315000030C0BAF1040F06D20AA8FF2221465044FDF7A2
S315000030D075FDA24439790A290ED13E99486818B17E
S315000030E000F0AAF900283ED03E9B52460AA958464F
S315000030F0FFF7CDFC0090A0E7052917D16878820775
S3150000310014D53E9BD86888B1F069052817D20AEB1A
S315000031100001072913D30AA9091D081A0168FF220D
S31500003120C9F800100421FDF749FD08E00C2984D1F7
S3150000313068784107DFD53E9AD0680028DBD03E98F4
S315000031403E9C52460368F069D4F80CC00AA9E047D1
S3150000315070E7D9F80400002800F0348100F06CF91B
S31500003160002840F02F811520387141F20C00EAE06A
S315000031703878810608D5002C1CBF2169002903D0A8
S3150000318058468847824601E04FF0010A00F062F98E
S315000031905045FFF462AFB068F168A0EB010ABAF1DE
S315000031A0410F05A9584628BF4FF0400AFFF7B3FB69
S315000031B0824502D300F04EF982460120019000902C
S315000031C0534600F04CF900F041F915D138788106E4
S315000031D040F1F980002C1CBFD4F808C0BCF1000FE8
S315000031E000F0CD804B4652460AA95846E04700906B
S315000031F00098002800F0E780AEE0306C8B498842EA
S3150000320004D015223A7141F205009CE000F036F92F
S3150000321010B90120E87002E0E878002840D0F8787C
S3150000322010F0030F1CBFD4F80CC0BCF1000F04D083
S315000032302368042249460420E047B16900291CBFDF
S31500003240606800282CD04FF0FF3102910BF1800608
S315000032500422314602A800F06FF940B100F01FF9D0
S3150000326028B13146236866680422001DB04704224F
S315000032700BF1680102A800F05FF988B100F008F9C7
S315000032802368666814220BF16C010830B04700F021
S31500003290FFF82368666804220BF16801001DB04739
S315000032A00120A8700F2139714CE0FDF799FA0090C2
S315000032B080210191306801230BAA0221FEF73CFB15
S315000032C0F06810283CD200210120019100901023C3
S315000032D000F0C5F800F0BAF8E7D03DE015203871E7
S315000032E03AE07068FEF766FC9BF8180128B10BF10E
S315000032F0B40100910BF1940310E000F0C3F830B173
S315000033000998806B00F124010091031D06E0FDF78A
S3150000331065FA0446FDF760FA00940346706812AA3F
S315000033200AA9FEF774FB0090009830B10021E970FD
S315000033301520387141F2060005E00120E870B870EA
S3150000334001202FE5002035B0BDE8F08F00F079F8B8
S3150000335000F07CF83FF49EAC0098F4E70020F061A2
S31500003360082122E53878DDF8F89081067FF5F1AE80
S31500003370706C00F0DEF8089000287FF4EAAE41F2A7
S315000033800100E0E73E9C00200190009000F066F806
S3150000339000F05CF83FF431AFDEE701207870CFE74C
S315000033A0B8780028CCD1002101910090402300F08C
S315000033B056F800F04BF894D0CEE741F20700C2E78A
S315000033C00A20EFE4089CF068B1688842FFF4D0AEAA
S315000033D0CDF8F890089439788A06B1D5002C1CBF30
S315000033E0E268002AACD03E99584690470090009873
S315000033F00028A5D0B0E70000F70A0AF7FC0404FC91
S31500003400EB17A603EB17A65EF30B0BF3F40A0AF40D
S31500003410F50909F5F60808F6F70909F7F90707F9AE
S31500003420FA0606FAFD0303FDFE0101FEE320BBDEFC
S315000034300121019100917047012105F1080000F07A
S3150000344025B803AA05A95846FFF76CBA009000985C
S315000034504045704705A95846FFF75DBA04230AAAF6
S3150000346005A95846FFF7B0BA000440EA0160704764
S3150000347008230AAA05A95846FFF7A6BA00207047EE
S3150000348000207047002070470020704701207047D9
S3150000349028200168086970472820006870474FF4A3
S315000034A00040704741F20600704701207047000057
S315000034B080B54FF40031184A1160FEF7CEF8401E71
S315000034C08041C00F02BDF8B51F4605460E4614469C
S315000034D0082F10D201212020FEF77EF8012121209D
S315000034E0FEF77AF80CB90120F2BD15F0030F08BFFC
S315000034F014F0030F01D00020F2BD4FF4003006494E
S3150000350008602346324629463846FEF7CDF8401E67
S315000035108041C00FF2BD0000689000400020704757
S3150000352070470120704700000022FDF74BBB0020CA
S3150000353070470020704700000300002013F0030FBF
S3150000354009D0521E22BF13F8010B11F801CBB0EBC4
S315000035500C00F3D0704711F0030F14D1121F22BFD5
S3150000356053F8040B51F804CB6045F7D0121D0AD26C
S3150000357000BA9CFA8CFCB0EB0C0038BF6FF0000070
S3150000358088BF01207047521E22BF13F8010B11F8A5
S3150000359001CBB0EB0C00F6D0521C08BF10467047AA
S315000035A00448054908600548026842F47002026052
S315000035B0704700000000000008ED00E088ED00E024
S315000035C04EF68851CEF20001086840F4700008609B
S315000035D0BFF34F8FBFF36F8F4FF00070E1EE100A0D
S315000035E07047000000F00DF8002801D000F00CF83C
S315000035F0AFF300800020AFF30080FEF71DFC00F063
S3150000360017F801207047000010B5074979441831B2
S31500003610064C7C44163404E00A68081D11448847A9
S315000036200146A142F8D110BD500100006C01000016
S3150000363000F000B80746384600F002F8FBE7000045
S315000036402021090326311820ABBEF9E780B5FFF724
S31500003650A7FFFEF737FCBDE8014000F000B8AFF366
S315000036600080FFF7ADFFFFF7BDFF10B50446B1F5CB
S31500003670027F02D240F2052010BD4FF40271FDF721
S31500003680EDFC0020607004F5C87204F5A47104F125
S315000036902C000023BDE81040FFF751BA1CB50446C4
S315000036A00091214604F12C00FFF78CFA0028C4F89B
S315000036B004021CBF41F2070188420BD1A07838B141
S315000036C0E07810B140F2032016BD40F2022016BD8C
S315000036D040F2012016BD2DE9F04385B004460D46A3
S315000036E0904699460C9E01A81021FDF7B7FC0027CD
S315000036F037601C214846FDF7B1FC01A800904346FF
S315000037002A46214604F12C00FFF75CFA207881074F
S3150000371044BF606830602178C80705D51C2204F1D3
S3150000372008014846FCF798FF207805B0002814BF2A
S31500003730002040F20640BDE8F0834FF40270704767
S3150000374030B5016884684218416802EB5103C90725
S315000037500BD54C4409E012F9011B12F8015B002954
S3150000376004F8015B05D5491CF9D19A42F3D10C3016
S3150000377030BD491EF1D5F8E73FE2FFFF1002000019
S315000037801001002000000000B9FFFFFF0C00000040
S31500003790240000008000002081000C00F07F103023
S315000037A0800000203C000640FC00000000000000F5
S309000037B084C2A6EB38
S503037C7D
S70500000000FA
