S01900006275696C642F64656275672F7377697463682E733337D4
S21400000000100020F1060000ED060000ED060000DE
S2140000106D4D0000ED060000ED060000ED06000048
S214000020ED060000ED060000ED060000ED060000FF
S214000030ED060000ED060000ED060000ED060000EF
S214000040ED0600009DB40000ED060000ED06000081
S2140000502DAC0000F5B40000A9B40000C1B4000047
S214000060A1B40000ED060000110B0000ED06000034
S2140000708972000079720000ED060000ED060000AF
S214000080ED060000ED060000390B0000ED0600004E
S214000090ED060000ED060000ED060000ED0600008F
S2140000A0ED060000ED060000ED060000ED0600007F
S2140000B0F9B40000A5B400008952000031B5000074
S2140000C0ED060000019F0000ED060000ED060000B2
S2140000D0ED060000ED060000ED060000ED0600004F
S2140000E0ED060000ED060000ED060000ED0600003F
S2140000F0ED060000ED060000ED060000ED0600002F
S214000100ED060000ED060000ED06000010B5054CFB
S214000110237833B9044B13B10448AFF300800123AE
S214000120237010BD301500200000000034190100B7
S21400013008B5034B1BB103490348AFF3008008BD65
S214000140000000003415002034190100154B002B68
S21400015008BF134B9D46A3F5803A00218B460F46F9
S2140001601348144A121A08F088F80F4B002B00D0D8
S21400017098470E4B002B00D0984700200021040023
S2140001800D000D48002802D00C48AFF3008007F0A1
S214000190F9FF2000290007F0B3F907F0DFFF00BFE2
S2140001A00000080000100020000000000000000012
S2140001B0301500201426002000000000000000007B
S2140001C030B40C4B196C5C6C0022234642EA0104E6
S2140001D0A1B29CB203E08154090A0132D2B2032ACA
S2140001E0F9D903E08454240A0132D2B2072AF9D995
S2140001F030BC7047B081E00F21B1037863F07F0315
S21400020003707047037803F07F030370704703782A
S21400021003F08F03090101F070010B430370704770
S21400022008B5012304220521002001F06FFE0020FE
S21400023008BD08B5002304220521184601F066FE15
S214000240002008BD08B5012304220F21032001F079
S2140002505DFE002008BD000008B50121054800F03D
S21400026007FD06F012FFFFF7DBFFFFF7EBFF00F0DE
S21400027057F908BD00350A0008B50121014800F00D
S214000280F7FC08BD00350A002DE9F04186B00446AB
S214000290884617466D46184E0FCE0FC596E80300E3
S2140002A085E8030025680121144800F0E1FC0121DF
S2140002B0606800F0DDFC00230422617B207B01F0F7
S2140002C025FE00230422617A207A01F01FFECDF875
S2140002D00880ADF810706946284601F0A4FFA27B9E
S2140002E0237C1B0643EA0223AB670A236B670020C6
S2140002F006B0BDE8F08100BFC0D5000000350A009A
S214000300F8B50F4615460668002404E0395D304609
S21400031001F0DFFF0134AC42F8D30020F8BD0268DC
S214000320136913F0200FFBD070470000024B4FF408
S2140003300052C3F8A820704700A0004010B582B055
S21400034021B90A4804F014FE02B010BD044604F0B9
S21400035059FE217B49000123019300230093044AA0
S214000360B0FBF1F1014804F033FEEDE74C15002038
S2140003702D03000070B582B005464FF480440C4B48
S2140003801C60407B04F0BCFF02A9042321F8023D58
S214000390084E02223046FFF7B3FF3046FFF7BFFF96
S2140003A0A87B04F0ADFF044B1C60002002B070BDBB
S2140003B09CA00046001000209CA0004438B50446CF
S2140003C00121124800F054FC0022A1681048FFF7F3
S2140003D05BFF002304220E21032001F097FD00237B
S2140003E004220D21032001F091FD0A4D94E80F0030
S2140003F085E80F000121084B19702046FFF79EFF85
S2140004002046FFF7B7FF002038BD00BF00350A00C2
S2140004100010002068150020641500202DE9F04328
S21400042083B081460D461F460388067906FB03F611
S214000430F61002F10108244B4FF480421A60407B0C
S21400044004F05EFF1FFA88F84FEA08239BB243F0D9
S214000450010302A921F8023D02221C48FFF750FFC3
S21400046000240AE04FF6FF73ADF8063002220DF1C5
S21400047006011648FFF744FF0134BC4214D2324648
S21400048029461248FFF73CFF35447B1EA342E9D0BD
S21400049008EB04039BB201339BB21B029BB243F0F2
S2140004A0FF03ADF80630E1E70848FFF738FF99F894
S2140004B00E0004F025FF064B4FF480421A60002021
S2140004C003B0BDE8F08300BF9CA0004600100020EB
S2140004D09CA00044034B1B780BB1034870470020D8
S2140004E0704700BF641500206815002010B584B062
S2140004F0044B6C460FCB84E80F002046FFF75EFFE8
S21400050004B010BDD8D50000014B10221A60704709
S2140005100CA00044014B10221A6070470CA0004645
S21400052070B586B06C46374D0FCD0FC495E8030006
S21400053084E803000121344800F09AFB334E012181
S214000540304600F095FB01258DF80E50304B029397
S214000550304C6946204601F066FE2B4604220621F2
S214000560022001F0D3FC00232A460721022001F0D6
S214000570CDFC2B4604220821022001F0C7FC2B46A6
S21400058004221146002001F0C1FC234BA3670B2375
S21400059063674FF4487004F0B3FEFFF7B5FF14200E
S2140005A004F0AEFEFFF7B6FF232004F0A9FEFFF727
S2140005B0ABFFB921204601F080FEFFF7ABFF00231A
S2140005C01A460621022001F0A1FC00231A46072144
S2140005D0022001F09BFC2B4600220821022001F09D
S2140005E095FC2B4600220421104601F08FFC204685
S2140005F001F0AAFD0021A1676167304600F038FBD4
S21400060006B070BDE8D5000000350A0000520400B0
S21400061000127A00000401400B0B000B002303605D
S214000620704703680B600160704790B130B40446B1
S2140006306AB161B1002003E004F8013B01320130E9
S214000640137813B14D1E8542F6D80023237030BCB4
S21400065070477047034640B1002001E00133013087
S2140006601A781AB18842F9D370470020704708B547
S2140006704FF0FF31FFF7EEFF08BD80B170B50646BC
S21400068032B129B115460C46FFF7F1FF844200D877
S21400069070BD2A46211A3044FFF7C7FFF8E77047B7
S2140006A010B3F8B50F46064651B90120F8BD203400
S2140006B00FE0601BFAD13378002BF7D001360137F4
S2140006C0347807F087FD2044437803F00303012BBA
S2140006D0EDD03D7807F07EFD2844437803F0030311
S2140006E0012BE6D12035E4E701207047FEE7000045
S2140006F010B500F06FF8074B074C1946074A04E0A0
S21400070010680860043304310432A342F8D3FFF7BC
S2140007101DFD00BF00100020301500203C19010010
S2140007200048704700F04902114BD3F8943003F0AC
S2140007300703023B032B0DD8DFE803F0050F020882
S2140007400C4B18680BE00C4B186808E00B4B18684D
S214000750400804E0094B186801E04FF40040044BE1
S214000760D3F80031C3F304230133B0FBF3F0704732
S21400077000400E4020100020181000201C10002002
S21400078008B5FFF7D1FF054BD3F80831C3F30823AC
S2140007900133B0FBF3F0024B186008BD00400E407A
S2140007A014100020014B1868704700BF1810002076
S2140007B008B5064B1860064BD3F8943003F00703D1
S2140007C0022B00D008BDFFF7DBFFFBE71810002068
S2140007D000400E40044B054A9A60D3F8882042F445
S2140007E07002C3F88820704700ED00E000000000AB
S2140007F04FF4004070474FF47A707047014B18680A
S214000800704700BF2010002008B5436813B1006889
S214000810984708BD2220FCE708B5836813B1006836
S214000820984708BDFF20FCE738B5002301E00133F8
S214000830DBB2114A12789A421DD91C460F4A52F86A
S2140008402320126851798142F1D11578022DEED01D
S214000850137903EB43031801094B034401EBC3016F
S21400086089000B68B3FA83F35B091370034B53F8E4
S214000870240006F0DBFB38BDF4EF00000813002070
S2140008801CA0104210B582B004460121164800F0A4
S214000890EFF9002301226179207901F037FB2279F4
S2140008A0637902EB42021101104A0A4403EBC203C9
S2140008B09B001B68B3FA83F35B092370A379022BB2
S2140008C002D0002002B010BD00F006F90849607999
S2140008D000F010F9617920790123019300930A460C
S2140008E001F098FAEDE700BF00350A001CA01042A0
S2140008F029080000007870470378022B31D010B426
S2140009000279437902EB42021101164A0A4403EBCC
S214000910C2039B001A68141C18BF012481790129A0
S21400092007D019B9B2FA82F2520902705DF8044B88
S214000930704743885B009BB2234343F47F4343F0F6
S214000940C0034FF6E072934205D04FF6DF72934233
S21400095004D04380EAE701220270F6E70022027024
S214000960F7E770471CA0104208B50378022B00D0AA
S21400097008BD00234380FFF785FFF9E70378022BC5
S21400098016D010B582B004468379022B03D002231A
S214000990237002B010BD0021407900F0ABF86179F9
S2140009A020790023019300930A4601F033FAEEE71C
S2140009B0704708B543680068984708BD08B5C3681F
S2140009C00068984708BD000010B504460121094894
S2140009D000F04EF90121084800F04AF9A378B3FA6E
S2140009E083F35B0904226178207801F08FFA0020F7
S2140009F010BD00BF4041050000350A0083784BB1AA
S214000A000378407803EB4303190101228240064B2A
S214000A105A5070470378407803EB430319010122CC
S214000A208240024B5A5070470CA000460CA000446F
S214000A3083784BB10378407803EB43031901012216
S214000A408240064B5A5070470378407803EB4303C6
S214000A50190101228240024B5A5070470CA00044F4
S214000A600CA00046027843780121994002EB42022E
S214000A70130103F1804303F520439961704700009A
S214000A800278437802EB42021101074A0A4403EB5C
S214000A90C2039B001B68DBB2827812B9B3FA83F3F9
S214000AA05B091846704700BF0CA0104210B50446FC
S214000AB07CB194FAA4F0B0FA80F0C2B2012393405D
S214000AC024EA0304034B53F82230002BF0D0984757
S214000AD0EEE710BD78150020054B4FF48022C3F8D2
S214000AE080211A604FF48062C3F880211A60704734
S214000AF000E100E038B504460D4600F0F4FD034B77
S214000B0043F8245000F0F5FD38BD00BF78150020EE
S214000B1008B5084BD3F82804D3F81C24104020F45A
S214000B202A5020F02A004004400CC3F82404FFF7A3
S214000B30BDFF08BD00A0004008B5084BD3F8280448
S214000B40D3F81C24104020F4AA4020F055000004DE
S214000B50000CC3F82404FFF7A9FF08BD00A000405E
S214000B600C4B984208D90C4B984202D9022101221C
S214000B7004E001210A4601E000210A46074B1A60FC
S214000B80074AD2F8003123F0807343EA0163C2F8C3
S214000B90003170470048E8010090D0034000C84389
S214000BA000400E40014B1868704700BF241000201C
S214000BB010B4124B5B68002300E00133042B0BD803
S214000BC00F4A02EBC3021479CAB29442F5D10C4A1A
S214000BD052F833208242F0D3052B0DD0084A02EBA0
S214000BE0C3035979054A536823F0407343EA016307
S214000BF053605DF8044B70470321F3E700000E4096
S214000C0000D6000003300F2828BF0F2000077047CB
S214000C1008B5FFF789FD044BD3F80031C3F304236E
S214000C2003FB000008BD00BF00400E4010B5074B98
S214000C301C6C41F671321A64FFF772FD0021FFF753
S214000C40B7FF14B1014B00221A6410BD00000E401D
S214000C5010B5064B1C6C41F671321A64FFF7A8FFFC
S214000C6014B1024B00221A6410BD00BF00000E40F3
S214000C70C0F30323013B092B3AD8DFE803F005084D
S214000C803939180B0E39111500221A4B11E00022C3
S214000C90194B0EE00122194B0BE01022184B08E00E
S214000CA04FF48032174B04E00022174B01E000227D
S214000CB0164BC0F30430A2B110B40E4CD4F8444125
S214000CC014F0010F04D10B4CD4F840412242FAD163
S214000CD003F1047300EBC300800001605DF8044B71
S214000CE0704703F1047300EBC30080000160704797
S214000CF0704700BF00400E40C0400E40E0400E402F
S214000D00E8400E40F0400E4050410E40B0400E40CD
S214000D10C0F30313013B092B69D8DFE803F0050B8A
S214000D20111B68682127415F334BD3F80001C0F3DD
S214000D3004207047304BD3F81401C0F304207047EA
S214000D402D4BD3F80001C0F30060431C01209840EF
S214000D5001387047284BD3F80C01C0F308207047C1
S214000D60254BD3F80801C0F308207047234B984260
S214000D7004D0234B98420AD0002070471E4BD3F86D
S214000D80203103F00F0301209840013870471A4BBA
S214000D90D3F82031C3F3011301209840013870477F
S214000DA0184B984207D003F5B01303F580539842CA
S214000DB00AD000207047104BD3F82831C3F3011334
S214000DC001209840013870470B4BD3F82801C0F338
S214000DD00120031D01209840013870470A4B9842B5
S214000DE007D1054BD3F8300100F003007047002010
S214000DF070470020704700BF00400E408006160077
S214000E0080162E0090171A00A009140008B5FFF7E8
S214000E107FFF013008BD000000F00F0001380728F2
S214000E206DD8DFE800F0041B2C6C40516C5B3B4B2C
S214000E30D3F8943003F00703023B052B0CD8DFE809
S214000E4003F0056003070B09022070470420704773
S214000E500B2070470C207047052070472F4BD3F8A7
S214000E60803003F00703022B4DD0042B05D0012B56
S214000E7001D001207047032070470A207047274B97
S214000E80D3F8843003F00703013B032B09D8DFE8CF
S214000E9003F0023C0604032070470A207047062031
S214000EA07047012070471D4BD3F8883003F00703C6
S214000EB0022B2CD0042B05D0012B01D0012070472B
S214000EC0032070470A207047144B1B6F13F0010372
S214000ED01FD00BB109207047012070470F4BD3F885
S214000EE05C3103F03003202B05D0302B05D0102BBF
S214000EF011D001207047042070470820704700205A
S214000F007047032070470220704702207047022077
S214000F107047072070470720704700BF00400E400C
S214000F2010B50446FFF778FF1C4B9C4212D01C4BB2
S214000F309C4215D01B4B9C4206D0013803282BD868
S214000F40DFE800F014171D1A174BD3F8800000F0E6
S214000F500700F2E7144BD3F8840000F00700ECE734
S214000F60114BD3F8880000F00700E6E7FFF740FCD7
S214000F7013E0FFF743FC10E0FFF73DFC0DE0FFF742
S214000F80D3FB094BD3F80031C3F300635A1C01238B
S214000F909340B0FBF3F000E0002010BD03002000FB
S214000FA00500240002001E0000400E4008B5074859
S214000FB0FFF732FF072804D0092805D1FFF7B4FB56
S214000FC008BDFFF7EFFDFBE70020F9E706000E007F
S214000FD008B10020704710B504460A48FFF71CFF0A
S214000FE0072805D0082809D0042804D0204601E0A8
S214000FF0FFF7D8FD10BDFFF7D5FBFBE7FFF708FEB0
S214001000F8E700BFB800320038B500F47813B3F53F
S214001010B01F00F08E80054631D8B3F5202F76D06D
S21400102015D9B3F5602F00F0A7801AD9B3F5801F45
S21400103000F0A580B3F5A01F11D15448FFF770FF4C
S214001040534BD3F8303103F00303D84053E0B3F5E5
S214001050003F5FD0B3F5802F4ED0002B49D0002044
S21400106049E0B3F5402FFAD1FFF75EFB484BD3F8C3
S2140010701431C3F304230133B0FBF3F03BE0B3F5C4
S214001080101F75D012D9B3F5401F63D024D9B3F51D
S214001090481F77D0B3F5781FE1D1FFF745FB04462C
S2140010A02846FFF7B3FEB4FBF0F024E0B3F5F01FDC
S2140010B03BD0B3F5001F49D0B3F5D01FCFD135488C
S2140010C0FFF72EFF324BD3F82821C2F3011201237B
S2140010D09340B0FBF3F00EE0B3F5381FBFD12E48B7
S2140010E0FFF71EFF2A4BD3F82031C3F30113D84075
S2140010F001E0FFF719FB38BDFFF716FB244BD3F8CA
S2140011000C31C3F308230133B0FBF3F0F3E7FFF72A
S2140011100BFBF0E7FFF708FB1D4BD3F80831C3F3D2
S21400112008230133B0FBF3F0E5E71B48FFF7F8FEB2
S214001130E1E71948FFF7F4FE154BD3F8202102F03B
S2140011400F0201239340B0FBF3F0D4E71148FFF7FA
S214001150E7FED0E70F48FFF7E3FE0D4BD3F8283144
S214001160C3F301231A1D01239340B0FBF3F0C2E73B
S2140011700648FFF7D5FEBEE7FFF718FFBBE7FFF709
S21400118011FDB8E70020FFF723FFB4E705002400B1
S21400119000400E400300200002001E00014B1868AD
S2140011A0704700BF1C100020014B1880704700BF1E
S2140011B0281000200138032818D8DFE800F00211B4
S2140011C0070C0B4B186AC0F308007047084B1869E9
S2140011D000F07F007047064B986900F07F0070476C
S2140011E0034BD3F89C00C0F30A00704700207047FA
S2140011F000400E4038B50138032811D8DFE800F06B
S214001200022B111EC1F308011D4B1B68002BFBD1DE
S2140012101C4A136A23F4FF7323F001031943116277
S21400122038BD01F07F01184B1B68002BFBD1154A17
S214001230136923F07F0319431161F1E701F07F0181
S214001240124B1B68002BFBD10E4A936923F07F03D9
S21400125019439161E4E70C460A4DD5F890306B6A65
S21400126023F0300343F010036B62C1F3C310FFF7A3
S214001270C9FC2B6B06491940214301432963CFE77C
S2140012806828C84300400E406028C8436428C84306
S21400129000F8FF0F124B5B6A13F0300F09D02029BD
S2140012A004D0302916D0A9B10E4A04E04FF400024B
S2140012B001E04FF440020A4BD3F8903032EA0303C1
S2140012C0F9D112F4800F08D0054BD3F8A000C0F374
S2140012D0802070474FF44002EDE70120704700BFC2
S2140012E000400E40FF33E10702280DD110B529B1AA
S2140012F0064B4FF48064C3F8A84059660AB901202B
S21400130010BDFFF7C7FFFBE70120704700400E4007
S214001310F8B504287FD8DFE800F0120D190308009E
S214001320022301260024354614E020231026042438
S21400133005250FE080234026062407250AE04FF403
S21400134000734FF480760824092503E0082304265A
S2140013500224032500294DD0022830D000212E4B30
S2140013601E662E4B23449B001B68002BF9D0002AD8
S21400137051D02A4C2C44A4002368002BF9D0022814
S21400138049D1002947D0244B5B6A13F0010F2CD0BB
S21400139001222021FFF7A8FF0220FFF70BFF0546DA
S2140013A0012200210220FFF7B3FF29460220FFF7A3
S2140013B021FF194B1E662368002BFCD02BE0164B32
S2140013C05B6A13F0300F0ED1154BDB6B124B5B6A6A
S2140013D013F0010FC3D0104F7B6A23F0300343F0A5
S2140013E010037B62BBE70021B9E700210220FFF76C
S2140013F051FFD1E708490B66074BD3F8901001233D
S214001400A3401942F8D132B1034BD3F89020012300
S214001410AB401A42F8D1F8BD00400E408004F210EE
S21400142000300E4070B504460D4611280CD000263C
S21400143004F00F04013C072C00F29880DFE804F06B
S2140014401E701C966E9796A3042903D005290BD010
S2140014500026EDE7FFF7A6F90646002EE8D00021A5
S214001460304600F081FAE3E7FFF798FE06465F4B4A
S2140014709842F2D80026DBE75D4C52E0023D0A2D8A
S21400148074D8DFE805F00615090F737373737318C5
S21400149049000020042410E05648FFF761FB0220B4
S2140014A004460AE05348FFF75BFB0320012404E0F0
S2140014B00120032401E00320052401221146FFF742
S2140014C027FFFFF7B3FB46B14B4B1B6813F0400FEB
S2140014D003D14A4B1B68002BFBD1494B5C67FFF7D7
S2140014E04FF90446FFF720F9FFF73AFB424B1B681B
S2140014F013F0400F03D1414B1B68002BFBD1414B2F
S2140015005968C1F301412046FFF7A2FB76BB0121D3
S214001510002000F029FA29E00724D2E73A4C00E040
S2140015203A4C013D092D21D8DFE805F005070E20CD
S21400153020152020201E002317E00122114600203F
S214001540FFF7E6FE022310E0012211461046FFF7E1
S214001550DFFE012309E0FFF7E7F8FFF701FB2C4B5E
S21400156001221A60032300E00423236070BD072DC8
S21400157005D0092DFAD1224B01221A67F6E7204B37
S21400158000221A67F2E7013D072DEFD801A353F8B2
S21400159025F000BFB51500006D1500006D150000A4
S2140015A0C71500006D1500006D150000B915000088
S2140015B0D515000000210EE0012211460420FFF799
S2140015C0A7FE012107E0012211460220FFF7A0FE38
S2140015D0022100E003210A4AD2F85C3123F03003EE
S2140015E043EA0113C2F85C31C0E700BF002D3101A9
S2140015F084400E400148E8013C300E40C800C64317
S21400160000400E4000300E4088400E4080400E40A5
S2140016100816C84370B504461120FFF7FDFB0122EB
S21400162000210220FFF774FE237C022B29D0002223
S214001630154E736A23F00103134373622278134B2B
S2140016401A60A288637A43EAC223F362356B05F018
S2140016507F65E08845EAC025A07A0543207A45EAFA
S214001660C015FFF7CFFA28433063627BA37B1B01CC
S21400167043EA0233E27B1343227B43EA024373636B
S21400168070BD0122D4E700BF00400E40A004C8434E
S21400169038B505461120FFF7BFFB0D4A916B0D4B81
S2140016A00B402C781C436B7844EAC324AB7844EA9E
S2140016B00364EB7844EA0324936BA34206D001222A
S2140016C000210846FFF724FE014B9C6338BD00BF8F
S2140016D000400E4080E4FFF8EFF3108072B67047CB
S2140016E000B962B67047EFF31180602383F3118868
S2140016F0704780F3118870471A48C26CC2F3032201
S214001700194B1B8803F1280103EB510328330132E0
S21400171002EB8201B3FBF1F3013B072B28BF072343
S214001720C16C21F0EE6141EA036343F48013C364A5
S2140017300E4BB3F90030002B13DB9BB203F12801EC
S21400174003EB51032833510801EB4202B3FBF2F3DB
S214001750072B28BF0723026D22F0700242EA03130C
S2140017600365704700300E40BA150020BC150020F7
S214001770024B1880024B1980704700BFBA15002034
S214001780BC15002010B1012804D07047034B044A52
S2140017909A657047014B034A9A65704700300E40C1
S2140017A077402057372110B71A4BD3F880310329DA
S2140017B029D8DFE801F002121518DBB24AB91B037C
S2140017C033F4704121D11448C16E21F4704119439D
S2140017D0C166012A09D001207047C3F30723EDE74D
S2140017E0C3F30743EAE71B0EE8E71B0333F4704234
S2140017F00DD10949D1F8EC2022F470421343C1F808
S214001800EC30012070470020704700207047002011
S214001810704700BFB081E00F00300E401B02DAB107
S2140018200122134340F20112934237D0B3F5817F71
S21400183014D340F20122934237D01CD9B3F5407F2F
S21400184041D040F20132934244D1244BD3F8783150
S2140018501A0EC3F307431EE00022E2E7012B14D062
S21400186053B3B3F5807F35D11C4BD3F86C311A0EC9
S214001870C3F307430FE0B3F5007F2BD1174BD3F824
S2140018807031C3F30722DBB205E0144BD3F8743192
S214001890C3F30722DBB203600A6070470F4BD3F82E
S2140018A074311A0EC3F30743F5E70C4BD3F87831BF
S2140018B0C3F30722DBB2EEE7084BD3F86C31C3F371
S2140018C00722DBB2E7E7054BD3F870311A0EC3F3F5
S2140018D00743E0E700221346DDE700BFB081E00FD4
S2140018E01D4B1B6813F0400F34D11B4B1B6813F0C5
S2140018F0400F03D1194B1B68002BFBD1184B5B68BC
S214001900C3F30143984225D070B50D460446154BE7
S214001910D3F80031FEF708FF0646022C11D0C4F1BA
S2140019200202102393400E4A136145B10A4B1B680E
S21400193013F0400F03D1094B1B68002BFBD124B1D9
S21400194070BD0221FFF784F9E9E700213046FFF772
S2140019507FF9F5E7704700BF3C300E40C800C6432D
S21400196000300E4000400E4038B5114B1B6813F097
S214001970400F0BD10D4650B10E4B1B7813B10E4BDA
S21400198098420FD929460020FFF7AAFF38BD0B4B17
S214001990D3F80001C0F30420441CFEF7C5FE04FB88
S2140019A000F0E9E729460220FFF79AFFEEE700BFBE
S2140019B03C300E40C0150020002D310100400E4086
S2140019C0134B9A6922F03F020378D3B1042341787F
S2140019D0C9B102210B438178B9B108210B43C17804
S2140019E0012900D000210B4301790B431343084A19
S2140019F09361136823F44033417943EA014313604B
S214001A0070470023E3E70021E4E70021E6E700BF94
S214001A1000300E4010B42B4B5A6B4AF6E85159630F
S214001A20284B9B6F13F0010FFAD1264B1B6C13F05B
S214001A30030302D0244901240C60D9B2814220D08D
S214001A40032B00D01BB9431EDBB2012B1FD91D4B45
S214001A509B6F13F0010FFAD11A490B6C23F00303A6
S214001A6003430B64174B9B6F13F0010FFAD1003042
S214001A7018BF0120144B1860012A1ED05DF8044BD5
S214001A8070470028FAD1104B00221A60F6E70D4B7B
S214001A904FF40021D9620B4B9B6F13F0010FFAD164
S214001AA008490B6C23F0030343F001030B64054B5A
S214001AB05B6A13F4002FFAD0C9E7024B00225A6380
S214001AC0DCE700BF00300E40B40AC6432DE9F04FF5
S214001AD089B0002305930693079302930393049318
S214001AE0A0F5E163B3F5966F00F2A580B0F5E16F5F
S214001AF08CBF4FF001094FF0000965D94FF4966A84
S214001B004FF4E165B0F5E16F63D9534BD3F8683114
S214001B101C0E0494C3F307430793019200910446F6
S214001B204E4EF76CC7F301773B464A4602A905A816
S214001B30FFF774FED6F8EC30C3F3012843464A4656
S214001B4003A906A8FFF76AFE651B0799049B5B1AA4
S214001B5003FB05F3B3FBFAF30B44DDF808B0DDF83E
S214001B6014C0ABEB0C0606FB05F6B6FBFAF66644AD
S214001B70DDF80CE00698AEEB000202FB05F5B5FBBF
S214001B80FAF50544049A9A425AD399425AD8AE4571
S214001B905AD3A8425AD8B3455AD3B4455AD8019A0C
S214001BA072B12E4AD26D22F4FE4222F0020242EABE
S214001BB00323B4F5E16F15D902221343274AD365F0
S214001BC0009B8BB9012337E04FF4167A4FF49665E5
S214001BD098E7214BD3F86831C3F307240494DBB2AB
S214001BE007939AE70022E8E7002239464846FFF7BF
S214001BF0DBFD034600B3012241464846FFF7D4FD0D
S214001C000346C8B13246AE4238BF2A46E72A28BF46
S214001C10E7221249496E21F4FF7121F0010141EAE1
S214001C204202B4F5E16F04D901210A430B494A6622
S214001C3002E00021F9E70023184609B0BDE8F08F5E
S214001C400023F9E70023F7E70023F5E70023F3E78F
S214001C500023F1E70023EFE7B081E00F00300E40ED
S214001C6008B5224A136F03F00703D26C12F0010F77
S214001C7008D0012B06D9132821D91438132820D8C8
S214001C80082325E0194AD26C12F0010F01D1012B6E
S214001C9008D9164AD26C12F0010F18D0012B08D9B9
S214001CA0002315E009280ED90A3809280DD808237C
S214001CB00EE0272801D910230AE0082308E00423B1
S214001CC006E0102304E0042302E0102300E00023D3
S214001CD0013B1A0342EA03220449CB6C23F47F43F8
S214001CE01343CB64FFF708FD08BD00BF00300E406D
S214001CF008B5064B1B68064A136F23F00703184304
S214001D001067044B1888FFF7ABFF08BD8009C64371
S214001D1000300E40B815002008B5084AD36E43F0D0
S214001D208073D366064B1B681BB90020FFF7E0FFE5
S214001D3008BD0420FFF7DCFFFAE700BF00300E40C6
S214001D408009C64338B5304B02229A639B6B03F07A
S214001D500F03934202D00025284638BDB0F90C1078
S214001D60C3884A2B09D9B3F5FA7F42D340F6C3128B
S214001D70934241D84FF0005200E00022224BDB6C29
S214001D8023F0405323F00103002938DB01210446E9
S214001D900A4313431C4AD364D2F8EC3043F440732E
S214001DA0C2F8EC308288194B1A80FFF7B5FFB4F9F9
S214001DB00C102089FFF7DCFCA088FFF751FFA07B02
S214001DC0FFF7E0FC012211466088FFF77FFE05461C
S214001DD00028C1D00C4AD36B43F48063D363607889
S214001DE0FFF718FEA37A202B0BD00022084B1A60B0
S214001DF0B2E74FF08052C1E74FF04052BEE70021F5
S214001E00C5E70122F2E700BF00300E40B8150020FB
S214001E109407C6432DE9F8430C4616461F46072A84
S214001E203ED893000F2505FA03F800FA03F5FFF7EE
S214001E3053FC2E4B1A68554005EA080555401D60B0
S214001E40FFF74EFC4FF00008072E3ED94FEA8808F1
S214001E50032505FA08F504F0030404FA08F4FFF76E
S214001E603BFC234B1A6854402C4054401C60FFF740
S214001E7037FC204B33449B001F601F4B33449B00B2
S214001E809DF820201A600123B3401C4AC2F824346F
S214001E901B4B33449B009DF824201A60BDE8F88352
S214001EA0A2F108084FEA88030F2505FA03F900FA9D
S214001EB003F5FFF711FC134B1A68554005EA0905B0
S214001EC055401D60FFF70CFCBEE7B30003259D40A0
S214001ED004F003049C40FFF7FFFB0B4B1A685440CA
S214001EE02C4054401C60FFF7FBFBC2E700A40040F8
S214001EF00CA4004080208510A020851000A0004083
S214001F004021851004A4004008A40040F0B4144604
S214001F103AB143B300EB4002160101258D40264A34
S214001F209551072927D8254E45002F183A013244E7
S214001F3052688F004FF00F0C0CFA07FC22EA0C02D6
S214001F4004FA07F73A4305442F013E44726044B949
S214001F504BBB00EB40000201012303FA01F1184BD2
S214001F609950F0BC704700EB4002160101258D40E9
S214001F70134A9551D5E7114F460035182A013A44C1
S214001F80956801F18042083A92004FF00F0C0CFA67
S214001F9002FC25EA0C0504FA02F22A4335182E0143
S214001FA03744BA60D3E700EB40000201012303FA8E
S214001FB001F1014B9950D4E70CA0004600A0004068
S214001FC00CA0004410B44A790B784C7843EA84039A
S214001FD08C7843EA8413CC7843EA04130C7943EAFA
S214001FE0C42343EA02338A7943EA424304300001B9
S214001FF0024A13505DF8044B704700BF00200440AF
S214002000014B1860704700BF0000844203780BB392
S2140020100123427802B3042213438278F2B11022DD
S2140020201343C278E2B120221343027943EA022323
S214002030427943EA02338279A2B14FF40042134355
S214002040C27943EA0243027A72B900221343084A6D
S214002050136070470023DCE70022DDE70022DFE79D
S2140020600022E1E70022EAE74FF40032EEE700BF85
S214002070002004400B4A53699B0003F03C0311699F
S214002080C1F381110B438370136903F03F03437060
S214002090936903F0F003D269C2F30312134303708B
S2140020A0704700BFD0FF0FE041F0800181657047A8
S2140020B070B5054616461C46084641B1202C22D06F
S2140020C009D9402C1DD0602C1AD1042205E00F48F7
S2140020D0FEF79AFFF2E79CB9102206FB02F25308BD
S2140020E003EB4010B0FBF2F02038094B03EAC000C7
S2140020F02B6823F060032B602B681C432C60686100
S21400210070BD0622E9E70822E7E700BF4041050068
S214002110F8FF7F0038B505461446084631B1013849
S2140021206400B0FBF4F00002686138BD0148FEF7B9
S2140021306BFFF4E740410500CB435B0003F00A0366
S214002140C360C1607047000040F6AA63C360002306
S214002150036041F20502426083604361C364134A30
S2140021608264036643678367C367114B98420BD04C
S21400217003F58063984207D003F58063984203D046
S21400218003F58063984201D100230365002383652D
S21400219003F1804303F58233984203D003F50063CE
S2140021A0984201D10023C365704700BFF9FF0100C4
S2140021B00000014038B505460C46FFF7C5FFA37C76
S2140021C01BB12B6843F080432B60E37C33BB637BFF
S2140021D0228A1343E28913436B60237BA2686168FB
S2140021E02846FFF765FF637D1BB12B6843F48033F9
S2140021F02B60A37D1B0703F0E043E27D120502F48B
S214002200E00213432B666B6F23F030036B676B6F34
S214002210227E13436B672378EB6038BD217D28460A
S214002220FFF742FFD3E738B505460C46FFF78CFFAD
S2140022302A68238A43F00103A17B00292DD04FF49E
S21400224080610B4313432B602B68227D3AB34FF01B
S214002250005213432B60A37C1BBB237B43F48053A9
S2140022606B60A26861682846FFF754FF637B0BB17A
S2140022701023EB60637D1BB12B6843F480332B6027
S214002280A37D1B0703F0E043E27D120502F4E002A3
S21400229013432B662378EB6038BD0021D1E700227C
S2140022A0D7E7E17C2846FFF7FFFED6E7036913F081
S2140022B0800FFBD0C069C0B27047036913F0400FAF
S2140022C0FBD04163036913F0200FFBD0C069C0B296
S2140022D07047036913F0400FFBD04163704700005E
S2140022E0411100F01F00012303FA00F0034A52F8E0
S2140022F02130034342F82130704700BFD01500203C
S214002300044B1B681BB1044B036000207047012080
S214002310704700BFE01D0020C415002030B4104CEC
S214002320246894B184180F4D2D88AC4210DCCC186C
S2140023300C4D6D88AC420DDC72B17BB1094CA080AF
S214002340E18022816381002000E0012030BC7047DC
S2140023500420FBE70420F9E70520F7E70520F5E76A
S214002360E01D0020C41500202DE9F04F83B09846EC
S214002370454B1B68002B7FD09146444AB2F80AA012
S214002380AAEB0104138903FB04F31B1A434577D316
S214002390D788BA441FFA8AFA0F44BFB2002435E041
S2140023A005440CE0C30800F00706012101FA06F612
S2140023B0D15C21EA0601D154461CB0B20134A842D1
S2140023C01ED2E31019F8033004F007010B4113F096
S2140023D0010FE7D0C30800F00706012101FA06F650
S2140023E0D15C3143D154E7E75A4609EBE401304665
S2140023F005F01FFF4FEACB031C44ED1A5E4426E0AF
S2140024000198FFF76DFF0137BFB20020B8F1000F4B
S21400241030D0574536D21D4B1D892D1A454528BF4D
S2140024204546A8EB05080197194A02EB07129E8855
S214002430304480B210F0070FB2D114F0070FAFD1BE
S214002440072DADD902EBD0065FEAD50BCCD1002D17
S214002450D6D00123AB40DBB2591E96F900205B4272
S21400246013405BB2E21019F802200A40134333709F
S2140024702C44C5E7002000E0012003B0BDE8F08F43
S2140024800320FAE70420F8E7E01D0020C41500202A
S214002490E01500202DE9F04F83B09A460D9E474B7D
S2140024A01B68002B00F08580454BDD88B3F80A904A
S2140024B0A9441FFA89F90D44ADB214E0574628E046
S2140024C0C70800F00701012202FA01F1DA5D0A43AB
S2140024D0DA55013080B2A042F2D30198FFF700FF30
S2140024E00135ADB20020002E5FD04D4563D2344B8F
S2140024F01C89241AB44228BF3446361B9B881844CD
S21400250080B201952F4B03EB0513BAF1000FD5D01F
S214002510FF27072C12D80444002FDCD10BE0C70895
S21400252000F00701012202FA01F1DA5D22EA010257
S214002530DA55013080B2A042F1D3CEE7C10803EBF2
S214002540010810F0070013D001228240D2B202F137
S214002550FF3C13F801E052423A4052B20CEA0E0C2D
S21400256042EA0C025A5408F101082044A0F108047B
S2140025705FEAD40B10D1002CAFD0012303FA04F489
S214002580E4B2621E98F9003064421C4064B2174000
S214002590274388F80070A0E75A463946404605F0BB
S2140025A06CFEA4EBCB04D844E5E7002003B0BDE8FE
S2140025B0F08F0120FAE70420F8E700BFE01D0020B6
S2140025C0C4150020E0150020144B1B680BB100203A
S2140025D0704710B582B0FDF789FF10B1012002B038
S2140025E010BDFDF777FF0D4B1860A8B101880C4BA6
S2140025F0198042885A8000249C80DC8019815A8188
S21400260002FB01F201920094234622462146204610
S214002610FFF740FF2046E2E70120E0E7E01D00204C
S214002620C4150020F8B51D4B1C680126002319466A
S21400263010E00BB9013117E00A46194F07EB0111FC
S214002640FDF7ECFE28BB691C00230DE0134A52F888
S21400265026400136CD18134A10684288954209D2A2
S21400266014F0010FE5D00133CA1812F01F0FEDD099
S2140026706408EFE733B10A46094C04EB0111FDF795
S214002680CDFE40B910220021044805F0F6FD0020DA
S214002690F8BD0720FCE70720FAE700BFD0150020AA
S2140026A0E0150020E01D002040B108B50268538800
S2140026B0128800210846FFF731FE08BD0520704746
S2140026C0034650B10020D860186119680A88013A9C
S2140026D05A614A88013A9A6170470520704780B16E
S2140026E008B503468089198A5A69121A92B29B69FC
S2140026F05B1A9BB2013301329BB292B2FFF70EFE19
S21400270008BD0520704738B370B584B0044629B3B9
S2140027100B688A68934223DA4868C968884222DAD6
S214002720002B22DB002822DB26683588013DAA42E2
S2140027301FDC7588013DA9421DDC009301900292C2
S214002740039104F10C0504AB13E90F0085E80F00B4
S2140027502046FFF7C4FF04E005207047052000E090
S214002760042004B070BD0420FBE70320F9E7032033
S214002770F7E70320F5E70320F3E7000030B587B05E
S21400278020B30446002343606FF07F43836005A8B0
S214002790FFF7B6FD054610B1284607B030BD059BCD
S2140027A023600022019202921A88013A03925B8803
S2140027B0013B049301A92046FFF7A5FF0546002824
S2140027C0EAD10349204600F0BDF9E5E70525E3E731
S2140027D058D9000010B4040C0C70010A117018705F
S2140027E05DF8044B704730B310B584B004460DF165
S2140027F00D030DF10E020DF10F014068FFF7EAFF21
S2140028002046FFF751FF034610B1184604B010BD2E
S2140028102368188959899DF80E309DF80F2001FB12
S21400282000F101919DF80D10009100210846FFF778
S21400283031FE0346E9E705231846704750B310B546
S21400284084B004460DF10D030DF10E020DF10F01DB
S2140028504068FFF7BFFF2046FFF741FF034610B171
S214002860184604B010BD6169E068081AA1692369BA
S214002870C91A01319DF80F209DF80E309DF80D40C5
S21400288000FB01110191009400210846FFF702FEAB
S2140028900346E5E7052318467047C8B170B582B011
S2140028A0064615460C460C3000F04EF810B90120CE
S2140028B002B070BDB268D3B2012101910093C2F399
S2140028C00723C2F30742A9B2A0B2FFF7E3FDEFE782
S2140028D005207047C0B170B582B01E4615460C463E
S2140028E00C3000F031F810B9012002B070BDF3B220
S2140028F0012201920093C6F30723C6F30742A9B24A
S214002900A0B2FFF7C7FDF0E70520704738B50546CB
S2140029101C4688B291B2049B9BB2A2B2FFF7FEFCA3
S214002920034608B1184638BD049B03FB04F3059A1A
S21400293000210846FFF718FD03460028F2D1284676
S214002940FFF7CDFE0346EDE7034678B10068884200
S2140029500EDC986888420DDB596891420CDCDB6817
S214002960934201DB0120704700207047002070472B
S2140029700020704700207047002070472DE9F04F78
S21400298083B09DF83070002800F092800546A1F1D3
S2140029902000C0B25E2800F28D8095F8280002283C
S2140029A01ED0203989B20091298C013900988842BE
S2140029B000F384809A469146EB6901934FF0000B32
S2140029C0D84695F8253043456ED995F82230012B28
S2140029D014D0022B17D0019B009A53F8226010E007
S2140029E0A1F1300080B200903A2904D02029DBD132
S2140029F00B210091D8E70A200090F7E7019B009A88
S214002A009E5C002413E0019B009A33F81260F8E7FE
S214002A1008EB0A0204EB09012846FFF73EFF0128EF
S214002A2049D808B90BF1010B76080134A4B295F821
S214002A302430A34215D916F0010FE9D1002FF3D0A8
S214002A406B6808EB0A0204EB09012846FFF742FF11
S214002A50012830D80028E7D10BF1010BE4E7013458
S214002A60A4B2214695F8243095F8272013449C42BA
S214002A700FDA002FF3D06B6808EB0A0249442846A9
S214002A80FFF728FF012816D80028E8D10BF1010B24
S214002A90E5E795F82330009A13449BB2009308F1BB
S214002AA001081FFA88F88CE7BBFA8BF0400902E0B1
S214002AB0052000E0022003B0BDE8F08F0220FAE710
S214002AC02DE9F04F85B00E9D9DF83CA0A0B30646BC
S214002AD0A1B390F8280098B30393914688461F4602
S214002AE00024A3460EE096F825301D4496F82630BE
S214002AF01D44039F05E096F8243096F827201344DB
S214002B001F4401344C4511D218F804100A29EAD0A3
S214002B10CDF800A02B463A463046FFF72FFF012897
S214002B2007D80028E7D10BF1010BE4E7BBFA8BF0DE
S214002B30400905B0BDE8F08F0520FAE70520F8E764
S214002B400220F6E768B108B529B110221C3005F05E
S214002B5070FB002008BD10221C3005F08EFB0520FF
S214002B60F8E705207047F0B583B004460E461546D4
S214002B701F46084605F093FB94F8243000FB03FC40
S214002B8094F8251094F826201144099A01FB052193
S214002B90012F03D0022F13D0002304E023681B88E4
S214002BA0A3EB0C035B089DF8282001920091089A7D
S214002BB01344024631462046FFF782FF03B0F0BDBD
S214002BC023681B88A3EB0C03EDE7000038B504462A
S214002BD006F06BF8044D0FCC0FC594E80F0085E89F
S214002BE00F00002038BD00BFE41D002047F6FF732D
S214002BF09A4276D0022976D8F0B40D463C4B03EBC9
S214002C00C1008478012CB8BF0124204613F8313067
S214002C10012B24D0364B03EBC1035C68002C64D038
S214002C20B4F90060964204DBB4F90260964200DC18
S214002C301646A388FF2B26D02827C8230022354611
S214002C409B1B93FBF7F313441BB2294A02EBC1010B
S214002C504E78721E12B29A422BDB1A4629E0244B9B
S214002C6003EBC101C878001B01E0013800B238B19F
S214002C701F4B03EBC5035B6833F910309342F4DC5B
S214002C802044C0B22BE0B4F90630B4F90870012233
S214002C90D5E703F5FA731749A1FB03139B09013225
S214002CA012B21746B2420FDA04EBC2018988994283
S214002CB00AD304EBC2018F68B1F9063003FB057333
S214002CC0002BE6DA0023E4E77A1E04EBC2029288C1
S214002CD09A4200D31A46824200D31046C0B2F0BCD5
S214002CE07047FF207047002070470020F7E700BFBE
S214002CF0E41D0020D34D621002296ED83C4B13F819
S214002D003130012B2DD0002A69D0F0B5384B03EBBB
S214002D10C1035C68002C64D0251D64D09646B4F9C7
S214002D200200074682423ADD314B03EBC103DB78F3
S214002D30934232D92E4B03EBC1014B7803F1FF3C93
S214002D405FFA8CFCA188FF292AD0002363452CD289
S214002D50591C35F8316091B28E4226D30133DBB26E
S214002D60F4E7234B03EBC103DB78934200D21A4609
S214002D701F4800EBC10080780128ACBF121A02F190
S214002D80FF32D2B21B1A9A4200DD0022184B03EB28
S214002D90C1014B6833F912007047B4F90000F0BD6A
S214002DA0A3F1020C5FFA8CFCCFE74FF47A7202FBB9
S214002DB00EF205EBC3035968521AB3F9021001EB81
S214002DC0D17302EB630393FBF1F3B4F900209A424C
S214002DD00BDB9F42E3DC18B2E1E706487047064883
S214002DE070470448DBE70348D9E71046D7E700BF3B
S214002DF0E41D00200080FFFF0CFEFFFF08B503481F
S214002E00FFF7E4FE012005F097FF08BD88DC000010
S214002E1070B582B004460D4605F090FF08B102B0CA
S214002E2070BD6946204605F042FF00B1FEE76A68BD
S214002E300F4B9A420ED80F4D9DF800302A789342D9
S214002E40EDD0032B08D164262946204605F017FF4F
S214002E5038B1FEE7084DEFE7204605F051FF06467D
S214002E60F2E73146204605F026FF0028D7D0FEE7D9
S214002E70FFC99A3B341000202C1000200020704719
S214002E8030B585B005460C461D4B93E8070004ABED
S214002E9003E90700284606F06AF8611E042929D8C7
S214002EA0DFE801F0030C11171D00284606F07AF83B
S214002EB00446CCB104BB204605B030BD284606F01B
S214002EC077F80446F5E70021284606F077F804462A
S214002ED0EFE70221284606F071F80446E9E728469F
S214002EE006F05AF80446E4E701A9284605F07AFCFD
S214002EF00446DFE70124DDE7284606F049F8DAE76E
S214002F0040DD0000F0B589B007460E4601AC184D0E
S214002F100FCD0FC495E8070084E8070001A93846DE
S214002F2005F0ACFF044650B9063E032E1DD8DFE878
S214002F3006F0020D1217384605F0D4FF044614B109
S214002F40384605F0EFFF204609B0F0BD384605F0DC
S214002F50CFFF0446F3E7384605F0D6FF0446EEE713
S214002F60384605F0CBFF0446E9E70124E8E700BF52
S214002F704CDD0000F0B589B006460F4601AC114D99
S214002F800FCD0FC495E8070084E8070001A9304676
S214002F9005F074FF044648B90A2F03D00B2F0CD057
S214002FA0012404E0304605F0B9FF044614B130466B
S214002FB005F0B8FF204609B0F0BD304605F0AAFF80
S214002FC00446F3E768DD0000F0B587B006460F4616
S214002FD06C463F4D0FCD0FC495E8030084E8030010
S214002FE06946304605F0F4FF044680B90C3F0D2FC5
S214002FF068D8DFE807F00713191F252B31373D4344
S214003000494F555B3349304605F0E8FF0446002C2F
S21400301052D0002C58D1204607B0F0BD2E4930467D
S21400302005F0DCFF0446F2E72C49304605F0D6FFF3
S2140030300446ECE72A49304605F0D0FF0446E6E7AA
S2140030402849304605F0CAFF0446E0E726493046E0
S21400305005F0C4FF0446DAE72449304605F0BEFF13
S2140030600446D4E72249304605F0B8FF0446CEE7CA
S2140030702049304605F0B2FF0446C8E71E493046F0
S21400308005F0ACFF0446C2E71C49304605F0A6FF33
S2140030900446BCE71A49304605F0A0FF0446B6E7EA
S2140030A01849304605F09AFF0446B0E71649304600
S2140030B005F094FF0446AAE7FF21304605F08CFF92
S2140030C00446A6E70124A4E7304605F083FFA2E7FE
S2140030D084DD000070F1000090F10000B0F1000007
S2140030E0D0F1000010F20000F0F1000030F2000015
S2140030F050F2000070F2000090F20000B0F2000003
S214003100D0F20000F0F2000010F3000008B5192914
S2140031101DD8DFE801F00D10101010101313131354
S2140031201616191919191919191919191919191910
S214003130FFF7A4FE08BDFFF7A3FEFBE7FFF7E2FEDE
S214003140F8E7FFF717FFF5E7FFF73EFFF2E7012086
S214003150F0E7000000B587B00023019303930493C3
S214003160059302238DF804300C4B029306228DF84B
S2140031700C2001238DF80D300C218DF80E108DF8E3
S21400318012208DF813300D238DF8143001A94FF05E
S214003190FF3005F031FE07B05DF804FB006A18004A
S2140031A008B56FF007014FF0FF3005F028FE08BDA8
S2140031B02D2822D8DFE800F0172121212121212106
S2140031C021212121212121212121212121212121EA
S2140031D02121212121211B212123212121211D21E2
S2140031E02121211F211907487047074870470748C3
S2140031F070470748704707487047074870470748B2
S214003200704700BF38DF0000CCDD0000E0DD0000C6
S21400321008DE000020DE000040DE0000A4DD000026
S21400322010B504464FF42D72002105F026F88023D1
S214003230C4F88C300023C4F89030C4F8943084F876
S2140032409830054A626001222272C4F8A83204F15E
S2140032509C00FDF7E3F910BD9CDD000010B50A46A2
S214003260D0F8A03033B1D0F8A41010469847002408
S214003270204610BD00F092FD04460028F8D0FFF767
S21400328097FF0146014801F0F4F8F1E7A0DD0000E1
S21400329038B5044600F10905284605F000F800B9DF
S2140032A038BD204600F014FF29462046FFF7D6FF1B
S2140032B0204600F01EFEF3E7F8B50778AFBB0546DC
S2140032C001230370037A0BB93E4613E00023037212
S2140032D04168174801F0CDF8F6E701F0AEF804466D
S2140032E011E0E1B2284600F037FF0746B4F1FF3F91
S2140032F00ED06FB9D5F8B042B4F1FF3FEDD04FF025
S214003300FF33C5F8B032B4F1FF3FEAD10126EDE74E
S2140033101FB900232B703046F8BD2846FFF7B8FFCC
S2140033206968034801F0A5F8F3E70026F3E700BF55
S21400333060E9000038B504460D46FFF771FF6B687C
S214003340C4F8AC32A968204600F0ECFB4FF0FF331F
S214003350C4F8B032002038BD08B5FFF7ADFF08BD91
S2140033601038072801D90020704701207047A0F1C7
S2140033701003072B00D8D8B27047F8B506460D469E
S21400338017460B78302B0DD000242B5D002B52D027
S21400339004F020FF2B5D1844437813F0040F6FD021
S2140033A00134F2E74B78782B03D0582B0ED000244C
S2140033B0EBE702242B5D5BB104F00CFF2B5D184499
S2140033C0437813F0440F59D00134F3E70224F1E7B1
S2140033D0724206F0030302F0030258BF5342032B67
S2140033E00CD0284604F05BFF02383346002E20DB64
S2140033F0B0EBA30FD4BF0120002042E0284604F023
S2140034004EFF0238013609D4B610B04208D1A8786B
S21400341030380728CCBF0020012032E00336F3E71F
S214003420284604F03CFF02388642D4BF0020012024
S21400343027E0F31CDCE70A220021284605F0A4F862
S214003440202E14D037B150EA010303D010F1FF301C
S21400345041F1FF31012303FA06F6013E00EA0602B7
S21400346000238B4206BF82420120002009E0002391
S2140034708B4206BF80420120002002E0002000E0D0
S2140034800020F8BD08B50B782D2B04D0002201389B
S214003490FFF773FF08BD012211440138FFF76DFFE7
S2140034A0F8E703787B2B01D00020704770B5044600
S2140034B0002601252846635D7D2B10D004F08AFE89
S2140034C0635D1844427812F0440F02D0013601358D
S2140034D0F0E7202B01D0002070BD0135EAE720443C
S2140034E0437833B916F0010F01D10120F4E700202C
S2140034F0F2E70020F0E708B5072826D8DFE800F056
S214003500060B1015191D0421012008BD00220820F5
S214003510FFF733FFF9E700221020FFF72EFFF4E74E
S21400352000222020FFF729FFEFE70820FFF7AAFF79
S214003530EBE71020FFF7A6FFE7E72020FFF7A2FF44
S214003540E3E70846FFF7ADFFDFE70020DDE72DE9FC
S214003550F04383B00E4690461F460A9C0B9D2128DA
S21400356027D8DFE800F011293C4E6174868A2626AB
S21400357026262626262626262626262626262626E6
S21400358026262626262626B400221146304605F094
S2140035908BF82B68C0B247F823002B68226807EB2D
S2140035A0830748F822702B6801332B6023680133A9
S2140035B0236003B0BDE8F08300221146304605F0D4
S2140035C073F82B6880B247F823002B68226807EB55
S2140035D0830748F822702B6801332B60E6E7002249
S2140035E01146304605F060F82B6847F823002B6834
S2140035F0226807EB830748F822702B6801332B609C
S214003600D4E700221146304604F0F4FE40B22B68A0
S21400361047F823002B68226807EB830748F82270D8
S2140036202B6801332B60C1E700221146304604F0B8
S214003630E1FE00B22B6847F823002B68226807EBF0
S214003640830748F822702B6801332B60AEE7002210
S2140036501146304604F0CEFE2B6847F823002A6851
S214003660236807EB820748F823702B6801332B602A
S2140036709CE7236848F8231098E700278DF8067023
S214003680B94601250FE001350DE08DF8053009F14A
S21400369001091022002101A804F0ACFEBB1CF05466
S2140036A00137BFB20135735D7D2B09D0202BEAD0E0
S2140036B019F0010FE9D18DF8043009F10109F1E79D
S2140036C037703F0A7770236848F823606EE72368F0
S2140036D048F823106AE72DE9F04F87B000240594D8
S2140036E004948B4200F38D809A461646894605461A
S2140036F02746A04602E04FF001080134285DFF2867
S2140037000CD02028F7D0212805D0FFF729FE002866
S214003710F3D00746F1E74FF00108EEE75444B8F15E
S214003720000F08D0013C4C456FDC0024A346A046A1
S214003730FF23029348E03FB1013C4C4567DC002480
S214003740A346FF2302933FE0A14562D1B84600247A
S214003750A346FF23029337E005EB0B035B78FF2BB2
S2140037600FD02B204EE0039B2B445B78FF2B52D1CF
S2140037704FF0010805E00BF1010B029701E006236C
S2140037800293B8F1000F13D156F82410029F384662
S214003790FFF7B1FE002842D004AB019305AB0093BF
S2140037A0119B109A56F824103846FFF7D0FE0AE010
S2140037B004AB019305AB0093119B109A56F82410A6
S2140037C02120FFF7C4FE01344C4518DA5445D6DBF9
S2140037D0CDF80CB015F80B70202FBDD0212FC2D01D
S2140037E03846FFF7BDFD0028C5D0039B2B445B7809
S2140037F0FF2B12D13846FFF7BAFD0290C1E7002032
S21400380000E0212007B0BDE8F08F2B20FAE72B2040
S214003810F8E72B20F6E72B20F4E72B20F2E726200C
S214003820F0E7000011283CD00BD9162841D01DD94E
S214003830212842D023D817283DD0202841D123481C
S2140038407047042825D008D801283CD0E8B10228C3
S2140038501DD0032835D11E48704706281DD01AD320
S21400386007281CD010282CD11A48704713281CD0C3
S21400387019D314281BD0152823D117487047FE28C3
S2140038801DD0FF281DD115487047154870471548AC
S21400389070471548704715487047154870471548D3
S2140038A070471548704715487047154870471548C3
S2140038B070471548704715487047154870471548B3
S2140038C07047154870471548704700BFECDE00008B
S2140038D070DE000094DE0000CCDE00000CDF00008E
S2140038E058DE000068DE000078DE000080DE0000A3
S2140038F088DE000090DE0000A0DE0000ACDE0000E7
S214003900B8DE0000C0DE0000D8DE0000E4DE000006
S214003910F8DE000004DF000010DF000060DE0000BC
S21400392008B5FCF7BDFE08BD2DE9F04784B081461A
S2140039308A4690461E460C9F0D9D04462068B0B1F0
S2140039402B683268934212DA57F82310FFF7E8FF25
S21400395008B10C34F2E72B6801332B6063681A7BDE
S214003960FE2A15D001230E9A137088F8003098F8B6
S21400397000304BB90F9B1B7833B9BAF1000F15D046
S21400398001230F9A13704C46204604B0BDE8F0871A
S21400399018680F9B03930E9B02930195009733467E
S2140039A042460121FFF7C0FF0446E0E70024EBE7AC
S2140039B070B506460D4604F072FC0446304600F02C
S2140039C058FD03E0034800F054FD0134AC42F9D33F
S2140039D070BD00BF44E800002DE9F84F0446022100
S2140039E03348FFF7E5FF1E212068FFF7E1FF636815
S2140039F0586800F03EFD2F4800F03BFD6268137BE0
S214003A000233DBB2012B50D902F10C09D2F808A020
S214003A10504604F044FC07464FF0FF34002510E003
S214003A202B2000F01AFD36E000F017FD01341AF8DE
S214003A3004001F2801D0BC42F6DB1E4800F019FD2A
S214003A400135A84619F80560FF2E2ED03046FFF740
S214003A50E9FE8346002F00DD0134202EF0D0144E00
S214003A6002213046FFF7A4FF1E213046FFF7A0FFD5
S214003A70114800F0FEFC1149584604F006FC08B94F
S214003A80DFF844B059460E4800F0F3FCC84498F8F6
S214003A900130202BC4D00B4800F0EBFC002FCCDD0F
S214003AA01AF804301F2BC2D1C7E7BDE8F88F00BF55
S214003AB038DF000098E7000008E90000F8DE0000A4
S214003AC060E9000054DE000050DE000038B5054610
S214003AD0002402E0FFF780FF013404EB4402930069
S214003AE0E818EB5823B1037A002BF3D00134F4E73F
S214003AF038BD10B541B11AB10846FFF76DFF10BDCD
S214003B000846FFF7E3FFFAE7D0F89C4000E0246899
S214003B10002CF4D0A0680028F9D0FFF7D7FFF6E70E
S214003B207047704759B10A790AB10020704710B53E
S214003B3001240C719C30FCF774FD204610BD00205B
S214003B40704700002DE9F04F91B0074603910492AC
S214003B509A46DDF8688000F10904204604F09FFBD1
S214003B6083460023CAF80030C8F8003008AA07A920
S214003B70204600F0A1FC28B100230293029811B061
S214003B80BDE8F08F089804F08AFBCAF80000D7F862
S214003B909C3001930023029399461C46AEE0D8F869
S214003BA000300133C8F8003001343B195B7A202B13
S214003BB0F5D0002411E0D7F89420D8F80030D21AB7
S214003BC0CAF80020296810AB03EB890353F8200CD1
S214003BD004F06DFB009078B1013404EB44029300CE
S214003BE0F518F358002B60D0079B4B455DDB2B7A0E
S214003BF0002BE0D00134F0E7286804F050FB844640
S214003C006A68117BFE2911D0D7F89430D8F80000E6
S214003C101B1A63452ADDFE29DED1079B013B4B4577
S214003C20DAD115680594009C029E4BE0079B013B89
S214003C304B45E9D0166810AB03EB890353F8200C0C
S214003C4004F02DFB0130D8F800300344C8F80030EB
S214003C5002E00133C8F80030D8F80030FA18527A7B
S214003C60002AF6D009F10109009CB6E7039804F093
S214003C7016FB0090286804F012FB009B03447B2B85
S214003C800ED8029B013302932A680499039D2846A6
S214003C90FCF7F3FC1E4A04992846FCF7EEFC9BE76B
S214003CA01C4A04990398FCF7E8FC002319E00499E1
S214003CB00398FCF7E2FC164A04990398FCF7DDFC2F
S214003CC00136013404EB44029300EA58002AEED190
S214003CD0059C0296C8F800B00023CAF80030E4E756
S214003CE001335B4507DAFA18527A002AF8D1FA1837
S214003CF020215172F4E7019B1B680193019B002B66
S214003D003FF43CAF019B9E68002E7FF44EAFF2E777
S214003D1044E8000020DF00002DE9F04786B00446A6
S214003D20894617461D46DDF838800F9E00238DF81D
S214003D3017302B6088F8003033702B6852F8231049
S214003D401548FFF7EDFD40B92B6801332B604FF0A7
S214003D50010AD4F89C40002003E04FF0000AF8E780
S214003D6024688CB1A0680028FAD00396CDF80880A5
S214003D70019500974B460DF117020021FFF7D4FD81
S214003D809DF81730002BEBD0BAF1000F01D00123BD
S214003D90337006B0BDE8F08718DF0000F0B5A3B0BA
S214003DA0054608461AAA19A900F086FB044610B173
S214003DB0204623B0F0BD00238DF80B300DF10B0329
S214003DC001930DF10A03009303AB1AAA19A928461A
S214003DD0FFF7A2FF9DF80B3013BB40B3466806F111
S214003DE00C0711AB019309AB0093039B1AAA199910
S214003DF03846FFF770FC04460028D9D10495199B75
S214003E00059309AB0693039B0793089704A8FFF74F
S214003E1087FE336804A8984704A8FFF782FEC7E722
S214003E209DF80A2001462846FFF763FEC0E72D24CA
S214003E30BEE770B505460024264600E0013405F1CD
S214003E40A80004F02CFAA04207D92B1993F8A83042
S214003E501BB10A2BF2D10136F0E7304670BDF8B53B
S214003E6000230B601360D0F8A8320BB90020F8BD11
S214003E7015460E460746A83004F011FA50B3012145
S214003E80002301E001330131D7F8A8228A4213D972
S214003E90B3F5007FF7D23468013434602C680134FF
S214003EA02C60FA1892F8A8200A2AEBD00133EFE724
S214003EB02A6801322A600133B3F5007F08D2FA1867
S214003EC092F8A8200A2A07D0002AF1D10120CEE7CE
S214003ED00120CCE70020CAE70120C8E708B5014466
S214003EE0487A00F0BAFA08BD08B5082000F0B5FA1E
S214003EF008BD10B50446D0F88C200021093004F027
S214003F00BCF90023C4F89030C4F8943010BD00000B
S214003F10F0B5ADF5457D044680252A460021A4A8C7
S214003F2004F0ABF9A3AB0093A2AB2A46A4A92046A3
S214003F30FFF708FE012810D0012840F3C280802237
S214003F40002102A804F099F94FF40072002122A87B
S214003F5004F093F9012500233FE0A4A804F09FF99C
S214003F600646A29A08E0A39B1344C4A9114411F87C
S214003F70801C234459720132B242F4DBA39B3344C3
S214003F80234400225A72D4F890700AE0D4F89010B5
S214003F902046FFF7A3FFD4F890300133C4F89030E2
S214003FA00137A29DA39B2B44BB42EFDC731BD4F8C6
S214003FB094201A44C4F89420D4F890201344C4F8EB
S214003FC0903006E0C4AB2B4413F8800C00F045FAA2
S214003FD00135B542F6DB74E00133C4AA1A4412F880
S214003FE0802C3AB1202AF7D15A1C22A941F8252064
S214003FF00135F1E722AA42F825300135A4A804F0DD
S2140040004EF9002104E00123CBB102AB5E5401312E
S214004010A94217DAC4AB0B4413F8806C002222AB1B
S21400402053F822308342EED00B44C4AF3B4413F81F
S214004030803CB34201D10132F1E70023E4E702AB52
S21400404000225A54D4F890500AE0D4F89010204633
S214004050FFF744FFD4F890300133C4F890300135B0
S214004060A29BAB42F1DC04F10903174AA4A9174846
S21400407000F0FFF902A804F012F90646A29D2A46AF
S21400408010E0A39B134402A9895C23445972D4F818
S21400409090300133C4F89030D4F894300133C4F82B
S2140040A094300132B242ECDBD4F894301C44002346
S2140040B0637204E002AB585D00F0CFF90135B542FB
S2140040C0F8DB0DF5457DF0BD9CDD000028DF000027
S2140040D0F0B583B004460EE02046FFF7AAFEC4F80B
S2140040E0A80201AA69462046FFF7B9FE009B2344B2
S2140040F0002283F8A82004F10905284604F0CFF82A
S214004100471C04F1A806304604F0C9F8C0F5007054
S2140041108742E1D8284604F0C2F801303718304606
S21400412004F0BDF8421C3146384604F08DF82846A7
S21400413004F0B5F802462946304604F07AF82846D8
S21400414004F0ADF820440A2380F8A8300023C4F811
S214004150A83203B0F0BD00002DE9F843D0F8906017
S214004160D0F8947000F1090890F89830012B0CD024
S2140041700D460446012B0FD9022B00F0C680032BF8
S21400418000F0D0800020BDE8F8830A29F0D1002393
S21400419080F898301846F6E71B2929D00D292CD030
S2140041A0002380F89830082D2BD07F2D65D00D2D5C
S2140041B000F087800A2D00F08480092D00F08E80A4
S2140041C0D4F88C30013BBB4240F3DD80BE42C0F2E7
S2140041D08A8008F806500136C4F89060D4F8943007
S2140041E00133C4F89430284600F037F90020CAE7B7
S2140041F0022380F898300020C5E7012380F8983025
S214004200D1E7002E01DDBE420CD0002E01DDBE42FD
S21400421017DB002E00F0B380C4F89060C4F89470EA
S2140042200020B0E7082000F018F9202000F015F96B
S214004230082000F012F9013E002308F80630013F7E
S214004240EAE7013E082000F008F908EB0605711CB5
S214004250BA1B4144284603F0F7FF002308F807304E
S21400426029464C4800F005F9013F3D4602E0FFF7BD
S2140042703BFE013DB542FADCCEE7002F40F38180DD
S214004280BE4201DB00207EE708EB0605711CBA1B68
S2140042904144284603F0D8FF002308F80730294693
S2140042A03D4800F0E6F803E0082000F0D6F8013FAD
S2140042B0B742F9DCD4F89430013BC4F894300020BF
S2140042C061E70D2000F0C9F80A2000F0C6F80023C8
S2140042D0C4F89030C4F89430012054E72046FFF725
S2140042E017FE00204FE7701C08EB0609BA1B49466C
S2140042F0404403F0A9FF484600F0BBF802E0FFF791
S214004300F3FD013FB742FADA63E75B2904D10323E2
S21400431080F89830002036E7002380F89830FFF7C2
S2140043201BFF30E7002380F89830A1F14105032DEC
S2140043302BD8DFE805F002070D1B012100F02EF850
S214004340002020E74FF0FF3100F028F800201AE7A1
S214004350BE4201DB002016E73146FFF7BFFDD4F86A
S21400436090300133C4F8903000200CE7002E0EDDAC
S214004370013EC0F89060FFF7B7FD002003E700207D
S21400438001E70020FFE60020FDE60020FBE6002017
S214004390F9E600BF34DF00003CDF000030B583B034
S2140043A005460C46FFF745FDB4F1FF3F03D0012C50
S2140043B00ED003B030BDD5F8A83293B1013BC5F896
S2140043C0A8320123D5F8A842BCB1FBB1002414E002
S2140043D0D5F8A8328342ECD20133C5F8A8320123BF
S2140043E0F0E70023EEE7082000F037F8202000F082
S2140043F034F8082000F031F8013405F1090003F024
S2140044004EFFA042EFD82846FFF773FDD5F8A83236
S214004410002BCED001AA69462846FFF720FD0028CB
S214004420C7D0009C019BA342C3D92B1993F8A810B0
S2140044302846FFF791FE0134F4E700B583B00DF18E
S2140044400701002000F095F920B99DF8070003B099
S2140044505DF804FB4FF0FF30F9E710B50446C1B233
S214004460002000F07AF908B9204610BD4FF0FF345E
S214004470FAE70FB400B583B004A951F8040B019114
S21400448002F09EF9002003B05DF804EB04B070471C
S21400449010B54B1CC418C35C222B05D07B2B03D055
S2140044A05C2B01D0002006E00B46521A2146184429
S2140044B003F0CAFE012010BD2DE9F84305468846E4
S2140044C0914603F0ECFE0646002400E001342A196B
S2140044D02B5D202BFAD0C9F800200123C8F8003045
S2140044E030E07B2B14D0D8F8003003F18043013B3A
S2140044F0621C2A4449F823202227012C06D92B19AE
S21400450013F8013C202B01D0002B49D1013404E0E4
S2140045107D27F2E70134A64246D92A192B5DBB4215
S21400452009D05C2BF6D1324621462846FFF7B0FF6D
S214004530C0B3013EEEE75378202B00D0BBBB222F42
S21400454021D00134A64229D92A192B5D7B2BC8D04D
S214004550222BC6D05C2B19D0202BF2D1002313704F
S214004560631CB342EDD2EA18EB5C202BE9D0D8F8F6
S2140045700030072B1FDC49F82320D8F80030013321
S214004580C8F80030DDE700231370DAE7324621462C
S2140045902846FFF77DFF60B1013ED2E7002004E029
S2140045A0212002E0212000E02120BDE8F883212020
S2140045B0FBE72120F9E71E20F7E7000010B584B0DE
S2140045C0054B6C460FCB84E80F002046FDF7BAFB80
S2140045D0002004B010BD00BF40DF000010B582B060
S2140045E000240094ADF8044002238DF80530684698
S2140045F0FDF7E6F9204602B010BD000030B587B0E2
S21400460001AC144D0FCD0FC42B682380124B5B6892
S21400461013F4002F11D1104B9B68C3F30803B3F1BA
S214004620FF3F14D0ADF80A300C48FCF7C1F801A8DB
S214004630FCF7F0FF002007B030BD4FF0FF33084A0C
S21400464012884FF6FF718A42E9D01346E7E740F238
S2140046504713E7E750DF0000B081E00F00F04902A3
S2140046600001E00F00B583B0074B1B68019302A85A
S214004670202300F8043DFDF70BF86420FCF794FDBA
S214004680002003B05DF804FB64DF00006FF0040355
S21400469007E003F00F010A4A0A44A021117601330D
S2140046A05BB2322B09DC002BF3DB03F1604202F530
S2140046B06142A02182F80013F1E70020704700BF96
S2140046C0FCEC00E010B50446FDF706F8024B1C6053
S2140046D0FDF706F8002010BD041E002010B5FCF7FC
S2140046E0FBFF034B1C68FCF7FBFF204610BD00BF1A
S2140046F0041E002070B50D461646034638B153B169
S2140047005C6854B1324629461868A04770BDFFF76A
S214004710E5FF0346F3E72320F8E72320F6E72DE935
S214004720F04182B00F4690461D46044658B175B11A
S2140047307CB1A6687EB12B46424639462068B04713
S21400474002B0BDE8F081FFF7C9FF0446EFE701AD10
S214004750EEE72320F4E72320F2E700B583B002ABB0
S21400476003F8011D01221946FFF7C4FF03B05DF8E8
S21400477004FB08B500230122FFF7D1FF08BDFEE7C2
S21400478080F82010704790F820007047F8B504466F
S2140047900D46174690F82030DBB9002605E0236862
S2140047A015F8011B204698470136BE42F7D3002075
S2140047B0F8BD236815F8011B204698470136BE420F
S2140047C0F5D22B780A2BF4D123680D212046984782
S2140047D0EFE70026F3E7000038B504460568FFF764
S2140047E07DFF844227D095F92130002B08DB03F0AB
S2140047F01F015B0901228A406033114941F82320DA
S21400480095F92130002B0CDB03F01F015B09012218
S2140048108A4020330A4941F82320BFF34F8FBFF365
S2140048206F8F002323606360A36023616361AB68BE
S2140048302846984738BD0020FFF744FFD3E700BF5F
S21400484000E100E070B504460E46FCF74CFF6569D3
S214004850FCF74FFF9DB1A269E368D35C3370E36851
S2140048600133E360E26993420BD0FCF73CFF6369D7
S214004870013B6361FCF73DFF636820469847284686
S21400488070BD0023E360F0E7F8B507460D46164610
S2140048901C46002323602368B34209D229463846C3
S2140048A0FFF7D0FF20B10135236801332360F2E71C
S2140048B023680BB10020F8BD1B20FCE7F8B555684F
S2140048C0002D44D09568002D43D01F4615460C4653
S2140048D0064624220021204603F0CFFC6B68A36125
S2140048E0AB68E3612B7B84F820302760069B63600F
S2140048F0079BA36095F9003084F821303460164B8E
S2140049007360164BB360164B3361164B7361164BD0
S214004910F36095F90030002B08DB03F01F015B09FC
S21400492001228A406033114941F8232095F900306E
S214004930002B07DB03F01F015B0901228A400B49AD
S21400494041F823203046FFF7BDFE0020F8BD2220A8
S214004950FCE72120FAE700BF8D47000089480000E9
S2140049608147000087470000D947000000E100E0CB
S2140049704269C3699A4201D30020704701207047FC
S21400498082690369D15403690133036142690132C4
S2140049904261C269934200D0704700230361FBE77F
S2140049A0426AD36C43F00403D364704710B50446E0
S2140049B0636A1B6913F0400FFAD000231A4694F876
S2140049C02D1094F82C00FDF7A1FA00231A4694F84F
S2140049D02F1094F82E00FDF799FA94F8343063B946
S2140049E094F8343093B90021606AFDF7A5FB0021E6
S2140049F0A06AFCF73DF9002010BD00231A4694F883
S214004A00311094F83000FDF781FAE9E700231A46E2
S214004A1094F8331094F83200FDF778FAE3E708B517
S214004A20406AFDF756FC002008BD00002DE9F04165
S214004A3084B016461C460A9D012303930293584BE6
S214004A400193584B0093584B0A462946FFF736FF0A
S214004A50074618B1384604B0BDE8F08123686B629B
S214004A606368AB62637A85F82D30237A85F82C303C
S214004A70E37A85F82F30A37A85F82E30637B85F8A5
S214004A803130237B85F83030E37B85F83330A37BE9
S214004A9085F8323001214548FCF7EAF80121444800
S214004AA0FCF7E6F801230422617A207AFDF72EFA55
S214004AB001230222E17AA07AFDF728FA0121606834
S214004AC0FCF7D6F84FF0000886F8008031462068DC
S214004AD0FDF770FB2268536F43F0030353672268A9
S214004AE0936F23F4F85323F01F03217C43EA01233A
S214004AF0617C0B439367236803225A6785F83480EA
S214004B00337E102B0DD008D9202B2FD0302B44D13C
S214004B10032385F83430012507E0002B3DD100251E
S214004B2016E0012385F83430002500230222617B3D
S214004B30207BFDF7EBF9A27C2368DA672268536EC8
S214004B4043F0040353662268536F43F01003536721
S214004B508DB9236804229A642268D36C43F0040358
S214004B60D36405212068FDF7E7FA73E7022385F88A
S214004B7034300125ECE700230422E17BA07BFDF71F
S214004B80C5F92268D36FE17C43EA0123D367226824
S214004B90536F43F020035367DBE723275AE700BF32
S214004BA0AD490000A14900001F4A00004041050031
S214004BB000350A00436A1B6913F0800F00D1704766
S214004BC010B50446FFF7D4FE28B9626AD36C23F00A
S214004BD00403D36410BD606AFDF768FB01462046F7
S214004BE0FFF7CEFEF6E7013840EA500040EA9000B4
S214004BF040EA101040EA102040EA104001307047AA
S214004C0070B504460D461E461046FFF7ECFFB0F59D
S214004C10807F38BF4FF4807043422340C21803E0C1
S214004C20400043422340C218AA42F9D33360049B93
S214004C301A60059B186070BDB0FA80F0C0F11E00C7
S214004C40C0B2704770B586B0002305930493BFF3D7
S214004C504F8FBFF36F8F374A536A23F48033536204
S214004C60354C636823F0010363604FF00050FFF794
S214004C70E3FF324A1368400000F03E0040F09850D0
S214004C8040F00110A3604FF00051E1602061013355
S214004C9013602B4D2B4CA5423AD003AB019304ABCB
S214004CA0009305AB2A1B29462046FFF7A9FF039869
S214004CB0C20800D12022049B5B1BB3FBF2F3012148
S214004CC001FA03F3DBB2013BDBB2059E013DAD1BEF
S214004CD0B5FBF2F50D44AB40DBB2A41BB4FBF2F41B
S214004CE001FA04F4013CE4B21C43FFF7A5FF1349A4
S214004CF00B68400000F03E0040EA042444F0407494
S214004D0044F001140C4A9360D660146101330B60C2
S214004D10BFF34F8FBFF36F8F074B05225A60054ACC
S214004D20536A43F480335362BFF34F8FBFF36F8FE2
S214004D3006B070BD00ED00E090ED00E0081E00201B
S214004D402815002028150020BFF34F8F0549CA6894
S214004D5002F4E062044B1343CB60BFF34F8F00BFF7
S214004D60FDE700BF00ED00E00400FA0508B5FFF718
S214004D70EBFF08BD4161114B1B68CBB110B400249A
S214004D8003E0891A41611C469B6823B15A698A422E
S214004D90F7D9002AF5D044B1A060836013B15A69F0
S214004DA0511A59615DF8044B7047044A1060F4E7E5
S214004DB0024B186000238360704700BF241E00204B
S214004DC00E4B1B68002201E01A469B680BB183421B
S214004DD0FAD1834201D0022070474AB183689360BB
S214004DE083684BB141695A690A445A61002070478A
S214004DF08268024B1A60F3E700207047241E0020EA
S214004E000A4B1B6800220A490A70012A0CD8D98866
S214004E1011F0020F04D19B6833B159690A44F4E7D4
S214004E20034B01221A707047704700BF241E0020F3
S214004E30181E002008B500F0BBF90B4B1B6883B1A9
S214004E400A4A1268821A5969914204D38A1A5A6128
S214004E50064B186008BD401A044A106000225A61CA
S214004E60F8E7024B1860F5E7241E0020101E00200D
S214004E7010B5074B1B685C69064B1B681C44022078
S214004E8000F0A2F9204600F0B1F9FFF7B9FF10BD17
S214004E90241E0020101E002070B504461546049AF5
S214004EA09DF81400207122600020A0602561E36058
S214004EB0BDF81800E080B9B9616113B1114620460B
S214004EC098477DB1FCF70FFC0646FFF7B3FF29466F
S214004ED02046FFF74FFF074B1B68A34206D030461D
S214004EE0FCF707FC002070BD0D46EBE7FFF7C0FFA0
S214004EF0F5E700BF241E002010B5FCF7F4FB0446BF
S214004F00144B1B78DBB9144A1360144A1360144A16
S214004F10138000F00BF9012000F056F900F0D2F9EA
S214004F20104B186080B1024600230F4840F2E7316C
S214004F3002F094FF0D4B1860064B01221A702046B3
S214004F40FCF7D7FB002010BD2046FCF7D2FB232041
S214004F50F9E700BF0C1E0020241E0020101E0020B3
S214004F601A1E0020201E002018FCFFFF141E002022
S214004F7070B540B30446FCF7B6FB0546FFF75AFF8C
S214004F80124B1B68A3420CD000262046FFF718FFE2
S214004F90044640B95EB10D4B1B6843B1FFF768FF8E
S214004FA008E00126F1E72846FCF7A3FB05E0074BDF
S214004FB01B6823B12846FCF79CFB204670BD0220E8
S214004FC000F044F9F6E72224F7E700BF241E00208D
S214004FD0B0B1F0B585B004461F4616460D46FFF73D
S214004FE0C7FFBDF82C3002939DF828300193009738
S214004FF033462A4629462046FFF74EFF05B0F0BD49
S21400500022207047014B1868704700BF201E002002
S2140050102DE9F843044610F0010F04D114F0020FF6
S2140050200FD1BDE8F8833D4A138801339BB2138045
S214005030FFF700FF3A4B1B68002BEFD0FFF718FF77
S214005040ECE700F0B5F80546364B1E68861BFCF705
S2140050504AFB804600273A462EE0521A9B684BB120
S2140050605969914206D894F804C018798445F4D951
S2140050701C46F2E74046FCF73CFB6369F61A002341
S2140050806361FCF730FB80462046FFF799FE4046FA
S214005090FCF72FFB2369D3B9E36813B121682046D8
S2140050A09847013700F084F88146451B2E44FCF7EC
S2140050B01AFB804622464D46194B1C6894B163691C
S2140050C0B3420FD8174B1D6023463246C7E7FCF79E
S2140050D00AFB804621692046FFF74CFE4046FCF757
S2140050E008FBD9E7012F0ED00F4B00221A708CB1A7
S2140050F063699E1B66610B4B1D60FFF7B9FE404659
S214005100FCF7F7FA8DE7D388022BEDD1064B012288
S2140051101A70ECE7022000F099F8F0E71A1E00205B
S214005120241E0020101E00201C1E002010B586B075
S2140051301B4B03AC93E8070003C422700C3393E8C0
S21400514003000190ADF80810090C8DF80A10012133
S2140051501448FBF78DFD00248DF80C408DF81040A8
S21400516003A8FCF753FF06A901F8144D0120FCF72D
S21400517029FF0D4A536A23F4FF6323F007035362A3
S21400518040F2FF73136294600120FCF739FF074B6F
S2140051904FF08042C3F880211A6006B010BD00BFF1
S2140051A068DF0000A00914000020044000E100E0D1
S2140051B0014B9868704700BF00200440014B586DB3
S2140051C0704700BF0020044010F0010F0AD10023F2
S2140051D010F0020F01D043F00403034A516A0B4358
S2140051E0536270470123F3E70020044038B50446B5
S2140051F0FFF7DEFF0546FFF7E1FF124B9B6913F052
S214005200040F04D1431B022B01D885420BD1631B2C
S214005210012B14D9B4F1FF3F28BF0134094B5C655C
S2140052200220FFF7D1FF084B1B783BB1054A136DF0
S21400523043F002031365044B00221A7038BDAC1C01
S214005240E8E700BF002004403A10002010F0010FED
S21400525013D1002210F0020F09D042F00402084BCE
S2140052600121197007490B6D23F003030B650549EF
S2140052704B6A23EA02034B6270470122EAE700BF4B
S2140052803A1000200020044010B5FCF72CFA044623
S2140052900B4B9B6913F0010F0FD1002013F0040F86
S2140052A001D040F0020003F00703054A1362FFF73F
S2140052B0AFFE2046FCF71DFA10BD0120EEE700BF4A
S2140052C00020044008B50248FBF79EFE08BD00BF5C
S2140052D0A009140008B501F035FF01F07FFF01F0CA
S2140052E083FF01F08BFF01F093FF08BD08B501F0C6
S2140052F090FF01F08FFF01F091FF01F090FF08BDD5
S21400530010B50446FBF73CFA094BA3FB00308009B6
S214005310084BB3FBF0F34FF47A7000FB04F0B0FBDD
S214005320F3F0800800D110BD00F00AF8FBE700BFDC
S214005330D34D621040420F00000000000000000045
S214005340013800D0FCE7704700B583B00848036812
S2140053501988803901EBD171064B01932D230093F8
S214005360802300224910FDF7D1FA03B05DF804FB54
S214005370281E00200CE4000000B58BB00246084949
S21400538005A801F0F3F9012302930022019200928E
S214005390052205A90348FDF7E6FB0BB05DF804FB04
S2140053A0C4DF0000281E002010B50020FDF70CF911
S2140053B000B1FEE70A48FDF7E1F900B1FEE7084C48
S2140053C06FF07F4363600023A36006492046FDF725
S2140053D0B9FB2046FDF707FAFDF724F910BD00BF1C
S2140053E0281E002028D6000010B50446FFF7ACFFA4
S2140053F02046FFF7C1FFFDF715F910BD00B583B0D5
S2140054000B4B1B681988403901EBD17149105A883B
S214005410453A58B9074B0193402300930448FDF7DB
S21400542075FAFDF7FFF803B05DF804FB024BF2E7F0
S214005430281E0020CCDF0000CCE1000010B582B0B2
S2140054400C46034680B9082183B9164A126852886A
S214005450453A02EBD27002EB600202327BB91020B2
S2140054607BB9E4B1104B0EE06821EDE70D4A1268F7
S2140054705288453A02EBD27002EB6002EEE7122049
S214005480EEE754B9094B0193009010230548FDF749
S2140054903DFAFDF7C7F802B010BD054BF3E7054B24
S2140054A0F1E700BF281E0020ECE300007CDF0000D0
S2140054B0A0DF0000CCE3000010B584B0C0B1012826
S2140054C02CD1592300931E4B1A685388453B03EB97
S2140054D0D37103EB6103063301936323029353886E
S2140054E0453B03EBD37203EB62030C33039315E0E7
S2140054F01D230093124B1A685388453B03EBD37168
S21400550003EB610307330193272302935388453B3C
S21400551003EBD37203EB62030D330393084C694627
S2140055202046FDF7F0F82046FDF788F92046FDF7FF
S214005530C7F82046FDF7D3F8FDF774F804B010BDA1
S214005540281E002010B586B004460023039304935B
S214005550ADF81430092203A802F0BBFE03A802F03F
S2140055609EFE18B9FDF75EF806B010BD03A802F05F
S21400557096FE421C5CB901230648016849880A3930
S21400558000240194009103A9FDF79AFAEAE74F2355
S214005590F2E700BF281E002070B506460D461446EA
S2140055A00D48FDF720F93046FFF71EFF0020FFF7F5
S2140055B025FF0DB944B970BD00210846FFF73EFF30
S2140055C00020FFF779FFF5E700210120FFF736FFFF
S2140055D00120FFF771FFEEE7281E00209A4200D256
S2140055E0885470477047002307E003EB83035A0094
S2140055F04B1C03600B781344303B01680A78303A42
S214005600D2B2092AF1D9184670472DE9F04F83B077
S2140056100546019193461E46DDF830900D9CDDF858
S21400562038800F9B13F0030F14D1274607E002F1D2
S214005630010A334601992020A847013752464745BC
S214005640F5D307E0013C571C3346019919F80400CE
S214005650A8473A46002CF5D10F9B13F0020F06D14F
S21400566009E0541C334601992020A8472246A2EBA5
S2140056700B034345F5D3104603B0BDE8F08F2DE984
S214005680F04385B00C9E0D9C9DF83890DDF83C806C
S214005690DDF840E0119F129D15F0020F21D17FB179
S2140056A015F0010F0CD0B9F1000F02D115F00C0F58
S2140056B006D0013F04E04FF0300C06F804C0013479
S2140056C0744507D21F2CF6D904E04FF0300C06F8CC
S2140056D004C0013415F0010F03D0BC4201D21F2CC8
S2140056E0F3D915F0100F17D015F4806F04D11CB144
S2140056F0744522D0BC4220D0B8F1100F29D0B8F1A2
S214005700100F31D0B8F1020F39D01F2C04D84FF04B
S214005710300C06F804C001341F2C3DD8B9F1000F38
S21400572035D115F0040F40D115F0080F34D04FF0E6
S214005730200C06F804C001342EE0B4F1010C06D0AB
S214005740B8F1100F01D06446D6E7023CD4E76446B1
S214005750D2E715F0200FD2D11F2CD0D84FF0780CFE
S21400576006F804C00134D0E715F0200FCAD01F2C6D
S214005770C8D84FF0580C06F804C00134C5E71F2CF3
S214005780C3D84FF0620C06F804C00134BDE74FF0F2
S2140057902D0C06F804C00134039502970194009678
S2140057A0FFF733FF05B0BDE8F0834FF02B0C06F88B
S2140057B004C00134F0E72DE9F04190B0169D189F23
S2140057C0DDF86CC00DB92CF0100C1CF4806619D0F6
S2140057D02DB3002616E01CF0200F1DD04FF0410E12
S2140057E07444E4B20A3CE4B206F1010E0DF140083E
S2140057F0464406F8204CB5FBF7F595B1BEF11F0FF1
S2140058000FD87646B5FBF7F407FB1454E4B2092C20
S214005810E1D83034E4B2E7E74FF0610EE0E74FF04E
S214005820000ECDF818C01A9C0594199C0494039792
S2140058309DF85C400294CDF804E008AC0094FFF7B5
S2140058401EFF10B0BDE8F0812DE9F04F95B009902D
S2140058500A910B929B46DDE91E67DDF88880DDF82D
S2140058608C90DDF898A056EA070301D12AF0100ABA
S2140058701AF480641FD056EA07032BD000241AE0DF
S2140058801AF0200F24D041221A44D2B20A3AD2B2D9
S214005890651C14AB1C4404F8202C42464B4630468C
S2140058A0394602F0DBFA06460F4656EA070312D0E0
S2140058B01F2D10D82C4642464B463046394602F03D
S2140058C0CDFAD3B2092BDBD803F13002D2B2DFE730
