S01F00006275696C642F64656275672F666163746F72795F64656D6F2E73333764
S113000000100020910600008D0600008D060000FF
S11300108D0600008D0600008D0600008D06000090
S11300208D0600008D0600008D0600008D06000080
S11300308D0600008D0600008D0600008D06000070
S11300408D0600008D0600008D060000D10D000015
S11300508D0600008D0600008D0600008D06000050
S11300608D0600008D0600008D060000010E0000C4
S11300708D0600008D0600008D0600008D06000030
S11300808D0600008D0600008D0600000949000061
S11300908D0600008D0600008D06000059580000F2
S11300A08D0600008D0600008D0600008D06000000
S11300B08D4E00006D5800008D0600008D06000076
S11300C010B5064C2378002B07D1054B002B02D02A
S11300D0044800E000BF0123237010BD501100202C
S11300E000000000F4740000044B10B5002B03D092
S11300F00349044800E000BF10BDC04600000000F2
S113010054110020F4740000164B002B00D1144B42
S11301109D46402292029A1A924600218B460F462F
S11301201348144A121A06F070F90F4B002B00D032
S113013098470E4B002B00D0984700200021040064
S11301400D000D48002802D00C4800E000BF06F066
S11301502FF92000290005F089FA06F013F9C046AA
S11301600000080000100020000000000000000053
S1130170501100204C12002000000000000000007C
S113018010B5012801D0082807D102200123042238
S11301900C2103F0A1F8002010BD0E20FCE70000A4
S11301A010B50121054801F071F904F0DDFF0120CB
S11301B0FFF7E6FF0820FFF7E3FF10BD00250A0064
S11301C010B50121014801F061F910BD00250A00B4
S11301D030B589B04900140003AA1180042151806C
S11301E001A90B7001231381DB18049102AD138262
S11301F01100069500F078FC002804D0002331207B
S1130200236009B030BD03212B786A781B028A432E
S11302109B182360F5E70000F8B51C00E5230600F1
S11302200F001500FFF7D4FF002815D12A680B4BE7
S1130230390053430A4A5B0B9B182B602200E023CE
S11302403000FFF7C5FF002806D12268054B534351
S1130250054A5B139B182360F8BDC046093D0000A6
S113026090E8FFFFCD550000FE48FFFF30B51400B5
S113027089B0042203AB4900198069465A800C4AAC
S113028004910A8002221A8106321A82190001ADF1
S1130290069500F029FC0023984205D10133002C77
S11302A002D02B7823700123180009B030BDC0465A
S11302B0FCC9FFFF70B5002204000D00FFF7D6FF54
S11302C0061E01D0002070BD502004F0D1F9320088
S11302D029002000FFF7CAFF0028F3D11030F2E70D
S11302E010B586B01C0001AB198004215980694601
S11302F00A70012202911A811A821900049400F0F2
S1130300F3FB002801D0FF23237006B010BD10B505
S113031088B003AC21800121618002A94B700223C3
S1130320238101AB069300230A70049121002382E8
S113033000F0DAFB08B010BDF0B585B0019302AB54
S1130340DD1D2B001400E32206000F00FFF7C8FF99
S11303502B780090FE20DB0719D42300E12239001A
S11303603000FFF7D4FF02230400E32239003000F9
S1130370FFF7CDFF009B04431C43E2222B0039000E
S11303803000FFF7ADFF2B78019A2043137005B0BE
S1130390F0BD0000F0B585B002ABDC1D00231500F4
S11303A02370C122230006000F00FFF799FFFE22ED
S11303B02378D20100931B02134001902B80C222A8
S11303C0230039003000FFF78BFF298823780200CF
S11303D00B430549FD205B182B80009BDB0901D0F2
S11303E00198104305B0F0BD00C0FFFFF7B56B46A0
S11303F0DC1D2300C92206000F00FFF771FF012254
S11304002378390093430500C83230002370FFF786
S11304107EFF390023000543C4223000FFF760FF4C
S1130420012223780543134339003000C33223707B
S1130430FFF76DFF2843FEBDF7B56B46DC1D2300B7
S1130440C92205000E00FFF74BFF03222378310079
S113045093431A00012328001343C9222370FFF792
S113046056FF310023002800C422FFF739FF07227A
S113047023780700934331002800BD322370FFF72F
S113048046FF3843FEBD012200B589B003AB5A8054
S113049001AA04920022198002A906911A811A82E3
S11304A0190000F021FB09B000BDF0B58FB0019335
S11304B00CAB9C1D002306000F0023700092FFF775
S11304C0E2FF23000500C42239003000FFF708FFD3
S11304D00F222378054393431A0002233900134360
S11304E03000C4222370FFF712FF009B28430B90B7
S11304F02124002B03D00024012B00D127340CAB82
S1130500DD1D2B00220039003000FFF715FF2B788A
S11305100090CA2239003000FFF7F9FE2B00621C5C
S1130520029039003000FFF707FF2B780390CB22AD
S113053039003000FFF7EBFE2B00A21C04903900B9
S11305403000FFF7F9FE2B780590CC2239003000FB
S1130550FFF7DDFE2B00E21C069039003000FFF7A8
S1130560EBFE2B780790CE2239003000FFF7CFFE48
S11305702B00221D089039003000FFF7DDFE2B7898
S11305800990CF2239003000FFF7C1FE2B00621D15
S11305900A9039003000FFF7CFFE2B780400D022F8
S11305A039003000FFF7B3FE0B9A009B3900134368
S11305B0029A1343039A1343049A1343059A134369
S11305C0069A1343079A1343089A1343099A134349
S11305D00A9A13431C4304430E23CD223000FFF731
S11305E096FE0CAB9D1D04432B00C4223900300041
S11305F0FFF776FE0F222B78044393431A0004235B
S1130600390013433000C4222B70FFF780FE2B0007
S11306100443C42239003000FFF762FE04432B7800
S11306207F2B10D8149A39003000FFF7B3FE019BDA
S11306300443002B11D139003000FFF7D7FE0443E7
S113064020000FB0F0BD002CECD12B00C4223900E7
S11306503000FFF745FE0400E1E7019B012BEFD1D9
S113066039003000FFF7E8FEE9E700000300054A1F
S113067005491068C3188B4201D8136070470120E4
S11306804042FBE70010002000800020FEE700004D
S113069070B500F06BF8002305480649064CC218F3
S11306A0914201D8FFF730FDE55804331560F6E7B1
S11306B00010002050110020FC7400000048704716
S11306C0006CDC02104B10B5186807231840023880
S11306D0032813D805F0BCFB0C14020E0B4B18684E
S11306E00B4B5968C904C90E013105F0C5FB10BD97
S11306F0084BF4E7084B18684008F1E7064BEEE7AF
S113070080200002ECE7C04694400E401010002008
S1130710FC400E40081000200C10002010B5FFF71C
S1130720D1FF054BD968C903C90D013105F0A4FBFC
S1130730024B186010BDC046FC400E40041000205F
S1130740014B18687047C046081000200722054B6B
S113075010B51860044B1B681340022B01D1FFF73E
S1130760DDFF10BD0810002094400E40014A024BEA
S11307709A6070470000000000ED00E08020000255
S11307807047FA2080007047014B18687047C046D4
S1130790101000204368020010B52220002B01D065
S11307A01068984710BD8368020010B5FF20002B25
S11307B001D01068984710BD70B504000D000028E2
S11307C01BD001281BD002281BD003281BD00428CF
S11307D01BD03F23052800D000232B41DB0703D483
S11307E00B490C4800F086FD30235C430A4BE418A7
S11307F020680123E840184070BD084BEDE7084B22
S1130800EBE7084BE9E7084BE7E7084BE5E7C046A9
S1130810B2030000586C00001C8008407FF7000001
S1130820F8790000FFFF0000FF010000F0FF000066
S11308300E4B01001878002370B50D4DDAB29042CA
S113084011D99E00AA59146862798A420CD122787F
S1130850022A09D02079FFF7AFFF434258412070A4
S1130860A85905F00FF870BD0133E7E720700000C8
S11308709410002013B504000121114800F006FE75
S1130880002361792079012202F026FD6179207923
S1130890FFF792FF43425841A3792070022B0DD1F8
S11308A000F07AFA6079074900F084FA012361794B
S11308B02079019300930A0002F07CFC002016BD0D
S11308C000250A003108000000787047037810B54D
S11308D00400022B14D041790079FFF76DFFA2794F
S11308E0012A14D1402361885B4249000B43411E15
S11308F088419BB21843094B984202D12270608010
S113090010BD074B9842FAD100232370F7E7002A61
S1130910F6D1434258412070F2E7C046E0FF0000A0
S1130920DFFF0000037810B5022B03D100234380BE
S1130930FFF7A0FF10BD037813B50400022B10D0FD
S11309408379022B0BD14079002100F033FA002384
S113095061792079019300930A0002F02BFC0223B1
S1130960237013BDF0B5040087B0002803D12C21F7
S11309704E4800F0BFFC01214D4800F087FD23687C
S11309804C4A934209D04C4A934200D178E0422128
S1130990464800F0AFFC07B0F0BD4848012100F024
S11309A075FD6179207901230A2202F095FCE17931
S11309B0A07901230A2202F08FFC0927012663791A
S11309C025790193002D5DD0012D5DD0022D5DD0E0
S11309D0032D5DD0042D5DD03F23052D00D00023D1
S11309E0019A1341334203D13549364800F082FC61
S11309F03300019A6420934030225543324AAD18A3
S1130A002B6003F0B1FF637925790193002D43D066
S1130A10012D43D0022D43D0032D43D0042D43D0C8
S1130A203F23052D00D00023019A1341334204D102
S1130A3082212448C90000F05DFC3300019A64203F
S1130A40934030225543214A013FAD182B6003F0F7
S1130A508BFF002FB3D10323206802AA43642389A8
S1130A6011005BBA9BB2836402AB1E705E70236993
S1130A700493E3680393237D137302F02DFD8AE747
S1130A8013488BE7134BABE7134BA9E7134BA7E7CB
S1130A90134BA5E7134BA3E70E4BC5E70E4BC3E778
S1130AA00E4BC1E70E4BBFE70E4BBDE7856C000054
S1130AB0404105000090084000940840006208008E
S1130AC0E1030000586C00000C8008440C800846C8
S1130AD0007208007FF70000F8790000FFFF0000B3
S1130AE0FF010000F0FF000070B5050002F024FED5
S1130AF0054C012802D1013C002C00D170BD280016
S1130B0002F018FDF5E7C046E193040010B5436810
S1130B100068984710BD10B583680068984710BDF9
S1130B2070B504000D0000281AD001281AD002283C
S1130B301AD003281AD004281AD03F23052800D03D
S1130B4000232B41DB0703D40A490B4800F0D2FBF6
S1130B5001223023AA405C43084BE418226070BD94
S1130B60074BEEE7074BECE7074BEAE7074BE8E7F1
S1130B70074BE6E7E1030000586C00000C800844D2
S1130B807FF70000F8790000FFFF0000FF0100007C
S1130B90F0FF000070B504000D0000281BD00128F0
S1130BA01BD002281BD003281BD004281BD03F23B2
S1130BB0052800D000232B41DB0704D482210B48F5
S1130BC0C90000F097FB01223023AA405C43084B84
S1130BD0E418226070BD074BEDE7074BEBE7074BCA
S1130BE0E9E7074BE7E7074BE5E7C046586C000029
S1130BF00C8008467FF70000F8790000FFFF000032
S1130C00FF010000F0FF000010B5040001210848B6
S1130C1000F03CFC0121074800F038FCA378207860
S1130C205A4253416178042202F056FB002010BD61
S1130C304041050000250A00030010B559789B784F
S1130C400078002B02D1FFF76BFF10BDFFF7A2FF66
S1130C50FBE7030010B559789B780078002B02D18C
S1130C60FFF798FF10BDFFF75BFFFBE770B5047853
S1130C704578002C1AD0012C1AD0022C1AD0032C3F
S1130C801AD0042C1AD03F23052C00D000232B416A
S1130C90DB0703D40A490B4800F02CFB0122302364
S1130CA0AA405C43084BE418A26170BD074BEEE711
S1130CB0074BECE7074BEAE7074BE8E7074BE6E7A8
S1130CC02B040000586C0000008008407FF70000EF
S1130CD0F8790000FFFF0000FF010000F0FF0000B2
S1130CE070B5047805004678002C1FD0012C1FD065
S1130CF0022C1FD0032C1FD0042C1FD03F23052C03
S1130D0000D000233341DB0703D40D490D4800F024
S1130D10F1FA30235C430C4BAA78E41820680123D1
S1130D20F0401840002A00D1584070BD074BE9E755
S1130D30074BE7E7074BE5E7074BE3E7074BE1E73B
S1130D40FB030000586C00000C8008407FF7000093
S1130D50F8790000FFFF0000FF010000F0FF000031
S1130D6070B504000125002C00D170BD23000020C3
S1130D702B4203D101305B082028F9D12B0083409A
S1130D809C43044B8200D358002BECD0C0B298474C
S1130D90E9E7C0466C110020C0218022044B4900C1
S1130DA012015A501A6008225A501A607047C046FD
S1130DB000E100E070B504000D0001F0E5FA034B1A
S1130DC0A400E55001F0E4FA70BDC0466C110020A7
S1130DD08522074B0749D2009A58585810B510403D
S1130DE0054A1040054A9850FFF7BAFF10BDC046A7
S1130DF0008008401C040000555500002404000035
S1130E008522074B0749D2009A58585810B510400C
S1130E10054A1040054A9850FFF7A2FF10BDC0468E
S1130E20008008401C040000AAAA0000240400005A
S1130E3070B5050016000C0001F09EFA2B685E40A8
S1130E4034405C402C6001F09BFA70BD084B10B537
S1130E500400984207D0074B984204D01C2106484E
S1130E60FF3100F047FA012223689343236010BD49
S1130E700000084000040840BC6C0000084B10B59A
S1130E800400984207D0074B984204D09C2106489E
S1130E90490000F02FFA012322681343236010BD98
S1130EA00000084000040840BC6C00000B01012154
S1130EB019430823816482681A42FCD070470000F9
S1130EC00B4B70B505000C001600984207D0094B77
S1130ED0984204D0FA210848FF3100F00BFA6B68FD
S1130EE024021B0C34431B041C436C6070BDC046BD
S1130EF00000084000040840BC6C0000204B70B5A2
S1130F0005000C00984207D01E4B984204D08E2155
S1130F101D48890000F0EEF963683F2B03D91B4993
S1130F20194800F0E7F92800FFF790FF2378227AA8
S1130F30DB07520513436268280012061343627AE2
S1130F4012051343A27A92041343E27AD2031343A1
S1130F50227B12031343227C920013432B60E37B16
S1130F601B066B60637BAB62A37BEB62637C002B31
S1130F7002D0FFF783FF70BDFFF768FFFBE7C046B1
S1130F800000084000040840BC6C00004B02000054
S1130F904B6870B504000D003F2B03D9114912486A
S1130FA000F0A8F9AB683F2B04D9A1210E488900B1
S1130FB000F0A0F9FC212A78201D12048903FFF710
S1130FC037FF2000FC216B6828301A048903FFF7DF
S1130FD02FFF2000FC21AA682C3012048903FFF79C
S1130FE027FF70BD83020000BC6C0000F0B5002A2E
S1130FF00DD1224C224D466BA84232D102293AD05F
S113100008D800290ED0012917D0002325E010228A
S11310101C4CEFE7062925D081292CD00329F4D1D3
S113102019490BE01948FE270368FF013B400F27CD
S1131030016839401943036819E01449FE270B6815
S1131040FF011B0C3B40FF27086809680003090DDA
S1131050090139400B43000F0343934034402343B9
S11310606B63F0BD0F200A4B19681B680140F02028
S113107003400B43F1E70448D5E7C0460080FFFF77
S113108000200840FFFF00801482E00F1082E00F70
S11310901882E00F394B70B505000C00984204D05B
S11310A0D4213748890000F025F90223AB60A178E8
S11310B000222800FFF79AFF617826790B06320296
S11310C01343627912041343E278D2001343E279A2
S11310D0002A02D0802292051343227A002A01D0EA
S11310E004221343A279002A01D002221343627A14
S11310F0002A01D001221343A27850B2F32E0AD160
S1131100002A08D1032904D81E490B408021C904B0
S11311100B43510102E0E0210028FADA0B432B6172
S11311206B6919491940002802DA80239A43114354
S11311302378E27A5B040B43002A02D08022D20196
S1131140134304216B612A68A37A8A439B001343E7
S11311502B606B18EA6FDB6F1A4204D0EE2108484B
S1131160890000F0C7F8C023EA681B011A4203D0C3
S11311700649034800F0BEF870BDC0460020084090
S1131180E96C0000FFFFFFF0F8BFF1FFB9030000B6
S1131190FA2310B5DB01040008009C4200D21C00B5
S11311A00A4B9C4200D91C00002802D1084800F0D8
S11311B05BFD631E1818210004F05EFE002803D0B6
S11311C001387F2800D97F20C0B210BD0024F4006C
S11311D060410900F8B5364E04000D00CF78B042E6
S11311E004D0BD213348490000F084F8002F3DD1DC
S11311F039003148FFF7CCFF07000A23FE22A36021
S113120029786B7809061943AB78D2031B04134081
S11312101943FE233F02DB011F402B793943002B86
S113122001D01023194321606D7901F0A5F8C02283
S113123023685D4015405D40256001F0A1F82368F6
S11312401B0612D51D4800F00FFD0500B44228D13D
S11312501B4800F009FD03236B435B08834204D958
S1131260DC211448490000F045F8F8BD80232168CA
S11312701940C2D11048FFF78BFFB84204D9862128
S11312800C48FF3100F036F8FA200021C001FFF7C6
S11312907FFFB842B1D2C3210648490000F02AF8C2
S11312A0ABE7DB210348490000F024F80020D2E733
S11312B000200840E96C00000024F400B80032006B
S11312C000B2080010B5002805D1074800F0CCFC96
S11312D0002800D10130054B0549C01804F0CCFDAD
S11312E00138C0B210BDC046604109003F420F0042
S11312F040420F00FEE700008023DB055B6800230B
S113130070B50E4CC9B2DD00621916798E4202D155
S11313102D59854210D20133052BF4D108490948CF
S1131320FFF7E8FF03228021C9054B68064812062F
S1131330034013434B6070BD5279F4E79C6D000089
S11313402A120000706D0000FFFFFFFC10B50400BE
S11313501F2804D926210348FF31FFF7CBFF0120C2
S1131360A04010BD416D000070B58024064BE4051B
S1131370256C2364FFF7A2F90021FFF7BDFF002DC0
S113138001D00023236470BD711B0000054B1B6852
S11313905B0605D480230449DB020A681A42FCD1A7
S11313A07047C0463C300E4004300E4010B5FFF785
S11313B0EDFF024B58688003800F10BD00300E40D3
S11313C0034B9A6CD20702D45A6C0242FCD1704788
S11313D0FC400E400C4B70B50500984203D90B49F4
S11313E00B48FFF787FF681C04F0BCFE1F24241A77
S11313F02000FFF7ABFF0138A84203D00549044899
S1131400FFF778FF200070BDFF7F0000CB0C0000C9
S1131410156D0000D10C00000E4B10B5984213D985
S11314200D4B984213D9022301210C480C4C02683D
S1131430090422400A430B4902604A680A481B0611
S1131440024013434B6010BD00231900EDE7012354
S1131450FBE7C0460048E8010090D00300400E407E
S1131460FFFFFEFFFC400E40FFFFFFFC70B5802431
S1131470054BE405256C2364FFF73EFF002D01D0E6
S11314800023236470BDC046711B000070B50500C5
S11314900005000F01380E000D2828D804F0D8FCF0
S11314A02C2F2727071A1D2720242727271700203A
S11314B0144CED03ED0E002801D0FFF781FF01224B
S11314C0AA40AE40236893431E43266013E00020E5
S11314D00D4CEEE701200D4CEBE710200C4CE8E737
S11314E080200C4C4002E4E700200B4CE1E70B4960
S11314F00B48FFF7FFFE70BD00200A4CD9E700201F
S1131500094CD6E7B0400E40C4400E40E0400E40C7
S1131510E8400E40F0400E4050410E40C717000016
S1131520706D000000400E40C0400E4003000006F5
S1131530000F013810B50B2800D970E004F088FCC6
S1131540060B0E171C1F2225475A646C354B58682E
S1131550C004C00E10BD334B9869F9E7314B58688D
S11315608001800F0130FFF7F1FE0138F2E72D4BC7
S11315701869C003C00DEDE72A4BD869F9E7294B78
S1131580186AF6E7274BD868F3E7274A934219D03D
S113159008D8264A934210D025492648FFF7AAFEC8
S11315A00020D7E7244A93420CD0244A9342F3D133
S11315B01C4B586A03231840D5E71A4B586A000697
S11315C0000FD0E7174B586A4005400FCBE71C4A81
S11315D0934204D01B4A934206D01B49DDE7114BCA
S11315E0D86A8006800FBEE70E4BD86A8005800F4C
S11315F00430B8E7154A934204D10A4B586B0323CD
S11316001840A7E71249C8E7124A934202D1054B92
S1131610186EF4E71049C0E7024B9868A9E70F4930
S1131620BBE7C046FC400E4080002A00801616002E
S11316306B190000706D000000262C0080062E003F
S113164090171A00902730008F190000A009140089
S11316509E190000B8003200B6190000C31900003A
S113166010B5FFF763FF013010BD00000300000652
S1131670000F013810B50C000B2800D960E104F00C
S1131680F1FB0C0030003E0053006200710080004A
S11316909A00FF0034013E0150011F2903D9A949D2
S11316A0A948FFF727FEFFF75FFEA848FFF7B4FE3F
S11316B000F09AF9A64AA749536824020B401C4338
S11316C05460FFF72BF80400FFF770FE01002000C0
S11316D0FFF7CCFEFEF7F6FFFFF79EFE00F098F949
S11316E010BD1F2903D99C499748FFF703FE984A68
S11316F09849936924020B401C439461F0E7974A8C
S11317004B1E934203D996499648FFF7F3FD2000F8
S113171004F028FD1F238E49181A4A68924B0006CC
S1131720134018434860DBE7904B994203D9904932
S11317308548FFF7DFFD864A8E49136924020B4072
S11317401C431461CCE7894B994203D98A497E48EA
S1131750FFF7D0FD7E4A8749D36924020B401C431E
S1131760D461BDE7814B994203D984497648FFF798
S1131770C1FD774A7F49136A24020B401C4314625B
S1131780AEE77A4B994203D97D496F48FFF7B2FD22
S1131790FFF7EAFD6E4A7749D36824020B401C43E5
S11317A0D460FEF7BBFF0400FFF700FE0100200039
S11317B0FFF75CFE94E7734A93424CD00BD8724A0D
S11317C0934220D0714A93422ED0D52149015E48DC
S11317D0FFF790FD84E76E4A93423CD06D4A9342F2
S11317E0F3D1082903D96C495748FFF783FD20003A
S11317F0FFF7F0FD04000420FFF7E2FD0322544B41
S1131800586A904324E0022903D964494E48FFF7FB
S113181071FD8020C002FFF7D3FD03214C4A536BB6
S11318208B431C4354635BE780231B02994203D917
S11318305B494548FFF75EFD2000FFF7CBFD040040
S11318400420FFF7BDFDF022414B2401586A904368
S11318502043586244E780231B029C4203D9514928
S11318603948FFF747FD2000FFF7B4FD04000420CA
S1131870FFF7A6FD364B4C4A586A24021040E7E7AE
S11318804A4A934204D04A4A934216D049499EE7B1
S1131890082903D948492C48FFF72CFD2000FFF7FD
S11318A099FD04004020FFF78BFD3022284B2401D2
S11318B0D86A90432043D86212E70B000F3B702B89
S11318C003D93E492048FFF715FD2000FFF782FDAC
S11318D004004020FFF774FD1D4A3949D36A043CD3
S11318E024020B401C43D462FAE6274A934204D1F3
S11318F002298ED9D721490188E7324967E7324A5C
S113190093420CD1032903D930490F48FFF7F2FC65
S113191003210F4A136E8B431C431466E0E62C49E3
S113192055E7124B994203D92A490748FFF7E2FCCD
S1131930074A1049936824020B401C439460CFE685
S1131940254944E7EB190000706D00000148E801E7
S1131950FC400E40FFE0FFFF011A0000FF7F000083
S1131960DE0B0000156D0000FFFFFFFCFF0100000F
S11319700E1A0000FF00FEFF151A00001D1A0000D9
S1131980241A000080002A00A00914008016160002
S113199000262C0080062E00821A0000471A000040
S11319A0641A0000921A0000FFF8FFFF90171A0053
S11319B090273000D61A0000A91A0000C71A0000A8
S11319C0FFFCFFFFF01A0000B8003200FB1A000011
S11319D0091B0000111B0000181B000010B5013981
S11319E0FFF744FE10BD000010B503210548FFF7C2
S11319F03DFE03210448FFF739FE03210348FFF7A6
S1131A0035FE10BD4041050050410700604109000A
S1131A1070B5FEF757FE0400FFF7C8FC022815D185
S1131A20184B1949E01804F027FA03005A1E934191
S1131A30C41A21001548FFF719FE21001448FFF7C6
S1131A4015FE21001348FFF711FE70BD124B134918
S1131A50E01804F011FA03005A1E9341C51A290034
S1131A600A48FFF703FE29000A48FFF7FFFD0C4B65
S1131A700C49E01804F000FA03005A1E9341C11AFD
S1131A800348E0E7FF2C3101002D310140410500FE
S1131A9050410700604109007FF0FA0280F0FA0229
S1131AA0FFA14A0400A24A040F231840013810B5CC
S1131AB0072857D804F0CCF904172656383B564764
S1131AC02D4B1868072318400238052809D804F05C
S1131AD0BFF94F29270308060B23180010BD0C2358
S1131AE0FBE70523F9E7254BDA6F07231A401300B8
S1131AF0022AF2D00A23042AEFD0073B012AECD0B1
S1131B00023BEAE71E4BD86F072318400138063B17
S1131B100328E2D804F09CF90604022E0623DCE72D
S1131B200223DAE70323D8E7164B1A68DDE7164BDE
S1131B301A6F03231A400433002ACED00233012A39
S1131B40CBD00123C9E7114B1A6E30231A402C3B2A
S1131B50202AC2D00433302ABFD0013B102ABCD083
S1131B60063BBAE70A490B48FFF7C4FB0023B4E776
S1131B700423B2E70A23B0E794400E4004400E4029
S1131B8008400E4088400E4000400E40FC400E408D
S1131B90171D0000706D000070B5284D0400A842A8
S1131BA009D0274B984206D0264B984203D02649A9
S1131BB02648FFF79FFB2000FFF776FFAC4211D0C9
S1131BC01F4B9C4210D01F4B9C4210D1204BDC6F0A
S1131BD007200440042C2AD8200004F039F9110EFF
S1131BE0131916001B4BF2E71B4B1C68F0E70400AB
S1131BF01A491648FFF77EFBECE7FEF7BFFD040029
S1131C00200070BDFEF7C0FDF9E7FEF7BAFDF6E768
S1131C10FEF758FD124B040058688001800F013014
S1131C20FFF794FB0100200004F026F9E7E70D49D3
S1131C300648FFF75FFB0024E2E7C04603002000EC
S1131C400500240002001E002A130000706D00002D
S1131C5004400E4008400E4088400E4059130000D6
S1131C60FC400E40AB130000F8220300A0219203B5
S1131C7070B51340040049038B4200D1A0E037D86B
S1131C8080221203934200D185E017D88022920269
S1131C90934200D184E004D8002B00D1BFE0764900
S1131CA0C1E08022D20293426DD0C022D20293427C
S1131CB0F5D1FEF707FD714BD96968E0C022120324
S1131CC0934272D008D8A02212039342E7D1FEF7C0
S1131CD0F9FC6A4B99685AE0E0221203934200D15E
S1131CE095E0802252039342D9D1654B18686FE086
S1131CF0902189038B4200D187E022D8D02252035D
S1131D00934200D16EE012D8B02252039342C6D15E
S1131D105C48FFF741FF594B0400586A0006000F66
S1131D20FFF714FB0100200004F0A6F850E0F022B5
S1131D305203934240D0802292039342AFD152483F
S1131D403BE0C02189038B4255D00DD8A8229203D1
S1131D5093423ED0B82292039342A0D14948FFF760
S1131D601BFF464B5B6A30E0C82189038B425FD07E
S1131D70934294D1FEF7A6FC05002000FFF770FC07
S1131D8001002800D0E7FEF79DFC3C4B1969C9030C
S1131D90C90D0131C8E7FEF795FC384B196AF6E71F
S1131DA0FEF790FC354BD968F1E7FEF78BFC334B1B
S1131DB09969C904C90EECE73248FFF7EDFE07E064
S1131DC03248FFF7E9FE2D4B5B6B03221340D840EA
S1131DD070BD2C48FFF7E0FE284B0400586A40050C
S1131DE0400F9DE72848FFF7D7FE244B0400D86A2C
S1131DF08006800F94E72448FFF7CEFE1F4B0400B3
S1131E00D86A8005800F04308AE72048D5E7204847
S1131E10FFF74AFE072800D167E7092802D1FEF739
S1131E2051FCD5E71B491C48FFF764FA0020CFE7B3
S1131E301A48FFF739FE0138104C072816D804F069
S1131E4007F81915150A1515040D0D4B1868032309
S1131E50216E19409DE7FEF773FCF8E7FEF732FCAC
S1131E606368DB04DB0E01335843F0E70C490A488E
S1131E70FFF740FA0020EAE7F7180000FC400E40A4
S1131E801410002002001E0003002000050024009E
S1131E9006000E00EC100000706D0000B800320067
S1131EA02311000070470000014B18807047C046A2
S1131EB01810002010B50C00022803D00D490E485C
S1131EC0FFF718FA0D4B5B6A9B069B0F012B0DD095
S1131ED0002C0BD00A490848FFF70CFA094B0A49B1
S1131EE00A681A409A42FBD1012010BD8023DB030B
S1131EF0F5E7C0467F250000706D000000400E40ED
S1131F009A250000FF33413A90400E40F7B50F0088
S1131F100090019204280DD8474D484E03F098FFD5
S1131F208403140F7F008021402406220723002FFE
S1131F3064D05BE042494348FFF7DCF9F7BD012474
S1131F40022100222300F2E70323002954D06A6A05
S1131F5012091A40012A47D13B4BDB6B5B0503D4C2
S1131F603A493848FFF7C6F903216B6A0B408B42A4
S1131F703ED16A6A2D318A43110020220A436A62E3
S1131F8004240222012191400A002C663168114286
S1131F90FCD0019A002AD1D001229A4001923368E0
S1131FA0019A1342FBD0009B022BC7D1002FC5D04E
S1131FB06B6ADB439B0703D000210098FFF77AFF8D
S1131FC0204F23493800FFF795F901220021022010
S1131FD0FFF79CFF1F493800FFF78CF92C66336824
S1131FE0019A1342FBD0A9E7042402220027C9E77F
S1131FF0042402220B00C5E70821022229660121DC
S113200091400A0031680A42FCD1019A002A95D015
S113201001229A40130032681342FCD18EE720213A
S113202010240422052382E780218024890064008F
S1132030082209237BE7C04600400E4090400E4032
S113204064240000706D000000300E407324000012
S1132050F02400006725000070B506000C00002580
S113206011280BD1042915D1FEF76AFB05000220C3
S1132070002D18D00021280000F090FC0F203040E3
S11320800138072800D9D3E003F0E2FE156588D2B1
S11320907BA1D2AE052900D0CCE06D4B03201D6896
S11320A06C4B9D42E6D803F0D3FE124C3940C9C9AB
S11320B0C9C94750CB00A01E0A2800D9BEE003F0CE
S11320C0C7FE07412E35BDBDBDBD3B4548000025BB
S11320D00020042401221100FFF718FFFFF744F940
S11320E0FFF782FC002D01D0FFF750F95A4B5C67D3
S11320F0FEF714FB0400FEF7E5FAFFF78DF9FFF78E
S113210055F901002000FFF7B1F9002D03D1012199
S1132110280000F043FCFFF77BFC70BD00254F480E
S1132120FFF77AF902200400D4E700254B48FFF7B3
S113213073F901240320CDE749494A48FFF7DAF847
S1132140EBE7002501200324C4E700250320052430
S1132150C0E70724C2E7062C22D143494148FFF7D0
S1132160C9F8424D42493F48FFF7C4F8FEF7AAFABE
S1132170FFF752F901213F4A13680B43136003230D
S113218011E03D4D062CEDD0601E09281BD803F04C
S113219055FE1C0C131A1AED1A1A1A09374DF3E7D7
S11321A0324DF1E704232B60B7E701220020110030
S11321B0FFF7ACFE0223F6E7012211001000FFF73F
S11321C0A5FE0123EFE72E49B7E70023EBE7072C31
S11321D003D0092C05D02B49AFE700221E4B1A6708
S11321E09BE71D4B0122FAE7601E07281CD803F069
S11321F02FFE1D1B1B141B1B0D040323302022491F
S11322001B010A6E824313430B6686E701220420F6
S11322101100FFF77BFE0123F0E7012202201100E9
S1132220FFF774FE0223E9E7184986E70023E5E790
S1132230174982E7881E0A2800D834E715497CE745
S1132240FFF792F80025FFF7CFFB07244EE7C046BF
S11322500C100020002D310100400E400148E8011F
S1132260D81D0000706D00001C1E000080400E4050
S11322702C1E0000B0400E4088400E4084400E40AA
S1132280571E0000E11E0000FC400E403F1F0000EE
S113229016200000DD1D000010B504001120FFF71A
S11322A003FC042803D11A491A48FFF723F8012232
S11322B000210220FFF72AFEE27A1100012A09D048
S11322C0002A07D00321022A04D013491148FFF73A
S11322D011F800210320114A536A83430B435362CC
S11322E02388A188DB020B43D362136BE1881B0DA7
S11322F01B050B436188C9020B431363237A617A7C
S11323001B0309010B43A17A0B43536310BDC04661
S1132310FF220000706D00001323000000400E40F7
S113232070B506001120FFF7BFFB022803D10E4948
S11323300E48FEF7DFFF0E4D0E4BAC6B1C4033789E
S11323401C437378DB021C43B3781B061C43F378ED
S11323501B021C43AB6BA34205D0002101220800E1
S1132360FFF7D4FDAC6370BDBD230000706D0000A9
S113237000400E4080E4FFF8EFF3108072B670471F
S1132380002800D162B67047EFF3108072B6704730
S113239010B5FFF7F5FF10BD3F2230B543790C4C63
S11323A013406360437801795A1E93415A00C378FD
S11323B0057849019B000B432B4313432360837827
S11323C0012004490A68824313430B6030BDC046B0
S11323D000F008400CF00840244B70B505000C00D8
S11323E0984203D06F212248FEF784FFE378032B41
S11323F003D970211E48FEF77DFF23785A1E9341AE
S113240080225B4252051340C02292029B186278DC
S1132410002A02D0802212051343A278002A02D097
S11324208022D20413432B60E37822791B04120226
S11324301343627913436B60A379227A2B61E379A6
S113244012021A43637A1B041A43A37A1B0613432A
S1132450227BEB61E37A12021A43637B1B041A4367
S1132460A37B1B0613436B6270BDC04600E00840AB
S1132470C46D0000F8B5364B05000C00984203D03B
S1132480B2213448FEF736FFE61CF37F0F2B03D945
S1132490B3213048FEF72EFF271DFB7F0F2B03D9F6
S11324A0B4212C48FEF726FFA268E369617913433F
S11324B0228809031A43A3781B040B43611CC97FB8
S11324C009020B431343E278002A02D0802252030C
S11324D013432279002A02D0802212031343227E5E
S11324E0002A02D0802212041343E0212A684905FD
S11324F00A4013432B60A379AB63A3892B63A37BAB
S11325001B01EB632369AB6163692B62A31CDB7F53
S1132510FA7F1B0512041343621DD27F1343F27F1B
S113252012021343A21DD27F002A02D08022520538
S1132530134322006B640832E31DDB7FD27F28340F
S113254012021B051343227812011343AB64F8BD36
S113255000E00840C46D00000120024B1B689B0989
S1132560984370473C300E401B021A430223FF334A
S113257070B505000C009A422BD00DD8012A1FD04B
S1132580002A2FD0013B9A422FD01B491B48FEF74B
S1132590B1FE0022130019E0194B9A421FD005D84E
S11325A0013B9A42F1D1174B5B6F0BE0C0239B00B8
S11325B09A421DD0144B9A42E7D1124BDB6F0AE0CA
S11325C0104B9B6FFF211A0A0A400B402B602260BC
S11325D070BD0C4B9B6F1A0E1B0CDBB2F6E7094B5C
S11325E0DB6FEFE7074B1B6FECE7064B1B6FF2E764
S11325F0044B5B6FEFE7C04639090000F16D000042
S113260001020000AC82E00F0103000070B50D0070
S1132610042839D81F4B0F2203F01AFC0310303260
S113262034005E6C0A233000340914405C43310BDF
S1132630114010404B432418310A0AE05E6C0A230F
S1132640340D14405C43300C310F10404B432418BC
S1132650310E114059188C421AD2091B0E4803F04E
S11326600BFC011E14D064235D434C4340082D1819
S11326700A4B2C19E01803F0FFFB70BD9E6CD1E7E8
S11326809E6CDCE7DE6CCDE705490648FEF732FEBA
S11326902800F2E7AC82E00F80B501007029FDFF4D
S11326A0EE0C0000F16D000010B5FFF755FF002897
S11326B005D080230249DB020A681A42FCD110BD0E
S11326C004300E4010B5FFF747FF00280FD0FFF786
S11326D0EBFF0320084B19685A68090A120C0140E1
S11326E002400D30914203D91A681043186010BD9E
S11326F01A6882431A60FAE700300E40064B1B68E2
S1132700DB0608D5054B1B69DB02DB0E082B02D167
S1132710034B044A1A60704700300E4000400E40DC
S11327200C100020C0EA2101F7B5FFF715FF244D76
S1132730002806D00222234B1B78D21A1023934080
S11327402B61C0230122204C5B00E1581F4E114035
S11327501F4A0191E25056233268FF331340236627
S1132760FFF7A2FF2B68DB0616D5802319495B040B
S11327704A6C1A42FCD1184B1B682361174B197819
S113278005290DD1164B1F68FFF78EFF69683800C5
S11327908903890FFEF76AFE104B1978052902D0C8
S11327A01120FFF759FC3368DB0701D402232366A9
S11327B0019B002B03D0C02300225B00E250F7BD35
S11327C000300E40BD11002000400E40AC1100202E
S11327D00E580000FC400E40B8110020B611002035
S11327E00C100020C023184A5B0010B50C00D1580F
S11327F00B0CDBB2022806D00B0E032803D0FF23F8
S113280001280ED00B401B031A0010490A40002C6B
S113281016D1002A07D00E490E48FEF76BFD0020A2
S113282010BD090AEEE70C48C26E0A401343C366A2
S11328300120F5E7094802680A4013430360F7E7FB
S1132840002AF7D00649E7E7B081E00FFF0FFFFF4A
S1132850C8080000F16D000000300E40EC300E405E
S1132860D408000010B50B4C1120230090331A68D3
S1132870094B1A60FFF718F9084B1870FFF714FF9B
S1132880074B084A5B689B039B0F13702269064B36
S11328901A6010BD00400E40AC110020B61100209B
S11328A000300E40BD110020B81100207047704761
S11328B070B5041E01D0FFF7D5FFFFF703FF042313
S11328C0134A11690B431361FFF7F0FF114B1B68A7
S11328D0DB0617D5FFF750FD050004F0B5F9280015
S11328E0FFF74EFDFFF7E3FF002C0DD0FFF71CFFB1
S11328F0094A13685B005B081360002C01D1FDF7E3
S11329000DFF70BD30BFEDE7FFF7F8FEF0E7C046FE
S113291000ED00E000300E404C310E40F7B50500EC
S11329200191FFF719FE00282DD0174EFFF7BCFECA
S113293073689B039B0F9D4225D0144B5C68FDF785
S1132940C1FE0700022D0ED1E404E40E0134444319
S11329500F4B9C4203D90F490F48FEF7CBFC0221D1
S11329603800FEF783FD02221023521B934033618B
S1132970019B002B01D0FFF797FE002D03D1290006
S11329803800FEF773FDF7BD00300E40FC400E40EA
S1132990002D3101DC050000F16D000070B504006C
S11329A00D00FFF7D9FD002815D0002C07D10A4BE4
S11329B05C68FDF787FEE404E40E01344443074BEE
S11329C029001B78002B03D0054B02209C4200D920
S11329D00020FFF7A3FF70BDFC400E40BC11002097
S11329E0002D31010378F0B55D1EAB413F229D00FF
S11329F043780E495C1EA3418E695C00964382783D
S1132A00531E9A410379D2003343C678013E77427C
S1132A107E4133432B43234313438B6143790A6839
S1132A2003481B04024013430B60F0BD00300E400A
S1132A30FFFFFCFF82684368134382891343C28902
S1132A401343827C13430278D2071343027C92001F
S1132A501343427C52001343014A13607047C0463B
S1132A60BC300E40034A044913680B4018431060FD
S1132A707047C046BC300E40FFFFCFFF274B284AAB
S1132A8070B5596B5A6301229C6F1442FCD1032424
S1132A901A6C224005D08026224DB6012C6834439E
S1132AA02C60824207D1002804D11E4A1E491368B3
S1132AB00B40136070BD032A1BD0002A19D00122D9
S1132AC09C6F1442FCD103241A6CA24302431A647F
S1132AD0023C9A6F2240FCD1461EB041114D124E69
S1132AE02C6840033440204328600129E2D15A6312
S1132AF0E0E7421E012AE2D880221203DA620122B0
S1132B009C6F1442FCD103251C6CAC4322431A6411
S1132B10802212035C6A1442FCD0D0E700300E40DD
S1132B20E8AD000054300E40FFDFFFFFF0B50700B2
S1132B30962491B00891099200210C220AA803F06E
S1132B4064FC0C2200210DA803F05FFC544BE4004C
S1132B50FB18A34207D953495348FEF7CBFB002681
S1132B60300011B0F0BDE120C000B842B6414F4B77
S1132B707642DB6E87424DD0029404001A0E1B0C81
S1132B80DBB20F920C930322494D0DA9EB6C0AA8FA
S1132B901B0F1A40130005923200FFF7E5FC0322D5
S1132BA0444B0EA91B680BA81B0A1A40130006927B
S1132BB03200FFF7D9FC3B1B0F9E0C9C0299301B83
S1132BC05843039303F058F9031904939E421FD307
S1132BD09C421DD80B9C0E9E039B301B58430299AC
S1132BE003F04AF9031901939E4211D39C420FD872
S1132BF00D9B0A9E0793981B039B0299434318005D
S1132C0003F03AF9079B8419A34201D3A6420BD9D6
S1132C102949A1E7FF211A0A0B400C9396230A4085
S1132C209B000F920293AEE7099B002B0CD0E86D3A
S1132C30224B1840049B1B021843194BFB185A1EC5
S1132C4093415B001843E865089B0126002B00D1E3
S1132C5086E700210598FFF7C5FD061E04D1184933
S1132C601148FEF747FB7BE701210698FFF7BAFD01
S1132C70061E01D11349F3E7019A6B6E944200D208
S1132C801400E72C00D9E7245B0A5802044B6400C3
S1132C90FB185A1E934103431C436C6660E7C0460D
S1132CA0F8F8FFFF990A0000F16D0000AC82E00F14
S1132CB000300E40EC300E40E70A0000FD80FFFFBC
S1132CC0F60A0000FE0A0000072270B5334C236F99
S1132CD0E16C1340063A11420AD0934208D9042306
S1132CE0132811D914380C3313280DD8083B0BE0E2
S1132CF0E16C114242D1012B40D80423092803D9A5
S1132D000A380C330928F1D9013B19021B030B4380
S1132D100521E26C224802401343E364214BE56C35
S1132D2018882D0528302D0F4308013518186943DC
S1132D3003F0A2F80138072800D90720E36C1A4AE7
S1132D4000061A4080235B0313431843174BE064C7
S1132D500020185E002810DB2830690043086D0845
S1132D601818491903F088F8072800D90720702299
S1132D70236D000193431843206570BDE26CD207B4
S1132D8005D5012B03D810232728BDD8AEE7084961
S1132D900848FEF7AFFA0023B6E7C04600300E40FD
S1132DA0FF00FFFFB2110020FFFF8FF8B4110020D5
S1132DB03C0B0000F16D00000B4B10B51B680400C8
S1132DC0DB0705D4012803D908490948FEF792FA1C
S1132DD00722084B186F904320431867064B188846
S1132DE0FFF772FF10BDC0464C300E405B0B000075
S1132DF0F16D000000300E40B011002070B5038961
S1132E000400C82B04D9A0214D480901FEF772FA29
S1132E10A28823899A4203D94A494948FEF76AFAA3
S1132E200C22A35EC82B03DD47494548FEF762FA2E
S1132E306378012B54D1A388C82B03D94349404854
S1132E40FEF758FA424BE2889A4203D941493C487A
S1132E50FEF750FAE28800234A2A0CD9F421FF3104
S1132E608A4244D93C4991425B41C0225B421B0FD8
S1132E701B0792059B180C21625E384ED243F06CFE
S1132E80374DD20F284002431343F364C023354A1D
S1132E909B00106803431360A288334B1A8080237D
S1132EA0F26E5B041343F366304B18680123184039
S1132EB000D00420FFF780FF0C23E25E21892C4B15
S1132EC019802C4B1A80A088FFF7FEFEA37B002BF1
S1132ED010D0012B1DD028491948FEF70BFA0BE03E
S1132EE0022BAFD1A3880A2BACD92449A7E78023AE
S1132EF05B05C0E7224BB365012260881100FFF730
S1132F0015FE051E07D11F490D48FEF7F3F92800E9
S1132F1070BD1D4BEFE78023F26BDB001343F363BB
S1132F206078FFF7ABFDA37A1849203B5842434130
S1132F3020200A685B01824313430B60E7E7C04625
S1132F40F16D0000010A0000020A0000060A0000F8
S1132F5010270000130A0000C309000000300E40CF
S1132F60FEFFFFCFEC300E40B01100204C300E407D
S1132F70B2110020B4110020790800000B0A0000EF
S1132F80774020574A0A0000372110B73C300E40E2
S1132F90F8B52B4A43682B4D9B180400AB4204D967
S1132FA0D72129480901FEF7A5F9A368244A9B18EB
S1132FB0AB4203D925492448FEF79CF9A36862680B
S1132FC0934203DD22492048FEF794F96168207892
S1132FD0FFF71CFBA16806002078FFF717FB237896
S1132FE00700002B26D10A21300002F045FF0A21F8
S1132FF00505300002F0C6FF09040D4338000A211C
S113300002F03AFF2E000A210503380002F0BAFF4D
S11330100802217B4A1E91418A00617B4B1E994123
S1133020CB00A17B31432943014311431943094B8D
S11330301960F8BD08490448FEF75CF9F9E7C04691
S1133040ACF9FFFFF4060000F16D0000710D000003
S1133050730D000090300E40830D000010B504285D
S11330600FD802F0F5FE1303150A0C00094B0120DA
S11330701A6882431143196007E0074BF7E7074BCF
S1133080F5E707490748FEF735F910BD064BEEE7AB
S1133090064BECE794300E409C300E40A4300E40BA
S11330A0B50D0000F16D000090300E4098300E40D8
S11330B070B504000D0000281BD001281BD0022885
S11330C01BD003281BD004281BD03F23052800D085
S11330D000232B41DB0704D482210B48C900FEF7EF
S11330E009F901223023AA405C43084BE41822600A
S11330F070BD074BEDE7074BEBE7074BE9E7074BE1
S1133100E7E7074BE5E7C046586C00000C8008462B
S11331107FF70000F8790000FFFF0000FF010000C6
S1133120F0FF000070B504000D0000281AD001283B
S11331301AD002281AD003281AD004281AD03F2300
S1133140052800D000232B41DB0703D40A490B4890
S1133150FEF7D0F801223023AA405C43084BE41860
S1133160226070BD074BEEE7074BECE7074BEAE73D
S1133170074BE8E7074BE6E7E1030000586C000063
S11331800C8008447FF70000F8790000FFFF00007E
S1133190FF010000F0FF000070B5050016000C00F0
S11331A0FFF7EAF82B685E4034405C402C60FFF780
S11331B0E7F870BDF0B585B001930AAB1B78040045
S11331C002930BAB1B780F001500039300284CD01F
S11331D001284CD002284CD003284CD004284CD0D1
S11331E00023052800D13F333B41DB0703D4BF2133
S11331F02A48FEF77FF83B0003226B40934303D039
S1133200C1212648FEF776F80326374000970F21A0
S1133210072D34D82200AF00BA40B9402048FFF748
S1133220BBFF3100009AB940BA401E48FFF7B4FF13
S11332300121A940019CCB43AC401B4802681A40C1
S11332402243029C0260AC40184802681A402243A0
S113325002601748174A815017490A681340039AB5
S1133260AA4013430B6005B0F0BD144BBCE7144BEC
S1133270BAE7144BB8E7144BB6E7144BB4E72F0086
S11332802200083FBF00BA40B9401148FFF784FF4D
S11332903100009AB940BA400E48C7E71D6E0000DD
S11332A000840840088408401084084014840840BE
S11332B00080084024040000288408407FF70000B0
S11332C0F8790000FFFF0000FF010000F0FF00009C
S11332D0048408400C840840F8B504000D0016006E
S11332E01F00002833D0012833D0022833D003280C
S11332F033D0042833D00023052800D13F332B4199
S1133300DB0704D41E212048FF31FDF7F3FF002E14
S113331005D029002000002F23D0FFF7C9FE302359
S113332063431A4A9B18072D1ED80F21A800814019
S11333305A688A43310081400A435A60002E05D1FD
S113334029002000002F1BD0FFF7B2FEF8BD104B60
S1133350D5E7104BD3E7104BD1E7104BCFE7104B19
S1133360CDE7FFF7DFFEDAE70F200E499A68691808
S11333708900884082433000884002439A60DDE738
S1133380FFF7D0FEE2E7C0461D6E00000080084053
S11333907FF70000F8790000FFFF0000FF01000044
S11333A0F0FF0000F8FFFF3FF8B50F000500140020
S11333B01021002A2FD00326304A1E4003681340F0
S11333C00360FEF7D9FFC0212A6833025340890005
S11333D00B4053402B60FEF7D3FF002F06D1284B40
S11333E09D421DD12748FEF73FFC07002B689B0731
S11333F021D5032E04D0244BB200D3589F4204D8C5
S1133400AF2122484900FDF775FF214B995D6143C7
S1133410002915D17021FF311C48FDF76BFFF8BD61
S11334201C4B9D4201D11C48DDE72A211748FF317E
S1133430FDF760FFDAE7032EE2D0B200174BDCE7BA
S1133440E400E0434018C01902F016FD441E0AD5FA
S113345076210E48FF31FDF74DFFBB210B48490093
S1133460FDF748FF02E00E4B9C42F6D82B689B0701
S113347002D5002C00D101342C61D0E7FFFCFFFF02
S11334800090084000620800586E0000646E00005E
S1133490906E000000940840007208004C6E00001A
S11334A0FF010000094B70B504000D00984207D0DD
S11334B0074B984204D090210648FF31FDF71AFFCC
S11334C00123216899432943216070BD009008407D
S11334D000940840646E0000124B70B504000D00A7
S11334E0984207D0104B984204D0D2210F4849008B
S11334F0FDF700FF002323640D4B2000E363012349
S1133500697822684B4002215B008A43134323609D
S11335102B7BAA686968FFF747FF29782000FFF72B
S1133520C1FF70BD0090084000940840646E000024
S1133530FFFF0700F8B57C4B020098420AD07B4B92
S1133540984217D0FD217A484900FDF7D3FE0420A4
S11335504042F8BD774B802540249968C020576BC2
S1133560C00007420DD0B90507D5FD2159700921C6
S113357019701EE06F4B0C33EDE77905F7D5FE218A
S1133580F4E71878082800D9C7E002F061FC0526A2
S11335904955737D9CA4C00048880988C40616D583
S11335A00620090A0140EA30014301201870D16263
S11335B05060197801200929CBD10021116401221E
S11335C09A56824200D1597001201856C1E7FE2450
S11335D021408007E9D50120E6E72F4206D0FF21EC
S11335E0D5635970F7391970063917E0274200D1AD
S11335F097E0D4634F880220FE0603D5097818703B
S1133600D162D6E7074264D0072018701879C00049
S113361009180989012900D083E007315160C8E7FE
S11336202F42DCD1274200D17BE0D4634888800755
S11336304FD50320187091E74C880888E50616D505
S11336400625000A2840EA352843640709D50124E1
S113365020431C79E40009190989012901D10731A2
S113366051600421197003395160D062A1E7FE252D
S11336702840EAE72F42B2D1274252D0D463488887
S1133680400726D5072173E718795F888446C00070
S113369008180689BE420FD80020588060460130C1
S11336A0C0B218714F887E07C3D4FE0702D4012824
S11336B000D853E7082196E74168781C5880C95D13
S11336C0D162062154E72F4200D088E7274228D050
S11336D0D4630520AEE7B80623D518795C88C0000A
S11336E009180889D569A04203D94968661C5E8017
S11336F00D555C88A042DDD904215160012800D811
S113370057E701384918844200D052E786E7802100
S113371049000F4205D0D16329E7FB215970F239E2
S113372026E7012015E7C0460090084000940840B1
S1133730646E0000C011002070B5274E04000D0017
S1133740B04245D0254B984211D0D121244889005C
S1133750FDF7D0FD002D0CD00420404270BD1F4B5E
S11337609C42F9D11F4B0C330AE0E26922E00029A4
S1133770F8D11D491A48FDF7BDFDB442EFD1194BEC
S1133780A268D20701D5202262606A88910702D517
S113379029890029E0D0520702D52A8A002ADBD0E1
S11337A0002201211A7059705A801A719D60C02339
S11337B063604033E2681A42D7D10C4B2000E363C4
S11337C0FC23226CDB0013432364FFF7B3FEC5E73D
S11337D00029D4D1CDE7C0460090084000940840A9
S11337E0646E0000C011002045030000FFFF0700C5
S11337F010B501248C408A400368A3431A43026035
S113380010BD000070B506000C001500072804DD8B
S113381094213A48FF31FDF76DFD272C04DDCD21BD
S113382036484900FDF766FD072E60D8300002F0E7
S11338300FFB04111C27323D48531F2C05DC2A00C2
S113384021002F48FFF7D4FF70BD21002A00203942
S11338502C48F7E71F2C03DC2A0021002A48F1E753
S113386021002A0020392948ECE71F2C03DC2A0018
S113387021002748E6E721002A0020392548E1E70E
S11338801F2C03DC2A0021002348DBE721002A0047
S113389020392248D6E71F2C03DC2A0021002048C7
S11338A0D0E721002A0020391E48CBE71F2C03DC77
S11338B02A0021001C48C5E721002A0020391B48A2
S11338C0C0E71F2C03DC2A0021001948BAE72100B5
S11338D02A0020391748B5E71F2C03DC2A002100F1
S11338E01548AFE721002A0020391448AAE78121AE
S11338F002488900FDF7FEFCA6E7C046946E00006E
S11339004040054050400540444005405440054077
S113391048400540584005404C4005405C40054047
S113392060400540704005406440054074400540D7
S113393068400540784005406C4005407C400540A7
S113394010B5072808DD21492148FDF7D3FC21499A
S11339501F48FDF7CFFC0DE00728F8D81E4B02F0F6
S113396077FA040A10161C22282E186C42400A40CA
S113397042401A6410BD586C42400A4042405A64A6
S1133980F8E7986C42400A4042409A64F2E7D86CE7
S113399042400A404240DA64ECE7186E42400A4072
S11339A042401A66E6E7586E42400A4042405A6670
S11339B0E0E7986E42400A4042409A66DAE7D86EE1
S11339C042400A404240DA66D4E7C0464A02000058
S11339D0946E00008A0200000040054010B50728DC
S11339E004DD1F491F48FDF785FC10BD0728FCD8DE
S11339F01D4B02F02DFA040A10161C22282E186DF5
S1133A0042400A4042401A65EFE7586D42400A407E
S1133A1042405A65E9E7986D42400A4042409A653F
S1133A20E3E7D86D42400A404240DA65DDE7186FAB
S1133A3042400A4042401A67D7E7586F42400A4062
S1133A4042405A67D1E7986F42400A4042409A6721
S1133A50CBE7D86F42400A404240DA67C5E7C04628
S1133A60A3020000946E00000040054010B504005D
S1133A703F2804DDBE2106488900FDF73BFC054BC9
S1133A80054A5868240210402043586010BDC046BF
S1133A90946E000000400540FFC0FFFF034A044944
S1133AA053680B40184350607047C04600400540BF
S1133AB0FFFFFFCFF8B5134D041E6F6803D14921F2
S1133AC01148FDF717FC01262B682269B3432B60CC
S1133AD06368E06813430D4A174062783B4313431D
S1133AE0227A13436B60FFF7D9FF094B227DA0694B
S1133AF01A60FFF7BBFF2378002B02D02B681E430C
S1133B002E60F8BD00400540946E0000E8FF8FCCA5
S1133B10F040054030B50124250022408D408A4004
S1133B200368AB431A43026030BD0000F8B50500DA
S1133B300F00002803D11A48FEF796F80500194B28
S1133B409D4204D9A52118484900FDF7D3FB002F55
S1133B5001D0BD4204D24E211348FF31FDF7CAFB08
S1133B600126002439002800714302F085F9402819
S1133B7001D9072C0FD10D4A0D49536824020B407B
S1133B8031001C43431E1B031C4341435460280063
S1133B9002F072F9F8BD01260134A640E2E7C046FE
S1133BA080062E00FEFFFF01C06E0000005005409D
S1133BB0FF08F0FF10B50400032804D9EF210648DC
S1133BC04900FDF797FB054A05495368A4050B40D6
S1133BD01C43546010BDC046C06E00000050054038
S1133BE0FFFF3FFF10B50C0000280ED0012812D1B2
S1133BF0032903D90A490B48FDF77CFB03210A4A30
S1133C0053688B431C43546010BD7021064A240141
S1133C1053688B43F6E705490248FDF76BFBF3E76E
S1133C2031020000C06E000000500540490200004F
S1133C3070B50D00040001000448FFF76BFF2A0073
S1133C4021000348FFF766FF70BDC046645005407D
S1133C5020500540F8B505000E0014001F003F2950
S1133C6004D9F22109488900FDF744FB084B9F421F
S1133C7003D908490548FDF73DFBBF03A1013943BA
S1133C80054B243531432D01E950F8BDC06E0000C9
S1133C90FF030000C903000000500540114B70B53C
S1133CA004000E001500994204D983210E48C9006E
S1133CB0FDF720FB0F2C03D90C490B48FDF71AFB29
S1133CC091220B4B2401E11892008B581B0B1B0310
S1133CD01E43084B8E50E41823681B0C1B041D4321
S1133CE0256070BDFF0F0000C06E00001A040000C4
S1133CF0005005404852054070B504000D000F29DE
S1133D0003D93A493A48FDF7F5FAE37B3F2B03D947
S1133D1038493748FDF7EEFA374B628A9A4204D99C
S1133D20A92133488900FDF7E5FA344BA28A9A4267
S1133D3003D933492E48FDF7DDFAC0236268DB025C
S1133D409A4207D12F4B2B41DB0703D42E49284835
S1133D50FDF7D0FA0322680082402C49EEB20B6CC6
S1133D6093431A00237A834013430B643000638A1D
S1133D70227CE17BFFF76EFF637BA27BDB041205F1
S1133D8013436268218B1343E28A30000A431343CE
S1133D90627A1F49520513432A0152185360A37AC9
S1133DA0227B5B0492041343E2691A491343E27AC7
S1133DB012051343621CD27F520513432A01521881
S1133DC01360628BA18AFFF769FF2900A278124869
S1133DD0FFF7A0FE290062781048FFF79BFE290038
S1133DE022780F48FFF796FE70BDC046A20200007D
S1133DF0C06E0000A3020000FF030000FF0F0000DC
S1133E00AD020000B0340000AF02000000500540D5
S1133E1040520540485205405C50054064500540FE
S1133E202050054010B504001F2803D90449054853
S1133E30FDF760FA1F231C40034B9C6310BDC04672
S1133E40AA050000C06E000000500540064B802209
S1133E501900186E1042FCD10122DA6180230A6E27
S1133E601A42FCD17047C0460050054010B50324E7
S1133E70044A1368A34318431060002901D0FFF7D4
S1133E80E5FF10BD00500540064B80221900186E56
S1133E901042FCD10222DA6180230A6E1A42FCD15C
S1133EA07047C04600500540064B80221900186E2A
S1133EB01042FCD10822DA6180230A6E1A42FCD136
S1133EC07047C0460050054000231C4A70B5D365B6
S1133ED01B4B93650123D1680B438021D360136E80
S1133EE00B40FCD10A21902691251800D161B6001F
S1133EF01360AD009360D3601361536193611362E7
S1133F0013645364D36353660C4C19010C19A05108
S1133F1060510C4C013309190860102BF4D10023B3
S1133F201800094CD9000919013348608860202B16
S1133F30F7D16033116E1942FCD170BD00500540B9
S1133F40FFFF7F0048520540FC50054070B5037EDA
S1133F5004000D00032B03D978214748FDF7CAF963
S1133F60002D01D0FFF7B0FF444D207EFFF722FE65
S1133F706A68637E42491B070A4013436B602269E7
S1133F80E368002113436288134362789200134369
S1133F90A27952031343E27952041343227A12049E
S1133FA01343627D920513432B602078FFF75EFF75
S1133FB0E31D226ADB7F134322000832D27F5200C2
S1133FC01343227F92001343627FD2001343A21D46
S1133FD0D27F92011343621DD27F12021343A27F48
S1133FE012051343E27F9205134322791206134309
S1133FF0627952061343AB60220023003832373310
S11340001B7812789B02D2031343228D13432200A0
S1134010393212781205134322003A3212785206CA
S113402013432200303212785200134322003132FB
S1134030127892001343220032321278D2001343D2
S113404022003332127812011343220034321278E0
S11340505201134322003532127892011343220095
S113406036321278D2011343EB60E06AFFF7DAFECE
S1134070237D2B6170BDC046C06E0000005005401A
S1134080FFFFFFEF0122014B9A60704700500E4082
S113409070B504000D00022803D94C211048FDF727
S11340A029F96B791F2B03D951210D48FDF722F90A
S11340B06B78AA789B00920113432A780434134343
S11340C0EA782401120113432A79D20213436A794C
S11340D012031343AA7952041343024AA35070BD36
S11340E0F06E0000002006400121034A13688B4350
S11340F0184310607047C046002006404378F0B56E
S11341005F1EBB419F00837841795E1EB3411E014F
S1134110C37809035D1EAB415D01037902781B027C
S11341200B438179134389031943C379027A5C1ED3
S1134130A3411204DC031300427A0B43511E8A414B
S11341403B4333432B43234352041343014A136039
S1134150F0BDC04600200640F8B5384B04000D0001
S1134160984203D0B8213648FDF7C4F80A232361E6
S1134170073B62681A42FCD1C623324E5B00F758F3
S11341802A78863BFF3B1F4053425A410423524244
S11341901A40297A2C4BD218062942D8080001F07B
S11341A057FE0433373A3D403D003F231268134025
S11341B01A021743062907D8012255208A400242D1
S11341C031D14B38024234D1FE266A78A878D2071E
S11341D000070243287BF6030243E878090200063D
S11341E0024368681B040004304002430A43697AAE
S11341F03B4389010A43A97A49010A43E97A2363C3
S113420009010A432260F8BD13681B059B0ECFE722
S113421013689B03FAE713681B02F7E713689B0014
S1134220F4E70023C4E7C6235B00F3581B061B0F07
S1134230CAE7C6235B00F3581B05F8E70060084093
S11342401D6F0000B081E00F3483E00F1E4B70B58A
S113425004000D001600984204D09D211B4849001B
S1134260FDF748F8012E04D93C211848FF31FDF729
S113427041F80A2362682361073B61681942FCD153
S11342806B78A9781B0309020B4329790B43E9785E
S113429009010B43002E0CD1A3602B78002B10D006
S11342A0002E08D101232361930709D50423236138
S11342B006E0E360F1E70423236101231A42F6D107
S11342C070BD002EF9D1EFE7006008401D6F0000BB
S11342D01FB510220449684602F08EF86846FEF7BE
S11342E08DFD002005B000BD4A6F000007B5062211
S11342F00021684602F089F802236A466846537131
S1134300FEF770FB00200EBD1FB501AC0C220A495C
S1134310200002F071F8094B094A1B88934200D12E
S1134320782308486380FCF711FA2000FDF7B4FFF6
S1134330002004B010BDC0465A6F00000001E00F19
S1134340FFFF0000006CDC0213B501AC0422074936
S1134350200002F051F8202320002370FDF7E0FF35
S11343606420FDF7A1FD002016BDC046666F000065
S11343700F230522F0B59C46FF2640275242032016
S11343803300D1B20840C00083403C00DB4384408A
S113439010060ED4C0250D48910889000918AD00F7
S11343A0485903401C434C510132202AE7D10020D4
S11343B0F0BD60460140083905488908890009189C
S11343C0C86903401C43CC61EEE7C04600E100E04D
S11343D000ED00E000230B7070470000002230B5B0
S11343E0104C41612368934209D12060836014E03A
S11343F0491B9D6841611A00002D0FD02B005D6997
S11344008D42F5D9002DF3D0002A09D09060836045
S1134410002B02D05A69511A596130BD2B00F5E7BF
S11344202060F4E7F011002010B500F011FA094BF8
S1134430094A1968002906D01368C41A4B69A342B3
S113444003D31B1B4B61106003E0C01A00231060F0
S11344504B6110BDF0110020DC11002070B50F4D30
S113446002202B685C690E4B1B68E41800F028FAE4
S1134470200000F0F9F9002302200A492A680B7091
S1134480D488044202D001230B7070BD9268002AC4
S1134490FBD054691B19012BF2D9F6E7F011002067
S11344A0DC110020E411002070B50400160004AAF9
S11344B00D0002CA2661107806AA20710020128815
S11344C02160A060E360E280854207D16561834298
S11344D001D020009847002E12D03500FDF754FF7C
S11344E00600FFF7A1FF29002000FFF777FF054B27
S11344F01B68A34201D1FFF7B1FF3000FDF748FF6D
S1134500002070BDF01100200300002110B50E4CF6
S11345102268002A11D09A420CD19A68002910D03E
S11345208A609A68101E0BD05B6951690020CB1811
S1134530536105E011009268EBE70220002BECD0F8
S113454010BD2260EDE7C046F011002070B5FDF704
S11345501BFF144E05003478002C1ED1124B1C6036
S1134560124B1C60124B1C8000F032F9012000F049
S1134570A7F900F0E1F90F4B021E186004D12800DE
S1134580FDF706FF232070BD23000B480B4901F003
S113459007FE0B4B1860012333702800FDF7F8FE6B
S11345A00020F0E7D8110020F0110020DC110020D9
S11345B0E6110020EC11002018FCFFFFE7030000C7
S11345C0E011002070B505000C002220002D10D051
S11345D000290ED000230B70FDF7D6FE0121084BF5
S11345E01B68002B02D02278002A03D0FDF7D0FEEE
S11345F0002070BD9D4201D12170F2E79B68F0E775
S1134600F0110020F0B517258BB0059310AB1B7883
S11346100400069311AB1B880E00079304ABED183E
S1134620002317002B7022209C4212D02900200066
S1134630FFF7C8FF2A780320002A0AD1079B31001C
S11346400293069B20000193059B00933B00FFF718
S11346502BFF0BB0F0BD0000FA21044B10B51B6812
S11346608900584301F008FC013010BDEC11002012
S113467010B50F2401238AB06C442370FFF7ECFFBC
S11346800023010001930093054A230004A8FFF7C7
S1134690B9FF002802D12378002BFCD10AB010BD49
S11346A0D5430000F0B5040085B0C3070CD5434AD8
S11346B0138801339BB21380FFF7B6FE404B1B688F
S11346C0002B01D0FFF7CAFEA3072AD500F0C0F8DB
S11346D03C4E07003368C31A0093FDF755FE0023D0
S11346E005001A000193364B1C68002C03D0636943
S11346F000998B4217D90199334B012958D1D2889B
S1134700022A55D16A4612791A70002C52D0636974
S1134710009A37609B1A6361FFF7A0FE2800FDF73B
S113472037FE05B0F0BD2300009A37605969914205
S113473009D8207984461879844500D91C009B68DF
S1134740521A002BF2D12800FDF722FE636903936D
S113475000236361FDF718FE05002000FFF7D4FE77
S11347602800FDF715FE2369002B09D0FDF70CFE88
S1134770050021692000FFF731FE2800FDF708FE3F
S1134780E368002B02D0216820009847019B013385
S1134790019300F05DF8039B0290DF19009BDB1B83
S11347A01B180093FDF7F0FD22000500029F9AE715
S11347B00022A9E7022000F091F8AFE7E6110020FB
S11347C0F0110020DC110020E811002000207047C7
S11347D070B51A4C86B003AD21000A22280001F0FE
S11347E00BFE2100002401AE07220A31300001F043
S11347F003FE01211248FCF749FE2C70FFF7E6FF87
S113480028712800FFF77AFC310001203470FFF78B
S11348103FFC0C4A0120536ADB0ADB0253620A4B59
S113482013629460FFF760FC8022C021074B1203DF
S113483049005A501A6006B070BDC0466A6F000045
S1134840A009140000200640FF07000000E100E07A
S1134850014B98687047C04600200640014B586DD4
S11348607047C0460020064070B5134E0400B5687A
S1134870FFF7F4FFB269530704D4421B022A01D89C
S1134880A8420ED1621B012A00D8AC1C01210022CF
S113489049428C425241A41804227465716A0A4345
S11348A0726206490A78002A05D002220023306D7C
S11348B0024332650B7070BD002006401A100020C0
S11348C001230340820701D504221343024A516A9B
S11348D00B4353627047C04600200640012201008A
S11348E0074B1140800707D5042001430548027097
S11348F003201A6D82431A655A6A8A435A627047C2
S1134900002006401A10002010B5FDF73DFD0400FC
S11349100120084A93691840590701D50221084328
S113492007210B401362FFF7BDFE2000FDF730FDA9
S113493010BDC0460020064010B50448FDF794F9A8
S11349400400FFF743FFC440200010BDA009140079
S113495010B500F02BFC00F063FC00F069FC00F0E3
S11349606BFC00F06AFC10BD10B50400FBF7D6FE2A
S1134970FA2189004C4301F07FFA0100054801F057
S11349807BFA0100200001F077FA800801D000F0E2
S113499007F810BD40420F000000000000000000B6
S11349A0013800D0FCE77047F0B595B00190029152
S11349B004920021062207A80BAD059301F025FD02
S11349C02A00414B0FAE13CB13C21B6800211360A6
S11349D01F2209AB5A8030000B3A197059701971B3
S11349E0597101F012FD012301213848B374FCF719
S11349F04DFD8021364A49015368364C0B400392E1
S1134A005DD0A368344F0133A360BB68019A13607F
S1134A107B6E029A1360FFF735FB01222F4B04993A
S1134A201A61A3680B6023691B990B70BB6A13425C
S1134A300BD0019B029A1B6812689B1A059A9B0A69
S1134A401360E2689B181A9A13601A9B1B68E36050
S1134A50039B5B68DB0306D5039B5B68DB0402D422
S1134A6001221E4B1A611E4B2800AB601D4B012412
S1134A706B60FEF78DFA01210020FEF7EFFAC023E8
S1134A8030009B01B3813474FDF7D4FF06AB07A853
S1134A901C71FDF7A7FF21001348FCF7F7FC002069
S1134AA0FCF710FC09ACA07000211048FCF770FB67
S1134AB02100E0700E48FCF78DFB15B0F0BDA3603B
S1134AC0E3602361C4E7C0467C6F0000A0091400C2
S1134AD000500E40FC2006400020064000300E40EE
S1134AE03A0700009808000000B20800C0CF6A002E
S1134AF00020084030B585B001AC05000C2200212F
S1134B00200001F082FCFF236371FC3BA3702100B1
S1134B100633034825716370FCF7BCFA05B030BD59
S1134B2000200840F8B501260F4C0700E1200D00D5
S1134B30FFF7E0FFA660E3683342FCD1FA23A26CDE
S1134B401B0153431B0B3B80E020FFF7D3FF0123E2
S1134B50A660E2681A42FCD1FA23A26C5B005343BC
S1134B601B0B2B80F8BDC0460020084070B5050023
S1134B700C0000280AD0002303201A000821FEF7A5
S1134B80ABFB80204003FDF76DFF70BD002908D00A
S1134B90FDF768FF08222B0011000320FEF79CFBA1
S1134BA0F3E70800FDF75EFF230022000821F4E785
S1134BB0014B18617047C046FC200640F0B593B025
S1134BC003AE07AD0F224349300001F015FC2C223F
S1134BD00021280001F019FC3C230227072402A924
S1134BE0C9180C703C483900AF70FDF735FA012143
S1134BF03A48FCF74BFC01213948FCF747FC0423F5
S1134C003471384C310020007371FDF7E5FB8022CC
S1134C10C021354B520549005A501A600023032223
S1134C206C392B80FF3902ABC9180723CA7702A954
S1134C3039328A1813702D2329002000AB73AF700A
S1134C40FDF718FC2368BB433B4323600123A360A7
S1134C500193E368019A1342FBD1636D002BF8D0F2
S1134C600226E6656369214FF53BFF3B3B603C232D
S1134C7029001C48AB73FDF7FDFB2368B3431E43B7
S1134C80019B2660A3600122E3681A400192FAD1D5
S1134C90636D002BF7D00226E66563692900F53BB6
S1134CA0FF3B7B60124B01272B6110230D482B80A7
S1134CB0AF70FDF7DFFB6A4623681279B3433343D1
S1134CC02360236E1E430B4B26661A70A76013B035
S1134CD0F0BDC0468C6F000003002000005E080099
S1134CE09027300000E0084000E100E0541000206C
S1134CF000200010F4110020F8B500240D4B1C57BF
S1134D002000631C14D00C4F631C9B00DE59A31CB1
S1134D109B00D8593100400101F0AEF8A300050012
S1134D20D8593100400101F0A7F8A401281A00194C
S1134D30F8BDC0463C10002044100020020030B5ED
S1134D40034B32CB32C232CB32C212CB12C230BD91
S1134D501C100020F0B5444B8FB006A802001900C7
S1134D6031C931C231C931C211C911C25A681F7F58
S1134D7003929A683D4D0192DA6800921A69029290
S1134D805A6904929A69FF230592394A1370394B80
S1134D90394E18683168401A0004691A01F06CF839
S1134DA0364B2900364D04005860A8423DD801D046
S1134DB02C005D602F4A73685068C91AC01A000439
S1134DC001F05AF82D4B9860844232D32D4A904218
S1134DD000D89D602C4B1C60FFF78EFF244D04000F
S1134DE0002F2BD000F094F8029BC31A04930023E5
S1134DF0EB5601332ED100271B49039B0A0007936E
S1134E00019B06940893009B0993029B0A93049BBD
S1134E100B93059B0C9306AB1F7713CB13C213CBD9
S1134E2013C203CB03C20FB0F0BD0023104A1370AA
S1134E30C0E701220E4B04001A70CBE70023EB56A7
S1134E400133D4D000F064F80023029001940127C8
S1134E500093CCE7002FCFD00B4B03941B68059332
S1134E60019BE31A0093C7E71C100020FFFF00001A
S1134E703C100020F81100205410002044100020A1
S1134E80DC050000DB050000401000201F2310B5E6
S1134E900A490B4ACB6513784C690A490A48C95C2C
S1134EA001338900DBB20C50012B01D8137010BD03
S1134EB000231370FFF74EFFF9E7C04600E00840F7
S1134EC0F41100209B6F0000F811002070B501213F
S1134ED006000C48FCF7DAFA0020FFF705F9052371
S1134EE00948012503710023084C85710370FFF7FD
S1134EF005F9E5622800A660FFF7F6F8236B002B9E
S1134F00FCD170BDA00914005C10002000200640F4
S1134F10FA20034B80009B685843800A7047C046C0
S1134F200020064010B5020003480B000068402131
S1134F30FBF772F910BDC0468010002007B5009041
S1134F4003480023012260210068FBF7AEFA07BD85
S1134F508010002030B5012587B002AC102200215A
S1134F60200001F052FA29000E482570FCF78EFA51
S1134F7004230522002168462372657001F045FA76
S1134F806B461D70084D21002800FFF7E5F800224C
S1134F9069462800FFF75AF9C8239B006B6207B0E3
S1134FA030BDC046004E08000060084010B50B4CF0
S1134FB001210B48FCF76AFA20000A49FBF79EFF1F
S1134FC020000949FBF7E4FF03222000FD21FBF741
S1134FD077FF00212000FBF769FF10BD00000840A7
S1134FE000820800A06F000014700000012270B558
S1134FF0110005000024FEF71BFEA54204D0002288
S113500020001100FEF714FE0134E4B2102CF4D198
S1135010FEF71CFF0422094B996A1142FCD08F222F
S113502092009A582800013A92B20021FEF736FE07
S1135030FEF72AFFFEF738FF70BDC046005005405A
S113504010B50023042203210220FEF745F90221B2
S11350501448FDF701F801211348FCF717FA012160
S11350601248FCF713FA01211148FEF76FFF0321E0
S11350701048FEF741FE14210020FEF757FD0121E0
S11350800020FEF7AFFD00210120FEF7ABFD8022DA
S1135090094B92051A600320FFF7A8FFFEF7D6FE1E
S11350A010BDC04602001E0030053E0080062E00E2
S11350B0B46F0000F06F000000E100E010B5064B93
S11350C040211868FBF7F6F8FFF744FFFFF76EFF7F
S11350D0FFF7B6FF10BDC0468010002000BA70472D
S11350E070B501211648FCF7D1F98023154C5B00FB
S11350F02360002340212360134D09332360043BC4
S113510062683F2AFCD90A00013AD2B26868002AD0
S1135110FAD1013BDBB2002BF2D16868FFF7DEFF66
S113512020616868FFF7DAFF60616868FFF7D6FFFF
S1135130A0616868FFF7D2FF0123E061236070BDBE
S113514000C2040000D00140FCD0014070B505004D
S11351500400044E10357068FFF7C0FF01C4AC4270
S1135160F9D170BDFCD001407047000010B5042196
S11351701120FCF771FF01210848FCF787F902218F
S11351800748FCF769FF02210648FCF765FF06485B
S11351900221FCF761FF002010BDC04630053E002F
S11351A002001E00030020000500240080230121CA
S11351B0DB0570B55964174B04241A00B03210682B
S11351C0E033084310601868134D204318608020B2
S11351D02E684001304328601868A04318601368A3
S11351E08B431360F8230D4ADB0111680B431360F2
S11351F0FFF7BEF8FAF7E4FFFFF76AF8FFF784F861
S1135200FFF7A2F8FFF7B2FFFFF770F8FAF7C8FF4D
S113521070BDC04600400E4034400540A4310E40ED
S113522010B500F00BF800F017F800F021F810BDED
S113523010B5FFF78BF910BD7047704710B5012109
S11352400348FCF723F90348FBF78CFB10BDC04669
S113525000250A006810002010B50348FBF79AFAED
S11352600248FBF797FA10BD247000003C70000060
S113527010B50348FBF74AFC0248FBF747FC10BD96
S1135280547000006C700000F0B585B0052800D99A
S11352900AE100F0E7FD060038007000D9001101B2
S11352A04101FFF735FEFA218900040000F0E4FD16
S11352B0D8490500200000F0DFFDD74C3C214443D1
S11352C0280000F05FFE6418E1212800090100F0C5
S11352D059FE08003C2100F0CFFD01006420484342
S11352E0201800F0CFFC0121022000F037FD01213D
S11352F0032000F033FDC94800F04EFD01210800F1
S113530000F02CFDD0E00121002000F087FD0121F8
S1135310042000F083FD0121072000F07FFD01211E
S11353200B2000F07BFD0E2420000121013400F04D
S113533075FD132CF8D10121152000F06FFD01211A
S1135340192000F06BFD01211C2000F067FD0121F4
S1135350202000F063FDB24800F01EFD6420B14B34
S1135360502100229B5E584300F010FE00F08AFC9E
S113537001211720C4E7002420000121013400F09A
S11353804DFD042CF8D10121072000F047FD012137
S11353900B2000F043FD0A3420000121013400F009
S11353A03DFD122CF8D10121152000F037FD01211B
S11353B0172000F033FD01211C2000F02FFD0121F6
S11353C01F2000F02BFD984B984D1C78984B002C17
S11353D027D01A682900684601F020F8012124200A
S11353E000F0BCFC0021252000F0B8FC00246B4632
S11353F068461C7200F0D0FC8E4B186800F042FC2A
S11354000121222000F0AAFC0121232000F0A6FCA7
S11354100121122000F0A2FC0121162000F09EFCC4
S113542077E0186809235843834B0521C01800F01E
S1135430ADFD29000200684600F0F0FF21002420A1
S113544000F08CFC0121CEE700242000012101346E
S113545000F0E4FC052CF8D10121072000F0DEFC6B
S1135460093420000121013400F0D8FC122CF8D1B9
S11354700121152000F0D2FC01211C2000F0CEFCFB
S11354806E4D2C7F002C11D02A686D49684600F0BF
S1135490C5FFA869642100F0EFFC0400684600F031
S11354A07BFC200000F0EEFB05B0F0BD2200654956
S11354B0684600F0B3FFF1E7634E3378002B21D048
S11354C000240127614D2B686A6853402B602968CA
S11354D02000E1400134394000F0A0FC112CF6D149
S11354E00127AB68EA685340AB602300A968113B0D
S11354F0D94020003940013400F090FC232CF4D131
S113550000233370524800F047FC524B188800F0D7
S1135510B9FB01210020F3E600242000002101341E
S113552000F07CFC232CF8D14B4B1B78002B2BD0A8
S11355300121080000F072FC0121022000F06EFC41
S11355400121032000F06AFC0121072000F066FC21
S113555001210B2000F062FC01210E2000F05EFC12
S11355600121152000F05AFC0121192000F056FCFD
S113557001211D2000F052FC01211E2000F04EFCF0
S113558001211F2000F04AFC344B1B78002B27D04C
S1135590002420000121013400F040FC042CF8D147
S11355A00121082000F03AFC01210B2000F036FC18
S11355B001210F2000F032FC0121122000F02EFC0A
S11355C00121162000F02AFC0121192000F026FCFC
S11355D0183420000121013400F020FC202CF8D1E3
S11355E01F4C20492288684600F018FF00236A46B1
S11355F06846137200F0D0FB2188002900D00121F5
S1135600122000F0ABFB184B188800F03BFB012183
S1135610172003E780EE3600102700008470000096
S11356208D7000001A120020C8100020967000002F
S1135630241200202012002000710200A810002073
S11356409D700000A67000002D120020381200206A
S1135650AE7000001C1200200C1200200D1200205D
S113566018120020B7700000A2100020F0B58BB013
S1135670FFF76EF95B4C5C4B5C4E5D4A5D490093F1
S113568020005D4B0196FFF78FF92068FFF71EFCA1
S1135690002000F081F901215848FBF7F7FE0223AE
S11356A001255748C3700533037101334371554BCA
S11356B09D61DA692A43DA618022534B12041A602D
S11356C0FCF76AFEFFF7FAFCFFF778FA0020FDF713
S11356D0EFF802AC4D4F2000FFF730FB3B0007CC46
S11356E007C307CC07C306CC06C3494B1A78002A64
S11356F00CD00022474948481A70FFF713FC47486A
S1135700FFF71CFC46494748FFF70CFA464C237840
S1135710002B12D0454A4648138801331380FBF707
S1135720FAF9002323703378042B06D1FFF7D8FC51
S11357304048FFF70BFD404B1D70404A1378002B87
S11357400CD0337800210133DBB2062B1DD033702B
S113575030781170FFF72CFA00F0BAF8384F3B7824
S1135760002B0ED03378042B11D0052B1DD0022B27
S113577005D1344B1A78002A15D000221A70002360
S11357803B703078FFF780FDA0E73170E0E700243C
S1135790264B2D481C80FBF7BEF9264B1C605C6031
S11357A09C60DC60244B1D70E9E7284A2849137883
S11357B00133DBB2137003221340264A022B0CD0B0
S11357C00020032B0BD0012B05D01570097810781D
S11357D0FFF7CCF9D3E71070F8E70D70F6E708701F
S11357E0F4E7C04614120020041200202B120020FB
S11357F000120020101200200812002000A208004D
S1135800C910002000F0084000E100E0A8100020CA
S11358102A12002024120020201200201A12002034
S1135820A2100020181200202C1200201C120020AC
S11358306C700000381200202D1200202812002065
S113584029120020C810002054700000A410002069
S11358500D1200200C1200200123024A9361024A17
S11358601370704700F008402A1200200822034BEE
S11358709A65034B073A1A707047C04600500540BA
S11358802C1200200A4B10B50400984205D1FAF7F7
S11358908AFF012801D1074B1870074B9C4206D19F
S11358A02000FAF780FF012801D1044B187010BDC5
S11358B024700000281200203C70000029120020EF
S11358C0024A13681842FCD17047C046C4400540E0
S11358D0002210B510002C49FEF732F800222A49A4
S11358E00120FEF72DF8002227490220FEF728F8B0
S11358F0002225490320FEF723F800222249042030
S1135900FEF71EF8002220490520FEF719F80022B0
S11359101D490620FEF714F800221B490720FEF754
S11359200FF8002203211000FEF758F8002203218B
S11359300120FEF753F8002203210220FEF74EF85F
S1135940032100220800FEF749F800220321042065
S1135950FEF744F8002203210520FEF73FF8002259
S113596003210620FEF73AF8002203210720FEF760
S113597035F8064B1B78002B04D0054A05495368BB
S11359800B40536010BDC046FFFF0FCFCF10002067
S113599000400540FFFF8FFF70B500250121060080
S11359A01748FBF773FD03211648FCF755FB082144
S11359B01548FCF713F8154C0820FCF773FA01217D
S11359C01348FBF763FDA36A1248A562FEF772F859
S11359D00322114B1D70114BA360114B1A60AE4290
S11359E006D080208005FEF759F81D20FEF73EF80A
S11359F0FFF76EFF01204042FFF762FF70BDC04613
S1135A0030053E0002001E0080002A0000400540D0
S1135A1000262C00A0740000CF100020FFFF0FCF41
S1135A20F440054030B5040091B00D0040221C49FB
S1135A30684600F0E1FC0F23210068461940890004
S1135A4008586946220F9200525880182A001A40BA
S1135A5092002D0952581D40AD0080186A588018D4
S1135A6022091A40920052588018220A1A409200C1
S1135A7052588018220B1A40920052588018220C57
S1135A801A40920052588018220D1A40240E2340C6
S1135A90920052589B005B588018C01811B030BD5A
S1135AA0C0700000F0B5444C87B0206C216DFFF746
S1135AB0B9FF0090132862D80D258542AD41002618
S1135AC06D42606C616DFFF7ADFF01900A2859D8F3
S1135AD0082800D90125A06CA16DFFF7A3FF02904F
S1135AE00A2852D8082800D90125E06CE16DFFF797
S1135AF099FF03900A284BD8082800D90125206E65
S1135B00216FFFF78FFF04900A2844D8082800D992
S1135B100125606E616FFFF785FF05900A283DD867
S1135B20082800D90125A06EA16FFFF77BFF0700AD
S1135B300A2836D8082800D90125E06EE16FFFF75E
S1135B4071FF1E4A1B2831D817282DD8002E2DD1BD
S1135B50002D0FD00199009B8C46029963445B1879
S1135B6003995B1804995B1805995B18DF193818B9
S1135B7027281BD863681A40626007B0F0BD01266D
S1135B8035009EE701263500A5E701263500ACE780
S1135B9001263500B3E701263500BAE701263500B2
S1135BA0C1E701263500C8E7002ED3D0636813404F
S1135BB0802252031A43DFE700400540FFFF8FFFB6
S1135BC010B5002216490420FDF7BAFE002214493C
S1135BD00520FDF7B5FE002211490620FDF7B0FEB1
S1135BE000220F490720FDF7ABFE00220321042009
S1135BF0FDF7F4FE002203210520FDF7EFFE00224D
S1135C0003210620FDF7EAFE002203210720FDF709
S1135C10E5FE044B1B78002B01D0FFF743FF10BDBA
S1135C20FFFF0FCFCF100020002210B51000114944
S1135C30FDF786FE002210490120FDF781FE0022B7
S1135C400E490220FDF77CFE002201211000FDF721
S1135C50C5FE012100220800FDF7C0FE002201213B
S1135C600220FDF7BBFE064B1B78002B01D0FFF78B
S1135C7019FF10BD000A02CFED0C024FEF0C02CF4A
S1135C80CF100020F0B52E4B85B00400984252DCB2
S1135C902C4B984247DB00230093984244DB0120BD
S1135CA00126294D4042FFF70BFE2E60FFF7BCFF93
S1135CB001960026254F03950199200000F066F90E
S1135CC00A2100F049FA009B89B2012B02D1052E6A
S1135CD000D1102100251E4B4900CB5A0293029B90
