S0370000626F6F746C6F616465722D756172742D62676170695F6D676D3231306C3032326A69665F62726434333039612D6372632E733337E0
S31500000000201300204D2C0000E3050000F111000034
S31500000010CF0600000F0800004308000000000000A3
S31500000020000000000000000040000000FB1300007C
S31500000030EF2A000080000000FF2A0000AB2B000022
S3150000004007B0CD5E0100000000000C01B42D0000D9
S315000000500040000000001000F0001000F313000044
S31500000060F71300003D1B00006B2C00009D2C0000C8
S3150000007000000000D72C00003B2D0000000000000F
S3150000008013B779FAC925DDB7ADF3CFE0F1B614B8E9
S315000000900101000002000000B02D00004000000039
S315000000A000000C010000000000000000000000003D
S315000000B0000000000000000000000000000000003A
S315000000C038B5012086490860864C40F6AA62E2608F
S315000000D0002020600021616541F205006060A1609A
S315000000E061616164804A814B1A60814D2960A96112
S315000000F02961A960E96060602068206000F03AF933
S315000001007C49096801230422C1F38021491CB0FB04
S31500000110F1F04FF4E111400100F56120B0FBF1F17F
S315000001207548203900EAC10060610021022000F014
S3150000013071F9012301220121022000F06BF914203C
S3150000014028600221A9616D4A2A6101230422002147
S31500000150032000F05FF90520E06069480121016095
S315000001604FF0F0524260002303624363C3630365AA
S3150000017064494FF480220A606EA2C3650024920887
S3150000018084659200C266604B4B6060494C600C60AF
S3150000019003215F4A11600124446402205D4908601E
S315000001A031BD70B50E4605461446802E02D341F287
S315000001B0031070BD00F025F810B941F2062070BD9D
S315000001C00020554902E02A5C0A54401CB042FAD38A
S315000001D0D1F88000761E022266F30E10C1F8800068
S315000001E0803189084D488900816502603CB100F084
S315000001F008F80028FBD04A4801688A06FBD500208B
S3150000020070BD4849CA684248930703D502220A606E
S31500000210026004E049688A0703D4022101600120D4
S315000002207047002070474048006840F2011188423C
S3150000023008BF002007D040F2022188420EBF4FF4CB
S3150000024080703A49401A3A4A1168814201D1002029
S31500000250704701D2401A7047C1F5007140187047C7
S315000002602DE9F04107468846154600268BB1069CC7
S315000002702CB100F00DF90021204600F022F9FFF71D
S31500000280D2FF404505D2002CF9D000F031F9002804
S31500000290F5D0FFF7C8FF804505D8404603E00023A8
S315000002A00B6002211160864212D221490B681F4A57
S315000002B0D45C5B1C174ABC55761C0B60B3F5007FFB
S315000002C0EDD0B3F5807FEED10121EBE7BDE8F081FB
S315000002D005B12E60464534BF41F204200020F5E703
S315000002E00490054008800540FFFF010048A0054036
S315000002F0ACC5034070800040F8FF7F00020001009B
S315000003000400044000400440020004008C00044045
S3150000031034200440101004408000002048000440AF
S3150000032018800540280004406C000440100100209D
S3150000033018030020F00F1003248005401001002050
S315000003401300000009000000000100000202000086
S3150000035013000000F00F1003248005401002002057
S315000003601300000009000000000200000101000067
S31500000370D3FFFFFF10B51449086800F007000328F3
S3150000038008BF124A18D0124B1868C0F3044011284F
S3150000039028BF104A10D200BF11A2125C0E480F4CA3
S315000003A04243A24208D11B68012022461B0E03F0DD
S315000003B003039840B2FBF0F20868C0F30130401C1A
S315000003C0B2FBF0F010BD00007080004000F0490262
S315000003D008000140C0EA210140420F0000093D002B
S315000003E00400000700000D1013001A2026303840C4
S315000003F0500000003022504310B50123214C04E088
S315000004003022504310B501231F4C03FA01F120445A
S31500000410016110BDF8B5054617460E461C46380064
S3150000042007D0002C284602D0FFF7EAFF01E0FFF7CD
S31500000430E1FF2A4630204243144988180F22082E2D
S3150000044005D24168B30000F015F8416006E0A6F158
S315000004500803C1689B0000F00DF8C1604FB9002C7D
S315000004603146284602D0BDE8F440C9E7BDE8F4406D
S31500000470C0E7F1BD9A4021EA020207FA03F11143EF
S315000004807047000000E0034000D0034000C0034076
S31500000490F8B5FFF76FFF4FF47A71B0FBF1F01E4A23
S315000004A022A1800A50606846102200F057F840F2F8
S315000004B0FF30ADF802006946184800F0A3F805B011
S315000004C000BD30B5164BDD68134C626802FB005068
S315000004D0ADB260806088A8429241D20F227011B1FD
S315000004E0D9688142FCD101200E4C2060186030BDD5
S315000004F00D490A68084B187802F0010210B122B9BA
S31500000500002070470AB1012070470869598888425F
S315000005108041C043C00F7047100300200080044094
S315000005201880044014A00440148004400100000018
S3150000053000000000000000000000000062B38B070E
S3150000054008D0521E11F8013B00F8013B00F0248050
S315000005508B07F6D1830740F0208000BF103A07D3FF
S3150000056030B4B1E83810103AA0E83810F9D230BCEF
S31500000570530724BFB1E80810A0E8081044BF51F89B
S31500000580043B40F8043BD20724BF31F8022B20F885
S31500000590022B44BF0B7803707047121F17D35B0002
S315000005A009D151F8043B20F8023B1B0C121F20F81E
S315000005B0023BF6D20BE051F8043B00F8013B1B0A64
S315000005C020F8023B1B0C121F00F8013BF3D238BF88
S315000005D0121D521E24BF11F8013B00F8013BF8D84A
S315000005E07047FEE7324988421CBF324A904205D026
S315000005F0314988421CBF314A904201D101207047DF
S3150000060000207047F8B504460D46FFF7EBFF20467D
S3150000061000F056F8012142F23002A150687895F8B0
S3150000062004E00028A87A4FEA0E2E14BF40210021CC
S315000006300028E87A14BF802200220028287B14BFF5
S31500000640202300230028687B14BF102600260028DC
S31500000650A87914BF082700270028B5F902004EEA3A
S31500000660804E687A14BF4FF4803C4FF0000C40EA8D
S315000006700E00014311431943314339434CEA01014A
S315000006806160012141F23002A150287808B90221A7
S31500000690E16000226262697901B11021EA792B7A60
S315000006A043EA82031943A16008B10120E060F1BD6D
S315000006B00080044000C004400000054000400540A2
S315000006C0016BCA0702D501694A06F9D47047FEE7ED
S315000006D080B590B000F012F8B0F5A02F11B00CBFA5
S315000006E00B48002000BD80B590B000F007F8B0F5CB
S315000006F0A02F11B00CBF0748002000BD00234022E8
S3150000070069464FF4807000F04BB80348704700000C
S315000007104CE30F006CE30F0086E20F00426812B94B
S3150000072041607047526850680128FBD1516070479C
S31500000730826812B981607047526850680128FBD1FF
S3150000074051607047C269042A05D200EB8202D1606B
S31500000750C169491CC1617047C169042909D970473B
S3150000076000EB8203DB68521C0B60C3699A42F7D325
S3150000077070474FF098410A6CD302FAD5C269121D30
S3150000078092000A6502680A6042680A60836800226D
S31500000790EAE717480168C902FCD5006970470000FE
S315000007A0002B2DE9F84E8BB0074614BF114D124DA4
S315000007B00E46144603A8202100F026F80FA02F436A
S315000007C090E8000E03976F4687E8000E009644F007
S315000007D000540294694603A8FFF7AAFF03A8FFF78F
S315000007E0BBFFFFF7D6FF0CB000F47020BDE8F08E1B
S315000007F04400004C01000AFF010008FF0000000051
S315000008000100000000000000002200F001B8FEE731
S3150000081000B500BF130096469446103928BFA0E8DD
S315000008200C50FAD85FEA417C28BF0CC048BF40F89C
S31500000830042BC90728BF20F8022B48BF00F8012B5C
S3150000084000BDFEE70020704700207047002070477B
S315000008502421FFF7D9BF70B50D460446164624215C
S31500000860FFF7D2FF802E1CBFC02EB6F5807F02D0C8
S315000008706FF0710070BD2660F2082946201DFFF753
S315000008805DFE002070BD2DE9F84791B00646306840
S315000008900F46144680281D4618BFC02805D0B0F55F
S315000008A0807F18BF6FF071004AD109A82021FFF799
S315000008B0ABFF012F0FF2482191E88C000CBFDFF847
S315000008C01002DFF810020990684680E88C00301D9F
S315000008D0009030680FF2342206A9C00840F000509C
S315000008E0029092E8884009A881E888400FF2282102
S315000008F0069491E8000703AC694684E8000703956F
S31500000900FFF70CFF06A909A8FFF708FF03A909A826
S31500000910FFF70EFF316809A800F01EF8102109A89C
S31500000920FFF710FF00F02CF950B909A8FFF714FFE4
S3150000093000F009F804F47024002C0CBF00202046B7
S3150000094012B0BDE8F087DFF890010168C902FCD556
S31500000950046900F01FB911A8C908FFF7F3BE00002B
S31500000960002A2DE9F64F99B014BF1468002400261A
S31500000970009000684FF0000A019180281D46249FD0
S31500000980DDF89480DDF898901CBFC028B0F5807F14
S3150000099004D06FF01F008FE000F0A6F801988245A2
S315000009A080F08380002CF7D1A0EB0A005FEA101BD1
S315000009B05ED000BF63A611A85AA12022FFF7CEFD84
S315000009C096E80E0008A84FEA0B1B80E80E00009977
S315000009D0081D089000990BA80A680EA9D20842F0D3
S315000009E000520A925AA292E8484081E848400E9581
S315000009F05AA191E84C000DF1140E80E84C000B95BD
S31500000A0059A090E80E0008EB0A008EE80E0005904B
S31500000A104BF00051079100BF56A393E8414002AA4C
S31500000A2009EB0A0382E8414000F058F80EA900F0ED
S31500000A3058F805A900F055F800F041F80BA900F0A8
S31500000A403FF800980168FFF786FF594611A8FFF79F
S31500000A5079FE00F095F800282ED111A8FFF77CFE4C
S31500000A6000F031F8066900F095F8DA4406F47026CD
S31500000A7016B120E000F038F80198B0EB0A008DD0EE
S31500000A80002CF7D100983B462A460121FFF7FBFED2
S31500000A90002041422944CA7B521CCA73D2B2002AA2
S31500000AA0E8D1401C0F28F4D9E4E71A9800B1046095
S31500000AB00EB9002000E030461BB0BDE8F08F02A959
S31500000AC011A8FFF735BE04480168C902FCD5704776
S31500000AD000010004000101044400004C029304914B
S31500000AE008A911A8FFF71ABE18F80A10385D641C89
S31500000AF004F00F04414009F80A100AF1010A704790
S31500000B0000000000010000000000000000000000DE
S31500000B10010000001000002000000000010000009D
S31500000B201000002003030004000000000000000085
S31500000B3000000000000000000000000000000000AF
S31500000B40000000000000000001000000000000009E
S31500000B50000000000100000010000020000000005E
S31500000B60010000001000002000000000010000004D
S31500000B70000000000000000001000000000000006E
S31500000B8080B5FFF75FFE10B9FFF75EFE08B14FF0C4
S31500000B90FF3002BDFFF75ABE1CB501230422042113
S31500000BA00020FFF737FC0021009102E00098401C6E
S31500000BB0009000986428F9DB01230222042100201A
S31500000BC0FFF728FC002001E00098401C00900098E8
S31500000BD0B0F5FA7FF8DB07490C68012300220421EF
S31500000BE000202409FFF716FC04F0010484F001003C
S31500000BF016BD00BF14C0034070B5DFF84021DFF812
S31500000C004031DFF84041246865070CD4C60701D49B
S31500000C101C4209D100EA04058D4208D0521EF0D1CB
S31500000C206FF0020070BD06E06FF0010070BD1C425F
S31500000C30FAD1002070BD4FF0FF3070BD70B541F69F
S31500000C407131414C0122424BE568E1621A606060F5
S31500000C5002262660002121202D0CFFF7CDFF05F08E
S31500000C600105010003D100212120FFF7C5FF012165
S31500000C70364A11600DB10021E16270BD2DE9F047E1
S31500000C80DFF8D0800125C8F800504FF45026324FC7
S31500000C9047F8206030264643304D0027354441F65C
S31500000CA071346F60AF60AF612D4E3769346334685D
S31500000CB03F0C07F0010744F001043460012404FAF4
S31500000CC000FC22E0B1603469640729D44FEA9E042F
S31500000CD0641E240144F06054EC602A61214C6C616E
S31500000CE0C8F820C0204CD4F8009029FA00F95FEA31
S31500000CF0C97AF8D51D4CC4F800C0C8F824C004242D
S31500000D00746071447244A3EB0E0363B101F50054A1
S31500000D10640B6403A4EB010E7345D3D29E46D1E760
S31500000D204FF0FF3007E030684008400030600FB1F8
S31500000D30002030630020BDE8F08700008096980010
S31500000D40020001001C000340100003400C20034079
S31500000D500C100340041004400040044058000440B6
S31500000D600C000340180003403400044034200440C3
S31500000D70054909688A0902F03F0201F03F038270C3
S31500000D804370090B0170704714C007402DE9F84FF6
S31500000D905FEA00080E4698B017461D4618BF002E9B
S31500000DA000D017B940F2016060E0229C002D10A827
S31500000DB036A116BF002CDFF8BC90DFF8BC902022CD
S31500000DC0FFF7CCFB494610A8FFF7BCFC202110A872
S31500000DD0FFF7B8FC35A292E808500DA9002D81E86E
S31500000DE008500D9534A191E8010C0DF1280918BFA2
S31500000DF0002C89E8010C0A9405D00DA900F042F8F0
S31500000E000AA900F03FF800BF2EA191E81C0007A830
S31500000E1007A980E81C00CDF81C8000F033F800BF5D
S31500000E202BA191E81C0004A801AD80E81C000496E3
S31500000E302AA696E8004304A910A885E8004301976E
S31500000E40FFF76CFC01A900F01DF810A8FFF784FC61
S31500000E500A4800900A480168C902FCD5006900F4F6
S31500000E6070200090009808B140F2046019B0BDE807
S31500000E70F08F00001F24FC841F2400807856341253
S31500000E804400004C10A8FFF749BC00000000010612
S31500000E90000000000000000000000000000000004C
S31500000EA0000000000000000000000000000000003C
S31500000EB001000000200000200000000001000000EA
S31500000EC0200000200000000001000000200000209B
S31500000ED000000000010000002000002000000000CB
S31500000EE001000000200000202DE9FC478A46144638
S31500000EF0984670B9002C43D00B990A683F2A0AD845
S31500000F004868002818BF5FEA080905D10FF24C1996
S31500000F1002E0424835E0C14602F03F06A218C6F19B
S31500000F2040050A60A24202D24868401C48600A9FF7
S31500000F3096B1AC4210D32A465146B819FFF7FEFACD
S31500000F400120009043463A464946002000F0B6F894
S31500000F50C146AA44641B00263F2C0BD9A50900955F
S31500000F60434652464946002000F0A8F80AEB851A87
S31500000F70A4EB851424B122465146B819FFF7DEFAD0
S31500000F800020BDE8F6870000F8B586B00C46154689
S31500000F901E4640BB002102AF56F821304A4292005D
S31500000FA0D21D00EBC300B85402A8104456F8212005
S31500000FB0C01E5209827056F82120520B427056F814
S31500000FC02120520D027056F82100491C400F0129BC
S31500000FD0E2D9327802F03F02382A34BFC2F1380231
S31500000FE0C2F1780201E00D4816E00C9F01960095CB
S31500000FF04FEA040321A10020FFF776FF0196009532
S315000010002346082202A90020FFF76EFF2022214670
S315000010103846FFF793FA002007B0F0BD80AFFFFF18
S315000010206821FFF7F1BB0021016041600020704795
S3150000103000F12803E0B50093019000F108030020B9
S31500001040FFF752FF0EBD80B50346009103F128025B
S3150000105003F108010020FFF797FF02BD6A09E66762
S31500001060BB67AE853C6EF372A54FF53A510E527FC3
S315000010709B05688C1F83D9AB5BE0CD19800000000F
S31500001080000000000000000000000000000000005A
S31500001090000000000000000000000000000000004A
S315000010A0000000000000000000000000000000003A
S315000010B00000000000000000000000002DE9F04FD5
S315000010C091B004460E4617461D4609A82DA12022BA
S315000010D0FFF744FA33A191E8010C0DF1180800BF9F
S315000010E033A288E8010C069792E8884003A981E8B4
S315000010F0884000BF31A1039691E800076E4686E856
S31500001100000700959CBB09981A9C40F480600990E2
S31500001110A10109A8FFF716FB089803A940EA841461
S315000011200894059840F020000590029840F02000B1
S31500001130029009A8FFF7F2FA06A909A8FFF7EEFA46
S31500001140694609A8FFF7F4FAFFF71AFD80B909A85E
S31500001150FFF702FB08480168C902FCD50469FFF7DE
S3150000116019FD14F4702F0CBF0020044800E0044859
S3150000117011B0BDE8F08F00004400004C80ADFFFFC9
S3150000118080AFFFFF00000103000000000000000028
S315000011900000000000000000000000000000000049
S315000011A00000000000000000010000000000002018
S315000011B00000000001000000000000200000000008
S315000011C0010000000000002030B5084B01241C601F
S315000011D000255D60DA609C6002E010F8014BDC617E
S315000011E00A46511E002AF8D1186A30BD048008400C
S315000011F04FF4017000F0C5B81CB56846FFF7B8FD9E
S315000012004D48816ACA0311D441686FF3162141F42F
S31500001210B81141F405414160016821F4704141F47F
S3150000122040410160026842F4E06202609DF80100FC
S31500001230012804BF9DF80000002807D14FF0005197
S3150000124006200A6801F58041401EFAD13B48016834
S3150000125041F00301016000F0CCF800F08CF800F0DA
S31500001260D3F800F0D3F818B14FF4017000F089F804
S3150000127000F0EAF8044600F0C3F9002C19BF40F26A
S315000012800370844240F2012000F07BF840F20570C2
S3150000129084421BBF40F206718C4240F203204FF499
S315000012A0017000F06EF8002016BD000080B5012127
S315000012B000F04BF82249086842060AD500F078F893
S315000012C040F20221401A07D0C01E05D0C01E0128D8
S315000012D002D9FFF761FC08B100F036F844F20400C9
S315000012E0016811F1010F05D14FF4027000F034F8D6
S315000012F000F02AF89DF8010060B14FF4804000F03C
S315000013001DFC8DF800009DF8000018B94FF402701E
S3150000131000F022F89DF8000068B14FF480410948BA
S3150000132001600A461046016881F3088881F309883E
S3150000133040688746FEE701BD30C00040808000401F
S315000013409440004008ED00E000218DF800108DF873
S3150000135001107047002070474FF000514A880880FE
S315000013604FF6F07002404AF6C0339A421CBF4FF265
S315000013700F024A8070474CF23C30FFE7094908806B
S31500001380704780B5FFF7E8FFBFF34F8F06490A683D
S31500001390064802F4E06202430A60BFF34F8F00BFC3
S315000013A0FDE70000020000200CED00E00400FA0555
S315000013B010B54FF0005250884FF6F0714AF6C0341F
S315000013C001EA0003A3421CBF4FF20F03984201D16A
S315000013D0108810BD002804BF1088012802D140F2F1
S315000013E0022010BD4FF4007010BD4FF00050008871
S315000013F070470020704700207047FEE70179012200
S31500001400C01C091DFEF7CDBEFEF75ABE80B5C2B0A0
S31500001410FFF7EBFFB0F5027F06D1684679A100F031
S31500001420EBF86846FFF7EAFF4FEA0D00B7A100F0B8
S31500001430E3F828210A680DF10700936803606846FF
S31500001440FFF7DCFF43B000BD70B5ADF5886D8CA825
S315000014500FF2C03100F0D0F80DA80FF2C0411022F3
S31500001460FFF77CF802A80FF2C4412C22FFF776F8AA
S3150000147045A84FF48E71FFF7C7F92BA86821FFF72F
S31500001480C3F911A86821FFF7BFF9202311AA2BA9D8
S3150000149045A800F0CCFD40F6033540F2022608E0F0
S315000014A0012100228DF83612ADF837228CA8FFF7FD
S315000014B0A5FF4FF48471CEA8FFF7A6F9FEF7B3FE99
S315000014C00028FBD04FF47A700090CEA8012301AA21
S315000014D00121C01CFEF7C4FE9DF83B032028EDD178
S315000014E04FF47A710091012301AA0321CFA8FEF7D8
S315000014F0B7FE01980328DCD19DF83C4374B140F651
S31500001500B8300090CFA8012301AA2146C01CFEF7DF
S31500001510A7FE0199A14208BF0028CAD19DF83D0344
S315000015200028C6D19DF83E039DF83F330328C0D856
S31500001530DFE800F05403041ABBE7B1E70DA90091F8
S31500001540D0AA02A945A800F0B5FD022100288DF811
S3150000155036121CBF41F20701884212BFADF837525E
S315000015600022ADF83722A1E703208DF836029DF858
S315000015700A0000281CBF9DF80B0000288CA81ABF83
S315000015800021ADF83712ADF83752FFF737FF9DF857
S315000015900A0000281CBF9DF80B00002889D09DF882
S315000015A0080041070CD50C9800F042FB20B101F071
S315000015B0F8F900F06DFB7CE73046FFF7E2FE78E7CE
S315000015C08107FCD52820026803989168814204D2DD
S315000015D001F0E7F90B9900F0F1FA6AE79DF80A00C5
S315000015E028B19DF80B0010B940F20320E5E7012B66
S315000015F0E2D040F20120E0E74FF48472FEF7AEBF7E
S3150000160070470000000000A0020001030B0000006C
S3150000161000000000000000000000000000000000C4
S3150000162000000000000000000000000000000000B4
S3150000163000000000000000000000000000000000A4
S315000016400000000000000000000000000000000094
S315000016500000000000000000000000000000000084
S315000016600000000000000000000000000000000074
S315000016700000000000000000000000000000000064
S315000016800000000000000000000000000000000054
S315000016900000000000000000000000000000000044
S315000016A00000000000000000000000000000000034
S315000016B00000000000000000000000000000000024
S315000016C00000000000000000000000000000000014
S315000016D00000000000000000000000000000000004
S315000016E000000000000000000000000000000000F4
S315000016F000000000000000000000000000000000E4
S31500001700000000000000000000000000000000A033
S3150000171004000000000000000000000000000000BF
S3150000172000000000000000000000000000000000B3
S3150000173000000000000000000000000000000000A3
S315000017400000000000000000000000000000000093
S315000017500000000000000000000000000000000083
S315000017600000000000000000000000000000000073
S315000017700000000000000000000000000000000063
S315000017800000000000000000000000000000000053
S315000017900000000000000000000000000000000043
S315000017A00000000000000000000000000000000033
S315000017B00000000000000000000000000000000023
S315000017C00000000000000000000000000000000013
S315000017D00000000000000000000000000000000003
S315000017E000000000000000000000000000000000F3
S315000017F000000000000000000000000000000000E3
S3150000180000000000000000000000000000000000D2
S3150000181000000000000000200200000000000000A0
S3150000182000000000000000000000000000000000B2
S3150000183000000000000000000000000000000000A2
S315000018400000000000000000000000000000000092
S315000018500000000000000000000000000000000082
S315000018600000000000000000000000000000000072
S315000018700000000000000000000000000000000062
S315000018800000000000000000000000000000000052
S315000018900000000000000000000000000000000042
S315000018A00000000000000000000000000000000032
S315000018B00000000000000000000000000000000022
S315000018C00000000000000000000000000000000012
S315000018D00000000000000000000000000000000002
S315000018E000000000000000000000000000000000F2
S315000018F000000000000000000000000000000000E2
S3150000190000000000000000000000000000000000D1
S3150000191000000000000000000000000000000000C1
S31500001920A31A000000000000CB1A000000FF000010
S3150000193000000000000000000000000000000000A1
S315000019400000000000000000000000000000000091
S315000019500000000000000000F8B50446600B0D46CC
S315000019601646B4EB403004BF204601F022F804F5D9
S3150000197000577F0B7F0304E0384601F01AF807F59D
S31500001980005730198742F7D332462946204601B020
S315000019900223BDE8F04001F010B838B504460D4604
S315000019A000F0B4F850B16069012805D1207C022806
S315000019B002D2A069286002E0002032BD2C6001201E
S315000019C032BDF0B504469DB040F204600090656BF0
S315000019D000F0E4FF0746284600F098F800285ED09D
S315000019E0287C02282CD200F0D1FF28B1286A0121D8
S315000019F001F000F8002852D034200668304600F086
S31500001A0085F800284BD043F6C170864218D20020D4
S31500001A108DF8040001A9284600F0EFFF00283ED00B
S31500001A2002A92846FFF7B9FF002838D0029839697D
S31500001A30884228BFA04203D30146AA48814201D367
S31500001A4000202CE003A800F0DAFF02982146021BD2
S31500001A5003A800F0DEFF03A800F0DDFF029C00F003
S31500001A6093FF203450B19DF8040008B1A86B00E044
S31500001A70B06B00F124010091031D06E0FEF733FE72
S31500001A800546FEF725FE034600950299224603A861
S31500001A90FFF77CF900900098401E8041C00F1DB0F2
S31500001AA0F0BD70B504460D46164600F077FF016995
S31500001AB08C4222BF40693219904205D332462946EC
S31500001AC02046BDE8704047E770BD2DE9F041044669
S31500001AD08846164600F062FF074600F062FF2518AA
S31500001AE07019804988420ED23CB900F05AFF7969D4
S31500001AF088423CBF386900F05CFF324641462846C2
S31500001B00BDE8F04128E7BDE8F08100007FB5044656
S31500001B104FEA0D007BA11022FEF720FD0020464271
S31500001B200DEB0605E97B225C914205D1401C10288D
S31500001B30F5D3012004B070BD0020FBE7F8B50446DC
S31500001B4025686768666B00F029FF05F16045664900
S31500001B508D4229D20069874226D362498F4223D219
S31500001B604030864201D38E4205D3FFF7F3FB401E79
S31500001B708041C00FF2BDFFF7EDFBB8B93046FFF765
S31500001B80C5FFB8B1307C02280ED2706990B1022828
S31500001B900CD1B0694FF0FF32001D011B2046FFF744
S31500001BA013FB5249884205D00020F2BD2046BDE80D
S31500001BB0F24006E70120F2BD0000000070B590B0CB
S31500001BC004460D464FF0FF32FFF7FEFA474B9842A8
S31500001BD013D168464FA100F057F800F08FF8294658
S31500001BE000F08DF86846FEF7B7FD414E3068C0023A
S31500001BF0FCD5306910F4702F02D0002010B070BDF3
S31500001C0000F0FAFE40F20220FFF7A6FB0DF12000DD
S31500001C1048A100F039F800F06DF8294600F06BF89D
S31500001C2008A8FEF799FD3068C002FCD53169E4E7E3
S31500001C302DE9F8438CB004464FF0FF35009504A813
S31500001C4044A100F021F800BF4AA696E8800301AD42
S31500001C5001A985E88003CDF804D004A8FEF768FD45
S31500001C6004A8FEF779FD22480168C902FCD500697F
S31500001C7010F4702F18BF002003D10098A0428041B5
S31500001C80C00F0DB0BDE8F0832022FEF767BC000050
S31500001C9038B590B00446684639A1FFF7F5FF00F065
S31500001CA02DF86846FEF758FD114D2868C002FCD590
S31500001CB0286910F4702F11D140F20220FFF74CFB77
S31500001CC00DF1200036A1FFF7DFFF00F013F808A89A
S31500001CD0FEF742FD2868C002FCD52969002011B034
S31500001CE030BD00000100100001800100E320BBDED2
S31500001CF04400004C214608A8FEF724BD214668464C
S31500001D00FEF720BDB814B6F1E0CFF3ADB7DD25C9B7
S31500001D10FA79B71301000543000000000000000037
S31500001D2000000000000000000000000000000000AD
S31500001D300000000001000643000000000000000053
S31500001D40000000000000000000000000000000008D
S31500001D500000000000000843000000000000000032
S31500001D60000000000000000000000000000000006D
S31500001D700000000000000000010000000400002038
S31500001D800000024300000000000000000000000008
S31500001D90000000000000000000000000000000003D
S31500001DA000000343000000000000000000000000E7
S31500001DB0000000000000000000000000000000001D
S31500001DC070B54B688C689C4206D200F140021B1B22
S31500001DD014781B19412B01D3002070BD0D68537870
S31500001DE01478E4188B6804F03F04EE5C06558C68A2
S31500001DF0641C8C6013785B1C13708C684B689C4267
S31500001E00ECD3012070BD90F840004A68896810182C
S31500001E10401A7047F8B584B0144600260546019668
S31500001E200096082302AA00F047F841F20306B042E2
S31500001E303BD195F8430005F1480738B100F037F873
S31500001E403868082302AA02A900F00EFE9DF80A20AF
S31500001E509DF80B009DF80910120442EA00629DF8F5
S31500001E60080042EA0122024322609DF80E009DF816
S31500001E700F1000F07BFD9DF80D1040EA01209DF843
S31500001E800C100843606095F8430048B9DFF86C1AF7
S31500001E908A421CBFDFF8680A824201D000F007F8C8
S31500001EA060680021F960B860304605B0F0BD78681A
S31500001EB0082202A900F0ADBD2DE9F0410C461746F7
S31500001EC01D468046FFF79FFF08F14006A84206D24E
S31500001ED021464046FFF774FF10B300204DE0002175
S31500001EE00CE0707818F800207A5473783078491C22
S31500001EF05B1C03F03F03421E73703270307808B1EA
S31500001F00A942EED3A0686268904238BFA9420CD2BB
S31500001F102368185C7854A268491C521CA260F1E739
S31500001F201520B07141F2020027E0A942F8D1B26C47
S31500001F30069C29463846FFF747F9B06424B1F06895
S31500001F402A46394600F065FD079838B1F07878B131
S31500001F50B0682B463A46394600F086FDF07838B12F
S31500001F60B169F06928188842F06124BF0020F0703A
S31500001F7070692D18756141F20300BDE8F0812DE905
S31500001F80F8431E467368002B4ED00C4614F003012E
S31500001F9018BF41F2020048D11546074600F0FAFC88
S31500001FA0396E001D6A18824221D300F11803994246
S31500001FB01DD28C46844505EB010800F1180238BF96
S31500001FC084469045ACEB0101ACEB000088BF90461F
S31500001FD004EB0109A8EB0C08384442464946683030
S31500001FE0FEF7ACFAFF224146484600F04DFD00F0F0
S31500001FF0D8FC396E001D884222BF6A18031D9A421A
S3150000200009D3411A6018026807F180010A60FF22AD
S31500002010042100F039FD21463368386E74682A467B
S31500002020A047386E2D183D660020BDE8F283F8B54E
S31500002030064606F1400700200D46B8717870F87024
S31500002040387100214FF0FF3014463970797103F072
S315000020502003B86439627962BB70FF22182106F149
S31500002060680000F011FDFF22042106F1800000F057
S315000020700BFDFF22042106F1840000F005FDBD6082
S31500002080FC60882106F1900000F032FD002086F801
S31500002090180100F077FC00B11DB100F071FC18B119
S315000020A014B941F20B00F2BD14B1F86800F0A7FCB8
S315000020B00020F2BD2DE9F84FB4B083460D4605A8C1
S315000020C000210023002480E81A000592349A089122
S315000020D041F203080692486B0990014643F6C17027
S315000020E081420BD3CEE304980021F160B0600398DF
S315000020F0DFF8101888424CD102223A7107983499B9
S315000021000DF1280A884280F0A0830BF14207397945
S315000021100BF184090BF148061529EFD8DFE811F019
S315000021202C009903FE003900D10105024801A103E4
S315000021300502F101050298010502F101B503D0037C
S315000021404803C0031700C303A503D003D6E79BF8D3
S3150000215018010028D9D1099A1AAB05A9584600F0EA
S3150000216023FC0090009841F20601884200F02E837D
S3150000217000984045C2D072E300F0E5FB00F0E8FBB2
S31500002180B1D06CE3B87838B10398DFF87417884299
S315000021904ED015223A7175E33878C10751D5787853
S315000021A000284ED10398DFF85C1788421CBFDFF881
S315000021B058178842EDD0DFF85417884200F0818026
S315000021C0DFF84C1788421FBFDFF848178842DFF850
S315000021D048178842DDD0DFF84417884221D0DFF85F
S315000021E01C17884272D0DFF83817884212D0DFF801
S315000021F0341788420CD0DFF80817884214D0DFF86D
S31500002200281788421CBFDFF824178842C1D010E087
S31500002210102272E711203871B168002070613161B7
S315000022206CE71521397176E000F0AAFB0028B0D1E1
S3150000223042E01520387103A800F05DFC00286AD042
S3150000224020E30398DFF8C016884220D0DFF8BC16DA
S31500002250884233D0DFF8B81688421DD0DFF8B416AE
S31500002260884216D0DFF8B016884218D0DFF88C16F0
S31500002270884228D0DFF88816884216D0DFF8A816DC
S31500002280884210D0DFF8A41688420AD020E00B223C
S3150000229033E70420387131E7062139712EE707202C
S315000022A0F8E70921F9E70D20F4E700F069FB0028BB
S315000022B004BF78780028BAD10E21EEE77878002896
S315000022C0B5D11221E9E778780028B0D11321E4E7E7
S315000022D003A800F010FCB8B103981421706439719A
S315000022E0039800F00AFC089038788106D6D508983D
S315000022F000281CBF41680029D0D058468847009066
S3150000230000980028CAD0BDE278781521397110B13D
S3150000231041F204009AE241F2080097E2F0680828C8
S3150000232049D2002101200191009000F023FB00F02A
S315000023300FFB49D19AF803000006B0F1407F04D0A4
S315000023401520387141F2090080E29AF805009AF8E2
S31500002350041041EA00210291C90704D5387840F0FB
S315000023600100387002E000F00DFB30B900F008FB08
S315000023700028D3D00298C105D0D41520387141F277
S315000023800A0063E21C220AA905F10800FEF7E6F836
S31500002390287840F00100287005F1080000F007FBDE
S315000023A0002803D0002100F0CAFA002800F053816B
S315000023B0B368F068984280F0468200F0BBFA00F0FD
S315000023C0D0FA00F0C5FADDD049E2287840F00400E2
S315000023D028709AF80E009AF80F109AF80C2000F060
S315000023E0C5FA9AF80D1040EA01201043A8626878F1
S315000023F041072BD5EB208DF8280017218AF801100C
S31500002400A6208AF802005E218AF803100BF150001C
S315000024100168C9F800100021F161F87840F0020067
S31500002420F8703E98C4688CB1036804220AA900209B
S31500002430A0473E983E9C08220368F069D4F80CC079
S315000024400CA90830E047F0691030F0610C203871B3
S31500002450F068082837D200F06DFA08230CAA00F0BD
S3150000246081FA00F075FAB0D0F9E1287840F0020060
S3150000247028709AF802009AF803109DF8282000F0B8
S3150000248075FA9AF8011040EA012010436860B068B6
S31500002490083868629AF806009AF807109AF8042035
S315000024A000F064FA9AF8051040EA012010437FF420
S315000024B070AEF9780520387141F00101F9700020FD
S315000024C0F061F0680828BFF419AE00F033FA00F0A6
S315000024D051FA00F03DFAC8D0C1E19AF802109AF814
S315000024E003009DF82820090441EA00619AF80100DA
S315000024F041EA002111430291B068052824BF0298E1
S31500002500B061F068042880F0DE8100F013FA00F074
S3150000251027FA00F01DFAE0D0A1E10368F0695246FF
S315000025200AA9A047F0695044F061B068F168814299
S3150000253080F08981A0EB010ABAF1040F05A958467B
S3150000254008D3FFF760FC042808D205A95846FFF710
S3150000255037FC7AE1FFF757FC5045F6D3BAF1410F45
S3150000256005A9584628BF4FF0400AFFF74CFC5045D6
S3150000257002D200F0F1F98246BAF1040F0AAA05A9BF
S3150000258024BF4FEA9A004FEA800A0120019000908A
S3150000259053465846FFF790FC00F0DAF9BCD138797B
S315000025A0082803D13E988468002CB6D1CAF10404E9
S315000025B0BAF1040F06D20AA8FF222146504400F0C1
S315000025C063FAA24439790A290ED13E99486818B1AE
S315000025D000F0B4F900283ED03E9B52460AA9584660
S315000025E0FFF7CDFC0090A0E7052917D16878820790
S315000025F014D53E9BD86888B1F069052817D20AEB36
S315000026000001072913D30AA9091D081A0168FF2228
S31500002610C9F80010042100F037FA08E00C2984D12B
S3150000262068784107DFD53E9AD0680028DBD03E980F
S315000026303E9C52460368F069D4F80CC00AA9E047EC
S3150000264070E7D9F80400002800F03F8100F076F921
S31500002650002840F03A811520387141F20C00F5E06F
S315000026603878810608D5002C1CBF2169002903D0C3
S3150000267058468847824601E04FF0010A00F06CF99F
S315000026805045FFF462AFB068F168A0EB010ABAF1F9
S31500002690410F05A9584628BF4FF0400AFFF7B3FB84
S315000026A0824502D300F058F982460120019000903D
S315000026B0534600F056F900F04BF915D138788106EB
S315000026C040F10481002C1CBFD4F808C0BCF1000FF7
S315000026D000F0D8804B4652460AA95846E04700907B
S315000026E00098002800F0F280B9E0306C90498842EA
S315000026F004D015223A7141F20500A7E000F040F936
S3150000270010B90120E87002E0E878002840D0F87897
S3150000271010F0030F1CBFD4F80CC0BCF1000F04D09E
S315000027202368042249460420E047B16900291CBFFA
S31500002730606800282CD04FF0FF3102910BF1800623
S315000027400422314602A800F0DBF940B100F029F975
S3150000275028B13146236866680422001DB04704226A
S315000027600BF1680102A800F0CBF988B100F012F96C
S315000027702368666814220BF16C010830B04700F03C
S3150000278009F92368666804220BF16801001DB04749
S315000027900120A8700F21397157E0FDF7B6FF0090B0
S315000027A080210191306801230BAA022100F036F93D
S315000027B0F068102847D200210120019100901023D3
S315000027C000F0CFF800F0C4F8E7D048E015203871E3
S315000027D045E0706800F01FF99BF8180128B10BF16D
S315000027E0B40100910BF194031BE000F0CDF888B121
S315000027F0099812AA806B031D00F1240100917068EC
S315000028000AA9FEF7C3FA0090009880B10021009152
S31500002810002306E0FDF767FF0446FDF759FF009425
S315000028200346706812AA0AA9FEF7B0FA009000984B
S3150000283030B10021E9701520387141F2060005E03B
S315000028400120E870B870012024E5002035B0BDE80D
S31500002850F08F00F078F800F07BF83FF493AC009826
S31500002860F4E70020F061082117E53878DDF8F890E4
S3150000287081067FF5E6AE706C00F03FF908900028FF
S315000028807FF4DFAE41F20100E0E73E9C00200190BC
S31500002890009000F065F800F05BF83FF426AFDEE745
S315000028A001207870CFE7B8780028CCD100210191BB
S315000028B00090402300F055F800F04AF889D0CEE7A2
S315000028C041F20700C2E70A20E4E4089CF068B16818
S315000028D08842FFF4C5AECDF8F890089439788A0698
S315000028E0B1D5002C1CBFE268002AACD03E995846F0
S315000028F09047009000980028A5D0B0E7F70A0AF79D
S31500002900FC0404FCEB17A603EB17A65EF30B0BF314
S31500002910F40A0AF4F50909F5F60808F6F70909F7BD
S31500002920F90707F9FA0606FAFD0303FDFE0101FEA3
S31500002930E320BBDE0121019100917047012105F1E1
S31500002940080000F025B803AA05A95846FFF762BAA1
S31500002950009000984045704705A95846FFF753BABE
S3150000296004230AAA05A95846FFF7A6BA000440EAB6
S315000029700160704708230AAA05A95846FFF79CBAC2
S3150000298000207047002070470020704700207047E5
S3150000299001207047282001680869704728200068D0
S315000029A070474FF40040704741F20600704701201F
S315000029B0704780B5FEF742F918E010B51C46082CA2
S315000029C008D20AB9012010BD10F0030F08BF12F09B
S315000029D0030F01D0002010BD13460A4601462046CB
S315000029E0FEF74CF9401E8041C00F10BD401E8041CD
S315000029F0C00F02BD0020704770470120704710B518
S31500002A000446FEF70DFB20460021BDE81040FEF708
S31500002A100ABBFEF70DBB0146FEF715BB2DE9F843D1
S31500002A2080460E4691461C46089D099F08F12000E7
S31500002A30FDF70EFF3A46294608F12000FDF70BFF89
S31500002A4008F144000021016006750C22494608F190
S31500002A505900FDF773FD08F16500210C220A01708B
S31500002A6042708470BDE8F1833EB51C460292019126
S31500002A7000F1480500F1580300F144020095214693
S31500002A802030FDF76DFF37BD62F30F2262F31F4260
S31500002A90401810F0030308D0C91A1FD3DB0748BF3C
S31500002AA000F8012D28BF20F8022D130030B414467B
S31500002AB01546103928BF20E93C00FAD8490728BF37
S31500002AC020E90C0048BF40F8042D890028BF20F8F3
S31500002AD0022D48BF00F8012D30BC7047C91818BF39
S31500002AE000F8012DCB0728BF00F8012D7047FEE73F
S31500002AF00022FFF7CDBF0020704700207047FEE799
S31500002B000300002013F0030F09D0521E22BF13F852
S31500002B10010B11F801CBB0EB0C00F3D0704711F0AC
S31500002B20030F14D1121F22BF53F8040B51F804CB24
S31500002B306045F7D0121D0AD200BA9CFA8CFCB0EBA5
S31500002B400C0038BF6FF0000088BF01207047521E8E
S31500002B5022BF13F8010B11F801CBB0EB0C00F6D035
S31500002B60521C08BF104670470448054908600548CE
S31500002B70026842F470020260704700000000000024
S31500002B8008ED00E088ED00E04EF68851CEF2000137
S31500002B90086840F470000860BFF34F8FBFF36F8F73
S31500002BA04FF00070E1EE100A7047FEE700F00DF8F6
S31500002BB0002801D000F028F8AFF300800020AFF322
S31500002BC00080FEF719FB00F033F80120704730B49F
S31500002BD0002513E050F8042BD30744BFA9F10103E5
S31500002BE09A18091F042942F8045BFAD213468C0787
S31500002BF044BF15809B1CC90748BF1D7050F8041BB5
S31500002C000029E7D130BC704710B50749794418311F
S31500002C10064C7C44163404E00A68081D11448847B3
S31500002C200146A142F8D110BD500100006C01000020
S31500002C3000F000B80746384600F002F8FBE700004F
S31500002C402021090326311820ABBEF9E780B5FFF72E
S31500002C508BFFFEF72BFBBDE8014000F000B8AFF399
S31500002C600080FFF791FFFFF7A1FF10B50446B1F50D
S31500002C700A7F02D240F2052010BD4FF40A71FDF71B
S31500002C80C3FD0020607004F5D87204F5A47104F148
S31500002C902C000023BDE81040FFF7C9B91CB5044657
S31500002CA00091214604F12C00FFF704FA0028C4F82D
S31500002CB024021CBF41F2070188420BD1A07838B12B
S31500002CC0E07810B140F2032016BD40F2022016BD96
S31500002CD040F2012016BD2DE9F04385B004460D46AD
S31500002CE0904699460C9E01A81021FDF78DFD002700
S31500002CF037601C214846FDF787FD01A80090434632
S31500002D002A46214604F12C00FFF7D4F920788107E2
S31500002D1044BF606830602178C80705D51C2204F1DD
S31500002D2008014846FDF71AFC207805B0002814BFB4
S31500002D30002040F20640BDE8F0834FF40A70704769
S31500002D4030B5016884684218416802EB5103C9072F
S31500002D500BD54C4409E012F9011B12F8015B00295E
S31500002D6004F8015B05D5491CF9D19A42F3D10C3020
S31500002D7030BD491EF1D5F8E757FEFFFF0C020000F3
S31500002D801001002000000000B9FFFFFF0C0000004A
S31500002D90240000008000002081000C00F07F10302D
S31500002DA0800000203C800540FC0000000000000080
S30900002DB0802EE42F58
S50302DC1E
S70500000000FA
