S02300006275696C642F64656275672F6D656D6C63645F626172656D6574616C2E733337DE
S3150800000000100020710600086D0600086D0600083D
S315080000106D0600086D0600086D0600086D060008E6
S315080000206D0600086D0600086D0600086D060008D6
S315080000306D0600086D0600086D0600086D060008C6
S315080000406D0600086D0600086D0600086D060008B6
S315080000506D0600086D0600086D0600086D060008A6
S315080000606D0600086D0600086D0600086D06000896
S315080000706D0600086D0600086D0600086D06000886
S315080000806D0600086D0600086D0600086D06000876
S315080000906D0600086D0600086D0600086D06000866
S315080000A06D0600086D0600082D0A0008050A0008F6
S315080000B06D0600086D0600086D0600086D06000846
S315080000C06D0600086D0600086D0600086D06000836
S315080000D06D0600086D0600086D0600086D06000826
S315080000E06D0600086D0600086D0600086D06000816
S315080000F06D0600086D0600086D0600086D06000806
S315080001006D0600086D0600086D0600086D060008F5
S315080001106D0600086D0600086D0600086D060008E5
S315080001206D0600086D0600086D0600086D060008D5
S315080001306D0600086D0600086D0600086D060008C5
S315080001406D0600086D0600086D0600086D060008B5
S315080001506D0600086D060008C53300086D06000820
S315080001606D0600086D0600086D0600086D06000895
S3150800017010B5054C237833B9044B13B1044800E095
S3150800018000BF0123237010BDA4100020000000004A
S315080001901443000808B5034B1BB10349034800E0A4
S315080001A000BF08BD00000000A81000201443000886
S315080001B0154B002B08BF134B9D46A3F5803A00212B
S315080001C08B460F461348144A121A03F054FC0F4B79
S315080001D0002B00D098470E4B002B00D098470020E4
S315080001E0002104000D000D48002802D00C4800E04C
S315080001F000BF03F011FC2000290003F0CDF903F03D
S31508000200F7FB00BF000008000010002000000000F7
S3150800021000000000A41000209C1900200000000027
S315080002200000000008B5002304221946012002F048
S31508000230C7F9002008BD08B50422012309210220B8
S3150800024002F0BEF9002008BD08B501213A2000F0E9
S315080002506DFE03F015F9BDE8084000F06FB90121FD
S315080002603A2000F063BE00002DE9F0412B4E8AB01B
S3150800027005AC0546884617460FCE0FC40124122240
S315080002800021684603F0F7FB21463A202E688DF8D0
S3150800029004408DF81040CDF824D000F047FE2146E2
S315080002A0A88800F043FE00230422E97AA87A02F01F
S315080002B087F900230422E979A87902F081F905A9CA
S315080002C03046CDF81C808DF8227001F09DFF144B46
S315080002D09E4220D0134B9E4205D0134CA6420CBF1B
S315080002E002244FF0FF34EB79AA7942EA03420F4B16
S315080002F003EB4411C1F8DC24E87AAA7A263442EAE8
S31508000300004203EB441400201823C1F8D824636084
S315080003100AB0BDE8F0810024E5E700BFB43A00085A
S315080003200000014B00000A4000400A4000C003409C
S3150800033070B50C4606688D18AC4201D1002070BD18
S3150800034014F8011B304601F069FEF5E70268936C64
S315080003509B06FCD57047000013B5044602F004FF5F
S3150800036000230122217BCDE900324900B0FBF1F1DF
S31508000370024A034802F0DEFE02B010BD85030008FB
S31508000380C010002043F2A0034021014AD150704713
S3150800039000C00340F7B54FF480750E4C064604F5C9
S315080003A085531D60407B03F043F804230A4F02A9D6
S315080003B021F8023D02223846FFF7BAFF3846FFF712
S315080003C0C5FFB07B03F034F842F2A0030020E550E5
S315080003D003B0F0BD00C003400010002038B5044645
S315080003E001213A2000F0A2FDA16800220F48FFF77C
S315080003F03BFF0F4D002304220821022002F0E0F8FB
S31508000400002304220621022002F0DAF894E80F00FD
S3150800041085E80F000122074B20461A70FFF79CFF5C
S315080004202046FFF7B7FF002038BD00BF00100020A8
S31508000430DC100020D81000202DE9F04F14464FF4A8
S31508000440807299464FF0000B0388057901345D43A5
S31508000450234B85B01A60A4B20646407B884602F054
S31508000460E7FF230243F0010304AF27F8023D022207
S3150800047039461C48FFF75CFFDFF868A009F1FF332F
S31508000480ED1001930134CB450FD11648FFF75EFFF7
S31508000490B07B02F0CDFF42F2A0034FF4807100203A
S315080004A0114AD15005B0BDE8F08F2A46414650465C
S315080004B0FFF73EFF019B39465B450FBF4FF6FF72BC
S315080004C004EB0B02120242F0FF02ADF80E20504672
S315080004D00222A844FFF72CFF0BF1010BD3E700BF5C
S315080004E0A0D003400010002000C00340034B04487E
S315080004F01B78002B08BF0020704700BFD8100020CB
S31508000500DC1000201FB56C46044B0FCB84E80F00A7
S315080005102046FFF763FF04B010BD00BFC83A0008C5
S315080005201022014B1A607047A0D0034042F2A00384
S315080005301021014AD150704700C00340F0B5464D1E
S315080005408BB005AC0FCD0FC42B68012523600024A2
S3150800055012220021684603F08EFA29463A203F4FB8
S315080005608DF804508DF8105000F0E0FC294657200D
S3150800057000F0DCFC3A4B05A9384607938DF8055080
S315080005808DF80440CDF824D001F03EFE2B462946CE
S315080005900422022002F014F8022123462A460846BD
S315080005A002F00EF82B4604220321022002F008F876
S315080005B004222B461146022002F002F8294E2A4B45
S315080005C04FF44870C6F8F8344FF00213C6F8F434FE
S315080005D0A3F58033C6F8FC341C23C6F8E43402F0CD
S315080005E027FFFFF7A3FF142002F022FFFFF798FF6B
S315080005F0232002F01DFFFFF799FFB921384601F0C5
S3150800060012FDFFF78DFF234622462946022001F0F8
S31508000610D7FF022123462246084601F0D1FF2B4682
S3150800062022460321022001F0CBFF2B462246042155
S31508000630022001F0C5FF384601F08AFCC6F8F844E6
S315080006402146C6F8F4445720C6F8FC44C6F8E444E4
S3150800065000F06CFC0BB0F0BDD83A000800000A4068
S31508000660E070720000C0034002000300FEE70000CD
S3150800067008B500F013F8064A064B07498B4201D322
S31508000680FFF796FD52F8040F43F8040BF6E700BF90
S315080006901843000800100020A4100020044B054A47
S315080006A09A60D3F8882042F47002C3F8882070470D
S315080006B000ED00E000000008014B1868704700BF15
S315080006C014100020084B1B6F03F00703022B04D0FD
S315080006D0032B05D0012B05D0FEE7044B186870479D
S315080006E0034BFBE7034870470080004014100020C6
S315080006F018100020002D310108B5FFF7E3FF054B60
S315080007001B6FC3F303330133B0FBF3F0024B1860DE
S3150800071008BD00BF00800040101000200048704748
S3150800072000B4C404014B1868704700BF18100020B5
S31508000730054B1860054B1B6F03F00703032B01D10C
S31508000740FFF7DABF704700BF18100020008000408E
S315080007500020704700487047002D31014FF0944340
S315080007609868C0F304400C2826D8DFE800F009256D
S3150800077025252525071B1D251F2123000F48704702
S315080007809B6803F04073B3F1807F07D0B3F1007F15
S3150800079006D00B4A002B08BF104670470948704719
S315080007A0094870470948704709487047094870471B
S315080007B0094870470948704700207047405DC600E1
S315080007C000093D0080841E0040420F000024F4000A
S315080007D0C0EA210180BA8C010048E801005A620289
S315080007E04FF4004070474FF47A707047014B186811
S315080007F0704700BF1C10002043680BB100681847FB
S315080008002220704783680BB100681847FF2070479D
S3150800081038B50D460446C0B1012819D0022819D0AA
S3150800082003280CBF3F230023EB40DB0704D440F228
S31508000830B2310A4800F00EF930206043084B1430F4
S31508000840C058E84000F0010038BD40F2FF73EBE7FE
S315080008500F23E9E740F2FF33E6E700BFEC3A00086A
S3150800086030C0034070B5014600240F4B0F4E1A786E
S31508000870E3B29A4200D870BD56F824301D686B79E9
S315080008808B420FD12B78022B0CD02879FFF7C0FFAB
S31508000890B0FA80F04009287056F82400BDE8704088
S315080008A002F0EABE0134E3E787420008341000206C
S315080008B013B5044601213A2000F038FB0023012233
S315080008C06179207901F07CFE61792079FFF7A0FF34
S315080008D0B0FA80F0A3794009022B20700DD100F000
S315080008E075F80749607900F07FF801236279207965
S315080008F0CDE90033114601F0DDFD002002B010BD40
S31508000900650800080078704710B503780446022B7E
S3150800091016D041790079FFF77BFFA279012A17D112
S3150800092063885B0063F03F039BB200280CBF184640
S3150800093043F001004FF6E073984202D122706080BE
S3150800094010BD4FF6DF73984204BF00232370F6E705
S31508000950002AF5D1B0FA80F040092070F0E7027855
S31508000960022A03D100224280FFF7A2BF704713B5BF
S3150800097003780446022B10D08379022B0BD1002171
S31508000980407900F031F8002362792079CDE9003307
S31508000990114601F08FFD0223237002B010BD00003E
S315080009A070B504460125084E04B970BD94FAA4F042
S315080009B0B0FA80F005FA00F324EA030456F820306A
S315080009C0002BF1D09847EFE7EC1000204FF080623B
S315080009D0044BC3F880211A604FF00062C3F88021E7
S315080009E01A60704700E100E038B504460D4601F08C
S315080009F094F9034B43F82450BDE8384001F093B905
S31508000A00EC100020084BD3F82404D3F82024104017
S31508000A1042F2204220F42A5020F02A004004400CDA
S31508000A209850FFF7BDBF00BF00C00340084BD3F87E
S31508000A302404D3F82024104042F2204220F4AA408D
S31508000A4020F055000004000C9850FFF7A9BF00BF1E
S31508000A5000C00340FEE70000054A1368DB06FCD425
S31508000A604FF04023D3F88400C0F38110704700BFCD
S31508000A708440004038B5194B0546D3F820310C465A
S31508000A8003F00703013B052B20D8DFE803F0030B2F
S31508000A90130F171BFFF710FE052305B1286004B1D5
S31508000AA0237038BDFFF73EFE0323F6E7FFF756FE31
S31508000AB00723F2E7FFF74EFE0223EEE7FFF7FCFDFA
S31508000AC00623EAE7FFF72EFE0423E6E7044840F686
S31508000AD02851FFF7BFFF00231846DEE700800040D5
S31508000AE0193B000838B5154B0546D3F828310C468E
S31508000AF003F00703013B032B17D8DFE803F0020EC8
S31508000B00120AFFF7D9FD052305B1286004B1237041
S31508000B1038BDFFF723FE0723F6E7FFF703FE032397
S31508000B20F2E7FFF717FE0223EEE7054840F27221C7
S31508000B30FFF790FF00231846E6E700BF0080004055
S31508000B40193B0008F7B50024154B0194D3F88051DA
S31508000B50074605F00305022D0E4614D0032D0DD0C9
S31508000B60012D15D1214601A8FFF784FF0E210FB1EB
S31508000B70019B3B6006B1317003B0F0BDFFF7EEFD97
S31508000B8007210190F3E7FFF7E5FD29460190EEE717
S31508000B9040F644610348FFF75DFF2146E7E700BFDB
S31508000BA000800040193B000838B50F4B0546D3F8BE
S31508000BB090320C4603F00303012B09D0022B0BD10C
S31508000BC0FFF7CCFD072305B1286004B1237038BDB3
S31508000BD0FFF7C0FD0223F6E7044840F22631FFF787
S31508000BE039FF00231846EEE700800040193B00084D
S31508000BF0002337B50193184B0546D3F820320C4627
S31508000C0003F00703013B032B1ED8DFE803F0020EAF
S31508000C101318002101A8FFF765FF10230DB1019AEB
S31508000C202A6004B1237003B030BDFFF797FD072390
S31508000C300190F3E7FFF7D4FD0A230190EEE7FFF7EB
S31508000C40D5FD09230190E9E74FF410710348FFF732
S31508000C5001FF0023E2E700BF00800040193B0008BF
S31508000C6038B5124B0546D3F840310C4603F003035A
S31508000C70022B0BD0032B0DD0012B0FD1FFF7B0FDA4
S31508000C800A2305B1286004B1237038BDFFF7AEFD0D
S31508000C900923F6E7FFF7A7FD0B23F2E7044840F61A
S31508000CA05651FFF7D7FE00231846EAE700800040B2
S31508000CB0193B0008002337B50193184B0546D3F8AE
S31508000CC060320C4603F00703013B032B1FD8DFE80D
S31508000CD003F0020E1914002101A8FFF7CBFE0E231C
S31508000CE00DB1019A2A6004B1237003B030BD00210A
S31508000CF001A8FFF7B5FF0F23F2E7FFF72FFD07233C
S31508000D000190EDE7FFF726FD02230190E8E74FF48F
S31508000D1035710348FFF79EFE0023E1E70080004097
S31508000D20193B000873B500240F4B0194D3F87032B1
S31508000D30064603F00303012B0D4607D0022B11D0FC
S31508000D4040F2FD210948FFF785FE04E0214601A887
S31508000D50FFF786FF0F240EB1019B336005B12C7097
S31508000D6002B070BD1324F6E700800040193B000866
S31508000D7038B5154B0546D3F800320C4603F0070381
S31508000D80013B032B18D8DFE803F0020A0E12FFF71F
S31508000D9027FD0A2305B1286004B1237038BDFFF783
S31508000DA025FD0923F6E7FFF71EFD0B23F2E7FFF7FC
S31508000DB0A3FC0D23800AEDE7044840F6F761FFF728
S31508000DC049FE00231846E5E700800040193B000865
S31508000DD038B5154B0546D3F808320C4603F0070319
S31508000DE0013B032B18D8DFE803F0020A0E12FFF7BF
S31508000DF0F7FC0A2305B1286004B1237038BDFFF754
S31508000E00F5FC0923F6E7FFF7EEFC0B23F2E7FFF7FD
S31508000E1073FC0D23800AEDE7044840F27741FFF79B
S31508000E2019FE00231846E5E700800040193B000834
S31508000E3038B5124B0546D3F840320C4603F0030387
S31508000E40022B0BD0032B0DD0012B0FD1FFF7C8FCBB
S31508000E500A2305B1286004B1237038BDFFF7C6FC24
S31508000E600923F6E7FFF7BFFC0B23F2E7044840F631
S31508000E70BB61FFF7EFFD00231846EAE70080004054
S31508000E80193B000838B5124B0546D3F850320C46C4
S31508000E9003F00303022B0FD0032B05D0012B0FD130
S31508000EA0FFF79EFC0A2302E0FFF79DFC0B2305B122
S31508000EB0286004B1237038BDFFF798FC0923F6E7CC
S31508000EC0044840F2A121FFF7C5FD00231846EEE7C6
S31508000ED000800040193B000838B5124B0546D3F888
S31508000EE060310C4603F00303022B0BD0032B0DD005
S31508000EF0012B0FD1FFF774FC0A2305B1286004B152
S31508000F00237038BDFFF772FC0923F6E7FFF76BFC81
S31508000F100B23F2E7044840F68451FFF79BFD0023B4
S31508000F201846EAE700800040193B000870B54409F6
S31508000F3005460E460DD1E4210E48FFF78BFD05F058
S31508000F401F05A6B104F58053012202FA05F51D60B6
S31508000F5070BD012C07D0022C07D0EE210548FFF7FB
S31508000F6079FD0024EBE7044CE9E7044CE7E704F5D0
S31508000F700053E9E7193B0008648000406880004098
S31508000F80B0F5007F10B52FD005D8D0B1B0F5C07F29
S31508000F9017D0002426E0B0F5207F2BD0B0F5607F6F
S31508000FA0F7D1174BD3F88040C4F30114012C19D993
S31508000FB0032C17D040F2EF511248FFF74BFD0224DD
S31508000FC010E00F4B1C6FC4F30334012C0AD9032C11
S31508000FD008D0072C06D00F2C04D040F2E25109485D
S31508000FE0FFF738FD601C10BD054BD3F89040C4F3DD
S31508000FF00464F7E7024B1C6FC4F38024F2E700BFD2
S3150800100000800040193B0008002337B553280446E2
S3150800101001935FD8522880F0C5802E2800F0C28040
S3150800102028D828280FD8242880F0D080212834D022
S3150800103004D800284BD0202849D025E0222846D0BD
S31508001040232821D129E02B2800F0AC8008D82928AC
S3150800105023D02A2818D1002101A8FFF773FD9EE0A6
S315080010602C2800F0BD802D280ED1002101A8FFF7FD
S315080010707FFE94E03E2800F0BD8018D8392800F09D
S31508001080868007D8312808D940F2AF115E48FFF7A5
S31508001090E1FC84E03C2800F2B280FFF72DFB044611
S315080010A04FF42070FFF76CFFB4FBF0F076E04D28A4
S315080010B000F08C8008D83F28EFD04C28E4D10021D6
S315080010C001A8FFF7DFFE6AE0502800F28E80FFF7DE
S315080010D013FB63E0B0F5806F78D028D880285BD002
S315080010E012D8562877D008D8542841D05528CBD1BD
S315080010F0002101A8FFF716FE51E05828C4D80021A0
S3150800110001A8FFF7EFFC4AE0B0F5007F55D005D8F7
S31508001110B0F5807F64D0B0F5C07F8DE7B0F5407F2D
S3150800112040D0B0F5607F48D0B0F5207F89E7B0F5AC
S31508001130106F5AD012D8B0F5C06F51D005D8B0F597
S31508001140A06F48D0B0F5B06F84E7B0F5E06F51D026
S31508001150B0F5F06F53D0B0F5D06F85E7B0F5286FCE
S31508001160C6D00AD8B0F5186FA9D0B0F5206F8BD1C4
S31508001170002101A8FFF79EFD11E0B0F5386F2FD0CA
S31508001180B0F5406FBBD0B0F5306F7FF47DAF00216E
S3150800119001A8FFF709FD02E0FFF794FA019001980C
S315080011A003B030BDFFF7A8FA04464FF42070FFF7E6
S315080011B0E7FEB4FBF0F04008F0E7FFF783FA0546D0
S315080011C02046FFF7DDFEB5FBF0F0E7E7002101A8B2
S315080011D0FFF750FCE3E7002101A8FFF709FDDEE76A
S315080011E0002101A8FFF73CFDD9E7002101A8FFF778
S315080011F0EFFDD4E7002101A8FFF71AFECFE700218B
S3150800120001A8FFF769FECAE7193B000808B5802060
S31508001210FFF7FAFE044B98429FBF42F270034FF461
S315080012208031024AD15008BD005A6202008000404F
S3150800123070B541F268030E464FF480310E4A0546F2
S31508001240D1500020FFF79CFE41F671320B4B6843E4
S31508001250DC690B49DA635A68884204F4803422F45C
S31508001260401203D9012E18BF42F480125A600CB1FD
S315080012700022DA6370BD00BF008000400000034012
S31508001280005A620208B5FFF749FABDE8084000218E
S31508001290FFF7CEBF002307B580288DF8073000F08A
S315080012A090803DD83E2800F0D7801BD82C2849D0FE
S315080012B00AD8242805D3282840F2AC802A2800F02A
S315080012C09F8040F2017197E0392800F0D1803D28CF
S315080012D000F0A6802D28F4D10DF107010020FFF7B4
S315080012E047FD92E0542800F0BD800DD84D2800F047
S315080012F09180512800F09A804C28E2D10DF107011F
S315080013000020FFF7BFFD80E0562800F09F804BD3F2
S315080013105828D6D80DF107010020FFF7E3FB74E043
S31508001320B0F5F06F7CD01CD8B0F5B06F68D00FD888
S31508001330B0F5806F6ED0B0F5A06F00F08780B0F57D
S31508001340807FBED10DF107010020FFF789FC5CE024
S31508001350B0F5D06FC0D0B0F5E06F7DD0B0F5C06FF6
S31508001360EFE7B0F5206F7DD017D8B0F5106F5DD0D8
S31508001370B0F5186FC2D0B0F5086FA2D13F4BD3F8BD
S31508001380003103F00303022B56D0032B58D0012B50
S315080013905AD1FFF7C7F9032327E0B0F5306F67D0B6
S315080013A008D8B0F5286F8CD10DF107010020FFF79A
S315080013B0B9FC2AE0B0F5386FC4D0B0F5406FA9D0B3
S315080013C07FE72E4B1B6F03F00703013B032B11D856
S315080013D001A252F823F000BFF1130008E913000830
S315080013E0971300084514000805238DF807300CE00C
S315080013F00223FAE740F272612148FFF72BFB04E06B
S315080014000DF107010020FFF79DFB9DF8070003B0CB
S315080014105DF804FB0DF107010020FFF72BFBF4E74D
S315080014200DF107010020FFF757FDEEE70DF1070163
S315080014300020FFF7CDFCE8E7FFF7D8F90923D4E742
S31508001440FFF786F90823D0E70123CEE70DF1070158
S315080014500020FFF7CDFBD8E70DF107010020FFF7C5
S31508001460E7FCD2E70DF107010020FFF723FCCCE7E4
S315080014700DF107010020FFF797FBC6E70080004043
S31508001480193B0008F8B5037804460F2B04D940F633
S31508001490EC218548FFF7DEFA63780F2B04D940F66E
S315080014A0EF218148FFF7D6FAA3780F2B04D940F627
S315080014B0F2217D48FFF7CEFAE3780F2B04D940F6E0
S315080014C0F5217948FFF7C6FA23790F2B04D940F698
S315080014D0F8217548FFF7BEFA63793F2B04D940F621
S315080014E0FB217148FFF7B6FAA3793F2B04D940F6DA
S315080014F0FE216D48FFF7AEFAE379032B04D940F6CF
S3150800150001316948FFF7A6FA237A032B04D940F676
S3150800151004316548FFF79EFA637B032B04D940F62E
S3150800152006316148FFF796FA8020FFF7B3FE0328D5
S3150800153000F0AD8041F264034FF480115B4A5C4DC4
S31508001540D15045F60E034FF08072C5F8803041F24F
S315080015502803EA5042F228034FF48032EA50AE6D6F
S3150800156016F48036FBD1534B1F6800F0CFFB524B65
S315080015701A6882EA171707F00F0757401F6000F02E
S31508001580C9FB637822781B0543EA0263A2791343F1
S31508001590E27843EA0243227943EA0233627943EA6C
S315080015A082132B61AB69E27A03F000431343E279B5
S315080015B043EA8263227A43EA0263627A43EA02438F
S315080015C0A27A43EA0223AB6100F0A0FB3B4A136808
S315080015D023F0407343F00073136000F09BFB00F0A8
S315080015E095FB374A136823F4406343F4006313609A
S315080015F000F090FB637B2A6A002B18BF082622F0AE
S315080016000F02217B43EA0203A27B43EA810346EAEF
S3150800161003064FEA4210264BA27C1E624FEAC20717
S31508001620267C657CDFF8A4C032D19A6AE17B02EA9F
S315080016300C0242F4803202433A4342EA01129A62A9
S31508001640204A996D32EA0101FBD141F228024FF096
S31508001650807199501A69A07822F4700242EA005201
S315080016601A614FF0004041F21802985016B942F23A
S31508001670280299502DB942F228034FF480310C4ABA
S31508001680D150E37C1BB10A4B0F4AC3F88020F8BD42
S31508001690996A40EA070201EA0C010A4342EA06622D
S315080016A042EA05429A62ECE7193B000800800040CE
S315080016B00040004A7C81E00F4040004A1840004A3A
S315080016C03840004A03000100F1A7FFFFC7FFFEFEEE
S315080016D00029CCBF01210021FFF7AABDB0F5007F84
S315080016E010B553D00AD818B3B0F5C07F20D0BDE8DE
S315080016F010404FF4C9613648FFF7ACB9B0F5207F02
S3150800170056D0B0F5607FF2D14C1E012C06D90429BB
S3150800171004D040F235612E48FFF79CF92D4AD2F8DD
S31508001720803023F0300343EA0413C2F8803010BD3A
S31508001730102901F1FF3404D8274B23FA01F1CB070E
S3150800174004D440F219612248FFF784F9FFF79AFD9D
S3150800175000F044F84FF4803141F270031D4AD1502D
S31508001760136F23F4704343EA04331367FEF7C4FF89
S315080017700446FFF771F9C0F102012046FFF7A8FFFA
S3150800178000F032F8BDE81040FFF740BD4C1E1F2C94
S3150800179004D940F23C610E48FFF75CF90D4BD3F8CB
S315080017A0901021F0F85141EA0461C3F89010BEE7A1
S315080017B04C1E012C04D940F242610548FFF74AF94C
S315080017C0044B196F21F4806141EA84211967AEE759
S315080017D0193B0008008000401601010002214FF461
S315080017E02070FFF77BBF000008B54FF4C070FFF705
S315080017F00BFCBDE80840044988428CBF0221012140
S315080018004FF42070FFF76ABF80F0FA028028F8B517
S315080018100C4600F0CC8059D83E2800F00C8224D81B
S315080018202C2868D00ED8242805D3282840F23081E1
S315080018302A2800F01381BDE8F84040F64B11B94854
S31508001840FFF708B9392800F045823D2800F04E8197
S315080018502D28F0D1093C042C00F27881DFE814F039
S3150800186068017D01720176017401542800F009822D
S315080018701AD84D2800F00C81512800F070814C28A8
S31508001880D9D10A2C00F0FB810B2C00F0EF81092C32
S3150800189040F0EE810222A449D1F8503223F0030326
S315080018A01343C1F85032B9E0562800F08C8167D34B
S315080018B05828C0D8023C052C00F2B481DFE814F0A1
S315080018C0AE01B001B201B901B201A401B0F5F06FE1
S315080018D000F00C812CD8B0F5B06F00F0BF801DD891
S315080018E0B0F5806F00F0D480B0F5A06F00F06B8182
S315080018F0B0F5807F9FD10A2C00F0F6800B2C00F003
S31508001900EA80092C40F0E98002228749D1F8403163
S3150800191023F003031343C1F840317FE0B0F5D06FDD
S3150800192098D0B0F5E06F00F08681B0F5C06FE1E7BA
S31508001930B0F5206F00F0A58119D8B0F5106F00F04A
S315080019400E81B0F5186F9CD0B0F5086F7FF473AFB1
S315080019504C1E082C00F22E81DFE814F031012C0110
S3150800196033012C012C012C012C012A012001B0F590
S31508001970306F00F0AF8113D8B0F5286F7FF45BAFF6
S315080019800F2C00F0A581132C40F09B81022266499A
S31508001990D1F8703223F003031343C1F870323DE0E7
S315080019A0B0F5386FA7D0B0F5406F83D043E78B1EEC
S315080019B0062B48D8DFE803F04433474F474704006F
S315080019C0002504260121022000F0B8F94FF48037DB
S315080019D0FFF758FCFFF702FF41F27003524AD7504F
S315080019E0136F23F0070333431367FEF785FE064696
S315080019F0FFF732F8C0F102013046FFF769FE012110
S31508001A00002000F0F1F9FFF7EFFEFFF7FFFB2DB915
S31508001A10032C03D142F22803444AD750F8BD41F2B9
S31508001A2064034FF48011404A0326D15041F228023C
S31508001A304FF480313D4B9D6A9950C5F30065C1E767
S31508001A4000250126BEE7002540F234713548FFF728
S31508001A5001F82E46B6E700250226B3E7072C0CD078
S31508001A600E2C13D0022C0AD12F4AD2F8803123F03B
S31508001A7003031C43C2F88041D0E70324F4E740F28D
S31508001A8076712848FEF7E6FF0024EDE70124EBE728
S31508001A90023C052C16D8DFE804F00F03131C110DC1
S31508001AA002232149D1F8202122F007021343C1F865
S31508001AB02031B3E70423F4E70323F2E70523F0E72D
S31508001AC00623EEE740F2A7711648FEF7C3FF002388
S31508001AD0E7E70123E5E7032217E740F2C371114858
S31508001AE0FEF7B8FF002210E701220EE70A2C16D0EF
S31508001AF00B2C0BD0092C0BD102220B49D1F86031E3
S31508001B0023F003031343C1F8603187E70322F4E7A0
S31508001B1040F2DB710348FEF79DFF0022EDE7012244
S31508001B20EBE700BF193B0008008000400040004A70
S31508001B3002227449D1F8003223F007031343C1F88F
S31508001B4000326BE70322F4E70422F2E740F61D01B0
S31508001B506D48FEF77FFF0022EBE70122E9E7093C23
S31508001B60042C12D8DFE804F003180D110F00022226
S31508001B706449D1F8083223F007031343C1F8083241
S31508001B804CE70322F4E70422F2E740F63A015E48FE
S31508001B90FEF760FF0022EBE70122E9E70222594936
S31508001BA0D1F8003123F003031343C1F8003135E7B8
S31508001BB00322F4E740F656015348FEF74BFF00228E
S31508001BC0EDE70122EBE7073C092C14D8DFE804F01F
S31508001BD00513110F13131313131A02224949D1F8C7
S31508001BE0203223F007031343C1F8203216E70322F5
S31508001BF0F4E70422F2E740F698014348FEF72AFF85
S31508001C000022EBE70122E9E704223E49D1F8283110
S31508001C1023F007031343C1F82831FFE60322F4E74C
S31508001C200222F2E740F6B4013748FEF713FF002216
S31508001C30EBE70122E9E70A2C16D00B2C0BD0092C6E
S31508001C400BD102222F49D1F8403223F00303134364
S31508001C50C1F84032E2E60322F4E740F6E7012A48F3
S31508001C60FEF7F8FE0022EDE70122EBE7032212E673
S31508001C704FF410612448FEF7EDFE00220BE6012220
S31508001C8009E6072C0FD008D8022C18D040F61A11EE
S31508001C901D48FEF7DFFE002206E00E2C0DD00F2CA5
S31508001CA0F4D1022200E004221649D1F8603223F06A
S31508001CB007031343C1F86032B0E60122F4E70322B2
S31508001CC0F2E740F62F111048FEF7C4FE00225EE642
S31508001CD001225CE6022C12D0072C09D102220949FE
S31508001CE0D1F8903223F003031343C1F8903295E6F6
S31508001CF040F643110448FEF7ADFE0022EFE7012245
S31508001D00EDE700BF00800040193B0008EFF31080A4
S31508001D1072B6704700B962B67047EFF31180302388
S31508001D2083F31188704780F311887047024A536B12
S31508001D300342FCD1704700BF004009402DE9F0413D
S31508001D400546254A1368D806FCD44FF04023D3F835
S31508001D508430C3F381139D423CD0FEF7B3FC012DBA
S31508001D6006460BD11D4B984204D940F2C2511C4875
S31508001D70FEF770FE01213046FFF7AAFCFFF7C6FF03
S31508001D804FF00072174B4FF040241A604FF48063EF
S31508001D9007466A1E9340DFF848802367636E9A01F8
S31508001DA003D4D4F884309B060AD53846FFF7B2FF29
S31508001DB0022D0FD13046BDE8F0410021FFF788BC5F
S31508001DC0D4F884309906E9D540F2CF514046FEF75B
S31508001DD041FEE3E7BDE8F08184400040005A620214
S31508001DE0453B00086460004010B50C4608B9FEF78C
S31508001DF069FC074B21461B783BB1064B984204D831
S31508001E000120BDE81040FFF799BF0220F9E700BF9F
S31508001E102C110020005A62024FF04022D36E01793D
S31508001E2023F030030B43D3667047000041F2640386
S31508001E304FF00041164A10B5D1504AF6CD33154930
S31508001E404C6C0B6404F001040B4688B90120FFF7BB
S31508001E506DFF4B68DB0706D542F204030122CA5020
S31508001E600B6BD807FCD514B10A4B0B4A1A6410BD84
S31508001E701A6B1207FCD442F228022021995041F22B
S31508001E80040201219950034A936A9B06FCD5EAE7A6
S31508001E9000800040004009403254FFFF014638B533
S31508001EA04FF0004041F26403164A174CD0504AF6E8
S31508001EB0CD334FF04022656C23644B780B205B00D2
S31508001EC043F00103D363FFF731FF63688A7823F48D
S31508001ED0F87343EA02136360CA784B79087843EAD1
S31508001EE00223A3600A798B7943EA02232361FFF769
S31508001EF09DFFEB0748BF054B4FF0010048BF236421
S31508001F0038BD00BF00800040004009403254FFFF42
S31508001F10436D0B42FCD1704708B543680246D907A2
S31508001F2015D58368DB0702D50369D80708D50A23C0
S31508001F30502193631046FFF7EBFF936C9907FCD18A
S31508001F4042F204030121D15053689B07FCD408BD13
S31508001F5010B50446FFF7E0FF042341F2100142F2F0
S31508001F6010026350A3506350A3506350A3506350AC
S31508001F70A350202341F2020223610023E360A360F9
S31508001F8062614FF4A022A361626242F24C020549E3
S31508001F90E3612362A362E36263632365A15023635B
S31508001FA010BD00BFFF3F0D0338B5194B04469842D4
S31508001FB00D460BD0174B984208D003F5804398423C
S31508001FC004D04FF48B711448FEF744FD25B920461A
S31508001FD0BDE83840FFF7A0BF41F20403012240F6EE
S31508001FE0FF71E250204605F00F02FFF791FF7821B6
S31508001FF0A263FFF78DFF05F001036A0748BF43F0A8
S315080020000203A26C02F003029A42FAD138BD00BF5D
S315080020100000014B00000A40713B0008836C5B0618
S31508002020FCD541647047836C5A06FCD54164836CC1
S315080020301B06FCD5C06B80B270470000F8B5064693
S315080020400C46174622B94FF4C2716B48FEF702FDDB
S315080020506A4B9E4200F0C480694B9E4200F0BB80EA
S3150800206003F580439E4200F0C08040F28711624823
S31508002070FEF7F0FC44B9604840F2AA21FEF7EAFCF4
S315080020802046FEF7C1FF0446B368D9073AD5BC42D5
S3150800209004D240F291115848FEF7DCFCB4FBF7F382
S315080020A072685C1E12F001072AD028213046FFF715
S315080020B02FFFB36C9A071DD1B36CDB071CD4B56C24
S315080020C015F002051AD14FF4D1714B48FEF7C2FC40
S315080020D03046FFF721FF336923F07F4343EA046361
S315080020E03361002F00F0868029463046BDE8F84067
S315080020F0FFF75ABF0525EBE70925E9E70625E7E7D0
S315080021003D46E8E77368012B04D040F2B5113A481A
S31508002110FEF7A0FCB36803F0E003402B45D009D8CE
S31508002120BBB1202B37D0BDE8F8404FF4F8713248E0
S31508002130FEF790BC602B44D0802BF4D107EB470305
S31508002140A34204D94FF4F5712B48FEF783FC01230B
S3150800215008E0B7EB141F04D94FF4EB712648FEF7D5
S3150800216079FC10237B436401B4FBF3F4254D203C32
S31508002170E400AC4204D94FF4FD711F48FEF76AFC2F
S315080021802C4001213046FFF7C3FE34630121BDE828
S31508002190F840FFF7BDBEB7EBD40F04D940F2DB1108
S315080021A01548FEF757FC0823DCE70625B4FBF5F3CC
S315080021B0BB4204D24FF4F0710F48FEF74BFC2B4696
S315080021C0D0E7B7EB940F04D940F2E5110A48FEF7B9
S315080021D041FC0423C6E7002C7FF456AF572050E78E
S315080021E0002C7FF451AF56204BE7002C7FF44CAF00
S315080021F0582046E7F8BD00BF713B00080000014BB8
S3150800220000000A40F8FF7F00724B70B598420446FA
S315080022100D460AD0704B984207D003F58043984282
S3150800222003D0CC216D48FEF715FC1DB9CE216B48AD
S31508002230FEF710FC6A7BAB68002A00F09B80684AB0
S31508002240934203D9D0216548FEF704FC2B692BB1CC
S31508002250DB7B1BB1D3216148FEF7FCFB63682E6963
S3150800226023B140F6FF712046FFF752FE2046FFF7DE
S315080022706FFE22696B7BA97B22F007020B4313438F
S315080022802361AEB12A692369117823F078030B43D9
S31508002290117943EA4113517A43EA0113D17B43EAA0
S315080022A081132361537B117BDB0343EA8123E360BC
S315080022B0A268EB7B22F0030243F001031343A360F9
S315080022C006B32A69A168538803F4C0430B43A36085
S315080022D05179A36843EA8123A3609379D079616A27
S315080022E0127A1B01000203F0700300F4E06021F487
S315080022F0EE41034321F0700112030B4302F4E0425E
S315080023001343636263692A7B23F00F0313436361F4
S31508002310C6B12B695A89A2615A7B4AB12D4A9442A1
S315080023202ED141F264019A7B2E4802F00F024250E8
S31508002330DA7B3AB1274A944236D11B7C2A4A03F003
S315080023400F031360D5E901122046FFF777FE052132
S315080023502046FFF729FE00212046FFF7D9FD2B78F6
S315080023600021A363FFF7D4FDA36CDB4313F4405F9E
S31508002370FAD170BD1D4A93427FF670AFD6216AE73F
S31508002380154A944206D19A7B164802F00F0241F28A
S315080023907001CCE7164A9442CAD19A7B114802F0DA
S315080023A00F0241F27C01C2E70B4A944207D141F27F
S315080023B06C021B7C0B4903F00F038B50C2E70C4AD7
S315080023C09442BFD11B7C074903F00F0341F2780200
S315080023D0F3E700BF0000014B00000A40713B00080C
S315080023E0002D3101008003406090034080969800DC
S315080023F000400A4038B50D460446B0B1012817D04A
S31508002400022817D003280CBF3F230023EB40DB0725
S3150800241004D44FF482610948FEF71CFB30230121DE
S315080024205C43074BA940195138BD40F2FF73EDE7ED
S315080024300F23EBE740F2FF33E8E700BFEC3A00086A
S3150800244040D0034038B50D460446B0B1012817D030
S31508002450022817D003280CBF3F230023EB40DB07D5
S3150800246004D440F2E1310948FEF7F4FA3023012199
S315080024705C43074BA940195138BD40F2FF73EDE79D
S315080024800F23EBE740F2FF33E8E700BFEC3A00081A
S3150800249040E0034070B5054614460E46FFF736FC85
S315080024A02A68544004EA060151402960BDE8704094
S315080024B0FFF730BC2DE9F8430D4617469846064601
S315080024C0002850D0012851D0022851D0032814BF23
S315080024D000233F23EB40DB0703D4BF212E48FEF73A
S315080024E0B9FA85EA070333F0030303D0C1212A4862
S315080024F0FEF7B0FA072F05F003054FF003043AD8A4
S315080025004FEA870904FA09F406FA09F2214623482C
S31508002510FFF7C0FF2146224805FA09F2FFF7BAFF7E
S31508002520204B214A9DF820002049B8F1000F0CBF26
S315080025309846904601220433002818BF0B46BA4035
S31508002540C8F800201A6042F2204319499DF8240071
S31508002550CA50184B01F5A1510431002818BF0B4683
S315080025601A60BDE8F88340F2FF73B3E70F23B1E7BB
S3150800257040F2FF33AEE7A7F108094FEA890904FAE2
S3150800258009F406FA09F221460B48FFF783FF05FA14
S3150800259009F221460948C1E7A03B000800C40340E8
S315080025A008C4034010E4034010D4034014D4034085
S315080025B000C0034024E4034004C403400CC40340A1
S315080025C0F8B50C4615461E46074678B3012830D09E
S315080025D0022830D0032814BF00233F23E340DB073B
S315080025E004D440F21D112048FEF734FA25B12146DD
S315080025F038461EB3FFF7FEFE30237B43072C03F154
S31508002600804303F570331CD80F205A6BA10088400D
S3150800261022EA000205FA01F10A435A631DBB214664
S315080026203846E6B1BDE8F840FFF7E4BE40F2FF736E
S31508002630D4E70F23D2E740F2FF33CFE7FFF702FFD5
S31508002640DAE70F2004F18042083AD96B92009040ED
S3150800265021EA000105FA02F20A43DA63DEE7BDE879
S31508002660F840FFF7EFBEF8BDA03B0008044B1B6817
S315080026701BB1044B0360002070470120704700BF60
S315080026804C1900202E11002070B50D4C246884B119
S315080026900C4C85182688B5420DDC6688CD18B542DF
S315080026A009DC52B14BB1A0800020E1802281638110
S315080026B070BD0120FCE70420FAE70520F8E700BF13
S315080026C04C1900202E1100202DE9F04F85B00093FB
S315080026D04D4B0F9E1B68002B5AD04C4B4FF00109EF
S315080026E0DD885A8998462A4492B20292009A0D4485
S315080026F0002A14BF4FF0FF0A4FF0000A4FFA8AF279
S315080027000192ADB21FFA85FB1EB9304605B0BDE889
S31508002710F08F029B9B453DD2B8F808403C4B241AE3
S31508002720B44228BF3446B8F8042003EB0511009BD1
S315080027300244361B92B28BBB072C31D8144424E0D2
S31508002740D00802F007030F5C09FA03F33B43013292
S315080027500B5492B2A242F3D32E4A681152F82010B3
S315080027600BF01F0309FA03F30B4342F82030013537
S315080027700020C7E7D70802F00700CB5D09FA00F08A
S3150800278023EA00030132CB5592B2A242F2D3E3E721
S315080027900120BBE70420B9E71444DBE7072CFBD983
S315080027A04FEAD20C12F0070201EB0C0713D009FA14
S315080027B002F3DBB211F80CE0581E0EEA0000C3F172
S315080027C0000E019B083A03EA0E0E40EA0E0001F8D5
S315080027D00C0001371444E3080AD01A463846514615
S315080027E0039301F048F9039BB4EBC3041F44B3D029
S315080027F009FA04F4E4B23B786242013C13400AEA5F
S3150800280004041C433C70A7E74C1900202E11002035
S315080028104C1100203C11002037B5114D2B68EBB93F
S31508002820FDF770FE044610B1012003B030BDFDF778
S315080028305DFE28600028F7D001884288094B2046AB
S315080028405A805A814A43198019819C80DC80214626
S31508002850CDE9004223462246FFF736FF0020E4E78B
S315080028604C1900202E1100202DE9F84300230126DB
S315080028701A461A4DDFF86C802C68DFF86490D8F891
S315080028800000D71841888F4207D3FBB910220021D0
S31508002890124801F0F0F8002011E0E10708D50133ED
S315080028A0D118C9060ABF55F8264064080136E6E776
S315080028B053B109EB0211FDF7BFFD10B10720BDE8C2
S315080028C0F8837A1C0346EBE70132E9E7044901EB92
S315080028D00211FDF7B1FD0028D8D0EFE73C11002022
S315080028E04C1100204C19002030B10021026808461E
S315080028F053881288FFF7C8BE0520704737B50546C6
S31508002900A8B14468FFF7F0FF014668B92A68158937
S315080029105389C4F307426B430193E3B20093C4F3AC
S315080029200723FFF7D1FE0146084603B030BD05214F
S31508002930FAE7024658B1118A9369526980890133C8
S3150800294001325B1A121A9BB292B2FFF79DBE05209E
S315080029507047F0B4D0B1C9B10E688C68A64218DACF
S315080029604D68CA68954214DA002E14DB002D12DB76
S3150800297001680F88BC420EDA49888A420BDAC0E938
S315080029800365C0E90542F0BCFFF7D3BF0520F0BCDC
S3150800299070470420FBE70320F9E7000030B5054639
S315080029A087B000B300226FF07F43C0E9012301A876
S315080029B0FFF75CFE044698B9019BCDE902001A8828
S315080029C02B605B88013A013B02A9284604920593CD
S315080029D0FFF7BFFF044618B90449284600F01AF95C
S315080029E0204607B030BD0524FAE700BF003F0008BF
S315080029F073B50D461646044690B10C3000F02FF814
S31508002A0080B10123A2680193D3B20093B1B2C2F395
S31508002A100723A8B2C2F30742FFF756FE02B070BDFD
S31508002A200520FBE70120F9E773B50D4616461C4657
S31508002A3088B10C3000F013F878B101230193E3B2A2
S31508002A400093C4F30742C4F30723B1B2A8B2FFF751
S31508002A503BFE02B070BD0520FBE70120F9E778B11F
S31508002A6003688B420BDC83688B4208DB436893421E
S31508002A7005DCC0689042B4BF0020012070470020E2
S31508002A8070472DE9F04F85B002939DF8383093468C
S31508002A900393054600287CD0A1F120035E2B7AD843
S31508002AA090F828308CB2022B1BD13A291BD020294A
S31508002AB01BD0303CA4B22B8CA3426CD90027EB69FF
S31508002AC0DDF808800193029B95F82520A8EB0303FF
S31508002AD09BB29A420BD8B7FA87F0400905B0BDE811
S31508002AE0F08F203CE6E70A24E5E70B24E3E795F8B0
S31508002AF02230012B05D0022B1CD0019B53F824A0B1
S31508002B0002E0019B13F804A0D946A9EB0B0695F839
S31508002B102430B6B2B34211D895F8243095F8272058
S31508002B2013449E4225DB95F8233008F101081C441E
S31508002B30A4B2C8E7019B33F814A0E5E71AF0010F21
S31508002B400DD0424649462846FFF752FF0128C5D808
S31508002B5000B901374FEA5A0A09F10109D5E7039B7B
S31508002B60002BF7D06B68424649462846FFF75CFFBC
S31508002B70ECE7039B53B16B6842460BEB060128460C
S31508002B80FFF752FF0128A9D800B901370136B6B2B6
S31508002B90C2E70520A2E70220A0E72DE9F74F0C9E21
S31508002BA09A469DF834B0054680B379B390F8283034
S31508002BB073B30C4657464FF0000801EB02094C4523
S31508002BC005D1B8FA88F0400903B0BDE8F08F14F8CB
S31508002BD0011B0A2907D195F8253057461E4495F852
S31508002BE026301E44EBE7CDF800B033463A46284671
S31508002BF0FFF747FF0128E7D808B908F1010895F853
S31508002C00243095F8272013441F44D8E70520DBE72E
S31508002C100220D9E708B520B11C30102219B900F0F6
S31508002C202AFF052002E000F01BFF002008BD2DE961
S31508002C30F14F0546DDE90A8B1C46084692460F46C3
S31508002C409DF8309000F01FFF95F8256095F826202E
S31508002C5095F824301644012C00FB03F10AFB06B64E
S31508002C6003D0022C10D0002303E02B681B885B1AC4
S31508002C705B080246394628464344CDE90A6901B04D
S31508002C80BDE8F04FFFF789BF2B681C88631AF0E789
S31508002C90054B9A689107FCD45A689207F9D4DA6901
S31508002CA0002AF6D1704700BF00800A4008B5FFF732
S31508002CB0EFFF012241F20401014B5A501A6108BD87
S31508002CC000800A40084B5A68012A0CD11A465968EE
S31508002CD0C90702D5D9690029F9D10223012113614F
S31508002CE042F20403D150704700800A4010B5064CE2
S31508002CF0FFF7CEFF6268012A03D1FFF7E3FFFFF76C
S31508002D00C7FF0378E36010BD00800A4018B176213A
S31508002D101048FDF79FBE4A680B7812B1127843EA4D
S31508002D20C2034A78002A14BF0222002213438A6883
S31508002D3012B1127843EA82138A78002A14BF042251
S31508002D4000221343CA6812B1127843EA4223024AA0
S31508002D50936470473042000800800A4020B140F270
S31508002D6009110448FDF776BE41F24403024AD150E0
S31508002D70704700BF3042000800800A4020B140F288
S31508002D8045110448FDF766BE42F24403024AD15093
S31508002D90704700BF3042000800800A4020B140F268
S31508002DA081110348FDF756BE024B1960704700BFF4
S31508002DB03042000840A00A4008B530B104484FF434
S31508002DC0DE71FDF747FE002008BD024B186CFBE7D5
S31508002DD03042000800800A4008B548B1084840F269
S31508002DE06B21FDF737FE002008BD064BD86CFBE7C4
S31508002DF00029FAD00129F7D1024B186DF4E700BF74
S31508002E003042000800800A4050B140F209310748B4
S31508002E10FDF720BE064BDA647047054B1A65704706
S31508002E200029F7D00129F8D0704700BF30420008C2
S31508002E3000800A4007B5084B18689A889B79009065
S31508002E406846ADF804208DF80630FFF727F800200D
S31508002E5003B05DF804FB00BF6C4200084FF0402247
S31508002E6013B50024536F684643F001035367009473
S31508002E708DF80440FEF7D0FF204602B010BD0000D2
S31508002E8070B586B001AA1546104B03F11006144614
S31508002E9018685968083303C4B3422246F7D14FF677
S31508002EA0FF7218680A4B20601B880A48934208BFBD
S31508002EB07923DBB28DF80D308DF80E30FDF738FC2E
S31508002EC02846FEF7DFFA002006B070BD73420008F8
S31508002ED00001E00FC01753026FF00402502110B52D
S31508002EE00A480B4C12F0800FD3B21BBF03F00F0336
S31508002EF0043BA3181B1802F101020CBF83F8001348
S31508002F0019764C2AEED1002010BD00BF00ED00E076
S31508002F1000E100E0104A30B5136841611546ABB9C7
S31508002F201060836011E0091B9C6841611A467CB1F8
S31508002F3023465C698C42F6D9002CF4D052B19060D5
S31508002F40836013B15A69511A596130BD0022F0E7FE
S31508002F502346F4E72860F3E76819002010B500F067
S31508002F60D3F9094B094A196831B11368C41A4B6970
S31508002F70A34203D31B1B4B61106003E0C01A002356
S31508002F8010604B6110BD00BF68190020541900205D
S31508002F9038B50F4D02202B685C690E4B1B681C4424
S31508002FA000F0BEF9204600F0C5F900230A492A6850
S31508002FB00B70D088800702D501230B7038BD926844
S31508002FC0002AFBD050690344012BF2D9F6E700BF6B
S31508002FD068190020541900205C19002070B59DF866
S31508002FE01450164605710025049A8560BDF81850D8
S31508002FF00446C5800260C0E903360D4629B96161F9
S315080030000BB11146984796B13546FEF786FE064639
S31508003010FFF7A4FF29462046FFF77CFF054B1B68F0
S31508003020A34201D1FFF7B4FF3046FEF77CFE00202D
S3150800303070BD00BF6819002000210C4A13687BB1D7
S3150800304083420AD1836879B18B6083681BB15A6958
S3150800305041690A445A610020704719469B68EEE7A1
S315080030600028EFD0022070471360EEE768190020A9
S3150800307070B5FEF752FE144E05463478FCB9134B6C
S315080030801C60134B1C60134B1C8000F009F90120CF
S3150800309000F046F900F0B0F90F4B0246186020B967
S315080030A02846FEF740FE232070BD23460B4840F213
S315080030B0E73100F013FB0A4B1860012333702846EA
S315080030C0FEF731FE0020EFE75019002068190020AE
S315080030D0541900205E1900206419002018FCFFFF0F
S315080030E0581900202DE9F0410546F8B1FEF715FEFE
S315080030F00F4F0646FFF732FF2846D7F80080FFF73E
S315080031009BFF044628B13046FEF70DFE2046BDE873
S31508003110F081A8453B6803D123B1FFF739FFF2E7F1
S31508003120002BF0D1022000F037F9ECE72224EDE776
S3150800313068190020F0B50D4685B016461F460446A8
S3150800314080B1FFF7CFFFBDF82C302A4602939DF8D1
S3150800315028302946CDE9007320463346FFF73EFF5F
S3150800316005B0F0BD2220FBE7014B1868704700BF89
S3150800317064190020C2072DE9F84F04460BD53F4ACB
S31508003180138801339BB21380FFF7E8FE3C4B1B689C
S315080031900BB1FFF7FDFEA3076DD500F0B5F8394F63
S315080031A000263D688046451BFEF7B7FDB2468346B6
S315080031B03246334B1C6814B16369AB4214D9012EED
S315080031C0314B51D1D288022A4ED11E70002C4ED0D6
S315080031D06369C7F800805D1B6561FFF7D9FE58462D
S315080031E0BDE8F84FFEF79FBD23462A46C7F800807C
S315080031F05969914209D8187994F804C0521A844535
S3150800320088BF1C469B68002BF2D15846FEF78BFDFB
S31508003210D4F814B0C4F814A0FEF77FFD8146204602
S31508003220FFF70AFF4846FEF77EFD23694BB1FEF716
S3150800323074FD814621692046FFF76CFE4846FEF775
S3150800324072FDE36813B121682046984700F05CF8E0
S31508003250D844A5EB080581460544FEF75EFD013610
S3150800326083462246C846A4E700221A70AEE7022023
S3150800327000F092F8B3E7BDE8F88F00BF5E190020AA
S31508003280681900205419002060190020034B5A6859
S31508003290D20702D5DA69002AF9D1704700800A40B8
S315080032A010B50121002486B03E208DF808108DF84F
S315080032B004408DF809408DF80A40CDE90344059489
S315080032C0FDF734FE01A8FFF711FD06A901F8104D18
S315080032D02046FFF71BFD20460F21FFF74FFD0F2164
S315080032E02046FFF75BFDFFF7E1FCFFF7CFFF402223
S315080032F0034B9C61034BC3F888219A6006B010BD46
S3150800330000800A4000E100E008B5FFF7BFFF014B67
S31508003310986908BD00800A4000210846FFF75CBD91
S3150800332000F00101830748BF41F002010020FFF7C2
S3150800333015BD000070B50446FFF7A8FF144B9D693C
S31508003340FFF7EAFF06460020FFF736FD830704D499
S31508003350731B022B01D8AE420FD10021631B012B30
S3150800336098BFAC1C0846B4F1FF3F34BF2246621C26
S31508003370FFF74AFD0220FFF7D3FF064A137833B159
S3150800338003498B6C43F001038B640023137070BDF3
S3150800339000800A4020100020830700F0010109D5AB
S315080033A00122064B41F002011A70054A936C23F07C
S315080033B0010393640020FFF7E1BC00BF2010002042
S315080033C000800A4038B5FEF7A8FC05460020FFF73E
S315080033D0F3FC830700F0010448BF44F0020400F040
S315080033E003010020FFF7DAFC2046FFF7C3FE284654
S315080033F0BDE83840FEF797BC3E20FDF705BE08B588
S3150800340000F05AF800F0B0F800F0B0F800F0B0F8A4
S31508003410BDE8084000F0ADB808B500F0ABF800F01C
S31508003420AAF800F0A9F8BDE8084000F0A6B8000020
S3150800343010B50446FDF760F94FF47A73B0FBF3F064
S315080034405C43074BB3FBF0F0B4FBF0F40320B4FB8A
S31508003450F0F018B1BDE8104000F00AB810BD00BF82
S3150800346040420F00000000000000000000000000BD
S31508003470013800D0FCE7704700F098B800F0FAB8B9
S31508003480FCF7D0BE08B503218020FEF7BFF90A2154
S315080034904FF4C060FEF7BAF90A214FF4F060FEF760
S315080034A0B5F90A212D20FEF7B1F90A215120FEF7B8
S315080034B0ADF9002008BD000041F264014FF48030E8
S315080034C038B54FF00044234B5A6E5850586E5C502E
S315080034D04AF6CD3403F50C23596C02F4803201F018
S315080034E001011C645C6BE407FCD442F20404012568
S315080034F01D51194B1C461D6BED07FCD5174BD3F810
S3150800350008369B075EBF4FF48025154B1D6009B131
S31508003510144B23640028A1BF42F264034FF0004015
S315080035200C49C8502AB942F264034FF48031094A5B
S31508003530D150FFF7D1FCFCF792FEFFF77BFCFFF7B3
S315080035409FFCFFF79FFFFFF789FCBDE83840FCF7B3
S315080035507BBE00BF008000400040094000C0074015
S315080035605C6009403254FFFF00F008B8FFF780BDE1
S3150800357070477047704770477047704708B50448EA
S31508003580FDF73AF9BDE808400248FDF735B900BF2E
S3150800359088420008A042000808B5FFF730FFFFF789
S315080035A06BFFFFF739FFFFF769FFFAE72DE9FF41E0
S315080035B0FCF741FE18B138212748FDF74BFA0020E1
S315080035C0FFF72AF918B13C212348FDF743FA2348A7
S315080035D0FFF7E4F918B140211F48FDF73BFA002729
S315080035E06FF07F4305254FF001081C4C1C4E204602
S315080035F0C4E90137FFF782F91A492046FFF70AFBA3
S315080036003268CDE90158531C336000953B46D2B267
S3150800361015492046FFF70BFB3268CDE9015802EB46
S315080036200803336000953B46D2B210492046FFF79F
S31508003630FEFA3268CDE9015802EB080333600095BB
S315080036403B46D2B20A492046FFF7F1FA04B0BDE874
S31508003650F041FFF709B900BFB84200087019002009
S315080036606C190020D03B0008C5420008D742000864
S31508003670EC420008704700001FB50446FDF7C2F883
S3150800368001281FD1104B9C420AD100220F4B10482B
S315080036901A60FFF733F904B0BDE81040FFF7E4B845
S315080036A00C4B9C42F7D1094B1A68511C196005232B
S315080036B00290CDE90033D2B2002307490448FFF748
S315080036C0B6FAE8E704B010BD884200086C19002075
S315080036D070190020A04200080143000853B94AB9EE
S315080036E0002908BF00281CBF4FF0FF314FF0FF30FC
S315080036F000F07CB9ADF1080C6DE904CE00F006F8CF
S31508003700DDF804E0DDE9022304B070472DE9F0474F
S315080037108C46089D04468A46002B4AD18A4217469B
S3150800372062D9B2FA82F64EB1C6F1200E01FA06F354
S31508003730B740B44020FA0EFE4EEA030A4FEA17488D
S31508003740230C1FFA87F9BAFBF8FE08FB1EAA0EFB24
S3150800375009F243EA0A439A420BD9FB180EF1FF31E4
S315080037602CBF012000209A4202D9002800F02A81A5
S315080037708E469A1AA3B2B2FBF8F008FB102200FB99
S3150800378009F943EA0244A14507D93C1900F1FF3378
S3150800379002D2A14500F210811846A4EB090440EABA
S315080037A00E4000211DB1F4400023C5E90043BDE8E1
S315080037B0F0878B4208D9002D00F0F2800021C5E978
S315080037C0000C0846BDE8F087B3FA83F100294ED10C
S315080037D06345C0F0E880824240F2E5800846002D45
S315080037E0E5D0C5E9004AE2E702B9FFDEB2FA82F699
S315080037F0002E40F099808B1A4FEA124E1FFA82F873
S3150800380001214FEA144CB3FBFEF20EFB123008FB03
S3150800381002F94CEA004CE14508D917EB0C0C02F109
S31508003820FF3302D2E14500F2CA801A46ACEB090C16
S31508003830A3B2BCFBFEF00EFB10CC08FB00F843EA73
S315080038400C44A0450ED93C1900F1FF332CBF4FF0AC
S31508003850010C4FF0000CA04503D9BCF1000F00F095
S31508003860A8801846A4EB080440EA02409AE7C1F18A
S3150800387020048B4002FA01FE0CFA01F6E24020FA17
S3150800388004F72CFA04FC00FA01F813433E431F0C14
S31508003890320C1FFA83F9BCFBF7F007FB10CC00FBD0
S315080038A009FA42EA0C4CE24508D913EB0C0C00F174
S315080038B0FF3202D2E24500F289801046ACEB0A0CD0
S315080038C0B6B2BCFBF7FA07FB1ACC0AFB09F946EABB
S315080038D00C42914506D99A180AF1FF3601D291454C
S315080038E07AD8B2464AEA0040A2EB0902A0FB0E6764
S315080038F0BA42B446B94602D307D1B04505D2B6EBAB
S315080039000E0C67EB030301389946002D6BD0B8EB14
S315080039100C0362EB090202FA04F4CB40CA40002108
S315080039201C43C5E9004242E7B740C6F1200201FA46
S3150800393006F3B44021FA02FC4FEA174E20FA02F2C7
S315080039401FFA87F8BCFBFEF11A430EFB11CC01FBEC
S3150800395008F0130C43EA0C4C604507D917EB0C0C1E
S3150800396001F1FF3301D2604533D81946ACEB000CA0
S3150800397092B2BCFBFEF00EFB10CC00FB08F342EA49
S315080039800C4C634507D917EB0C0C00F1FF3201D23A
S31508003990634525D81046ACEB030340EA014130E7FE
S315080039A02946284603E7841A6CEB030301209A4646
S315080039B015E702383C4455E702383C44EDE6023A3E
S315080039C0BC4433E7AEF1020E3B44D2E602389C44CF
S315080039D074E70239BC44C9E7AAF1020A1A4481E726
S315080039E00238BC44D7E72946E1E600BF704700BF66
S315080039F008B5074B044613B1002100E000BF054B8C
S31508003A001868836A03B19847204600F045F800BF56
S31508003A10000000001043000870B50D4E00250D4C3F
S31508003A20A41BA410A54209D10B4E00250B4C00F08F
S31508003A3035F8A41BA410A54205D170BD56F825304B
S31508003A4001359847EEE756F8253001359847F2E7ED
S31508003A509C1000209C1000209C100020A010002024
S31508003A60431E0A4410B5914200D110BD11F8014B0E
S31508003A7003F8014FF7E702440346934200D1704723
S31508003A8003F8011BF9E7034613F8012B002AFBD1BB
S31508003A90181A013870470000FEE700BFF8B500BFE6
S31508003AA0F8BC08BC9E467047F8B500BFF8BC08BC11
S31508003AB09E467047050000000000000080969800AA
S31508003AC002010000000000008000800001010000E3
S31508003AD0E0C810003C0602000500000000000000D7
S31508003AE08096980002010000000000006765636B7D
S31508003AF06F5F73646B5F332E312E312F706C617478
S31508003B00666F726D2F656D6C69622F696E632F65BE
S31508003B106D5F6770696F2E68006765636B6F5F73AB
S31508003B20646B5F332E312E312F706C6174666F7241
S31508003B306D2F656D6C69622F7372632F656D5F6398
S31508003B406D752E63006765636B6F5F73646B5F33B8
S31508003B502E312E312F706C6174666F726D2F656D04
S31508003B606C69622F7372632F656D5F656D752E6361
S31508003B70006765636B6F5F73646B5F332E312E313D
S31508003B802F706C6174666F726D2F656D6C69622F2C
S31508003B907372632F656D5F6575736172742E63004A
S31508003BA06765636B6F5F73646B5F332E312E312FDE
S31508003BB0706C6174666F726D2F656D6C69622F73B8
S31508003BC072632F656D5F6770696F2E630000000072
S31508003BD0E03B00082003016406080200010000001B
S31508003BE000040A0A04030606080200000000000092
S31508003BF00E040E1F081F0C1F0E0E00001000010EEB
S31508003C000E0E0F0E071F1F0E110E1C110111110E9D
S31508003C100F0E0F1E1F11111111111F0E000E040099
S31508003C200200010010000C00010408010600000053
S31508003C3000000000020000000000000C040600005E
S31508003C400000000000040A0A1E1309040404040400
S31508003C5000000000110611080C01021011110606D9
S31508003C6008000211101111110901011111040809A6
S31508003C70011B111111111101041111111111100259
S31508003C8000080A00040001001000121E01000001CD
S31508003C90040000000000000002000000000000020E
S31508003CA0040802000000000000040A1F01080502BB
S31508003CB00208150400000010190410040A0F010870
S31508003CC011110606041F041010111101110101013A
S31508003CD0110408050115131111111101041111110F
S31508003CE00A11080201081100080E0D0E160E02111F
S31508003CF00D060C09040B0D0E0F160D0E07111111EA
S31508003D0011111F0204081500000000000004000A33
S31508003D100E04020002080E1F001F000815040808FA
S31508003D2009100F040E1E00000200080816110F01E4
S31508003D30110F0F1D1F040803011515110F110F0E82
S31508003D4004111115040A04020208000000101301E8
S31508003D501911071113040805041513111119130174
S31508003D60021111110A1108010410080000000000D0
S31508003D700000001F100215000208150406000004C2
S31508003D80130404101F10110211100606041F040460
S31508003D90151F11011101011111040805011119114D
S31508003DA001150510041111150A0402020408000081
S31508003DB0001E1101111F021E11040803041511111A
S31508003DC00F1E010E02111115041E0402040800003C
S31508003DD0000000000000000A0F190900040404048A
S31508003DE00400060211040211081111021108060442
S31508003DF00800020015111111090101111104090920
S31508003E00011111110109091004110A151104010201
S31508003E10080800000011111111010210110409050A
S31508003E20041111110110011012190A150A100202C3
S31508003E3004080000000000000004000A0418160028
S31508003E4008020000020006010E0E1F0E080E0E02E2
S31508003E500E060002100001040E110F0E071F010EB8
S31508003E60110E06111F11110E0116110F040E040A68
S31508003E7011041F0E100E001F001E0F0E1E0E020E3E
S31508003E80110E06090E11110E0110010F0C16040A67
S31508003E90110E1F0C040600000000000000000000C0
S31508003EA00000000000000000000000000000000004
S31508003EB000000000000000000000000000000000F4
S31508003EC000000000000000000000000000000000E4
S31508003ED000000000000000000000000000000000D4
S31508003EE000000000000000000000000000000000C4
S31508003EF000000000000000000000000000000000B4
S31508003F00103F0008200301640808020001000000B1
S31508003F1000186C6C10CE3808600C00000000000019
S31508003F207C307C7CC6FE7CFE7C7C000070001C7CA1
S31508003F307C7C7E7C7EFEFE7CC63C78C606C6C67C3D
S31508003F407E7C7E7C7EC6C6C6C6C6FE7C007C10000D
S31508003F500C00060060003800060000060C00000091
S31508003F6000000000000000000000003018188C0057
S31508003F700000000000186CFEFC6A2C1830186C183B
S31508003F80000000C0C638C6C6C606C6C0C6C61818CB
S31508003F90387C38C6C6C6C6C6C60606C6C61830663D
S31508003FA006EECEC6C6C6C6C618C6C6C6C6C6C00CA1
S31508003FB0066038000C00060060000C000618300683
S31508003FC00C000000000000001800000000000018A7
S31508003FD01830D60000000000001848FE162E2C18CF
S31508003FE01830381800000060C63060C0C606066083
S31508003FF0C6C618181C7C70C6F6C6C606C6060606C9
S31508004000C618303606FEDEC6C6C6C60618C6C6C6F4
S315080040106CC6600C0C606C00043C3E3C7C3C3C3C32
S315080040203E0000660C6E3E3C3E3C363C186666C654
S3150800403066667E1818306200000000000018006CE2
S315080040407C10DC001830FE7E1C7E0030C6303070D6
S31508004050FE7E7E307CFC00000E00E070F6FE7E06DA
S31508004060C61E1EF6FE18301E06D6F6C67EC67E7C10
S3150800407018C6C6D638FC300C1860C600006066063E
S3150800408066660C66661830360CD6666666666E0612
S315080040907C6666C63C66300C0060000000000000C6
S315080040A0000000FED0E866001830387E1C7E1C181A
S315080040B0C63018C0C0C0C618C6C018181C7C7030D8
S315080040C076C6C606C60606C6C618303606C6E6C686
S315080040D006B6C6C018C6C6FE6CC0180C306000000E
S315080040E0007C6606667E0C7C6618301E0CD66666F4
S315080040F03E56063C186666D6187C18181830000016
S3150800410000000000001800FE7EAC660030186C182F
S3150800411018001C0CC6300CC6C0C6C60CC6C6181875
S31508004120387C380006C6C6C6C60606C6C61836662B
S3150800413006C6C6C60666C6C618C66CEEC6C00C0C4B
S31508004140606000FE0066660666060C60661836360F
S315080041500CC666660626066018663CD63C600C18D1
S3150800416018300000000000000018006C10E6DC00A3
S31508004170600C00180C001C067C78FE7CC07C7C0653
S315080041807C7C000C70001C307CC67E7C7EFE06FCA7
S31508004190C63C1CC6FEC6C67C06DCC67C187C38C671
S315080041A0C67EFE7CC07C00FE007C3E3C7C3C0C3E11
S315080041B066701C6638C6663C065C063E707C18FC53
S315080041C0663E7E301818000000000000000000005F
S315080041D000000000000000000000000000000000D1
S315080041E000000000000000000000000000000000C1
S315080041F000000000000000000000000000000000B1
S3150800420000000000000000000000000000000000A0
S315080042100000000000000000000000000000000090
S315080042200000000000000000000000000000000080
S315080042306765636B6F5F73646B5F332E312E312F47
S31508004240706C6174666F726D2F70657269706865DF
S3150800425072616C2F7372632F70657269706865720C
S31508004260616C5F7379737274632E630001031001C6
S315080042700103030B0C030000202000033C3C3C0018
S31508004280000000000000000222100020B10800080B
S3150800429005090008090900085F0900086F090008F0
S315080042A02A100020B10800080509000809090008B5
S315080042B05F0900086F0900086D656D6C63645F61CE
S315080042C070702E63004D454D4C43442053616D700C
S315080042D06C652041707000205072657373204254DB
S315080042E04E3020746F20636C6561720020507265D1
S315080042F073732042544E3120746F207072696E7445
S315080043000048656C6C6F20576F726C642100000062
S309080043103C1000202F
S30D080043149CBEFF7F01000000BA
S3150800431C00000A4057000201FFFF020300000000DC
S3150800432CC0EA2101C0EA2101C0175302008000002F
S3150800433C010000000000010102000000000001035A
S3150800434C0200000088420008A04200080000000095
S3150800435C0000000000000000000000000000000043
S3150800436C0000000000000000000000000000000033
S3150800437C0000000000000000000000000000000023
S3150800438C0000000000000000000000000000000013
S3150800439C0000000000000000000000000000000003
S315080043AC0000000000000000000000009501000855
S309080043BC7101000875
S705080006717B
