S02300006275696C642F64656275672F6D656D6C63645F626172656D6574616C2E733337DE
S113000000100020A9040000A5040000A5040000BD
S1130010A5040000A5040000A5040000A504000038
S1130020A5040000A5040000A5040000A504000028
S1130030A5040000A5040000A5040000A504000018
S1130040A5040000A5040000A5040000A504000008
S1130050A5040000A5040000A5040000A5040000F8
S1130060A5040000A50400007D270000A5040000ED
S1130070A5040000A5040000A5040000A5040000D8
S1130080A5040000A5040000A5040000A5040000C8
S1130090A5040000A5040000A5040000A5040000B8
S11300A0A5040000650800003D080000A504000048
S11300B0A5040000A5040000A5040000A504000098
S11300C0A5040000A5040000A5040000A504000088
S11300D0A5040000A5040000A5040000A504000078
S11300E0A5040000A5040000A5040000A504000068
S11300F0A5040000A5040000A5040000A504000058
S1130100A5040000A5040000A5040000A504000047
S1130110A5040000A5040000A5040000A504000037
S1130120A5040000A5040000A5040000A504000027
S1130130A504000010B5054C237833B9044B13B162
S1130140044800E000BF0123237010BDA01000206C
S113015000000000AC36000008B5034B1BB1034996
S1130160034800E000BF08BD00000000A410002008
S1130170AC360000154B002B08BF134B9D46A3F56E
S1130180803A00218B460F461348144A121A02F093
S11301905CFE0F4B002B00D098470E4B002B00D079
S11301A098470020002104000D000D48002802D0CB
S11301B00C4800E000BF02F019FE2000290002F004
S11301C0D5FB02F0FFFD00BF000008000010002076
S11301D00000000000000000A0100020941900207E
S11301E00000000000000000042208B511460123AD
S11301F0032001F00DFB002008BD042208B51146C0
S11302000023032001F004FB002008BDFFF7ECBF2E
S113021002F016BB704700002DE9F04186B06C4631
S1130220054688461746234E0FCE0FC496E80300B2
S1130230002384E8030004222C68A97A687A01F078
S1130240E7FA00230422A979687901F0E1FA694602
S11302502046CDF80880ADF8107001F043FC164B31
S11302609C4223D003F580439C4221D003F5804374
S11302709C420CBF02244FF0FF34AB79697904F13E
S11302802E0241EA03410D4B002003EB441403EB1F
S1130290421218235160A97A6A7A42EA0142C4F8E8
S11302A0C025C4F8AC3506B0BDE8F0810024E4E70D
S11302B00124E2E7882E00000080054000C00340CE
S11302C070B50C4606688D18AC4201D1002070BD93
S11302D014F8011B304601F05FFCF5E702689369EE
S11302E09B06FCD57047000013B5044602F016F9CE
S11302F000230122217BCDE900324900B0FBF1F15A
S1130300024A034802F0F0F802B010BD15030000E1
S1130310BC10002043F210030121014AD150704760
S113032000C00340F7B541F2700308250D4C0646A2
S1130330E550407B02F05EFA04230B4F0DEB050100
S113034021F8023D02223846FFF7BAFF3846FFF78C
S1130350C5FFB07B02F04EFA42F270030020E55074
S113036003B0F0BD00C003400010002038B5816820
S1130370044600220F48FFF74FFF00230422032105
S1130380022001F045FA00230B4D042219461846B9
S113039001F03EFA94E80F0085E80F000122074BB4
S11303A020461A70FFF7A0FF2046FFF7BBFF00208E
S11303B038BD00BF00100020D8100020D410002049
S11303C02DE9F04F99460579038814465D43884624
S11303D041F2700308214FF0000B234A0134D1503D
S11303E085B0A4B20646407B02F004FA230243F02F
S11303F0010304AF27F8023D022239461B48FFF7E8
S11304005FFFDFF868A009F1FF33ED1001930134B9
S1130410CB450ED11548FFF761FFB07B02F0EAF936
S113042042F27003082100200F4AD15005B0BDE804
S1130430F08F2A4641465046FFF742FF019B39465A
S11304405B450FBF4FF6FF7204EB0B02120242F042
S1130450FF02ADF80E2050460222A844FFF730FFF9
S11304600BF1010BD4E700BF00C0034000100020D3
S1130470034B04481B78002B08BF0020704700BFC3
S1130480D4100020D81000201FB56C46044B0FCBAD
S113049084E80F002046FFF769FF04B010BD00BFD9
S11304A0A02E0000FEE7000008B500F013F8064A8D
S11304B0064B07498B4201D3FFF75CFE52F8040F49
S11304C043F8040BF6E700BFB0360000001000202C
S11304D0A0100020044B054A9A60D3F8882042F407
S11304E07002C3F88820704700ED00E000000000AF
S11304F0014B1868704700BF10100020014B1860B2
S1130500704700BF10100020084B1B6F03F0070357
S1130510022B04D0032B05D0012B05D0FEE7044B9E
S113052018687047034BFBE703487047008000409E
S11305301010002014100020002D310108B5FFF721
S1130540E3FF054B1B6FC3F301330133B0FBF3F03F
S1130550024B186008BD00BF008000400C10002052
S11305600048704700B4C404014B1868704700BFCA
S113057014100020054B1860054B1B6F03F0070394
S1130580032B01D1FFF7DABF704700BF141000201E
S1130590008000400020704700487047002D310162
S11305A0174B9868C0F304400C2826D8DFE800F005
S11305B0092525252525071B1D251F212300114855
S11305C070479B6803F04073B3F1807F07D0B3F1A9
S11305D0007F06D00C4A002B08BF104670470B481A
S11305E070470B4870470B4870470B4870470B48DF
S11305F070470B4870470B4870470020704700BF96
S11306000040014A405DC60000093D0080841E0090
S113061040420F000024F400C0EA210180BA8C019A
S11306200048E801005A62024FF4004070474FF45A
S11306307A707047014B1868704700BF181000208B
S113064043680BB1006818472220704783680BB1D8
S113065000681847FF20704738B50D460446B8B106
S1130660012817D0022817D003280CBF1F2300230A
S1130670EB40DB0704D440F2B231084800F006F93D
S113068030235C43064B1859E84000F0010038BDA4
S11306907F23EDE70323EBE73F23E9E7B02E0000D8
S11306A014C0034070B5014600240F4B0F4E1A7856
S11306B0E3B29A4200D870BD56F824301D686B79B5
S11306C08B420FD12B78022B0CD02879FFF7C4FF73
S11306D0B0FA80F04009287056F82400BDE8704054
S11306E002F0B4B90134E3E71D36000030100020F5
S11306F013B50446002341790122007901F088F8FA
S113070061792079FFF7A8FFB0FA80F0A379400956
S1130710022B20700DD100F075F80749607900F0C4
S11307207FF8012362792079CDE90033114600F086
S1130730F3FF002002B010BDA5060000007870474A
S113074010B503780446022B16D041790079FFF7DF
S113075083FFA279012A17D163885B0063F03F030A
S11307609BB200280CBF184643F001004FF6E0731B
S1130770984202D12270608010BD4FF6DF73984218
S113078004BF00232370F6E7002AF5D1B0FA80F005
S113079040092070F0E70278022A03D10022428047
S11307A0FFF7A6BF704713B503780446022B10D099
S11307B08379022B0BD10021407900F031F800231A
S11307C062792079CDE90033114600F0A5FF0223B8
S11307D0237002B010BD000070B504460125084E18
S11307E004B970BD94FAA4F0B0FA80F005FA00F3ED
S11307F024EA030456F82030002BF1D09847EFE7A1
S1130800E81000204FF00072044BC3F880211A60F6
S11308104FF08062C3F880211A60704700E100E065
S113082038B504460D4600F014FF034B43F824503A
S1130830BDE8384000F013BFE8100020084BD3F89F
S11308402404D3F82024104042F2204220F42A50F9
S113085020F02A004004400C9850FFF7BDBF00BFB1
S113086000C00340084BD3F82404D3F820241040DC
S113087042F2204220F4AA4020F055000004000C6B
S11308809850FFF7A9BF00BF00C00340FEE7000077
S113089008B5334B98424CD01ED8324B98423FD0C7
S11308A00ED8314B98423BD0304B984238D0002878
S11308B038D02F4840F61A61FFF7E8FF002031E0F6
S11308C02C4B98422FD02C4B98422FD02B4B984234
S11308D0EFD12B4B586E25E02A4B984234D00FD8D9
S11308E0294B984228D0294B984229D0A3F53703A5
S11308F0A3F5D8539842DCD1214BD3F8800011E002
S1130900234B984224D003F5740303F51053984203
S113091022D0204B9842CCD1194BD3F8900001E05F
S1130920174B986D08BD164B186FFBE7144B586FA7
S1130930F8E7134B986FF5E7114BD3F88400F1E710
S11309400F4BD3F88800EDE70D4BD3F88C00E9E7A3
S11309500B4BD3F89400E5E7094BD3F89800E1E793
S1130960C0EA210100093D0040420F0080841E00BE
S1130970DD2E0000405DC6000024F400C0CF6A00F4
S11309800080E00F006CDC020048E80180D54302DF
S11309900090D003007E560338B50F4B0546D3F8BC
S11309A080300C4603F00303022B09D0032B0FD035
S11309B00A4840F24241FFF769FF0023184602E06B
S11309C0FFF7BCFD0B2305B1286004B1237038BDCB
S11309D0FFF7E6FD0523F6E700800040DD2E00006A
S11309E038B5154B0546D3F820310C4603F0070300
S11309F0013B032B17D8DFE803F0020A0E12FFF7BE
S1130A0077FD042305B1286004B1237038BDFFF7D6
S1130A10ABFD0323F6E7FFF7C3FD0523F2E7FFF77A
S1130A20BBFD0223EEE7054840F62851FFF72EFFF1
S1130A3000231846E6E700BF00800040DD2E0000DA
S1130A4073B50024154B0194D3F88031064603F0A6
S1130A500303022B0D460FD0032B12D0012B15D10B
S1130A60214601A8FFF7BCFF0D210EB1019B3360A5
S1130A7005B1297002B070BDFFF792FD0521019008
S1130A80F3E7FFF789FD02210190EEE740F64461A8
S1130A900348FFF7FBFE2146E7E700BF0080004064
S1130AA0DD2E000038B5124B0546D3F840310C4614
S1130AB003F00303022B0BD0032B0DD0012B0FD11A
S1130AC0FFF7B2FD082305B1286004B1237038BDD7
S1130AD0FFF7B0FD0723F6E7FFF7A9FD0923F2E7C7
S1130AE0044840F65651FFF7D1FE00231846EAE7C2
S1130AF000800040DD2E000038B5124B0546D3F8C7
S1130B0060310C4603F00303022B0BD0032B0DD0F2
S1130B10012B0FD1FFF788FD082305B1286004B12C
S1130B20237038BDFFF786FD0723F6E7FFF77FFD47
S1130B300923F2E7044840F68451FFF7A7FE002397
S1130B401846EAE700800040DD2E000038B5154B5A
S1130B500546D3F800320C4603F00703013B032B90
S1130B6018D8DFE803F0020A0E12FFF75DFD082330
S1130B7005B1286004B1237038BDFFF75BFD07237E
S1130B80F6E7FFF754FD0923F2E7FFF7D7FC0C2340
S1130B90800AEDE7044840F6F761FFF777FE00238B
S1130BA01846E5E700800040DD2E000038B5154BFF
S1130BB00546D3F808320C4603F00703013B032B28
S1130BC018D8DFE803F0020A0E12FFF72DFD082300
S1130BD005B1286004B1237038BDFFF72BFD07234E
S1130BE0F6E7FFF724FD0923F2E7FFF7A7FC0C2340
S1130BF0800AEDE7044840F27741FFF747FE0023FF
S1130C001846E5E700800040DD2E000038B5124BA1
S1130C100546D3F840320C4603F00303022B0BD0F5
S1130C20032B0DD0012B0FD1FFF7FEFC082305B1D8
S1130C30286004B1237038BDFFF7FCFC0723F6E7F6
S1130C40FFF7F5FC0923F2E7044840F68B61FFF750
S1130C501DFE00231846EAE700800040DD2E000058
S1130C6038B5104B0546D3F800310C4603F00303A6
S1130C70022B0BD0032B0DD0012B0FD1FFF774FCEB
S1130C80032305B1286004B1237038BDFFF7D2FCFB
S1130C900723F6E7FFF77EFC0623F2E70123002093
S1130CA0EFE700BF0080004041F671320F4B10B5F2
S1130CB0D969DA639A680E4C22F44012A04288BFC4
S1130CC042F480129A600B4A0B4CD2F81832A042BC
S1130CD023F0020388BF43F0020301F48031C2F819
S1130CE0183211B10022014BDA6310BD0000034039
S1130CF0C017530200C0074080F0FA0208B5FFF79E
S1130D002FFCBDE80840FFF7CFBF0000022810B554
S1130D1013D00ED801281BD10E4B1C6FC4F3013421
S1130D20022C04D140F2D9510B48FFF7AFFD601CEF
S1130D3010BD032807D00F28EDE7064BD3F89040E9
S1130D40C4F30464F3E7034B1C6FC4F38024EEE79D
S1130D500024ECE700800040DD2E0000002313B5E2
S1130D600193252862D8DFE800F013191C252A34E2
S1130D70393E43484D52575C61193E616143192520
S1130D802A2534193E255C39393939252525484D1C
S1130D90FFF7BAFB0190019802B010BDFFF7CEFB3C
S1130DA0F8E7FFF7B1FB04460220FFF7AFFFB4FBFF
S1130DB0F0F0EFE7FFF7C2FB04460320F5E7FFF787
S1130DC0BDFB04460320FFF7A1FFB4FBF0F040088D
S1130DD0E0E7002101A8FFF733FEDCE7002101A8CA
S1130DE0FFF7FEFDD7E7002101A8FFF75BFED2E77E
S1130DF0002101A8FFF780FECDE7002101A8FFF73D
S1130E00A5FEC8E7002101A8FFF7D0FEC3E7002133
S1130E1001A8FFF725FFBEE7002101A8FFF7BCFDED
S1130E20B9E7002101A8FFF7F1FEB4E740F2AD31C4
S1130E300148FFF72BFDAEE7DD2E0000022810B5B8
S1130E4023D01ED8012842D14C1E012C06D90429D6
S1130E5004D040F216612148FFF718FDFFF74EFF5A
S1130E6000F040F81E4A136F23F4405343EA04335E
S1130E701367FFF763FBFFF717FFBDE8104000F0AF
S1130E8035B8032813D00F28DDE74C1E1F2C04D9D6
S1130E9040F23C611148FFF7F9FC114BD3F8901074
S1130EA021F0F85141EA0461C3F8901010BD4C1EC2
S1130EB0012C04D940F242610848FFF7E7FC084BD3
S1130EC0196F21F4806141EA84211967EEE74FF438
S1130ED0C961BDE810400148FFF7D8BCDD2E000011
S1130EE00080004002210320FFF7A8BF08B50120BD
S1130EF0FFF734FFBDE80840034988428CBF022154
S1130F0001210320FFF79ABF80F0FA02002307B5FE
S1130F108DF80730252869D8DFE800F01368686881
S1130F206832383E444A50565C6268683E68684499
S1130F306868686832683E68623838383868686853
S1130F404A502C4B1B6F03F00703013B032B11D8B2
S1130F50DFE803F00E020A0C04238DF807309DF835
S1130F60070003B05DF804FB0323F6E70623F4E768
S1130F700223F2E740F272611F48FFF787FCEEE7B5
S1130F800DF107010020FFF75BFDE8E70DF1070114
S1130F900020FFF725FDE2E70DF107010020FFF730
S1130FA081FDDCE70DF107010020FFF7A5FDD6E781
S1130FB00DF107010020FFF7C9FDD0E70DF107018E
S1130FC00020FFF7F3FDCAE70DF107010020FFF74A
S1130FD047FEC4E70DF107010020FFF7DDFCBEE783
S1130FE00DF107010020FFF711FEB8E740F201718F
S1130FF0C2E700BF00800040DD2E000070B50C4643
S1131000252800F26081DFE810F026005E015E0111
S11310105E015E0161007C009A00B500D000EF0023
S11310200E012C0143015E015E019A005E015E0126
S1131030B5005E015E015E015E0161005E019A0021
S11310405E0143017C007C007C007C005E015E014B
S11310505E01D000EF008B1E042B2CD8DFE803F0D8
S1131060281E332B030000250426FFF747FEFFF755
S113107039FF984A136F23F0070333431367FFF7CD
S11310805DFAFFF711FEFFF731FF35B9032C04D1E8
S113109042F228030121904AD15070BD41F2280246
S11310A001218D4B03269D6A9950C5F34005DCE769
S11310B000250126D9E7002540F234718748FFF75F
S11310C0E5FB2E46D1E700250226CEE7052905D00B
S11310D00D2914D002290BD1032200E002227D49FC
S11310E0D1F8803123F003031343C1F88031D4E7EE
S11310F040F276717948FFF7C9FB0022EFE701223D
S1131100EDE78C1E032C11D8DFE804F00E02170C57
S113111002227049D1F8203123F007031343C1F8A8
S11311202031BAE70322F4E70422F2E740F2A77180
S11311306A48FFF7ABFB0022EBE70122E9E7082945
S113114016D009290BD007290BD102226149D1F805
S1131150403123F003031343C1F840319DE70322D8
S1131160F4E740F2C3715D48FFF790FB0022EDE71E
S11311700122EBE7082916D009290BD007290BD146
S113118002225449D1F8603123F003031343C1F818
S1131190603182E70322F4E740F2DB714F48FFF746
S11311A075FB0022EDE70122EBE7CC1F052C12D8DA
S11311B0DFE804F003180D11110F02224549D1F89C
S11311C0003223F007031343C1F8003265E703221A
S11311D0F4E70422F2E740F61D014048FFF756FB0E
S11311E00022EBE70122E9E7CC1F052C12D8DFE847
S11311F004F003180D11110F02223649D1F80832F8
S113120023F007031343C1F8083246E70322F4E747
S11312100422F2E740F63A013048FFF737FB002298
S1131220EBE70122E9E74C1E062C11D8DFE804F0B5
S113123015101710100E040002222649D1F80031AF
S113124023F003031343C1F8003126E70322F4E734
S113125040F656012148FFF719FB0022EDE7012271
S1131260EBE7052908D00B2910D040F66A011B488A
S1131270FFF70CFB002200E003221649D1F880306E
S113128023F003031343C1F8803006E70222F4E796
S1131290082916D009290BD007290BD102220D49A0
S11312A0D1F8403223F003031343C1F84032F4E68B
S11312B00322F4E740F6CE010848FFF7E7FA0022DC
S11312C0EDE70122EBE740F64B11BDE8704003481F
S11312D0FFF7DCBA0080004000C00040DD2E0000B3
S11312E070B50546FFF7D4FA431E0333044604D908
S11312F040F671212948FFF7C9FA294B5A68012A97
S113130005D142F204015A509A699207FCD1002097
S1131310FFF7FCFD042803D1FFF7F0FCFFF7E2FD23
S1131320204B24F040709D422CD01F4B9D422CD06A
S11313301E4CE36813F0060FFBD1A668A060A368F7
S113134000F4F81003F4F813984221D040F6B821C1
S11313501248FFF79BFAA6600020FFF7D7FD042888
S11313601AD1FFF7EBF88542044604D240F6C921AE
S11313700A48FFF78BFA2046FFF796FCBDE8704059
S1131380FFF7B4BD40F00070D2E740F08070CFE7C3
S11313902846FFF7B3F8DFE770BD00BFDD2E00007D
S11313A000C0014040420F0080841E000000014044
S11313B0037870B50F2B044604D940F6EC216C4831
S11313C0FFF764FA63780F2B04D940F6EF216848DD
S11313D0FFF75CFAA3780F2B04D940F6F221644896
S11313E0FFF754FAE3780F2B04D940F6F52160484F
S11313F0FFF74CFA23790F2B04D940F6F8215C4807
S1131400FFF744FA63793F2B04D940F6FB2158488F
S1131410FFF73CFAA3793F2B04D940F6FE21544848
S1131420FFF734FAE379032B04D940F6013150482D
S1131430FFF72CFA237A032B04D940F604314C48E5
S1131440FFF724FA637B012B04D940F606314848A0
S1131450FFF71CFA0020FFF759FD03287DD045F65D
S11314600E03444A0221C2F8803041F22803D150CD
S113147042F228030121D150916D11F48031FBD146
S1131480637820781B0543EA0063A079657C0343F5
S1131490E07843EA0043207943EA0033607943EA81
S11314A0801313619369E07A03F000430343E07906
S11314B043EA8063207A43EA0063607A43EA0043A4
S11314C0A07A43EA00239361637B126A002B18BF5E
S11314D00821207B22F00D0243EA020343EA800341
S11314E041EA0301A27B234B4FEA42161962207C96
S11314F034D1996AE27B21F0330141F00101314397
S113150041EA0211996219461B4A9E6D32EA0606A7
S1131510FBD141F2280202269E508B6D5B00FCD465
S11315200B69A27823F4700343EA02530B614FF072
S1131530004241F21803CA5018B942F228030222A9
S1131540CA5025B942F2280301210A4AD150A37C8A
S11315501BB1084B094AC3F8802070BD9A6A22F077
S113156033022A43324342EA40029A62EFE700BF61
S1131570DD2E000000C0004003000140F1A7FFFF82
S1131580837810B5072B044604D940F6B5312848B2
S1131590FFF77CF9E378032B04D940F6B7312448EC
S11315A0FFF774F92378032B04D940F6B9312048A6
S11315B0FFF76CF994F90130002B04DA40F6BB31E3
S11315C01B48FFF763F94FF4D1511A4B627802209C
S11315D0596241F204014F2A585042F204014FF07B
S11315E0010028BF4F2258501969C903FCD421783F
S11315F042EA01225A61E278A178120142EA012208
S113160061790A43217942EA41029A60E279A17937
S1131610120142EA4112617A0A43217A42EA410202
S11316205A60A27A12B16FF4D1525A6210BD00BF4F
S1131630DD2E000000000240014B1880704700BFFF
S11316401C100020EFF3108072B6704700B962B628
S11316507047EFF31180302383F31188704780F3D0
S1131660118870474FF04022D36E017923F0300384
S11316700B43D3667047000038B50D460446D8B115
S113168001281BD002281BD003280CBF1F230023D2
S1131690EB40DB0704D44FF482610A48FFF7F6F805
S11316A03020012141F21003604300F18040A94041
S11316B000F57030C15038BD7F23E9E70323E7E725
S11316C03F23E5E7B02E000038B50D460446D8B1F7
S11316D001281BD002281BD003280CBF1F23002382
S11316E0EB40DB0704D440F2E1310A48FFF7CEF8BF
S11316F03020012142F21003604300F18040A940F0
S113170000F57030C15038BD7F23E9E70323E7E7D4
S11317103F23E5E7B02E00002DE9F8430C461546BB
S11317201E46074600285DD001285DD002285DD002
S113173003280CBF1F230023E340DB0703D4BF218E
S11317402B48FFF7A3F884EA050333F0030303D01F
S1131750C1212748FFF79AF8072D21D84FF0030835
S1131760FFF770FF234B4FEA85091A6807FA09F758
S1131770574008FA09F807EA080757401F60FFF7BF
S113178065FFFFF75FFF1C4B04F003041A6804FABB
S113179009F4544004EA080454401C60FFF756FF5F
S11317A0164B174A9DF82010002E14BF1E461646ED
S11317B0012303FA05F5134B0432002908BF13462D
S11317C035601D6042F220430F4A9DF82410D55025
S11317D00E4B02F510522432002908BF13461D6037
S11317E0BDE8F8837F23A7E70323A5E73F23A3E707
S11317F0092F000000C4034008C4034010D4034070
S113180010E4034014D4034000C0034024D4034034
S1131810F8B50C4615461E46074678B301282FD066
S113182002282FD0032814BF00231F23E340DB0723
S113183004D440F21D111F48FFF728F825B12146B2
S113184038460EB3FFF718FF30237B43072C03F110
S1131850804303F570331AD80F205A68A1008840DA
S113186022EA000205FA01F10A435A600DBB21463F
S11318703846D6B1BDE8F840FFF7FEBE7F23D5E772
S11318800323D3E73F23D1E7FFF71EFFDCE70F2055
S113189004F18042083AD9689200904021EA00019C
S11318A005FA02F20A43DA60E0E7BDE8F840FFF720
S11318B00BBFF8BD092F00004FF090435A6812B1D6
S11318C09A6A002AFAD17047022838B505460C46B0
S11318D003D94C210C48FEF7D9FFE37862782178CC
S11318E05B0143EA820322790B4343EA02130C228D
S11318F06A4302F190421363012902BFA278034BA9
S113190043F8252038BD00BF362F0000D0800340A7
S113191008B54FF090435A6802B960B15B680BB1E7
S1131920FFF7CAFF4FF0904130B10120074B186018
S1131930FFF7C2FFC86008BDFFF7BEFF0223CB60FC
S1131940FFF7BAFF0122024B1A60F4E704100048C3
S1131950042000484FF090435B6870B50BB1FFF76B
S1131960ABFF0121104B0679196083784578002B71
S1131970C37814BF02240024002B14BF04220022C5
S11319804379DB0043EA06132B43234313434FF00D
S113199090429360054B19600378002B14BF0B46EB
S11319A00223D36070BD00BF042000480410004827
S11319B0054B5B69C3F38512827003F03F021B0B76
S11319C042700370704700BF00C007400D4B98423F
S11319D008D1A3F50033C3F88411C36D43F0800329
S11319E0C3657047084B984204D1A3F51033C3F87C
S11319F09411F2E7054B984204BFA3F52033C3F8D2
S1131A00A411EAE70080054000C00540000006403C
S1131A1070B506460C46154622B940F286210B489D
S1131A20FEF734FF1CB90320FFF798F90446013C84
S1131A306D00B4FBF5F42402E30DDB0523B140F2A1
S1131A40A3210248FEF722FFF46170BD632F00005A
S1131A50204B10B5984204460CD003F580439842BD
S1131A6008D003F58043984204D040F22B411A4831
S1131A70FEF70CFF41F204030122E25040F6AA6390
S1131A8041F2050263610023A360E365E26042F270
S1131A90480212492361E361E364A1500D4AA3653E
S1131AA0944206D00E498C4203D001F580418C4209
S1131AB00BD19442236506D0094B9C4203D003F515
S1131AC080439C4201D10023636542F20403012256
S1131AD0E25010BD00800540632F0000FFFF0100AD
S1131AE000C0054038B52A4B044698420D460CD038
S1131AF003F58043984208D003F58043984204D00C
S1131B0040F256312348FEF7C1FE2046FFF7A0FFFE
S1131B1041F204030122A97BE2502A8AA368002926
S1131B2042F0010214BF4FF48061002113432A7D67
S1131B300B43002A14BF4FF000520022A360A36895
S1131B401343A360AB7C1BB1E97C2046FFF73EFF47
S1131B50D5E901122B7B204643F48053E360FFF761
S1131B6057FF6B7B0BB1102363616B7D1BB1A368C3
S1131B7043F48033A360AB7DEA7D1B07120503F0B9
S1131B80E04302F4E0021343A3652B78636138BD9C
S1131B9000800540632F000083695B06FCD5C163A8
S1131BA070470000044B1B681BB1044B036000200A
S1131BB070470120704700BF4419002028110020FD
S1131BC070B50D4C246884B10C4C85182688B54238
S1131BD00DDC6688CD18B54209DC52B14BB1A0804A
S1131BE00020E1802281638170BD0120FCE7042094
S1131BF0FAE70520F8E700BF441900202811002067
S1131C002DE9F04F85B000934D4B0F9E1B68002BC0
S1131C105AD04C4B4FF00109DD885A8998462A4422
S1131C2092B20292009A0D44002A14BF4FF0FF0AA8
S1131C304FF0000A4FFA8AF20192ADB21FFA85FB07
S1131C401EB9304605B0BDE8F08F029B9B453DD2DE
S1131C50B8F808403C4B241AB44228BF3446B8F8BC
S1131C60042003EB0511009B0244361B92B28BBB8C
S1131C70072C31D8144424E0D00802F007030F5C89
S1131C8009FA03F33B4301320B5492B2A242F3D359
S1131C902E4A681152F820100BF01F0309FA03F3BF
S1131CA00B4342F8203001350020C7E7D70802F083
S1131CB00700CB5D09FA00F023EA00030132CB559B
S1131CC092B2A242F2D3E3E70120BBE70420B9E7D2
S1131CD01444DBE7072CFBD94FEAD20C12F00702BD
S1131CE001EB0C0713D009FA02F3DBB211F80CE094
S1131CF0581E0EEA0000C3F1000E019B083A03EAE5
S1131D000E0E40EA0E0001F80C0001371444E308FB
S1131D100AD01A4638465146039301F096F8039BBD
S1131D20B4EBC3041F44B3D009FA04F4E4B23B781F
S1131D306242013C13400AEA04041C433C70A7E7D6
S1131D4044190020281100204411002034110020DF
S1131D5037B5114D2B68EBB9FEF796FB044610B16D
S1131D60012003B030BDFEF783FB28600028F7D0C4
S1131D7001884288094B20465A805A814A43198077
S1131D8019819C80DC802146CDE90042234622460D
S1131D90FFF736FF0020E4E7441900202811002053
S1131DA02DE9F843002301261A461A4DDFF86C800A
S1131DB02C68DFF86490D8F80000D71841888F4267
S1131DC007D3FBB910220021124801F03EF800208D
S1131DD011E0E10708D50133D118C9060ABF55F847
S1131DE0264064080136E6E753B109EB0211FEF719
S1131DF0E7FA10B10720BDE8F8837A1C0346EBE745
S1131E000132E9E7044901EB0211FEF7D9FA00288F
S1131E10D8D0EFE7341100204411002044190020E9
S1131E2030B100210268084653881288FFF7C8BE03
S1131E300520704737B50546A8B14468FFF7F0FFA1
S1131E40014668B92A6815895389C4F307426B436C
S1131E500193E3B20093C4F30723FFF7D1FE0146D5
S1131E60084603B030BD0521FAE7024658B1118A8D
S1131E70936952698089013301325B1A121A9BB249
S1131E8092B2FFF79DBE05207047F0B4D0B1C9B13E
S1131E900E688C68A64218DA4D68CA68954214DA4E
S1131EA0002E14DB002D12DB01680F88BC420EDA11
S1131EB049888A420BDAC0E90365C0E90542F0BCEF
S1131EC0FFF7D3BF0520F0BC70470420FBE70320D5
S1131ED0F9E7000030B5054687B000B300226FF083
S1131EE07F43C0E9012301A8FFF75CFE044698B9CB
S1131EF0019BCDE902001A882B605B88013A013B03
S1131F0002A9284604920593FFF7BFFF044618B9B7
S1131F100449284600F01AF9204607B030BD0524CC
S1131F20FAE700BFC432000073B50D4616460446F6
S1131F3090B10C3000F02FF880B10123A268019316
S1131F40D3B20093B1B2C2F30723A8B2C2F30742DB
S1131F50FFF756FE02B070BD0520FBE70120F9E74C
S1131F6073B50D4616461C4688B10C3000F013F8C4
S1131F7078B101230193E3B20093C4F30742C4F39D
S1131F800723B1B2A8B2FFF73BFE02B070BD052033
S1131F90FBE70120F9E778B103688B420BDC836827
S1131FA08B4208DB4368934205DCC0689042B4BFAF
S1131FB0002001207047002070472DE9F04F85B0C4
S1131FC002939DF8383093460393054600287CD04D
S1131FD0A1F120035E2B7AD890F828308CB2022B22
S1131FE01BD13A291BD020291BD0303CA4B22B8C06
S1131FF0A3426CD90027EB69DDF808800193029BAA
S113200095F82520A8EB03039BB29A420BD8B7FAA4
S113201087F0400905B0BDE8F08F203CE6E70A24CC
S1132020E5E70B24E3E795F82230012B05D0022BDA
S11320301CD0019B53F824A002E0019B13F804A0D8
S1132040D946A9EB0B0695F82430B6B2B34211D8A1
S113205095F8243095F8272013449E4225DB95F803
S1132060233008F101081C44A4B2C8E7019B33F8EB
S113207014A0E5E71AF0010F0DD042464946284660
S1132080FFF752FF0128C5D800B901374FEA5A0AB1
S113209009F10109D5E7039B002BF7D06B68424691
S11320A049462846FFF75CFFECE7039B53B16B6896
S11320B042460BEB06012846FFF752FF0128A9D838
S11320C000B901370136B6B2C2E70520A2E7022003
S11320D0A0E72DE9F74F0C9E9A469DF834B00546CB
S11320E080B379B390F8283073B30C4657464FF059
S11320F0000801EB02094C4505D1B8FA88F0400903
S113210003B0BDE8F08F14F8011B0A2907D195F834
S1132110253057461E4495F826301E44EBE7CDF88B
S113212000B033463A462846FFF747FF0128E7D870
S113213008B908F1010895F8243095F827201344CC
S11321401F44D8E70520DBE70220D9E708B520B112
S11321501C30102219B900F078FE052002E000F0CE
S113216069FE002008BD2DE9F14F0546DDE90A8B23
S11321701C46084692460F469DF8309000F06DFECE
S113218095F8256095F8262095F824301644012CFE
S113219000FB03F10AFB06B603D0022C10D0002387
S11321A003E02B681B885B1A5B0802463946284605
S11321B04344CDE90A6901B0BDE8F04FFFF789BF98
S11321C02B681C88631AF0E74FF0402213B50024F3
S11321D0536F684643F00103536700948DF804403D
S11321E0FFF740FA204602B010BD000008B50248CF
S11321F0FFF776F8002008BD00B4C40470B586B0BB
S113220001AA1546114B03F11006144618685968C3
S1132210083303C4B3422246F7D14FF6FF7219883C
S11322209B782180A3700A4B0A481B88934208BFFD
S11322308223DBB28DF80D308DF80E30FEF79AF95B
S11322402846FFF7B5F8002006B070BDF43500004D
S11322500001E00F00F049021FB50B4A01AB106802
S1132260516803C31189927A19809A70252301A8B1
S11322708DF80530FFF784F96420FFF7DDF90020BD
S113228005B05DF804FB00BF073600006FF00402E0
S1132290502110B50A480B4C12F0800FD3B21BBF6B
S11322A003F00F03043BA3181B1802F101020CBF37
S11322B083F8001319763D2AEED1002010BD00BF2B
S11322C000ED00E000E100E0104A30B51368416120
S11322D01546ABB91060836011E0091B9C6841612D
S11322E01A467CB123465C698C42F6D9002CF4D0A2
S11322F052B19060836013B15A69511A596130BD6B
S11323000022F0E72346F4E72860F3E76019002091
S113231010B500F0D3F9094B094A196831B11368B3
S1132320C41A4B69A34203D31B1B4B61106003E027
S1132330C01A002310604B6110BD00BF601900205B
S11323404C19002038B50F4D02202B685C690E4BE8
S11323501B681C4400F0EEF9204600F0BBF9002392
S11323600A492A680B70D088800702D501230B70B4
S113237038BD9268002AFBD050690344012BF2D97E
S1132380F6E700BF601900204C1900205419002002
S113239070B59DF81450164605710025049A8560A1
S11323A0BDF818500446C5800260C0E903360D46E6
S11323B029B961610BB11146984796B13546FFF7CB
S11323C048F90646FFF7A4FF29462046FFF77CFF9D
S11323D0054B1B68A34201D1FFF7B4FF3046FFF75A
S11323E03EF9002070BD00BF6019002000210C4A96
S11323F013687BB183420AD1836879B18B608368A7
S11324001BB15A6941690A445A6100207047194650
S11324109B68EEE70028EFD0022070471360EEE7D8
S11324206019002070B5FFF714F9144E054634788E
S1132430FCB9134B1C60134B1C60134B1C8000F045
S113244001F9012000F076F900F0B2F90F4B0246D1
S1132450186020B92846FFF702F9232070BD2346EF
S11324600B4840F2E73100F023FB0A4B18600123CC
S113247033702846FFF7F3F80020EFE748190020EF
S1132480601900204C190020561900205C19002006
S113249018FCFFFF501900202DE9F0410546F8B162
S11324A0FFF7D7F80F4F0646FFF732FF2846D7F855
S11324B00080FFF79BFF044628B13046FFF7CFF8B2
S11324C02046BDE8F081A8453B6803D123B1FFF75E
S11324D039FFF2E7002BF0D1022000F037F9ECE7E6
S11324E02224EDE760190020F0B50D4685B01646AC
S11324F01F46044680B1FFF7CFFFBDF82C302A46B3
S113250002939DF828302946CDE9007320463346CE
S1132510FFF73EFF05B0F0BD2220FBE7014B186832
S1132520704700BF5C190020C2072DE9F84F04462C
S11325300BD53F4A138801339BB21380FFF7E8FEA3
S11325403C4B1B680BB1FFF7FDFEA3076DD500F0F4
S1132550B5F8394F00263D688046451BFFF779F8EA
S1132560B24683463246334B1C6814B16369AB42AE
S113257014D9012E314B51D1D288022A4ED11E706A
S1132580002C4ED06369C7F800805D1B6561FFF7BE
S1132590D9FE5846BDE8F84FFFF761B823462A46EE
S11325A0C7F800805969914209D8187994F804C091
S11325B0521A844588BF1C469B68002BF2D15846AA
S11325C0FFF74DF8D4F814B0C4F814A0FFF741F89D
S11325D081462046FFF70AFF4846FFF740F8236983
S11325E04BB1FFF736F8814621692046FFF76CFEB0
S11325F04846FFF734F8E36813B12168204698474A
S113260000F05CF8D844A5EB080581460544FFF7C3
S113261020F8013683462246C846A4E700221A70F1
S1132620AEE7022000F092F8B3E7BDE8F88F00BFF0
S113263056190020601900204C1900205819002058
S1132640002070471FB50024194B18689A8802901F
S113265053F8060FADF80C201B7900908DF8043068
S11326608DF80840FFF7ECFF8DF80C0002A8FFF787
S113267071F9694601208DF80040FFF725F94FF004
S113268090431F219A6922F01F029A61094A11603E
S11326909A6A12F00802FBD11A620120FFF738F996
S11326A04FF48062044BC3F880211A6004B010BD5B
S11326B0123600001420004800E100E04FF090437F
S11326C09A6A1207FCD4186A70474FF09043186C4A
S11326D07047000010B502464FF09044A36A1907F2
S11326E0FCD4216AFFF7F1FF63691B0704D4431A82
S11326F0022B01D888420ED1531A012B98BF8A1C91
S11327004FF09043B2F1FF3F28BF01321A649A6937
S113271042F008029A61064A13783BB14FF09041A7
S1132720CB6B43F00203CB630023137010BD00BFD7
S11327301E10002082074FF0904200F001039169BF
S113274048BF43F008030B4393617047830700F0CD
S113275001020AD50121084B42F0080219704FF01A
S11327609041CB6B23F00303CB634FF090418B6913
S113277023EA02038B6170471E10002010B5FEF798
S113278068FF4FF0904304465B691A07074A03F059
S1132790010003F00D0348BF40F002001360FFF78F
S11327A0C3FE2046BDE81040FEF759BF1420004880
S11327B008B51C20FEF7D2FA0346FFF741FF23FABF
S11327C000F008BD08B500F059F800F0B7F800F0C3
S11327D0B7F800F0B7F8BDE8084000F0B4B808B5A1
S11327E000F0B2F800F0B1F800F0B0F8BDE808402D
S11327F000F0ADB810B50446FDF7A0FE4FF47A73AF
S1132800B0FBF3F05C43074BB3FBF0F0B4FBF0F424
S11328100320B4FBF0F018B1BDE8104000F008B894
S113282010BD00BF40420F00000000000000000087
S1132830013800D0FCE7704700F0A2B800F004B9FA
S1132840FDF7DBBC08B504210020FEF7D7FB072108
S11328500846FEF7D3FB07210820FEF7CFFB07212C
S11328601C20FEF7CBFB07212420FEF7C7FB072122
S11328702520FEF7C3FB002008BD000007B501A812
S1132880FFF796F8254B9B6DDB0318D4244A136895
S113289023F4FF0323F4FE4343F4BC1343F4A06383
S11328A0136052F8043C23F4704343F4404342F869
S11328B0043C52F8043C43F4E06342F8043C9DF8C1
S11328C00530012B0FD19DF8043063B94FF000534C
S11328D01B68144B1B68144B1B68144B1B68144B6C
S11328E01B68144B1B68144AD2F8803043F003036E
S11328F0C2F88030FFF7CAFCFDF78CFCFFF776FCCA
S1132900FFF77CFCFFF7A8FCFFF79CFFFFF75CFCDC
S1132910FDF77EFC03B05DF804FB00BF00C000407F
S113292034C00040004000200080002000C000208F
S113293000000120004001200080004000F008B8A1
S1132940FFF770BD70477047704770477047704716
S113295008B50448FDF774FEBDE808400248FDF7D9
S11329606FBE00BF203600003836000008B5FFF700
S113297029FFFFF761FFFFF732FFFFF75FFFFAE779
S11329802DE9FF41FDF742FC18B138212748FDF736
S11329907DFF0020FFF7DCF918B13C212348FDF747
S11329A075FF2348FFF796FA18B140211F48FDF739
S11329B06DFF00276FF07F4305254FF001081C4C85
S11329C01C4E2046C4E90137FFF734FA1A49204661
S11329D0FFF7BCFB3268CDE90158531C3360009506
S11329E03B46D2B215492046FFF7BDFB3268CDE91C
S11329F0015802EB0803336000953B46D2B21049FC
S1132A002046FFF7B0FB3268CDE9015802EB08031A
S1132A10336000953B46D2B20A492046FFF7A3FB38
S1132A2004B0BDE8F041FFF7BBB900BF5036000069
S1132A306819002064190020942F00005D360000FE
S1132A406F36000084360000704700001FB504464E
S1132A50FDF7FCFD01281FD1104B9C420AD1002236
S1132A600F4B10481A60FFF7E5F904B0BDE81040B9
S1132A70FFF796B90C4B9C42F7D1094B1A68511CCD
S1132A80196005230290CDE90033D2B2002307492F
S1132A900448FFF768FBE8E704B010BD20360000E7
S1132AA064190020681900203836000099360000A7
S1132AB053B94AB9002908BF00281CBF4FF0FF31A1
S1132AC04FF0FF3000F07CB9ADF1080C6DE904CE95
S1132AD000F006F8DDF804E0DDE9022304B07047F5
S1132AE02DE9F0478C46089D04468A46002B4AD1BE
S1132AF08A42174662D9B2FA82F64EB1C6F1200E66
S1132B0001FA06F3B740B44020FA0EFE4EEA030A77
S1132B104FEA1748230C1FFA87F9BAFBF8FE08FBA3
S1132B201EAA0EFB09F243EA0A439A420BD9FB1888
S1132B300EF1FF312CBF012000209A4202D9002857
S1132B4000F02A818E469A1AA3B2B2FBF8F008FB71
S1132B50102200FB09F943EA0244A14507D93C19B4
S1132B6000F1FF3302D2A14500F210811846A4EB14
S1132B70090440EA0E4000211DB1F4400023C5E9D8
S1132B800043BDE8F0878B4208D9002D00F0F280A5
S1132B900021C5E9000C0846BDE8F087B3FA83F1CB
S1132BA000294ED16345C0F0E880824240F2E580BE
S1132BB00846002DE5D0C5E9004AE2E702B9FFDE88
S1132BC0B2FA82F6002E40F099808B1A4FEA124E28
S1132BD01FFA82F801214FEA144CB3FBFEF20EFBFC
S1132BE0123008FB02F94CEA004CE14508D917EB16
S1132BF00C0C02F1FF3302D2E14500F2CA801A46FE
S1132C00ACEB090CA3B2BCFBFEF00EFB10CC08FB32
S1132C1000F843EA0C44A0450ED93C1900F1FF33F7
S1132C202CBF4FF0010C4FF0000CA04503D9BCF1B0
S1132C30000F00F0A8801846A4EB080440EA024004
S1132C409AE7C1F120048B4002FA01FE0CFA01F666
S1132C50E24020FA04F72CFA04FC00FA01F81343CA
S1132C603E431F0C320C1FFA83F9BCFBF7F007FB41
S1132C7010CC00FB09FA42EA0C4CE24508D913EBEC
S1132C800C0C00F1FF3202D2E24500F289801046BA
S1132C90ACEB0A0CB6B2BCFBF7FA07FB1ACC0AFB86
S1132CA009F946EA0C42914506D99A180AF1FF3609
S1132CB001D291457AD8B2464AEA0040A2EB090211
S1132CC0A0FB0E67BA42B446B94602D307D1B04559
S1132CD005D2B6EB0E0C67EB030301389946002DC1
S1132CE06BD0B8EB0C0362EB090202FA04F4CB409C
S1132CF0CA4000211C43C5E9004242E7B740C6F17F
S1132D00200201FA06F3B44021FA02FC4FEA174EFE
S1132D1020FA02F21FFA87F8BCFBFEF11A430EFBFD
S1132D2011CC01FB08F0130C43EA0C4C604507D9A5
S1132D3017EB0C0C01F1FF3301D2604533D819466F
S1132D40ACEB000C92B2BCFBFEF00EFB10CC00FB13
S1132D5008F342EA0C4C634507D917EB0C0C00F15D
S1132D60FF3201D2634525D81046ACEB030340EA99
S1132D70014130E72946284603E7841A6CEB030334
S1132D8001209A4615E702383C4455E702383C4492
S1132D90EDE6023ABC4433E7AEF1020E3B44D2E620
S1132DA002389C4474E70239BC44C9E7AAF1020A18
S1132DB01A4481E70238BC44D7E72946E1E600BF5C
S1132DC0704700BF08B5074B044613B1002100E06B
S1132DD000BF054B1868836A03B19847204600F08A
S1132DE045F800BF00000000A836000070B50D4E85
S1132DF000250D4CA41BA410A54209D10B4E00259F
S1132E000B4C00F035F8A41BA410A54205D170BDED
S1132E1056F8253001359847EEE756F82530013548
S1132E209847F2E79810002098100020981000208E
S1132E309C100020431E0A4410B5914200D110BDDD
S1132E4011F8014B03F8014FF7E70244034693429C
S1132E5000D1704703F8011BF9E7034613F8012B6F
S1132E60002AFBD1181A013870470000FEE700BFA2
S1132E70F8B500BFF8BC08BC9E467047F8B500BF63
S1132E80F8BC08BC9E467047050000000000000026
S1132E9040420F0005010000000000000000000097
S1132EA08000800001010000E0C810003C06020020
S1132EB06765636B6F5F73646B5F332E312E312FE5
S1132EC0706C6174666F726D2F656D6C69622F69C9
S1132ED06E632F656D5F6770696F2E680067656349
S1132EE06B6F5F73646B5F332E312E312F706C61A7
S1132EF074666F726D2F656D6C69622F7372632FC8
S1132F00656D5F636D752E63006765636B6F5F73DB
S1132F10646B5F332E312E312F706C6174666F7267
S1132F206D2F656D6C69622F7372632F656D5F67BA
S1132F3070696F2E63006765636B6F5F73646B5FAB
S1132F40332E312E312F706C6174666F726D2F6564
S1132F506D6C69622F7372632F656D5F7274636346
S1132F602E63006765636B6F5F73646B5F332E3131
S1132F702E312F706C6174666F726D2F656D6C6984
S1132F80622F7372632F656D5F75736172742E6344
S1132F9000000000A42F00002003016406080200C2
S1132FA00100000000040A0A0403060608020000E7
S1132FB0000000000E040E1F081F0C1F0E0E000060
S1132FC01000010E0E0E0F0E071F1F0E110E1C1106
S1132FD00111110E0F0E0F1E1F11111111111F0ED1
S1132FE0000E04000200010010000C00010408019E
S1132FF00600000000000000020000000000000CB9
S1133000040600000000000000040A0A1E1309045C
S11330100404040400000000110611080C0102104D
S113302011110606080002111011111109010111F4
S113303011040809011B11111111110104111111BD
S11330401111100200080A00040001001000121EF1
S11330500100000104000000000000000200000064
S113306000000002040802000000000000040A1F1F
S113307001080502020815040000001019041004D8
S11330800A0F010811110606041F04101011110182
S11330901101010111040805011513111111110188
S11330A0041111110A11080201081100080E0D0E75
S11330B0160E02110D060C09040B0D0E0F160D0E43
S11330C00711111111111F0204081500000000005E
S11330D00004000A0E04020002080E1F001F00086C
S11330E01504080809100F040E1E00000200080849
S11330F016110F01110F0F1D1F04080301151511DF
S11331000F110F0E04111115040A04020208000025
S113311000101301191107111304080504151311E4
S113312011191301021111110A11080104100800E8
S1133130000000000000001F100215000208150422
S113314006000004130404101F10110211100606D7
S1133150041F0404151F11011101011111040805B4
S11331600111191101150510041111150A040202A7
S113317004080000001E1101111F021E110408039F
S1133180041511110F1E010E02111115041E040263
S113319004080000000000000000000A0F190900E4
S11331A004040404040006021104021108111102AB
S11331B0110806040800020015111111090101117A
S11331C011040909011111110109091004110A1549
S11331D0110401020808000000111111110102106C
S11331E011040905041111110110011012190A1515
S11331F00A10020204080000000000000004000A93
S11332000418160008020000020006010E0E1F0E2C
S1133210080E0E020E060002100001040E110F0E1D
S1133220071F010E110E06111F11110E0116110FA9
S1133230040E040A11041F0E100E001F001E0F0EB0
S11332401E0E020E110E06090E11110E0110010FB1
S11332500C16040A110E1F0C0406000000000000E6
S1133260000000000000000000000000000000005A
S1133270000000000000000000000000000000004A
S1133280000000000000000000000000000000003A
S1133290000000000000000000000000000000002A
S11332A0000000000000000000000000000000001A
S11332B0000000000000000000000000000000000A
S11332C000000000D432000020030164080802005A
S11332D00100000000186C6C10CE3808600C00006F
S11332E0000000007C307C7CC6FE7CFE7C7C000000
S11332F070001C7C7C7C7E7C7EFEFE7CC63C78C69A
S113330006C6C67C7E7C7E7C7EC6C6C6C6C6FE7CE1
S1133310007C10000C000600600038000600000667
S11333200C0000000000000000000000000000305D
S113333018188C000000000000186CFEFC6A2C18A1
S113334030186C18000000C0C638C6C6C606C6C011
S1133350C6C61818387C38C6C6C6C6C6C60606C64B
S1133360C618306606EECEC6C6C6C6C618C6C6C6DB
S1133370C6C6C00C066038000C00060060000C00D5
S1133380061830060C0000000000000018000000C1
S1133390000000181830D60000000000001848FE95
S11333A0162E2C181830381800000060C63060C083
S11333B0C6060660C6C618181C7C70C6F6C6C606C5
S11333C0C6060606C618303606FEDEC6C6C6C606DD
S11333D018C6C6C66CC6600C0C606C00043C3E3C4F
S11333E07C3C3C3C3E0000660C6E3E3C3E3C363C25
S11333F0186666C666667E18183062000000000013
S11334000018006C7C10DC001830FE7E1C7E00303E
S1133410C6303070FE7E7E307CFC00000E00E07012
S1133420F6FE7E06C61E1EF6FE18301E06D6F6C62C
S11334307EC67E7C18C6C6D638FC300C1860C60022
S11334400060660666660C66661830360CD66666DC
S113345066666E067C6666C63C66300C00600000DC
S113346000000000000000FED0E866001830387E3E
S11334701C7E1C18C63018C0C0C0C618C6C0181898
S11334801C7C703076C6C606C60606C6C61830361C
S113349006C6E6C606B6C6C018C6C6FE6CC0180C7C
S11334A030600000007C6606667E0C7C6618301E68
S11334B00CD666663E56063C186666D6187C181806
S11334C01830000000000000001800FE7EAC66000A
S11334D030186C1818001C0CC6300CC6C0C6C60CBC
S11334E0C6C61818387C380006C6C6C6C60606C640
S11334F0C618366606C6C6C60666C6C618C66CEEC6
S1133500C6C00C0C606000FE0066660666060C60B1
S1133510661836360CC666660626066018663CD6FD
S11335203C600C1818300000000000000018006C0B
S113353010E6DC00600C00180C001C067C78FE7C95
S1133540C07C7C067C7C000C70001C307CC67E7CBD
S11335507EFE06FCC63C1CC6FEC6C67C06DCC67CDB
S1133560187C38C6C67EFE7CC07C00FE007C3E3CD7
S11335707C3C0C3E66701C6638C6663C065C063EA7
S1133580707C18FC663E7E301818000000000000B5
S11335900000000000000000000000000000000027
S11335A00000000000000000000000000000000017
S11335B00000000000000000000000000000000007
S11335C000000000000000000000000000000000F7
S11335D000000000000000000000000000000000E7
S11335E000000000000000000000000000000000D7
S11335F0000000000B0B020000202000038C8C3C18
S1133600000000000000000126040000010000008A
S11336100000010000000500020000030002000099
S113362020100020F10600003D07000041070000C3
S113363097070000A707000028100020F1060000EB
S11336403D0700004107000097070000A70700009E
S11336506D656D6C63645F6170702E63004D454DE4
S11336604C43442053616D706C65204170700020A0
S113367050726573732042544E3020746F20636C13
S1133680656172002050726573732042544E31207C
S1133690746F207072696E740048656C6C6F20578B
S10F36A06F726C642100000038100020E0
S10B36ACC8CAFF7F0100000001
S11336B400000640230200FFFF020200C0EA2101C9
S11336C4C0EA210100F0490200800000FFFF01006C
S11336D400000000010002000000000001010200DB
S11336E4203600003836000000000000000000000E
S11336F400000000000000000000000000000000C2
S113370400000000000000000000000000000000B1
S113371400000000000000000000000000000000A1
S11337240000000000000000000000000000000091
S11337340000000000000000000000000000000081
S113374400000000000000005901000035010000E1
S90304A94F
