S02300006275696C642F64656275672F6D656D6C63645F626172656D6574616C2E733337DE
S113000000040020ED030000E9030000E903000000
S1130010E9030000E9030000E9030000E90300002C
S1130020E9030000E9030000E9030000E90300001C
S1130030E9030000E9030000E9030000E90300000C
S1130040E903000059070000E9030000E903000088
S1130050E9030000E903000079070000E903000058
S1130060E9030000E9030000E9030000E9030000DC
S1130070FD1F0000E9030000E9030000E90300009C
S1130080E9030000E9030000E903000010B5064C91
S11300902378002B07D1054B002B02D0044800E045
S11300A000BF0123237010BDA00400200000000045
S11300B0EC2E0000044B10B5002B03D00349044878
S11300C000E000BF10BDC04600000000A4040020F2
S11300D0EC2E0000164B002B00D1144B9D46402201
S11300E092029A1A924600218B460F461348144AEC
S11300F0121A02F0CAFA0F4B002B00D098470E4B8D
S1130100002B00D098470020002104000D000D486A
S1130110002802D00C4800E000BF02F089FA200059
S1130120290002F02DF802F06DFAC0460000080024
S1130130000400200000000000000000A0040020D3
S11301409C0D0020000000000000000010B50123F9
S113015004220A21002001F02BF8002001230422AC
S1130160082101F025F8002010BD000010B5012180
S1130170024800F09DFC01F0B7FF10BD00720400BE
S113018010B50121014800F093FC10BD0072040079
S1130190F0B589B002AD01922A000400154B0F009E
S11301A043CB43C243CB43C201211348266800F02A
S11301B07FFC6068012100F07BFC617B207B0023D5
S11301C0042200F0F5FF617A207A0422002300F073
S11301D0EFFF6B469B88300029002B82AF6001F053
S11301E0CFF80A230020A27B12021343736509B0DF
S11301F0F0BDC046C42600000072040070B50C00B7
S113020006688D18AC4201D1002070BD2178300001
S113021001F0FCF80134F5E7202301680A691A4269
S1130220FCD0704713B5040001F0B0FD217B4900F8
S113023002F050F801230193002301000093024AC5
S1130240024801F085FD16BD51020000BC040020E7
S11302508022024BD2001A607047C046A86000405A
S1130260F7B50E4C802523002D01A0331D60060038
S1130270407B01F015FF6B46991D0423084F0222B1
S113028038000B80FFF7BAFF3800FFF7C5FFA4342E
S1130290B07B01F005FF25600020FEBD006000403A
S11302A00004002070B504000121134800F000FC94
S11302B0A16800221148FFF76BFF042200231000FD
S11302C00B2100F075FF0422002310000A2100F026
S11302D06FFF21000A4B25C925C31A000B682000B3
S11302E013600122074B1A70FFF79CFF2000FFF7F1
S11302F0B7FF002070BDC046007204000004002057
S1130300D8040020D4040020F0B585B0019303790B
S113031014000288050053438022DB100093214B14
S113032012011A60407B0F0001F0BAFE02AB991D66
S113033001230134A4B2220213431B4802220B807E
S11303400026FFF75BFF01342402A4B2019B164888
S11303509E420BD1FFF760FFA87B01F0A1FE802233
S11303600020124B12011A6005B0F0BD3900009A4A
S1130370FFF744FF009B02AAFF18019B911D013B5C
S1130380B3420BD101235B42013402220648FF34FD
S11303900B800136FFF732FFA4B2D7E7FF232343D4
S11303A0F2E7C046A060004000040020A4600040C2
S11303B0034B04481B785A1E93415B421840704714
S11303C0D4040020D804002030B585B0684602006B
S11303D0044B32CB32C21B681360FFF763FF05B0D6
S11303E030BDC046DC260000FEE7000070B500F01A
S11303F081F8002305480649064CC218914201D8E9
S1130400FFF768FEE55804331560F6E700040020A2
S1130410A0040020F42E00000048704700366E014E
S1130420F0211D4A8901D36A0B40802149018B4286
S11304302FD0802189018B4205D0802109018B4274
S113044004D1164B00E0164B18687047D368E022BD
S1130450D200134080229200934214D007D8002B7C
S113046015D0013AFF3A93420FD00020EDE7C022A5
S11304709200934205D00132FF329342F5D10948EC
S1130480E3E70948E1E70948DFE70948DDE7094808
S1130490DBE780200002D8E700800C401404002031
S11304A018040020406F4001809FD500C0D8A700E9
S11304B040B56400804F120010B5FFF7B1FF0F2262
S11304C0034B5B681340D840024B186010BDC04614
S11304D000800C4010040020044B10B51860044B3D
S11304E0DB6A1B0501D5FFF7E7FF10BD14040020EC
S11304F000800C40014A024B9A60704700000000E3
S113050000ED00E0802000027047FA208000704770
S1130510014B18687047C046180400204368020065
S113052010B52220002B01D01068984710BD8368B5
S1130530020010B5FF20002B01D01068984710BDB1
S113054070B504000D0000281BD001281BD0022820
S11305501BD003281BD004281BD03F23052800D020
S113056000232B41DB0703D40B490C4800F014F99A
S113057024235C430A4BE41820680123E840184014
S113058070BD084BEDE7084BEBE7084BE9E7084B78
S1130590E7E7084BE5E7C046B2030000EC2600009D
S11305A01C6000407FF70000F8790000FFFF0000A6
S11305B0FF010000F0FF00000E4B0100187800233B
S11305C070B50D4DDAB2904211D99E00AA59146843
S11305D062798A420CD12278022A09D02079FFF765
S11305E0AFFF434258412070A85901F03BFE70BD53
S11305F00133E7E75F2E00003004002013B5040048
S11306000121114800F054FA002361792079012274
S113061000F0CEFD61792079FFF792FF4342584103
S1130620A3792070022B0DD100F07CF86079074982
S113063000F084F8012361792079019300930A0082
S113064000F03EFD002016BD00720400B905000054
S113065000787047037810B50400022B14D0417958
S11306600079FFF76DFFA279012A14D14023618834
S11306705B4249000B43411E88419BB21843094B1E
S1130680984202D12270608010BD074B9842FAD183
S113069000232370F7E7002AF6D143425841207023
S11306A0F2E7C046E0FF0000DFFF0000037810B56A
S11306B0022B03D100234380FFF7A0FF10BD037872
S11306C013B50400022B10D08379022B0BD140798F
S11306D0002100F033F8002361792079019300931D
S11306E00A0000F0EDFC0223237013BD70B5040072
S11306F00125002C00D170BD230000202B4203D122
S113070001305B082028F9D12B0083409C43044B23
S11307108200D358002BECD0C0B29847E9E7C0461A
S1130720E8040020C0214022034B49005A501A60BB
S11307303E3A5A501A60704700E100E070B5040078
S11307400D0000F041FC034BA400E55000F040FC18
S113075070BDC046E8040020054B10B55A6998697D
S11307601040044A10401862FFF7C0FF10BDC04695
S1130770FC60004055550000054B10B55A69986956
S11307801040044A10401862FFF7B0FF10BDC04685
S1130790FC600040AAAA0000FEE701238340180081
S11307A070470000074B421E10B504009A4203D95B
S11307B005490648FFF7F0FF200001F017FE1F234C
S11307C0181A10BDFF7F0000DE0B0000192700007F
S11307D0094B0A4A10B500215C68904205D9084AC1
S11307E00131904201D90631214007205A688243E1
S11307F00A435A6010BDC04600000C400024F400B7
S11308000048E80170B5064B064CE56BE363FFF75F
S113081003FEFFF7DDFF002D01D00023E36370BD6D
S1130820711B000000000C40034B5A6DD20702D428
S11308301A6D0242FCD1704700800C40E0228021F6
S11308401A4BD2005B6910B5134089008B4221D04A
S11308500BD8002B11D080225200934224D014488C
S11308601449FFF799FF002008E0C02189008B425A
S113087005D09342F3D1104800E0104810BD122077
S11308800F4BDB6C1B0E984280410E4B18400E4BF5
S1130890C018F3E712200A4BDB6C1B0E9842804110
S11308A00A4B18400A4BF3E70A48E7E700800C407C
S11308B045270000B2100000406F4001809FD50022
S11308C0B081E00F400D030040420F0080E5F9FFC6
S11308D0C0CF6A00C0D8A70070B5054C054BE56BC6
S11308E0E363FFF775FF002D01D00023E36370BDC0
S11308F000000C40711B000003000006000F0438C8
S113090010B509282BD801F0DBFC052A2A0A152189
S11309102A2A2A0D134B98680F23184007E0114B1D
S11309205868F9E70F4B5868C005C00F0130FFF74E
S113093034FF10BD0C4A934202D10A4B986EEBE788
S11309400A490B48FFF728FF0120F2E7094A9342BE
S113095003D1044B186F0323DFE70749F1E7074985
S1130960EFE7C04600800C408006120046160000E7
S11309704527000090071A005F1600006616000065
S113098003000006000F043810B50C00092800D934
S113099072E001F095FC057171233C597171711776
S11309A0364A4B1E934203D935493648FFF7F4FEC5
S11309B02000FFF7F7FE0F21334A93688B43184357
S11309C0906010BD0800FFF7EDFE2F4A2F495368D1
S11309D0013800020B4018435060F2E7274A4B1ECF
S11309E0934203D92A492748FFF7D6FEFFF70AFFA7
S11309F02000FFF7D7FE0F21234A53688B43184387
S1130A005060FFF759FD0021FFF766FFD9E7214A3F
S1130A10934214D180231B02994203D91E491948D9
S1130A20FFF7BAFE0420FFF7FFFE2000FFF7BAFE2F
S1130A300F21154A936E8B4318439066C1E71749FB
S1130A401048FFF7A9FEBCE7154A934212D10829C2
S1130A5003D914490B48FFF79FFE4020FFF7E4FE3B
S1130A602000FFF79FFE0321074A136F8B431843AF
S1130A701067A6E70C49E3E70C49E1E7FF01000032
S1130A80A61600004527000000800C40FFFEFFFF73
S1130A90BC16000080061200DA16000015170000CC
S1130AA090071A001E1700003B17000041170000B2
S1130AB070B505000005000F01380E0009281FD885
S1130AC001F0FEFB0526231E1E15181E1E1B00200A
S1130AD0114CED03ED0E002801D0FFF7A5FE012215
S1130AE0AA40AE40236893431E4326600CE00120D5
S1130AF00A4CEEE710200A4CEBE70020094CE8E72B
S1130B0009490A48FFF748FE70BD0020084CE0E799
S1130B100020084CDDE7C04608800C4058800C409B
S1130B2060800C4078800C40C71700004527000007
S1130B3040800C4044800C400F231840013810B50D
S1130B4005283ED801F0BCFB03182B3D3D43F020A3
S1130B508022204B8001DB6A520103400320934230
S1130B6009D0802201389201934204D01A4A9B187A
S1130B70581E8341181D10BD0321164A936A0B4069
S1130B801800022BF7D006208B42F4D00800012B6A
S1130B90F1D0936A0238DB03EDD50930EBE70C2181
S1130BA00C4A0220936A0B40082BE4D004308B4299
S1130BB0E1D00338042BDED0936A0238DB02DAD5A5
S1130BC0EBE706480649FFF7E7FD0020D3E70720D7
S1130BD0D1E7C04600800C4000F8FFFF4527000025
S1130BE0171D000070B5254E0500B04206D0244BF9
S1130BF0984203D023492448FFF7CEFD2800FFF78D
S1130C009BFFB54208D01E4B9D4210D004001F49E3
S1130C101D48FFF7C1FD03E003201D4B9C6A0440FF
S1130C20032C25D8200001F04BFB13070C0F184BA5
S1130C309C6A2407A40FF3E7FFF764FC0400200078
S1130C4070BDFFF765FCF9E7FFF736FC4408F6E7EB
S1130C50B54202D00A4B9D42F1D10D4B10229B6A42
S1130C60B54200D00432D340E9D0FFF74EFCE5E7AB
S1130C7008490548FFF790FD0024E0E702001E0044
S1130C80030020002A130000452700005913000028
S1130C9000800C4084130000F8220300802192039A
S1130CA070B51340040049038B425DD01AD88022EA
S1130CB09202934243D003D8002B10D02C494EE02B
S1130CC08022D202934232D0E02212039342F5D121
S1130CD02848FFF731FF072846D009283ED1FFF7FF
S1130CE09FFB2EE0F02149038B422BD00ED890229B
S1130CF0520393422AD0D02252039342DED11E489B
S1130D00FFF770FF1D4B03221B6F15E08021890341
S1130D108B4221D09342D1D1FFF7CEFB05002000B6
S1130D20FFF7EAFD0100280001F0D4FA09E0FFF71B
S1130D3077FB124B9B680F221340D84001E0FFF76A
S1130D40BBFB70BD0E48FFF74DFFFAE70C48FFF7F9
S1130D5049FF0A4B9B6EEEE70748F4E709490A4846
S1130D60FFF71AFD0020ECE7FFF768FDE9E7C0464E
S1130D70F718000006000E000300200000800C405D
S1130D8002001E00EC1000004527000010B504000E
S1130D900120FFF7D1FE042803D10C490C48FFF7CA
S1130DA0FBFC08230B490C4A0B620B681340E278E6
S1130DB01343627852021343227892001343A278B9
S1130DC0501E8241D20113430B6010BDFF2200006C
S1130DD04527000000800C4070F9FFFF70B5060045
S1130DE00120FFF7A9FE022803D10E490E48FFF7A0
S1130DF0D3FC80230D4D9B002B6233787278B4783A
S1130E009B079204DB0FE4025B0314431C4300F0D2
S1130E10D3F82B68064A5C4014405C402C6000F018
S1130E20CFF870BDBD2300004527000000800C40B2
S1130E3000380C00014B18807047C0461C04002089
S1130E4070B504281ED801F03BFA171303222600BC
S1130E50082004230324134D002920D02B62002AE8
S1130E6014D00123A34010490A681A42FCD00DE0B3
S1130E70802040230724EEE78020802380005B004D
S1130E800924E8E709490A48FFF786FC70BD0123F5
S1130E9002201C00DFE7202010230524DBE7286262
S1130EA0F4E7C04600800C402C800C406424000011
S1130EB04527000010B50F240440012C05D0002C58
S1130EC001D0032C2BD933491DE0881E08281ED8D5
S1130ED001F0F6F91F0522151D1D1D1D1800012026
S1130EE0032401221100FFF7ABFFFFF78BFC2A4B11
S1130EF05C62FFF7E1FA0021FFF7EEFC10BD03206E
S1130F000124EEE725492648FFF746FCF6E7254984
S1130F10F9E700200424E4E702200400E1E7481E86
S1130F2009282BD801F0CCF92C121A2A2A222A2AB1
S1130F302A05012200231849886A022C23D11A4C5D
S1130F4012042040034313438B62D7E7012200209D
S1130F501100FFF775FF00220223ECE701221100C4
S1130F601000FFF76DFF00220123E4E704210F4A7C
S1130F7013680B43136000220323DCE70C49C2E728
S1130F8000221300D7E712059B001343094A0240CD
S1130F90D9E7C0461620000000800C40D81D000090
S1130FA045270000DD1D0000FCFFFEFF40800C40D3
S1130FB0861E0000F3FFEFFFEFF3108072B6704758
S1130FC0002800D162B67047EFF3108072B6704704
S1130FD010B5FFF7F5FF10BD70B504000D00002833
S1130FE01BD001281BD002281BD003281BD00428A7
S1130FF01BD03F23052800D000232B41DB0704D45A
S113100082210B48C900FFF7C7FB01222423AA4011
S11310105C43084BE418226170BD074BEDE7074BB6
S1131020EBE7074BE9E7074BE7E7074BE5E7C04684
S1131030EC260000006000407FF70000F879000013
S1131040FFFF0000FF010000F0FF000070B5040086
S11310500D0000281AD001281AD002281AD003281B
S11310601AD004281AD03F23052800D000232B418E
S1131070DB0703D40A490B48FFF78EFB0122242324
S1131080AA405C43084BE418626170BD074BEEE76D
S1131090074BECE7074BEAE7074BE8E7074BE6E7C4
S11310A0E1030000EC260000006000407FF7000030
S11310B0F8790000FFFF0000FF010000F0FF0000CE
S11310C0F7B51F0008AB1B780400009309AB1B782D
S11310D01500019300283DD001283DD002283DD0C1
S11310E003283DD004283DD00023052800D13F33F8
S11310F00B41DB0703D4BF212148FFF74DFB072D2C
S113110032D8AE00B440FFF757FF21000724B440A3
S11311101C4B1A6851400C4054401C60FFF750FFB0
S11311200121A940CB43AF40009C1748AC40026862
S11311301A4017430760154802681A4022430260A8
S1131140134A116213490A681340019AAA401343CF
S11311500B60F7BD104BCBE7104BC9E7104BC7E74B
S1131160104BC5E7104BC3E72E00083EB600FFF74F
S113117023FFB44007210D4BB1401A685440CAE71D
S11311807127000000610040086100400C610040CC
S1131190FC600040106100407FF70000F879000017
S11311A0FFFF0000FF010000F0FF000004610040A9
S11311B0F8B504000D0016001F00002833D00128E4
S11311C033D0022833D0032833D0042833D000236B
S11311D0052800D13F332B41DB0704D41E212048CE
S11311E0FF31FFF7D9FA002E05D029002000002F87
S11311F023D0FFF7F1FE242363431A4A9B18072DDB
S11312001ED80F21A80081405A688A4331008140CA
S11312100A435A60002E05D129002000002F1BD05C
S1131220FFF7DAFEF8BD104BD5E7104BD3E7104BB0
S1131230D1E7104BCFE7104BCDE7FFF707FFDAE715
S11312400F200E499A68691889008840824330004B
S1131250884002439A60DDE7FFF7F8FEE2E7C04604
S113126071270000006000407FF70000F87900005B
S1131270FFFF0000FF010000F0FF0000F8FFFF3F48
S113128070B504000D00012803D9A4210848FFF714
S113129083FA2B0E03D0A9210548FFF77DFA002C11
S11312A004D0012C01D1034B1D6070BD024BFBE740
S11312B09E2700000C00084008000840427803788C
S11312C0002A01D0022213438278002A01D004228A
S11312D01343014A136070470000084070B50500CD
S11312E00C00161E03D10C490C48FFF755FA002CCC
S11312F003D10B48FFF7D0FC0400601E710000F01E
S1131300E9FF084B04021C4203D007490348FFF7D6
S113131043FA6C6170BDC04686020000CA27000013
S1131320408104003F00E0FFA302000070B50E4DB1
S11313300400A84203D00D490D48FFF72DFA0D4BC8
S11313400D4AE3600023236062600C4AA36063617A
S1131350E364A2646365AC4200D12365A365AC4237
S113136000D1E36570BDC04600C400402B040000FA
S1131370CA270000AA0E000005100000F91F000093
S11313801F4B70B504000D00984203D01D491E4840
S1131390FFF702FA2000FFF7C9FF01212A8A236818
S11313A01143AA7B0B43501E8241920213432360D4
S11313B02B7D2268591E8B415B0713432360AB7C52
S11313C0002B03D01023EA7C1343A36580232A7BDC
S11313D05B0113436360AA6869682000FFF77EFF1E
S11313E06B7B002B01D01023E3606B7D002B04D0BA
S11313F0802322685B02134323602B78E36070BD73
S113140000C4004056030000CA27000040230269BC
S11314101A42FCD041637047044B1A680123002A26
S113142002D0034B0360002318007047440D0020D2
S113143028050020F0B506000C4804680120002CA3
S113144013D00B4CB51827880330BD420DDC6788D8
S1131450CD18BD4209DC0130002A06D0002B04D08F
S11314600020A680E18022816381F0BD440D00202C
S113147028050020F0B587B002934D4B05001B688A
S11314800120002B16D04B4A0126D38852899A1882
S113149092B20592029A5B1850424241013AD0B28C
S11314A052B2019003929FB2BBB200930D9B002BEA
S11314B002D1180007B0F0BD009B059A934242D2B6
S11314C03C4B0D9A1C89641B944200D914000D9A5C
S11314D0121B0D929888029A374B28183D0180B24E
S11314E0EB18002A33D1072C33D8041928E007213C
S11314F0350001408D402900C2089A181578013042
S11315002943117080B2A042F1D31F2200987B11AD
S11315101040020030009040020028499B005858B7
S1131520013702435A500025BEE707213500014028
S11315308D40C2089A1811780130A943117080B205
S1131540A042F2D3E1E70420B4E70419DBE7072C57
S1131550FBD90722C50802405D19002A0DD03300CB
S113156093402878DBB2591E014003985B42034044
S11315700B43083A2B70A4180135E30804930BD0ED
S11315801A002800019901F080F8E308DB00E41A4E
S1131590049BED18002CB8D03300A3402978DBB2AB
S11315A05A420A400199013B0B4013432B70ACE7AC
S11315B0440D0020280500204405002034050020A7
S11315C037B50024114D2B68A34204D1FEF7FCFE6D
S11315D0A04202D0012420003EBDFEF7E9FE2860AF
S11315E00028F7D001880A4B198042889C805A80D1
S11315F05A814A43DC80198120000192009423001F
S113160022002100FFF736FFE5E7C046440D002025
S113161028050020F8B5002301251A001B4E346864
S11316201B49D718086841888F4208D3002B24D15E
S113163010220021300001F028F8002017E00121D9
S11316400C4209D05B181F20D11864080142E7D16D
S1131650A90074580135E3E7002B0CD011018C4626
S11316600C496144FEF750FE002801D00720F8BD64
S11316707A1C0300E7E70132E5E7064C110109197A
S1131680FEF742FE0028D3D0F0E7C0463405002020
S1131690440D002044050020030010B50520002B54
S11316A006D000211A68080053881288FFF7C2FE8A
S11316B010BD73B505000520002D13D028006C68FB
S11316C0FFF7EAFF00280DD12D68230A2E896989C6
S11316D0220C7143E4B20191DBB2D2B20094010056
S11316E0FFF7C8FE76BD020010B50520002A0DD014
S11316F0D36898B2136999B293695269013301327C
S11317005B1A121A9BB292B2FFF794FE10BDF8B5A1
S1131710052300281DD000291BD00E688C68013BCE
S1131720A64216DA4D68CA68954212DA013B002EC9
S11317300FDB002D0DDB01680F88BC4209DA4988F4
S11317408A4206DAC660056144618261FFF7CBFF15
S113175003001800F8BD000030B5050087B005246B
S113176000281CD0002343600E4B836001A8FFF7C0
S113177053FE041E13D1019B02901A880390013A70
S11317802B6004925B8802A9013B28000593FFF7B4
S1131790BEFF041E03D10449280000F026F92000EE
S11317A007B030BDFFFFFF00282B0000F7B5040091
S11317B00E0017000525002812D00C3000F02DF87B
S11317C0043D00280CD0A468B9B2230A220CE4B268
S11317D00195DBB2D2B2B0B20094FFF74BFE050024
S11317E02800FEBDF7B50E0017001C0005250028D3
S11317F011D00C3000F011F8043D00280BD0230A5E
S1131800220CE4B20195DBB2D2B2B9B2B0B2009408
S1131810FFF730FE05002800FEBD10B5031E0FD0F3
S1131820046800238C420BDC84688C4208DB41682A
S1131830914205DCC168D00FCB1791424341DBB222
S1131840180010BDF0B589B006930EAB1B780400E8
S1131850059207930520002C24D00B00203B03386D
S11318605E2B1FD82200283212788BB282421BD101
S11318700A273A2903D00137303B202915D1238C7C
S11318800220BB420ED90026E3690493069B019310
S1131890019B0699A21D5B1AD27F9BB29A4206D87D
S11318A07042704109B0F0BD203B9FB2E7E7E31CF2
S11318B0DB7F012B05D0022B20D0049ABB009B5860
S11318C001E0049BDB5D0293059B0393039B059A54
S11318D09D1A631DDB7FADB2AB4213D82200631D9A
S11318E00832DB7FD27F9B189D4229DB231DDB7FDF
S11318F0FF18019BBFB201330193C9E7049A7B002F
S11319009B5AE0E70122029B13420FD0019A0399EC
S11319102000FFF74BFF0128C4D843425841361832
S1131920029B5B080293039B0133CEE7079B002BCA
S1131930F6D06368019A03992000FFF753FFEAE7A2
S1131940079B002B0BD0059B019A59192000636853
S1131950FFF748FF0128A5D84342584136180135FE
S1131960ADB2BBE7F0B587B003930CAB40CB050039
S11319701B7805200593002D13D0002911D02B00CE
S113198028331B780338002B0BD08B1804930023C7
S11319900C00039F0293049B9C4204D1029843428F
S11319A0584107B0F0BD21780A2908D1AB1DDB7F6F
S11319B0039F9E19EB1DDB7F9E190134EBE7059B0A
S11319C03A00009328003300FFF73CFF0128E8D8D1
S11319D0434258412A00029B08321B1802936B1D94
S11319E0DB7FD27F9B18FF18E7E710B5052300289B
S11319F006D01C301022002904D100F046FE052335
S1131A00180010BD00F038FE0023F9E7F0B585B0EA
S1131A1004001F000CAB1B78080015000E00039394
S1131A2000F03BFE631DD97F02004143A31DE01D6E
S1131A30DB7FC07F1B185D430B9BED18012F03D088
S1131A40022F10D0002303E023681B885B1A5B0875
S1131A500A9900955B180399200001913100FFF762
S1131A6081FF05B0F0BD23681B885B1AF0E70020F6
S1131A707047000007B50422054901A800F0FCFDE9
S1131A800448FEF729FD01A8FFF780F900200EBDE8
S1131A90582E000000366E0113B50323002401A85C
S1131AA0437004708470FFF799F96420FFF7C2F95A
S1131AB0200016BD0F230522F0B59C46FF264027C3
S1131AC0524203203300D1B20840C00083403C009E
S1131AD0DB43844010060ED4C0250D4891088900CC
S1131AE00918AD00485903401C434C510132132AD4
S1131AF0E7D10020F0BD6046014008390548890857
S1131B0089000918C86903401C43CC61EEE7C0464C
S1131B1000E100E000ED00E0002230B5104C41612E
S1131B202368934209D12060836014E0491B9D68B7
S1131B3041611A00002D0FD02B005D698D42F5D94B
S1131B40002DF3D0002A09D090608360002B02D0CE
S1131B505A69511A596130BD2B00F5E72060F4E74A
S1131B60600D002010B500F0D9F9094B094A196835
S1131B70002906D01368C41A4B69A34203D31B1B64
S1131B804B61106003E0C01A002310604B6110BD6C
S1131B90600D00204C0D002070B50F4D02202B6805
S1131BA05C690E4B1B68E41800F0C8F9200000F0D3
S1131BB0EFF9002302200A492A680B70D4880442F2
S1131BC002D001230B7070BD9268002AFBD05469C7
S1131BD01B19012BF2D9F6E7600D00204C0D0020F3
S1131BE0540D002070B50400160004AA0D0002CAAA
S1131BF02661107806AA2071002012882160A06056
S1131C00E360E280854207D16561834201D0200010
S1131C109847002E12D03500FFF7D6F90600FFF7DB
S1131C20A1FF29002000FFF777FF054B1B68A342A3
S1131C3001D1FFF7B1FF3000FFF7CAF9002070BDF2
S1131C40600D00200300002110B50E4C2268002A0C
S1131C5011D09A420CD19A68002910D08A609A68EF
S1131C60101E0BD05B6951690020CB18536105E04D
S1131C7011009268EBE70220002BECD010BD22602B
S1131C80EDE7C046600D002070B5FFF79DF9144ED6
S1131C9005003478002C1ED1124B1C60124B1C60C2
S1131CA0124B1C8000F00CF9012000F047F900F001
S1131CB09DF90F4B021E186004D12800FFF788F924
S1131CC0232070BD23000B480B4900F0ADFB0B4BE8
S1131CD01860012333702800FFF77AF90020F0E739
S1131CE0480D0020600D00204C0D0020560D0020F2
S1131CF05C0D002018FCFFFFE7030000500D0020DE
S1131D00F7B50500222400280FD0FFF75DF906007F
S1131D10FFF728FF0D4F28003B680193FFF792FF60
S1131D20041E04D03000FFF753F92000FEBD019AD1
S1131D303B68AA4204D1002B04D0FFF72DFFF1E742
S1131D40002BEFD1022000F011F9EBE7600D002029
S1131D50F0B587B004930CAB1B78040005930DAB6E
S1131D600D0016001F882220002C0DD02000FFF744
S1131D70C7FF059B02970193049B2A000093290047
S1131D8033002000FFF72EFF07B0F0BD014B1868A9
S1131D907047C0465C0D0020F0B5040085B0C30751
S1131DA00CD5434A138801339BB21380FFF7DAFE44
S1131DB0404B1B68002B01D0FFF7EEFEA3072AD58A
S1131DC000F0ACF83C4E07003368C31A0093FFF7E9
S1131DD0FBF8002305001A000193364B1C68002C05
S1131DE003D0636900998B4217D90199334B0129B8
S1131DF058D1D288022A55D16A4612791A70002C19
S1131E0052D06369009A37609B1A6361FFF7C4FE7E
S1131E102800FFF7DDF805B0F0BD2300009A376015
S1131E205969914209D8207984461879844500D9A2
S1131E301C009B68521A002BF2D12800FFF7C8F847
S1131E406369039300236361FFF7BEF80500200074
S1131E50FFF7F8FE2800FFF7BBF82369002B09D031
S1131E60FFF7B2F8050021692000FFF755FE2800AE
S1131E70FFF7AEF8E368002B02D0216820009847F2
S1131E80019B0133019300F049F8039B0290DF1991
S1131E90009BDB1B1B180093FFF796F8220005003C
S1131EA0029F9AE70022A9E7022000F05FF8AFE75B
S1131EB0560D0020600D00204C0D0020580D002010
S1131EC037B5124D01AC03221149200000F0D4FBB8
S1131ED028000121FEF754FD01212800FEF7E8FD4A
S1131EE0002501232000A5702370FFF7E7F90721DF
S1131EF0084BDA698A43DA61802299615D607A313C
S1131F00054B5201FF315A501A6037BD800612004A
S1131F105C2E00000000084000E100E0054A064B8A
S1131F2050681B781169C90701D5506801331B0635
S1131F301843704700000840680D00200122024049
S1131F4013000849800709D5074B1878002803D0E7
S1131F50042088610020187004231343CA691343C2
S1131F60CB617047000008401E04002001230200DA
S1131F701A40810703D504210A4303490B7003491E
S1131F80CB699343CB6170471E04002000000840D6
S1131F9010B50400FFF7C2FF114B1A69114B520729
S1131FA006D41A68121A022A02D81A68824212D176
S1131FB0221A012A00D8841C1C601A68101A0A4AC2
S1131FC0904209D8196801200902090AFFF758F953
S1131FD00220FFF7B3FF10BD0220FFF7C7FFFAE7A7
S1131FE000000840640D0020FFFFFF0010B5024808
S1131FF0FEF752FE10BDC04680061200F8B5FEF78B
S1132000E3FF07000120174E00243569054219D06B
S11320108022154B52041C782406A41862425441B1
S11320201A78E4B21218D2B21A70104A12681978E7
S11320300F4B0906511A994204D8FFF721F90220DF
S1132040FFF77CFF6B0701D502231C4305231D40CA
S1132050B561002C02D02000FFF79EFE3800FEF789
S1132060B7FFF8BD00000840680D0020640D002093
S1132070FFFFFF0010B500F053F800F067F800F020
S113208069F800F06BF800F06AF810BD10B500F0C4
S113209067F800F066F800F065F800F064F810BD29
S11320A010B50400FEF708FAFA2189004C4300F049
S11320B011F90100054800F00DF90100200000F0BD
S11320C009F9800801D000F003F810BD40420F0068
S11320D0013800D0FCE7704710B500F05BF810BD84
S11320E010B500F0BDF810BD7047000010B5042114
S11320F00120FEF7DFFE01210648FEF7D9FC02218C
S11321000548FEF7D7FE05480221FEF7D3FE00205E
S113211010BDC046D0233E0002001E000300200074
S1132120012210B5084B1A64FFF7C4FCFEF728F827
S1132130FFF7A0FCFFF7B0FCFFF7D8FFFFF797FC11
S1132140FEF714F810BDC04600000C4010B500F0B6
S11321500BF810BD10B5FFF797FD10BD7047704721
S1132160704770477047704710B50348FEF7D6F9BB
S11321700248FEF7D3F910BD602E0000782E00004F
S113218010B5FFF777FFFFF7A7FFFFF77FFFFFF714
S1132190A7FFFAE7F0B585B0FDF7D8FF002803D014
S11321A038212748FEF7F8FA0020FFF709FA00283B
S11321B003D03C212248FEF7EFFA224C2000FFF71F
S11321C0CBFA002803D040211D48FEF7E5FA00278A
S11321D01D4B20006360A760FFF76BFA1B492000CA
S11321E0FFF703FC1A4E052532681A49531C336065
S11321F00123D2B2029301953B0000952000FFF722
S113220005FC32681449531C33600123D2B2029393
S113221001953B0000952000FFF7F8FB32680F4959
S1132220531C33600123D2B2029301953B00009505
S11322302000FFF7EBFBFFF7EDF905B0F0BDC0465A
S1132240902E0000700D0020FFFFFF00F827000013
S11322506C0D00209D2E0000AF2E0000C42E000047
S1132260704700001FB50400FEF761F901280AD188
S11322700E4B9C4208D100220D4B0E481A60FFF70A
S113228018FAFFF7C7F91FBD0B4B9C42F9D1084B55
S11322901A68511C19600523029001930093D2B26D
S11322A0002306490348FFF7B1FBEAE7602E00006C
S11322B06C0D0020700D0020782E0000D92E000037
S11322C002B4714649084900095C49008E4402BCC5
S11322D07047C046002243088B4274D303098B42E3
S11322E05FD3030A8B4244D3030B8B4228D3030CE2
S11322F08B420DD3FF22090212BA030C8B4202D384
S11323001212090265D0030B8B4219D300E0090AAB
S1132310C30B8B4201D3CB03C01A5241830B8B42B4
S113232001D38B03C01A5241430B8B4201D34B039D
S1132330C01A5241030B8B4201D30B03C01A524102
S1132340C30A8B4201D3CB02C01A5241830A8B4287
S113235001D38B02C01A5241430A8B4201D34B0270
S1132360C01A5241030A8B4201D30B02C01A5241D4
S1132370CDD2C3098B4201D3CB01C01A5241830988
S11323808B4201D38B01C01A524143098B4201D3C2
S11323904B01C01A524103098B4201D30B01C01AED
S11323A05241C3088B4201D3CB00C01A5241830867
S11323B08B4201D38B00C01A524143088B4201D394
S11323C04B00C01A5241411A00D2014652411046F4
S11323D07047FFE701B5002000F006F802BDC046D3
S11323E00029F7D076E770477047C0461C210123C7
S11323F01B04984201D3000C10391B0A984201D3E4
S1132400000A08391B09984201D30009043902A2C1
S1132410105C40187047C046040302020101010128
S11324200000000000000000002B11D1002A0FD191
S1132430002900D1002802D00021C943081C07B498
S1132440024802A14018029003BDC0469DFFFFFF51
S113245003B4684601B5029800F006F8019B9E4655
S113246002B00CBC7047C046F0B54F464646D6464F
S1132470C0B5040082B00D00914698468B422FD817
S11324802CD04146484600F0B1F82900060020004F
S113249000F0ACF8331A9C46203B9A4600D576E00F
S11324A04B46524693401F004B46624693401E00E3
S11324B0AF4228D825D05346A41BBD41002B00DAD7
S11324C07BE00022002300920193012352469340B3
S11324D00193012362469340009318E08242D0D9CD
S11324E000220023009201930A9B002B01D01C6060
S11324F05D600098019902B01CBC90469946A246C2
S1132500F0BDA342D7D90022002300920193634671
S1132510002BE9D0FB079846414672080A437B0822
S113252066460EE0AB4201D1A2420CD8A41A9D41EA
S1132530012024196D410021013E24184D41002E33
S113254006D0AB42EED9013E24196D41002EF8D1DC
S113255000980199534600196941002B23DB2B0095
S11325605246D3402A006446E2401C0053461500FC
S1132570002B2DDB26005746BE403300260067465D
S1132580BE403200801A994100900191ACE7624646
S113259020239B1A4A46DA406146130042468A4089
S11325A017001F4380E7624620239B1A2A006646D1
S11325B09A402300F3401343D4E7624620230021CA
S11325C09B1A0022009101920122DA40019280E7D5
S11325D02023624626009B1ADE402F00B046664642
S11325E0B74046463B003343C8E7C04610B5002910
S11325F003D1FFF7FBFE203002E0081CFFF7F6FED4
S113260010BDC046084B10B50400002B02D00021B9
S113261000E000BF054B1868836A002B00D0984780
S1132620200000F041F8C04600000000E82E000041
S113263070B500260C4D0D4C641BA410A64209D1A4
S1132640002600F033F80A4D0A4C641BA410A6427D
S113265005D170BDB300EB5898470136EEE7B300DF
S1132660EB5898470136F2E79804002098040020BC
S1132670980400209C040020002310B59A4200D145
S113268010BDCC5CC4540133F8E703001218934224
S113269000D1704719700133F9E70023C25C01339C
S11326A0002AFBD1581E7047FEE7C046F8B5C04665
S11326B0F8BC08BC9E467047F8B5C046F8BC08BCD8
S11326C09E467047050000000000000040420F00D5
S11326D005010000000000000000000080008000F0
S11326E001010000E0C810003C0602006765636B4E
S11326F06F5F73646B5F332E312E312F706C617496
S1132700666F726D2F656D6C69622F696E632F65DC
S11327106D5F6770696F2E68006765636B6F5F73C9
S1132720646B5F332E312E312F706C6174666F725F
S11327306D2F656D6C69622F696E632F656D5F63C4
S11327406D752E68006765636B6F5F73646B5F33D1
S11327502E312E312F706C6174666F726D2F656D22
S11327606C69622F7372632F656D5F636D752E6381
S1132770006765636B6F5F73646B5F332E312E315B
S11327802F706C6174666F726D2F656D6C69622F4A
S11327907372632F656D5F6770696F2E6300676581
S11327A0636B6F5F73646B5F332E312E312F706CEC
S11327B06174666F726D2F656D6C69622F737263DD
S11327C02F656D5F7274632E63006765636B6F5F63
S11327D073646B5F332E312E312F706C6174666FAE
S11327E0726D2F656D6C69622F7372632F656D5FF7
S11327F075736172742E630008280000200301645D
S1132800060802000100000000040A0A0403060688
S113281008020000000000000E040E1F081F0C1F19
S11328200E0E00001000010E0E0E0F0E071F1F0EDD
S1132830110E1C110111110E0F0E0F1E1F1111117B
S113284011111F0E000E04000200010010000C0004
S1132850010408010600000000000000020000005E
S11328600000000C040600000000000000040A0A36
S11328701E130904040404040000000011061108D6
S11328800C01021011110606080002111011111199
S11328900901011111040809011B11111111110180
S11328A0041111111111100200080A0004000100A2
S11328B01000121E010000010400000000000000CE
S11328C002000000000000020408020000000000F2
S11328D000040A1F01080502020815040000001084
S11328E0190410040A0F010811110606041F04102C
S11328F01011110111010101110408050115131131
S113290011111101041111110A1108020108110019
S1132910080E0D0E160E02110D060C09040B0D0EF9
S11329200F160D0E0711111111111F0204081500C5
S1132930000000000004000A0E04020002080E1F3A
S1132940001F00081504080809100F040E1E0000DB
S11329500200080816110F01110F0F1D1F040803B0
S1132960011515110F110F0E04111115040A04029B
S113297002080000001013011911071113040805BF
S11329800415131111191301021111110A1108016F
S113299004100800000000000000001F10021500D1
S11329A00208150406000004130404101F10110289
S11329B011100606041F0404151F11011101011151
S11329C0110408050111191101150510041111153F
S11329D00A04020204080000001E1101111F021E55
S11329E011040803041511110F1E010E0211111513
S11329F0041E040204080000000000000000000A95
S1132A000F1909000404040404000602110402114D
S1132A100811110211080604080002001511111111
S1132A200901011111040909011111110109091008
S1132A3004110A1511040102080800000011111103
S1132A4011010210110409050411111101100110E2
S1132A5012190A150A1002020408000000000000FE
S1132A600004000A0418160008020000020006010F
S1132A700E0E1F0E080E0E020E06000210000104B8
S1132A800E110F0E071F010E110E06111F11110E4C
S1132A900116110F040E040A11041F0E100E001F5C
S1132AA0001E0F0E1E0E020E110E06090E11110E3F
S1132AB00110010F0C16040A110E1F0C040600006D
S1132AC00000000000000000000000000000000002
S1132AD000000000000000000000000000000000F2
S1132AE000000000000000000000000000000000E2
S1132AF000000000000000000000000000000000D2
S1132B0000000000000000000000000000000000C1
S1132B1000000000000000000000000000000000B1
S1132B200000000000000000382B000020030164B6
S1132B30080802000100000000186C6C10CE380870
S1132B40600C0000000000007C307C7CC6FE7CFE33
S1132B507C7C000070001C7C7C7C7E7C7EFEFE7C89
S1132B60C63C78C606C6C67C7E7C7E7C7EC6C6C64F
S1132B70C6C6FE7C007C10000C0006006000380015
S1132B80060000060C000000000000000000000029
S1132B900000003018188C000000000000186CFEC3
S1132BA0FC6A2C1830186C18000000C0C638C6C661
S1132BB0C606C6C0C6C61818387C38C6C6C6C6C639
S1132BC0C60606C6C618306606EECEC6C6C6C6C655
S1132BD018C6C6C6C6C6C00C066038000C0006007F
S1132BE060000C00061830060C0000000000000015
S1132BF018000000000000181830D6000000000083
S1132C00001848FE162E2C181830381800000060E2
S1132C10C63060C0C6060660C6C618181C7C70C6DE
S1132C20F6C6C606C6060606C618303606FEDEC654
S1132C30C6C6C60618C6C6C66CC6600C0C606C0058
S1132C40043C3E3C7C3C3C3C3E0000660C6E3E3CFE
S1132C503E3C363C186666C666667E1818306200CE
S1132C60000000000018006C7C10DC001830FE7EB0
S1132C701C7E0030C6303070FE7E7E307CFC00004E
S1132C800E00E070F6FE7E06C61E1EF6FE18301E0E
S1132C9006D6F6C67EC67E7C18C6C6D638FC300C70
S1132CA01860C6000060660666660C6666183036F4
S1132CB00CD6666666666E067C6666C63C66300C36
S1132CC00060000000000000000000FED0E8660084
S1132CD01830387E1C7E1C18C63018C0C0C0C618F8
S1132CE0C6C018181C7C703076C6C606C60606C652
S1132CF0C618303606C6E6C606B6C6C018C6C6FE30
S1132D006CC0180C30600000007C6606667E0C7C8B
S1132D106618301E0CD666663E56063C186666D6A5
S1132D20187C18181830000000000000001800FE7D
S1132D307EAC660030186C1818001C0CC6300CC62B
S1132D40C0C6C60CC6C61818387C380006C6C6C627
S1132D50C60606C6C618366606C6C6C60666C6C60D
S1132D6018C66CEEC6C00C0C606000FE00666606F9
S1132D7066060C60661836360CC66666062606605D
S1132D8018663CD63C600C181830000000000000A7
S1132D900018006C10E6DC00600C00180C001C0627
S1132DA07C78FE7CC07C7C067C7C000C70001C3033
S1132DB07CC67E7C7EFE06FCC63C1CC6FEC6C67C6B
S1132DC006DCC67C187C38C6C67EFE7CC07C00FE51
S1132DD0007C3E3C7C3C0C3E66701C6638C6663CFF
S1132DE0065C063E707C18FC663E7E3018180000B7
S1132DF000000000000000000000000000000000CF
S1132E0000000000000000000000000000000000BE
S1132E1000000000000000000000000000000000AE
S1132E20000000000000000000000000000000009E
S1132E30000000000000000000000000000000008E
S1132E40000000000000000000000000000000007E
S1132E500000000000000000030300000100010264
S1132E6020040020FD050000510600005506000066
S1132E70AD060000BF06000028040020FD05000088
S1132E805106000055060000AD060000BF06000014
S1132E906D656D6C63645F6170702E63004D454DAC
S1132EA04C43442053616D706C6520417070002068
S1132EB050726573732042544E3020746F20636CDB
S1132EC0656172002050726573732042544E312044
S1132ED0746F207072696E740048656C6C6F205753
S10F2EE06F726C642100000038040020B4
S10B2EECE8D1FF7F01000000A2
S1132EF400C40040003204000307FFFF020F030074
S1132F04809FD50000366E0100800000FFFF0100A1
S1132F140000000002080200000000000209020090
S1132F24602E0000782E0000000000000000000065
S1132F340000000000000000000000000000000089
S1132F440000000000000000000000000000000079
S1132F540000000000000000000000000000000069
S1132F640000000000000000000000000000000059
S1132F740000000000000000000000000000000049
S1132F840000000000000000B50000008D000000F7
S90303ED0C
