S02300006275696C642F64656275672F6D656D6C63645F626172656D6574616C2E733337DE
S113000000100020D5040000D1040000D104000039
S1130010D1040000D1040000D1040000D104000088
S1130020D1040000D1040000D1040000D104000078
S1130030D1040000D1040000D1040000D104000068
S1130040D1040000D1040000D1040000D104000058
S1130050D1040000D1040000D1040000D104000048
S1130060D10400001D080000D1040000D1040000E8
S1130070D1040000D1040000D1040000D104000028
S1130080D104000041080000D1040000D1040000A4
S1130090D1040000D1040000D1040000D104000008
S11300A0D1040000D1040000D1040000D1040000F8
S11300B0D10400009D290000D1040000D1040000F7
S11300C0D1040000D104000010B5054C237833B9E5
S11300D0044B13B10448AFF300800123237010BD17
S11300E0AC100020000000005839000008B5034B94
S11300F01BB103490348AFF3008008BD00000000B2
S1130100B010002058390000154B002B08BF134BCA
S11301109D46A3F5803A00218B460F461348144AA6
S1130120121A02F092FF0F4B002B00D098470E4B8F
S1130130002B00D098470020002104000D000D483A
S1130140002802D00C48AFF3008002F04FFF2000DB
S1130150290002F015FD02F035FF00BF0000080081
S1130160001000200000000000000000AC1000207F
S11301709019002000000000000000000E207047CD
S11301800E20704708B50121044800F0E3FB02F09B
S113019067FCBDE8084000F01DB900BF00250A0057
S11301A00121014800F0D6BB00250A002DE9F041E9
S11301B01A4E0446884617460FCE86B06D460FC5C4
S11301C096E8030085E8030001211548256800F03E
S11301D0C1FB6068012100F0BDFB617B207B002333
S11301E0042201F0BBFC00230422617A207A01F08E
S11301F0B5FC28466946CDF80880ADF8107001F0CA
S1130200E5FD237CA27B1B0643EA0223AB670020A7
S11302100A236B6706B0BDE8F08100BF8830000098
S113022000250A0070B506680C468D18AC4201D151
S1130230002070BD14F8011B304601F023FEF5E7E1
S1130240026813699B06FCD57047000073B50D4B1B
S11302500D4E40241C600546407B02F0DBFB02A9E6
S1130260042321F8023D02223046FFF7DBFF30462B
S1130270FFF7E6FFA87B02F0CDFB044B00201C60D7
S113028002B070BD6CA00046001000206CA00044B9
S113029038B5044601210D480D4D00F05BFBA16803
S11302A00C480022FFF782FF0023042206210220CB
S11302B001F054FC94E80F0085E80F00064B01227E
S11302C020461A70FFF7C2FF002038BD00250A003F
S11302D0CC10002000100020C81000202DE9F04FA1
S11302E0994605790388DFF898A05D43234B1446AB
S11302F040221A60013485B0A4B20646407B884689
S113030004AF02F087FB230243F0010327F8023D08
S1130310022239461A48FFF785FF09F1FF33ED1031
S11303204FF0000B01930134CB450CD11448FFF777
S113033087FFB07B02F06EFB124B402200201A6054
S113034005B0BDE8F08F2A4641465046FFF76AFFE4
S1130350019B5B451BBF04EB0B0212024FF6FF72BD
S113036042F0FF02ADF80E20394602225046A8445E
S1130370FFF758FF0BF1010BD6E700BF6CA0004656
S1130380001000206CA00044034B04481B78002B91
S113039008BF0020704700BFC8100020CC10002008
S11303A01FB5054B0FCB6C4684E80F002046FFF7C2
S11303B06FFF04B010BD00BFA0300000014B8022CD
S11303C01A6070476CA00046014B80221A60704787
S11303D06CA00044F0B5394D394E0FCD87B06C4652
S11303E00FC495E80300374D84E803000121364823
S11303F000F0B0FA30460121012400F0ABFA334B8F
S11304000293694628468DF80E4001F0DFFC002176
S113041023460846042201F0A1FB0023224621467C
S1130420184601F09BFB2346204604220B2101F0D1
S113043095FB042207212346022001F08FFB0B27A2
S11304404FF08063AB674FF448706F6702F0E2FAD5
S1130450FFF7BAFF142002F0DDFAFFF7AFFF232005
S113046002F0D8FAFFF7B0FFB921284601F000FDE9
S1130470FFF7A4FF00231A461946184601F06EFB45
S113048000231A462146184601F068FB23463946E4
S11304902046002201F062FB2346002207210220AD
S11304A001F05CFB284601F05FFC0021A96730469F
S11304B0696700F04FFA07B0F0BD00BFB03000002C
S11304C0003204000004014000250A0000127A00F2
S11304D0FEE7000008B500F063F8064B0649074A3A
S11304E08B4201D3FFF710FE52F8040F43F8040BBC
S11304F0F6E700BF00100020AC1000205C390000BB
S11305000048704700F049020D4AD2F8943003F0D5
S11305100703032B11D0042B03D0022B0BD1094B5F
S113052000E0094B1868D2F80031C3F30423013307
S1130530B0FBF3F07047054BF4E74FF40040F2E7EB
S113054000400E4018100020201000201C10002035
S113055008B5FFF7D9FF054BD3F80831C3F30823D7
S11305600133B0FBF3F0024B186008BD00400E40AD
S113057014100020014B1868704700BF18100020A9
S1130580054B1860054BD3F8943003F00703022B96
S113059001D1FFF7DDBF70471810002000400E4066
S11305A00E4B0F4A9A60D3F8882042F47002C3F8C5
S11305B088200C4B5A6D42F400525A651A6C22F092
S11305C003021A64084A136823F00103136052F803
S11305D0143C23F0805342F8143C704700ED00E0D3
S11305E00000000000300E4074300E404FF4004014
S11305F070474FF47A707047014B1868704700BF1A
S11306002010002043680BB100681847222070476F
S113061083680BB100681847FF20704738B50C4653
S11306200546D0B101281AD002281BD003281CD0BB
S113063005280CBFFF2300232341DB0704D440F229
S1130640B2310B4800F00EF930235D43094B2B44C3
S113065004EBC304A400206838BD3F23ECE74FF447
S11306607843E9E74FF47C63E6E74FF47E43E3E73E
S1130670C83000001CA01042104B70B51A78104E00
S113068001460024E3B29A4200D870BD56F82430E3
S11306901D686B798B420FD12B78022B0CD02879F3
S11306A0FFF7BCFFB0FA80F04009287056F8240028
S11306B0BDE8704002F0D4BA0134E3E7CA38000060
S11306C03C10002013B504460121124800F042F901
S11306D0002301226179207901F040FA61792079BF
S11306E0FFF79CFFA379B0FA80F04009022B207039
S11306F00DD100F077F80849607900F081F862794B
S113070020790123CDE90033114601F0B3F900202B
S113071002B010BD00250A00790600000078704779
S113072010B50378022B044616D041790079FFF7FF
S113073075FFA279012A17D163885B0063F03F0338
S11307409BB200280CBF184643F001004FF6E0733B
S1130750984202D12270608010BD4FF6DF73984238
S113076004BF00232370F6E7002AF5D1B0FA80F025
S113077040092070F0E70278022A03D10022428067
S1130780FFF7A0BF704713B50378022B044610D0BF
S11307908379022B0BD10021407900F031F8627982
S11307A020790023CDE90033114601F063F90223D7
S11307B0237002B010BD000070B5094E0446012537
S11307C004B970BD94FAA4F0B0FA80F005FA00F30D
S11307D024EA030456F82030002BF1D09847EFE7C1
S11307E0DC100020054B4FF40032C3F880211A605E
S11307F04FF40072C3F880211A60704700E100E0F2
S113080038B504460D4600F0D0FD034B43F82450A0
S1130810BDE8384000F0CFBDDC100020074BD3F812
S11308202804D3F81C24104020F42A5020F02A0075
S11308304004400CC3F82404FFF7BEBF00A00040EE
S1130840074BD3F82804D3F81C24104020F4AA4002
S113085020F055000004000CC3F82404FFF7ACBFDB
S113086000A00040FEE700000C4B984210D90C4B4E
S1130870984210D9022201230A490B600A49D1F88F
S1130880003123F0807343EA0263C1F800317047FA
S113089000221346F0E70122FBE700BF0048E8010D
S11308A00090D0034000C84300400E401F2810B5FC
S11308B0044604D940F225110248FFF7D3FF012072
S11308C0A04010BD213100000A490B4B88425A68F0
S11308D00BD90A4988420AD902F040715A6822F0B9
S11308E0407242EA01625A6070470021F6E7012132
S11308F0F4E700BF40787D0100000E40005A620218
S113090038B5064C41F67133256C2364FFF7F8FDC6
S1130910FFF7DAFF0DB10023236438BD00000E4059
S1130920044BD3F84421D20703D4D3F84021104216
S1130930FBD1704700400E4038B5054C41F6713389
S1130940256C2364FFF7C0FF0DB10023236438BD79
S113095000000E40C0F30322013A38B50546092AC7
S113096021D8DFE802F0272A202005131620191DBC
S1130970134C0020C5F3043508B1FFF7D1FF04F18F
S1130980047405EBC404A400216038BD01200D4C9F
S1130990F0E710200C4CEDE74FF480300B4CE9E706
S11309A000200B4CE6E741F2C7710A48BDE8384025
S11309B0FFF758BF0020084CDCE70020074CD9E7BC
S11309C0B0400E40E0400E40E8400E40F0400E4083
S11309D050410E40F530000000400E40C0400E4033
S11309E008B5C0F30313013B092B4CD8DFE803F02F
S11309F0050B0F194B4B1F23333F244BD3F8000136
S1130A00C0F3042008BD214BD3F81401F8E71F4BB1
S1130A10D3F80001C0F300600130FFF747FF01384D
S1130A20F0E71A4BD3F80C01C0F30820EAE7174BA0
S1130A30D3F80801F8E7164B984205D1134BD3F8C5
S1130A40200100F00F00E8E741F66B111148FFF7B1
S1130A5009FF0020D6E7104B984205D10B4BD3F881
S1130A60280100F00300D8E741F68F11EEE70B4BA5
S1130A70984205D1054BD3F8300100F00F00C1E7CF
S1130A8041F69E11E2E741F6C311DFE700400E4054
S1130A9080061600F530000090071A00A009140023
S1130AA008B5FFF79DFF013008BD000000F00F00FE
S1130AB0013808B5072853D8DFE800F004122152A2
S1130AC0353952412B4BD3F8940000F0070003282A
S1130AD005D0042821D002280CBF0420052008BD1D
S1130AE0244BD3F8800000F007000228F7D0042834
S1130AF03DD0012808BF032018BF0120EFE71D4B9C
S1130B00D3F8843003F00703013B032B09D8DFE853
S1130B1003F00604022E0620E1E70220DFE70320AB
S1130B20DDE70120DBE7134BD3F88800DBE7114B4B
S1130B301B6F13F0010F14BF09200720CFE70D4BE3
S1130B40D3F85C3103F03003202B05D0302B05D0D3
S1130B50102B08BF0720CFE70420C0E70820BEE71A
S1130B60054841F61751FFF77DFE0020B7E70A203C
S1130B70B5E700BF00400E40F53000002C4B984212
S1130B8010B504460AD02B4B984207D02A4B984202
S1130B9004D041F22A312948FFF764FE2046FFF7CA
S1130BA085FF234B9C4211D0224B9C4212D0224BF6
S1130BB09C4213D1224BD3F8804004F00704042C48
S1130BC02ED8DFE804F02B12161E1A001C4BD3F8A3
S1130BD08440F2E71A4BD3F88840EEE7044641F22A
S1130BE059311648FFF73EFEE9E7BDE81040FFF72C
S1130BF0FDBCBDE81040FFF7FFBCBDE81040FFF7A7
S1130C00F8BCFFF781FC0E4B0446D3F80001C0F397
S1130C1000600130FFF74AFEB4FBF0F4204610BD3B
S1130C2041F2AB310548FFF71DFE0024F6E700BF93
S1130C30030020000500240002001E00F53000001F
S1130C4000400E4038B500F47813B3F5A01F0546F4
S1130C5061D023D8B3F5202F09D00CD8B3F5003FC9
S1130C604ED0B3F5802F40D0002B40F0AC80BDE8CF
S1130C703840FFF749BCB3F5602F62D0B3F5801F4D
S1130C8000F08680B3F5402F40F09D80FFF73CFCD8
S1130C904E4BD3F81431C3F304232DE0B3F5001FF6
S1130CA043D017D8B3F5D01F41D0B3F5F01F2DD0E2
S1130CB0B3F5B01F40F087804548FFF75FFF434B13
S1130CC00446D3F8200100F00F00FFF7EFFDB4FB5A
S1130CD0F0F014E0B3F5481F41D0B3F5781F6BD0A2
S1130CE0B3F5101F6FD13B4811E0FFF70DFC374BF4
S1130CF0D3F80C31C3F308230133B0FBF3F038BD50
S1130D00FFF702FC314BD3F80831F3E73048BDE874
S1130D103840FFF733BF2F48FFF730FF2B4BD3F892
S1130D20303103F00F03D840E9E72B48EFE72A48B6
S1130D30FFF724FF254B0446D3F8280100F00300F5
S1130D40C3E72648FFF7B2FE072821D009288ED032
S1130D5041F2EC012248FFF785FD0020CFE721484E
S1130D60FFF7A4FE0138072823D801A353F820F085
S1130D705B0D0000B30D0000B30D0000970D0000E3
S1130D80B30D0000B30D0000910D00009F0D000095
S1130D90154B1868B3E7BDE83840FFF7EBBBFFF726
S1130DA0B3FB0A4BD3F80031C3F3042303FB000065
S1130DB0A5E741F22311CDE7FFF7A6FB0446284639
S1130DC0FFF76EFE83E741F6F701C3E700400E40EC
S1130DD002001E00050024000300200006000E008F
S1130DE0F5300000B800320024100020014B1880B8
S1130DF0704700BF28100020013808B5032816D812
S1130E00DFE800F0020F070C0C4B186AC0F308006F
S1130E1008BD0A4B186900F07F00F9E7074B986991
S1130E20F9E7064BD3F89C00C0F30A00F0E7044846
S1130E3042F2F041FFF716FD0020E9E700400E40C2
S1130E40F5300000013838B50C46032861D8DFE8D6
S1130E5000F00241192DB1F5007F04D342F216517E
S1130E602F48FFF7FFFC2F4AC4F308041368002B34
S1130E70FCD12D4A136A23F4FF7323F001032343A7
S1130E80136238BD7F2904D942F223512448FFF765
S1130E90E9FC264904F07F020B68002BFCD1224BAD
S1130EA01C6924F07F0414431C61EAE77F2904D9F8
S1130EB042F23E511A48FFF7D5FC1D4904F07F0267
S1130EC00B68002BFCD1184B9C6924F07F0414435D
S1130ED09C61D6E7144DD5F890305B0704D542F2F7
S1130EE04D510F48FFF7BEFC6B6A23F0300343F00B
S1130EF010036B62296B0F4BC4F3C31203320F2A26
S1130F0003EA010328BF0F221C4344EA02742C6342
S1130F10B7E742F267510248BDE83840FFF7A2BC88
S1130F20F53000006828C84300400E406028C843DC
S1130F306428C84300F8FF0F022838B50D4604D0D2
S1130F4042F27F511248FFF78DFC124C636A13F092
S1130F50300F04D0202D18D0302D00D015B94FF407
S1130F60400305E042F29A510948FFF77BFC0A4B23
S1130F70D4F8902033EA0202FAD15B024ABFD4F8D3
S1130F80A0000120C0F3802038BD4FF40003EFE738
S1130F90F530000000400E40FF03E107022808B5C9
S1130FA00CD129B1094B4FF48060C3F8A8005966ED
S1130FB04AB10220BDE80840FFF7BEBF42F2D0515B
S1130FC00348FFF74FFC012008BD00BF00400E405E
S1130FD0F5300000F8B504280DD8DFE800F0037CF4
S1130FE0181377004FF400764FF480740823092512
S1130FF0002957D04EE042F264413948BDE8F84038
S1131000FFF730BC0124022600232546F0E700291F
S113101045D0344C636A13F0300F38D1636ADB0770
S113102005D5636A23F0300343F01003636204249C
S1131030022303252B4E34662B4E33449B001F683A
S1131040002FFCD012B33544AD002B68002BFCD02C
S113105002281BD1D1B1234B596A11F001011BD0D5
S113106001222021FFF79AFF0220FFF7C5FE01228B
S1131070064600210220FFF7ADFF31460220FFF7AC
S1131080E1FE184B1C662B68002BFCD0F8BD042431
S1131090022303250021CDE7FFF74EFFE4E70826EE
S11310A0022303250F4901200E6600FA03F3D1F849
S11310B090001842FBD1002AE8D00123094A03FA20
S11310C005F5D2F890302B42FBD1DFE7202610241F
S11310D0042305258CE7802640240623072587E77B
S11310E0F530000000400E408004F21000F00F00C4
S11310F0013838B50C46072800F2B380DFE800F069
S1131100043E59B14C7CB18A8C1E082C30D8DFE8DF
S113111004F032051C222F2F2F2F28000120032436
S113112001221146FFF756FFFFF7EAFB4E4B5C67BF
S1131130FFF70EFA0446FFF7E7F9FFF795FB2046A1
S11311400021BDE83840FFF7F7BB4848FFF78CFBA8
S113115002200446E4E74548FFF786FB0124032008
S1131160DEE741F6D8514248BDE83840FFF77ABB84
S113117041F6DD51F7E700200424D1E706291AD10E
S113118041F61C613A483B4DFFF76CFB41F62C617C
S11311903748FFF767FB02E00629374DF6D0013CDC
S11311A0092C24D8DFE804F0260C1323231A232364
S11311B02309324DF3E72F4DF1E704232B6038BDAB
S11311C0012211460020FFF705FF0223F6E7012262
S11311D011461046FFF7FEFE0123EFE7FFF794F9EF
S11311E0FFF742FB264B01221A600323E6E741F690
S11311F05761B8E70023E1E7072904D0092906D09D
S113120041F6E161AFE7184B00221A67D7E7164BA6
S11312100122FAE74C1E072C1ED8DFE804F0201D3B
S11312201D161D1D0F0403220F49D1F85C3123F054
S1131230300343EA0213C1F85C31C0E701221146CE
S11312400420FFF7C7FE0122EEE701221146022027
S1131250FFF7C0FE0222E7E741F63F7183E7002271
S1131260E2E742F216017EE700400E400148E80141
S1131270F530000080400E4088400E4084400E400F
S11312800016C84310B504461120FFF70FFC0428CC
S113129004D142F2FF212848FFF7E4FA0122002199
S11312A00220FFF797FE63781BB9A3780BB9E378A4
S11312B023B142F23D312048FFF7D4FA237C012BBD
S11312C004D142F242311C48FFF7CCFA1B4A217C7C
S11312D0536A23F00103022908BF43F00103536258
S11312E0174B21781960936AE17A23F007030B43C3
S11312F09362A188637A43EAC123D362136BA07A11
S1131300217A03F07F630343E08843EAC02343EA7E
S1131310C11303310F2928BF0F2143EA017313635B
S1131320A37B617B1B0143EA0133E17B0B43217BFC
S113133043EA0143536310BDF530000000400E4002
S1131340A004C84370B505461120FFF7AFFB02287F
S113135004D142F2BD310E48FFF784FA0D4E0E4B14
S1131360B26B2C7813401C436B7844EAC324AB78EB
S113137044EA0364EB7844EA0324B36BA34205D044
S1131380002101220846FFF725FEB46370BD00BFAB
S1131390F530000000400E4080E4FFF8EFF31080C9
S11313A072B6704700B962B67047EFF311806023DC
S11313B083F31188704780F3118870471848194BDC
S11313C0C26C1B88C2F303222833013202EB820170
S11313D003EB5303B3FBF1F3C16C013B072B21F087
S11313E0EE6128BF072341F4801141EA0363C3641B
S11313F00D4BB3F90030002B10DB2833510801EBFF
S1131400420203EB5303B3FBF2F3026D072B28BF35
S1131410072322F0700242EA03130365704700BFFA
S113142000300E401E110020201100200378002BF4
S1131430437870B50E4C14BF04260026002B837825
S1131440A16914BF02250025002B037921F03F0177
S113145043EA0103C17814BF08220022012908BF0E
S113146043F0010333432B431343A36170BD00BF17
S113147000300E40194B4AF6E85210B55C6B5A63C3
S11314809A6FD207FCD41B6C13F003031EBF144ADB
S113149001211160834203D108B9114B186010BDBA
S11314A023B9012802BF0F4B02221A700B4A1146BE
S11314B0936FDB07FCD4136C23F00303034313641F
S11314C08B6F13F00103FBD10030054A18BF0120D4
S11314D0012C106008BF4B63E1E700BF00300E40F1
S11314E0B40AC64322110020A0F5E163B3F5966F58
S11314F02DE9F74F81460F4609D940F699216C48EA
S1131500FFF7B0F90027384603B0BDE8F08F694D06
S1131510694BD5F86861DB6CB0F5E16F14BF4FEA35
S1131520166BC6F3072BC3F301781DBFC6F307463A
S11315304FF4966A4FF4E164F6B204BF4FF4167A9E
S11315404FF49664B0F5E16318BF012343EA082120
S113155040F20110814264D0B1F5817F11D201299A
S113156024D067D3B1F5807F67D040F63911504855
S1131570CDE90032FFF776F900200146DDE90032BB
S113158019E040F20120814251D005D8B1F5007F25
S1131590EBD1D5F870110BE0B1F5407F50D040F29B
S11315A001308142E1D1D5F878113CE0D5F87411CD
S11315B0C1F30720C9B2ABEB060CA9EB040404FB8E
S11315C00CFCBCFBFAFC66445E453CD8A0EB010C69
S11315D004FB0CF4B4FBFAFA514481424FF00004CA
S11315E031D882B1DFF8D0C0DCF85C2022F4FE42AE
S11315F022F00202B9F5E16F42EA062218BF022482
S11316002243CCF85C20002F50D02A6DD2B2032A9A
S11316101CD8B9F5E16FD5F87C2122D0C2F307229A
S113162020E0D5F87411080EC1F30741C3E7D5F8DB
S11316307811BDE7D5F86C11BAE7D5F86C11F2E76B
S1131640D5F87011EFE740F6E72158E7B8F1020F3B
S1131650D5F8802112D0B8F1030F12D0B8F1010FE0
S1131660DCD0D2B2120312F4702F0CD040F6C801B1
S11316700F48FFF7F7F840F6F62140E7C2F30742B8
S1131680F0E7120EEEE70C4DE86E20F470400243D2
S1131690EA666A6E22F4FF72E72922F0010228BF8B
S11316A0E721134343EA410169662CE701272AE74E
S11316B050310000B081E00F00300E401C4A08B5E4
S11316C0136FD16CC90703F0070316D5012B14D986
S11316D013282BD9143813288CBF1023082314483B
S11316E0013BC26C190322F47F4241EA03231343F2
S11316F0C364BDE80840FFF761BED26CD10706D4CD
S1131700012B04D8092811D90A380928E4E7084A22
S1131710D26CD20703D5012B01D82728DCE740F689
S11317203C310448FFF79EF80023D8E70423D6E7AA
S113173000300E40503100000B4B1B6810B50446BE
S113174033B9012804D940F65B310848FFF78AF819
S1131750074B186F20F0070020431867054BBDE8BE
S113176010401888FFF7AABF8009C6435031000013
S113177000300E401C110020764B37B502229A63CC
S11317809B6B03F00F039342044608D040F6F61116
S11317907148FFF767F80025284603B030BD6F4B4A
S11317A0D3F86C31013300F0AC806D4B1A68043B04
S11317B01B681A606B4B1A68043B1B681A606A4BFF
S11317C01A68043B1B681A60684B1A68043B1B6860
S11317D01A60674B1A68043B1B681A60654B1A68E9
S11317E0043B1B681A602389C82B04D94FF4206179
S11317F05948FFF737F8A28823899A4204D940F65A
S113180001215548FFF72EF8B4F90C30C82B04DD3C
S113181040F602215048FFF725F86378012B07D1E1
S1131820A388C82B04D940F606214B48FFF71AF8C1
S1131830E28842F210739A4204D940F613214648D2
S1131840FFF710F8E3884A2B61D9B3F5FA7F60D328
S113185040F6C3118B4294BF4FF000514FF04051FA
S11318603C4DB4F90C00EB6CA28823F0405323F0F8
S113187001030028A8BF43F001030B43EB643E4B74
S11318801A80EB6E43F08073EB663C4B186800B132
S11318900420FFF751FF2B6E23F0C0432B66EB6C43
S11318A043F0060301A8EB6400F01AFA9DF8050062
S11318B0012812D19DF80430022B0ED830490B7840
S11318C05BB9304A136843F0010313602B6E2E4A50
S11318D01A402E4B13432B6608702D4B2189198017
S11318E02C4BB4F90C20A0881A80FFF7E7FEA37BE9
S11318F093B1012B20D040F679011748FEF7B2FFCF
S11319000DE04FF4F8611448FEF7ACFF6BE70021DB
S1131910A6E74FF08051A3E70E4B1F4A9A650122B8
S113192011466088FFF7E0FD054640B940F64A21BC
S11319300948FEF797FF2FE7064B184AEEE7A37A0C
S1131940174A6078003318BF01231360FFF792FD34
S113195022E700BF00300E4050310000B081E00F9C
S11319603C80E00F4480E00F4C80E00F5480E00F97
S11319705C80E00F6480E00F1C1100208009C643E6
S11319802211002044300E40000F0EF0B4C0400B72
S11319901E1100202011002077402057372110B756
S11319A09407C64338B50D460446C0B1012818D083
S11319B0022819D003281AD005280CBFFF230023BE
S11319C02B41DB0704D44FF482610A48FEF74AFF37
S11319D030235C430121084BA940195138BD3F23F2
S11319E0EEE74FF47843EBE74FF47C63E8E74FF41A
S11319F07E43E5E7C83000000CA0004638B50D462C
S1131A000446C0B1012818D0022819D003281AD0DE
S1131A1005280CBFFF2300232B41DB0704D440F22D
S1131A20E1310A48FEF71EFF30235C430121084BD5
S1131A30A940195138BD3F23EEE74FF47843EBE753
S1131A404FF47C63E8E74FF47E43E5E7C8300000D9
S1131A500CA0004470B505460E461446FFF79EFCE4
S1131A602A68544004EA060151402960BDE87040E8
S1131A70FFF798BC2DE9F041884615461F460446F9
S1131A80002842D0012842D0022843D0032844D061
S1131A90052814BF0023FF2343FA08F3DB0703D40C
S1131AA0BF212748FEF7DEFE88EA050333F003036F
S1131AB003D0C1212248FEF7D5FE072D08F0030804
S1131AC04FF00F012CD8AE0004FA06F2B1401D48C5
S1131AD0FFF7C0FF03211C4808FA06F2B140FFF7E4
S1131AE0B9FF1A4B9DF818202B449B001F60C3F8C4
S1131AF08020012202FA05F5154AC2F824549DF803
S1131B001C20C3F80023BDE8F0813F23C4E74FF451
S1131B107843C1E74FF47C63BEE74FF47E43BBE7F1
S1131B20A5F10806B60004FA06F2B1400948FFF729
S1131B3091FF032108FA06F2B1400748CFE700BF3E
S1131B407C31000000A4004008A4004080208510DF
S1131B5000A0004004A400400CA40040F8B50C46CA
S1131B6015461E46074688B3012831D0022832D0D4
S1131B70032833D0052814BF0023FF232341DB07A8
S1131B8004D440F21D112248FEF76CFE25B1214613
S1131B90384636B3FFF706FF30237B4303F1804317
S1131BA0072C03F520431FD85A68A1000F20884052
S1131BB022EA000205FA01F10A435A6035BB2146C4
S1131BC03846FEB1BDE8F840FFF7ECBE3F23D5E749
S1131BD04FF47843D2E74FF47C63CFE74FF47E436E
S1131BE0CCE7FFF70BFFD7E704F18042083A996886
S1131BF092000F20904021EA000105FA02F20A4304
S1131C009A60DBE7BDE8F840FFF7F8BEF8BD00BF17
S1131C107C310000022838B504460D4603D94C2116
S1131C201048FEF71FFE6B791F2B03D951210D4875
S1131C30FEF718FEAB786A789B0143EA82032A78A0
S1131C401343EA7843EA02132A7943EAC2236A79FE
S1131C5043EA0233AA79043443EA42432401024AA0
S1131C60135138BDA931000000200440014B186015
S1131C70704700BF00008442427801790378002A4B
S1131C80827870B514BF04260026002AC27814BFD7
S1131C9010250025002A42794FEA023242EA012245
S1131CA042EA0302837914BF20240024002BC37961
S1131CB042EA034343EA0603027A43EA050314BFF4
S1131CC04FF4004100212343002A14BF4FF4003293
S1131CD000220B431343014A136070BD00200440EB
S1131CE010B5044618B941210C48FEF7BBFD0C4A57
S1131CF0536911699B0003F03C03C1F381110B4349
S1131D00A370136903F03F0363709369D26903F00E
S1131D10F003C2F303121343237010BDD631000045
S1131D20D0FF0FE070B506460C46154622B940F2C6
S1131D3086210B48FEF796FD1CB90A48FEF782FF80
S1131D400446013C6D00B4FBF5F42402E30DDB050D
S1131D5023B140F2A3210248FEF784FD746170BDF3
S1131D60053200004041050038B5144B144D98422B
S1131D70044606D0A84204D040F22B411148FEF795
S1131D8071FD40F6AA63E36041F20502002323607B
S1131D9062600D4AA3606361E364A264074A236638
S1131DA094426367A367E36701D0AC4200D1236523
S1131DB0AC42A36508BFE36538BD00BF0000014025
S1131DC00004014005320000F9FF010038B5264B3C
S1131DD0984204460D4608D003F58063984204D027
S1131DE040F256312148FEF73DFD2046FFF7BCFF87
S1131DF0A97B2A8A2368002942F0010214BF4FF408
S1131E008061002113430B432A7D23602368002A49
S1131E1014BF4FF00052002213432360AB7C1BB16C
S1131E20EB7C43F08003A3652B7B43F48053636016
S1131E30D5E901122046FFF775FF6B7B0BB1102328
S1131E40E3606B7D1BB1236843F480332360AB7D77
S1131E50EA7D1B07120503F0E04302F4E00213439A
S1131E6023662B78E36038BD000001400532000092
S1131E7003695A06FCD5416303699B06FCD5C06916
S1131E80C0B2704703695B06FCD54163704700002C
S1131E90044B1B681BB1044B0360002070470120F6
S1131EA0704700BF401900202411002070B50D4C6C
S1131EB0246884B10C4C26888518B5420DDC6688EC
S1131EC0CD18B54209DC52B14BB1A080E18022812A
S1131ED06381002070BD0120FCE70420FAE705209F
S1131EE0F8E700BF40190020241100202DE9F04F2D
S1131EF085B000934D4B0F9E1B68002B5AD04C4B62
S1131F00DD885A892A4492B20292009A002A14BFA8
S1131F104FF0FF0A4FF0000A4FFA8AF20D44019283
S1131F20ADB298464FF001091FFA85FB1EB9304641
S1131F3005B0BDE8F08F029B9B453DD2B8F8084040
S1131F403C4BB8F80420241AB44203EB0511009B5F
S1131F5028BF34460244361B92B28BBB072C31D8BF
S1131F60144424E0D00802F007030F5C09FA03F3D9
S1131F703B4301320B5492B2A242F3D368112E4A6E
S1131F800BF01F0352F8201009FA03F30B4342F835
S1131F90203001350020C7E7D70802F00700CB5DE9
S1131FA009FA00F023EA00030132CB5592B2A242AF
S1131FB0F2D3E3E70120BBE70420B9E71444DBE7ED
S1131FC0072CFBD94FEAD20C12F0070201EB0C07E5
S1131FD013D009FA02F3DBB211F80CE0581E0EEA32
S1131FE00000C3F1000E019B03EA0E0E40EA0E004E
S1131FF0083A01F80C0001371444E3080AD01A46E1
S113200038465146039301F020F8039BB4EBC30414
S11320101F44B3D009FA04F4E4B23B786242013CB1
S113202013400AEA04041C433C70A7E7401900204B
S113203024110020401100203011002037B5114D2B
S11320402B68EBB9FEF7ACF9044610B1012003B0DC
S113205030BDFEF799F928600028F7D0018842883E
S1132060094B5A805A814A43198019819C80DC802B
S11320702146CDE90042234622462046FFF736FF9B
S11320800020E4E740190020241100202DE9F84342
S11320901B4DDFF874802C68DFF86890002301265C
S11320A01A46D8F800004188D7188F4207D3FBB9E5
S11320B010220021124800F0C8FF002011E0E107BF
S11320C008D50133D118C9060ABF55F8264064085B
S11320D00136E6E753B109EB0211FEF7FFF810B140
S11320E00720BDE8F8837A1C0346EBE70132E9E7F1
S11320F0044901EB0211FEF7F1F80028D8D0EFE70C
S113210030110020401100204019002030B1026835
S11321100021538812880846FFF7C8BE052070477F
S113212037B50546A8B14468FFF7F0FF014668B922
S11321302A68158953896B430193E3B20093C4F36E
S11321400742C4F30723FFF7D1FE0146084603B054
S113215030BD0521FAE7024658B1118A93695269E4
S11321608089013301325B1A121A9BB292B2FFF7D3
S11321709DBE05207047F0B4D0B1C9B10E688C681B
S1132180A64218DA4D68CA68954214DA002E14DBA8
S1132190002D12DB01680F88BC420EDA49888A429E
S11321A00BDAC0E90365C0E90542F0BCFFF7D3BF11
S11321B00520F0BC70470420FBE70320F9E700008A
S11321C030B5054687B000B300226FF07F43C0E905
S11321D0012301A8FFF75CFE044698B9019B2B601C
S11321E01A885B88CDE90200013A013B02A928461E
S11321F004920593FFF7BFFF044618B90449284623
S113220000F01AF9204607B030BD0524FAE700BFF4
S11322106435000073B50D461646044690B10C3083
S113222000F02FF880B1A26801230193D3B2009388
S1132230B1B2C2F30723A8B2C2F30742FFF756FEB6
S113224002B070BD0520FBE70120F9E773B50D4628
S113225016461C4688B10C3000F013F878B10123FF
S11322600193E3B20093C4F30742C4F30723B1B26A
S1132270A8B2FFF73BFE02B070BD0520FBE70120CA
S1132280F9E778B103688B420BDC83688B4208DB87
S11322904368934205DCC0689042B4BF002001202B
S11322A07047002070472DE9F04F85B093460293A4
S11322B09DF838300393054600287CD0A1F1200313
S11322C05E2B7AD890F82830022B8CB21BD13A2995
S11322D01BD020291BD0303CA4B22B8CA3426CD938
S11322E0EB69DDF8088001930027029B95F825200F
S11322F0A8EB03039BB29A420BD8B7FA87F04009C4
S113230005B0BDE8F08F203CE6E70A24E5E70B249E
S1132310E3E795F82230012B05D0022B1CD0019B5A
S113232053F824A002E0019B13F804A0D946A9EBBA
S11323300B0695F82430B6B2B34211D895F8243080
S113234095F8272013449E4225DB95F823301C443E
S1132350A4B208F10108C8E7019B33F814A0E5E72B
S11323601AF0010F0DD0424649462846FFF752FFA6
S11323700128C5D800B901374FEA5A0A09F1010901
S1132380D5E7039B002BF7D06B68424649462846A5
S1132390FFF75CFFECE7039B53B16B6842460BEB22
S11323A006012846FFF752FF0128A9D800B90137D2
S11323B00136B6B2C2E70520A2E70220A0E72DE964
S11323C0F74F0C9E9DF834B09A46054680B379B316
S11323D090F8283073B30C4601EB020957464FF0CE
S11323E000084C4505D1B8FA88F0400903B0BDE8AF
S11323F0F08F14F8011B0A2907D195F825301E44E3
S113240095F8263057461E44EBE7CDF800B0334626
S11324103A462846FFF747FF0128E7D808B908F1EC
S1132420010895F8243095F8272013441F44D8E771
S11324300520DBE70220D9E708B520B11C301022C3
S113244019B900F002FE052002E000F0F3FD0020BF
S113245008BD2DE9F14F0546084692461C460F4635
S1132460DDE90A8B9DF8309000F0F7FD95F82560C2
S113247095F8262095F824301644012C00FB03F12E
S11324800AFB06B603D0022C10D0002303E02B680D
S11324901B885B1A5B080246434439462846CDE94B
S11324A00A6901B0BDE8F04FFFF789BF2B681C88AB
S11324B0631AF0E77FB5094B6A4603F11006154627
S11324C018685968144603C40833B3422246F7D146
S11324D02846FFF751F9002004B070BD943800007D
S11324E013B50024684600948DF80440FEF79EFF5F
S11324F0204602B010BD000070B5164B86B001AA8C
S113250003F11006154618685968144603C40833C5
S1132510B3422246F7D11B8823800F4B5A6812031B
S11325200DD49B68C3F308030C48ADF80A30FEF7DA
S113253027F82846FEF7A6FE002006B070BD084B1B
S11325401B884FF6FF7140F255128B4208BF1346A9
S1132550EAE700BFA4380000B081E00F00F04902B0
S11325600001E00F07B5084B18680190202301A86B
S11325708DF80430FEF7E6FE6420FEF737FC0020F9
S113258003B05DF804FB00BFB638000010B50C487A
S11325900C4C6FF00402A02112F0800FD3B21BBFC9
S11325A003F00F03043BA3181B1802F101020CBF34
S11325B083F800131976222AEED1002010BD00BF43
S11325C000ED00E000E100E0104A4161136830B51D
S11325D01546ABB91060836011E0091B9C6841612A
S11325E01A467CB123465C698C42F6D9002CF4D09F
S11325F052B19060836013B15A69511A596130BD68
S11326000022F0E72346F4E72860F3E75C19002092
S113261010B500F065F9094B094A196831B113681E
S1132620C41A4B69A34203D31B1B4B61106003E024
S1132630C01A002310604B6110BD00BF5C1900205C
S11326404819002038B50F4D2B685C690E4B1B6888
S113265002201C4400F07CF9204600F04DF90B499F
S11326602A6800230B70D088800702D501230B70E1
S113267038BD9268002AFBD050690344012BF2D97B
S1132680F6E700BF5C19002048190020501900200B
S11326900C4A136800217BB183420AD1836879B163
S11326A08B6083681BB15A6941690A445A610020EE
S11326B0704719469B68EEE70028EFD00220704768
S11326C01360EEE75C19002070B5154EFEF76DFE41
S11326D034780546FCB9134B1C60134B1C60134B38
S11326E01C8000F0B9F8012000F032F900F06EF916
S11326F00F4B0246186020B92846FEF75CFE2320E3
S113270070BD23460B4840F2E73100F0DBFA0A4B78
S11327101860012333702846FEF74DFE0020EFE7D2
S1132720441900205C190020481900205219002087
S11327305819002018FCFFFF4C190020C2072DE98E
S1132740F84F04460BD53F4A138801339BB21380DC
S1132750FFF75EFF3C4B1B680BB1FFF773FFA3074A
S11327606DD53A4F00F0BCF83D688046451BFEF736
S11327701CFE002683463246B246334B1C6814B115
S11327806369AB4214D9012E314B51D1D288022A4C
S11327904ED11E70002C4ED06369C7F800805D1BBB
S11327A06561FFF74FFF5846BDE8F84FFEF703BEDB
S11327B0C7F8008023462A465969914209D81879F6
S11327C094F804C0844588BF1C469B68521A002BA9
S11327D0F2D15846FEF7EFFDD4F814B0C4F814A0B3
S11327E0FEF7E3FD81462046FFF752FF4846FEF719
S11327F0E2FD23694BB1FEF7D8FD216981462046ED
S1132800FFF7E2FE4846FEF7D6FDE36813B1216800
S11328102046984700F064F8D844A5EB08058146A3
S11328200544FEF7C2FD013683462246C846A4E7A6
S113283000221A70AEE7022000F098F8B3E7BDE872
S1132840F88F00BF521900205C190020481900209D
S1132850541900200020704710B51D4B86B05968EC
S1132860186803AA03C2197A53F8090F11700024D7
S11328709A8801909B791748ADF8082001218DF8BA
S11328800A30FEF767F88DF80C40FFF7E3FF8DF888
S1132890100003A8FFF7F0F901A901208DF8044006
S11328A0FFF7B8F90C4A536A23F4FF6323F00703D4
S11328B0536240F2FF73136201209460FFF7D6F96C
S11328C0064B4FF00052C3F880211A6006B010BDC9
S11328D0BA380000A00914000020044000E100E020
S11328E0014B9868704700BF00200440014B586DAD
S11328F0704700BF0020044010B5134C0246A16885
S1132900FFF7F4FFA3695B0704D4431A022B01D831
S113291088420DD1531A012B98BF8A1C0A4BB2F17D
S1132920FF3F28BF01325A655A6A42F004025A62D4
S1132930064A137833B104490B6D43F002030B6567
S11329400023137010BD00BF002004402A10002093
S11329508207054A00F00103516A48BF43F00403AB
S11329600B435362704700BF00200440830700F00C
S1132970010209D5074B0121197007490B6D23F09A
S1132980030342F004020B6503494B6A23EA020382
S11329904B6270472A1000200020044010B5FEF757
S11329A004FD094A93690446590703F0010003F042
S11329B0070348BF40F002001362FFF7BFFE204642
S11329C0BDE81040FEF7F7BC0020044008B50448F9
S11329D0FEF738F90346FFF73DFF23FA00F008BD80
S11329E0A009140008B500F05DF800F0B1F800F09B
S11329F0B1F800F0B1F8BDE8084000F0AEB808B591
S1132A0000F0ACF800F0ABF800F0AAF8BDE808401C
S1132A1000F0A7B810B50446FDF79AFD4FF47A7399
S1132A205C43B0FBF3F0064BB3FBF0F0B4FBF0F007
S1132A30800803D0BDE8104000F00AB810BD00BF04
S1132A4040420F00000000000000000000000000F1
S1132A50013800D0FCE7704700F09CB800F0FEB8E5
S1132A60FDF78CBB08B504211120FEF73FFB0121C3
S1132A700848FDF76FFF02210748FEF737FB0221E4
S1132A800648FEF733FB02210548FEF72FFB002022
S1132A9008BD00BF30053E0002001E0003002000F8
S1132AA005002400244B13B501225A64234BDC6C2B
S1132AB001A8240EFFF714F98E2C1CD82049D1F854
S1132AC0B00040F00403C1F8B0301E4B4FF0501278
S1132AD01A601A631A66C3F89020C3F8C020C3F8BA
S1132AE0F020C1F8B000164AD36A23F07F0343F004
S1132AF02003D36201E08F2CF5D99DF80530012B1A
S1132B0001BF114A136843F0040313600F4B002202
S1132B101A60FFF73BFDFDF743FBFFF7CBFCFFF724
S1132B20EBFCFFF71FFDFFF79DFFFFF7D9FCFDF757
S1132B3029FB02B010BD00BF00000E40B081E00FC1
S1132B4000400E4000A0004064310E40B40AC64369
S1132B5000F008B8FFF7B8BD70477047704770477A
S1132B607047704708B50448FDF74CFD0348BDE8BD
S1132B700840FDF747BD00BFCC380000E438000032
S1132B8008B5FFF72FFFFFF767FFFFF738FFFFF7E1
S1132B9065FFFAE72DE9FF41FDF7F2FA18B1382194
S1132BA02748FDF75FFE0020FFF748FA18B13C21E3
S1132BB02348FDF757FE2348FFF702FB18B14021D5
S1132BC01F48FDF74FFE1F4C1F4E00276FF07F4339
S1132BD02046C4E90137FFF7A3FA1C492046FFF752
S1132BE02BFC32681A4905254FF00108531C336049
S1132BF0CDE901583B460095D2B22046FFF729FCA7
S1132C003268009502EB08033360CDE901583B4676
S1132C10D2B210492046FFF71CFC3268009502EB43
S1132C2008033360CDE901583B46D2B20A49204635
S1132C30FFF70FFC04B0BDE8F041FFF727BA00BF6F
S1132C40FC380000641900206019002034320000B0
S1132C50093900001B3900003039000070470000BA
S1132C601FB50446FDF7D4FC01281FD1104B9C422C
S1132C700AD1104B104800221A60FFF751FA04B031
S1132C80BDE81040FFF702BA0C4B9C42F7D1094B48
S1132C901A68511C196005230290CDE90033D2B2A1
S1132CA0002307490448FFF7D4FBE8E704B010BD4C
S1132CB0CC3800006019002064190020E4380000BA
S1132CC04539000053B94AB9002908BF00281CBF80
S1132CD04FF0FF314FF0FF3000F072B9ADF1080C46
S1132CE06DE904CE00F006F8DDF804E0DDE9022326
S1132CF004B070472DE9F047089E04468846002B2F
S1132D004BD18A42154667D9B2FA82F24AB1C2F16E
S1132D10200701FA02F320FA07F7954047EA03086F
S1132D2094404FEA154E230CB8FBFEF71FFA85FCBE
S1132D300EFB178843EA084307FB0CF1994209D9B3
S1132D40EB1807F1FF3080F01B81994240F21881A3
S1132D50023F2B445B1AA4B2B3FBFEF00EFB10330C
S1132D6044EA034400FB0CFCA44509D92C1900F1E6
S1132D70FF3380F00781A44540F2048102382C44DB
S1132D8040EA0740A4EB0C0400271EB1D440002302
S1132D90C6E900433946BDE8F0878B4209D9002EC5
S1132DA000F0EB800027C6E9000138463946BDE84B
S1132DB0F087B3FA83F7002F47D18B4202D38242C4
S1132DC000F2FA80841A61EB030301209846002E76
S1132DD0E0D0C6E90048DDE702B9FFDEB2FA82F2CC
S1132DE0002A40F08F80491B4FEA154E1FFA85F8E0
S1132DF00127B1FBFEFC230C0EFB1C1143EA01432B
S1132E0008FB0CF1994207D9EB180CF1FF3002D200
S1132E10994200F2CD808446591AA3B2B1FBFEF068
S1132E200EFB101443EA044408FB00F8A04507D93C
S1132E302C1900F1FF3302D2A04500F2B6801846E7
S1132E40A4EB080440EA0C409FE7C7F1200CBB4008
S1132E5022FA0CFE4EEA030E01FA07F420FA0CF5EE
S1132E6021FA0CF34FEA1E482543B3FBF8F92C0C66
S1132E7008FB19331FFA8EFA44EA034309FB0AF4E8
S1132E809C4202FA07F200FA07F10BD91EEB030386
S1132E9009F1FF3080F087809C4240F28480A9F1E0
S1132EA0020973441B1BADB2B3FBF8F008FB1033EB
S1132EB045EA034400FB0AFAA24508D91EEB0404C0
S1132EC000F1FF336BD2A24569D90238744440EA59
S1132ED00940A0FB0289A4EB0A044C45C2464B46B8
S1132EE054D351D0002E69D0B1EB0A0564EB03042E
S1132EF004FA0CFCFD40FC404CEA0505C6E900540C
S1132F00002747E7C2F1200320FA03F7954001FAAE
S1132F1002F021FA03F34FEA154E3843010CB3FBD8
S1132F20FEF71FFA85F80EFB173341EA034107FB4E
S1132F3008F38B4204FA02F407D9691807F1FF3C3D
S1132F402FD28B422DD9023F2944CB1A81B2B3FB35
S1132F50FEF00EFB103341EA034100FB08F38B4201
S1132F6007D9691800F1FF3C17D28B4215D90238F2
S1132F702944C91A40EA07473BE73746304609E780
S1132F800746E7E61846FBE64145ABD2B8EB020A32
S1132F9069EB0E0201381346A4E76046E9E71846D8
S1132FA095E76746D1E781467CE702382C4447E73A
S1132FB0ACF1020C2B442FE7384608E73746E9E624
S1132FC0704700BF08B5074B044613B10021AFF3A7
S1132FD00080054B1868836A03B19847204600F0C7
S1132FE045F800BF000000005439000070B50D4ED4
S1132FF00D4CA41BA4100025A54209D10B4E0C4C6A
S113300000F036F8A41BA4100025A54205D170BD1C
S113301056F8253098470135EEE756F8253098479D
S11330200135F2E7A4100020A4100020A410002011
S1133030A810002010B5431E0A44914200D110BDCF
S113304011F8014B03F8014FF7E70244034693429A
S113305000D1704703F8011BF9E7034613F8012B6D
S1133060002AFBD1181A013870470000FEE700BFA0
S1133070F8B500BFF8BC08BC9E467047F8B500BF61
S1133080F8BC08BC9E467047050000000000000024
S113309040420F0005010000000000000000000095
S11330A08000800001010000E0C810003C0602001E
S11330B0050000000000000040420F000501000070
S11330C000000000000000006765636B6F5F7364BD
S11330D06B5F332E312E312F706C6174666F726D9D
S11330E02F656D6C69622F696E632F656D5F677004
S11330F0696F2E68006765636B6F5F73646B5F3322
S11331002E312E312F706C6174666F726D2F656D68
S11331106C69622F7372632F656D5F636D752E63C7
S1133120006765636B6F5F73646B5F332E312E31A1
S11331302F706C6174666F726D2F656D6C69622F90
S1133140696E632F656D5F636F6D6D6F6E2E6800C2
S11331506765636B6F5F73646B5F332E312E312F42
S1133160706C6174666F726D2F656D6C69622F731C
S113317072632F656D5F656D752E63006765636BA4
S11331806F5F73646B5F332E312E312F706C6174FB
S1133190666F726D2F656D6C69622F7372632F6534
S11331A06D5F6770696F2E63006765636B6F5F7334
S11331B0646B5F332E312E312F706C6174666F72C5
S11331C06D2F656D6C69622F7372632F656D5F720D
S11331D07463632E63006765636B6F5F73646B5F17
S11331E0332E312E312F706C6174666F726D2F65C2
S11331F06D6C69622F7372632F656D5F737973747D
S1133200656D2E63006765636B6F5F73646B5F331B
S11332102E312E312F706C6174666F726D2F656D57
S11332206C69622F7372632F656D5F75736172745D
S11332302E630000443200002003016406080200EB
S11332400100000000040A0A040306060802000044
S1133250000000000E040E1F081F0C1F0E0E0000BD
S11332601000010E0E0E0F0E071F1F0E110E1C1163
S11332700111110E0F0E0F1E1F11111111111F0E2E
S1133280000E04000200010010000C0001040801FB
S11332900600000000000000020000000000000C16
S11332A0040600000000000000040A0A1E130904BA
S11332B00404040400000000110611080C010210AB
S11332C01111060608000211101111110901011152
S11332D011040809011B111111111101041111111B
S11332E01111100200080A00040001001000121E4F
S11332F001000001040000000000000002000000C2
S113330000000002040802000000000000040A1F7C
S11333100108050202081504000000101904100435
S11333200A0F010811110606041F041010111101DF
S113333011010101110408050115131111111101E5
S1133340041111110A11080201081100080E0D0ED2
S1133350160E02110D060C09040B0D0E0F160D0EA0
S11333600711111111111F020408150000000000BB
S11333700004000A0E04020002080E1F001F0008C9
S11333801504080809100F040E1E000002000808A6
S113339016110F01110F0F1D1F040803011515113C
S11333A00F110F0E04111115040A04020208000083
S11333B00010130119110711130408050415131142
S11333C011191301021111110A1108010410080046
S11333D0000000000000001F100215000208150480
S11333E006000004130404101F1011021110060635
S11333F0041F0404151F1101110101111104080512
S11334000111191101150510041111150A04020204
S113341004080000001E1101111F021E11040803FC
S1133420041511110F1E010E02111115041E0402C0
S113343004080000000000000000000A0F19090041
S11334400404040404000602110402110811110208
S113345011080604080002001511111109010111D7
S113346011040909011111110109091004110A15A6
S113347011040102080800000011111111010210C9
S113348011040905041111110110011012190A1572
S11334900A10020204080000000000000004000AF0
S11334A00418160008020000020006010E0E1F0E8A
S11334B0080E0E020E060002100001040E110F0E7B
S11334C0071F010E110E06111F11110E0116110F07
S11334D0040E040A11041F0E100E001F001E0F0E0E
S11334E01E0E020E110E06090E11110E0110010F0F
S11334F00C16040A110E1F0C040600000000000044
S113350000000000000000000000000000000000B7
S113351000000000000000000000000000000000A7
S11335200000000000000000000000000000000097
S11335300000000000000000000000000000000087
S11335400000000000000000000000000000000077
S11335500000000000000000000000000000000067
S11335600000000074350000200301640808020014
S11335700100000000186C6C10CE3808600C0000CC
S1133580000000007C307C7CC6FE7CFE7C7C00005D
S113359070001C7C7C7C7E7C7EFEFE7CC63C78C6F7
S11335A006C6C67C7E7C7E7C7EC6C6C6C6C6FE7C3F
S11335B0007C10000C0006006000380006000006C5
S11335C00C000000000000000000000000000030BB
S11335D018188C000000000000186CFEFC6A2C18FF
S11335E030186C18000000C0C638C6C6C606C6C06F
S11335F0C6C61818387C38C6C6C6C6C6C60606C6A9
S1133600C618306606EECEC6C6C6C6C618C6C6C638
S1133610C6C6C00C066038000C00060060000C0032
S1133620061830060C00000000000000180000001E
S1133630000000181830D60000000000001848FEF2
S1133640162E2C181830381800000060C63060C0E0
S1133650C6060660C6C618181C7C70C6F6C6C60622
S1133660C6060606C618303606FEDEC6C6C6C6063A
S113367018C6C6C66CC6600C0C606C00043C3E3CAC
S11336807C3C3C3C3E0000660C6E3E3C3E3C363C82
S1133690186666C666667E18183062000000000070
S11336A00018006C7C10DC001830FE7E1C7E00309C
S11336B0C6303070FE7E7E307CFC00000E00E07070
S11336C0F6FE7E06C61E1EF6FE18301E06D6F6C68A
S11336D07EC67E7C18C6C6D638FC300C1860C60080
S11336E00060660666660C66661830360CD666663A
S11336F066666E067C6666C63C66300C006000003A
S113370000000000000000FED0E866001830387E9B
S11337101C7E1C18C63018C0C0C0C618C6C01818F5
S11337201C7C703076C6C606C60606C6C618303679
S113373006C6E6C606B6C6C018C6C6FE6CC0180CD9
S113374030600000007C6606667E0C7C6618301EC5
S11337500CD666663E56063C186666D6187C181863
S11337601830000000000000001800FE7EAC660067
S113377030186C1818001C0CC6300CC6C0C6C60C19
S1133780C6C61818387C380006C6C6C6C60606C69D
S1133790C618366606C6C6C60666C6C618C66CEE23
S11337A0C6C00C0C606000FE0066660666060C600F
S11337B0661836360CC666660626066018663CD65B
S11337C03C600C1818300000000000000018006C69
S11337D010E6DC00600C00180C001C067C78FE7CF3
S11337E0C07C7C067C7C000C70001C307CC67E7C1B
S11337F07EFE06FCC63C1CC6FEC6C67C06DCC67C39
S1133800187C38C6C67EFE7CC07C00FE007C3E3C34
S11338107C3C0C3E66701C6638C6663C065C063E04
S1133820707C18FC663E7E30181800000000000012
S11338300000000000000000000000000000000084
S11338400000000000000000000000000000000074
S11338500000000000000000000000000000000064
S11338600000000000000000000000000000000054
S11338700000000000000000000000000000000044
S11338800000000000000000000000000000000034
S113389000000000000108070F000A00C800200013
S11338A0A000000000000000A00055010A20070647
S11338B0020A0407000000020700010000000500DE
S11338C00000000200000300000002002C10002091
S11338D0C50600001D07000021070000770700004F
S11338E08707000034100020C50600001D070000F3
S11338F02107000077070000870700006D656D6CE5
S113390063645F6170702E63004D454D4C434420E9
S113391053616D706C652041707000205072657346
S1133920732042544E3020746F20636C65617200C2
S11339302050726573732042544E3120746F20708E
S113394072696E740048656C6C6F20576F726C649A
S10B39502100000044100020D6
S10B3958B0C7FF7F010000006D
S113396000040140003204000000FFFF010B00FFCF
S113397004000000C0EA210100F04902C0EA21016C
S113398000800000C0EA2101FFFF010000000000E8
S1133990050402000000000005050200CC38000008
S11339A0E4380000000000000000000000000000F7
S11339B00000000000000000000000000000000003
S11339C000000000000000000000000000000000F3
S11339D000000000000000000000000000000000E3
S11339E000000000000000000000000000000000D3
S11339F000000000000000000000000000000000C3
S10F3A0000000000ED000000C900000000
S90304D523
