S02300006275696C642F64656275672F6D656D6C63645F626172656D6574616C2E733337DE
S1130000001000207D05000079050000790500003E
S113001079050000790500007905000079050000E4
S113002079050000790500007905000079050000D4
S113003079050000790500007905000079050000C4
S113004079050000790500007905000079050000B4
S113005079050000790500007905000079050000A4
S11300607905000079050000A10800007905000069
S11300707905000079050000790500007905000084
S11300807905000079050000C50800007905000025
S11300907905000079050000790500007905000064
S11300A07905000079050000790500007905000054
S11300B0790500007905000079050000292E00006B
S11300C07905000079050000790500007905000034
S11300D07905000079050000790500007905000024
S11300E07905000079050000790500007905000014
S11300F079050000790500007905000010B5054C6C
S1130100237833B9044B13B10448AFF300800123BF
S1130110237010BDAC10002000000000D83D00008A
S113012008B5034B1BB103490348AFF3008008BD76
S113013000000000B0100020D83D0000154B002B3B
S113014008BF134B9D46A3F5803A00218B460F460A
S11301501348144A121A03F0A4F90F4B002B00D0D1
S113016098470E4B002B00D0984700200021040034
S11301700D000D48002802D00C48AFF3008003F0B6
S113018061F92000290002F027FF03F047F900BFBE
S11301900000080000100020000000000000000023
S11301A0AC100020A819002000000000000000008E
S11301B008B5002318460422052101F093FE00200F
S11301C008BD08B5042201230F21032001F08AFE93
S11301D0002008BD08B50121044800F023FC02F00A
S11301E07FFEBDE8084000F049B900BF00350A00B1
S11301F00121014800F016BC00350A002DE9F04148
S11302001A4E0446884617460FCE86B06D460FC573
S113021096E8030085E8030001211548256800F0ED
S113022001FC6068012100F0FDFB617B207B002361
S1130230042201F057FE00230422617A207A01F09F
S113024051FE28466946CDF80880ADF8107001F0DB
S113025089FF237CA27B1B0643EA0223AB670020B1
S11302600A236B6706B0BDE8F08100BFE0340000EC
S113027000350A0070B506680C468D18AC4201D1F1
S1130280002070BD14F8011B304601F0CBFFF5E7E8
S1130290026813699B06FCD57047000013B5044639
S11302A002F08CFC217B00230122CDE900324900BD
S11302B0034AB0FBF1F1034802F066FC02B010BD42
S11302C0C9020000C8100020024B4FF40052C3F8CA
S11302D0A820704700A0004073B50E4B0E4E4FF49B
S11302E080441C600546407B02F0DAFD02A9042329
S11302F021F8023D02223046FFF7BCFF3046FFF7EB
S1130300C7FFA87B02F0CCFD044B00201C6002B0A8
S113031070BD00BF9CA00046001000209CA00044BB
S113032038B5044601211248124D00F07BFBA16848
S113033011480022FFF762FF002304220E2103204C
S113034001F0D0FD002304220D21032001F0CAFD99
S113035094E80F0085E80F00084B012220461A702C
S1130360FFF79CFF2046FFF7B7FF002038BD00BF12
S113037000350A00E410002000100020E0100020E6
S11303802DE9F04F994605790388DFF89CA05D4379
S1130390244B14464FF480421A60013485B0A4B251
S11303A00646407B884604AF02F07AFD230243F000
S11303B0010327F8023D022239461B48FFF75AFF82
S11303C009F1FF33ED104FF0000B01930134CB45DD
S11303D00DD11548FFF75CFFB07B02F061FD134BB4
S11303E04FF4804200201A6005B0BDE8F08F2A4621
S11303F041465046FFF73EFF019B5B451BBF04EBA4
S11304000B0212024FF6FF7242F0FF02ADF80E200B
S1130410394602225046A844FFF72CFF0BF1010B8A
S1130420D5E700BF9CA00046001000209CA000441B
S1130430034B04481B78002B08BF0020704700BF03
S1130440E0100020E41000201FB5054B0FCB6C46D4
S113045084E80F002046FFF763FF04B010BD00BF1F
S1130460F8340000014B10221A6070470CA00046BB
S1130470014B10221A6070470CA0004470B5384D2F
S1130480384E0FCD86B06C460FC495E8030084E85F
S11304900300354C3548012100F0C4FA30460121EF
S11304A000F0C0FA0125324B0293694620468DF8CC
S11304B00E5001F057FE2B4604220621022001F0C3
S11304C011FD2A4600230721022001F00BFD2B46D3
S11304D004220821022001F005FD042211462B46C6
S11304E0002001F0FFFC234BA3670B2363674FF449
S11304F0487002F0D5FCFFF7BBFF142002F0D0FCDB
S1130500FFF7B0FF232002F0CBFCFFF7B1FFB921C6
S1130510204601F07DFEFFF7A5FF00231A460621C1
S1130520022001F0DFFC00231A460721022001F01B
S1130530D9FC2B4600220821022001F0D3FC002222
S113054010462B46042101F0CDFC204601F0D0FDDD
S11305500021A1673046616700F064FA06B070BDFF
S113056008350000004204000004014000350A0080
S113057000127A000B0B000BFEE7000008B500F038
S113058069F8064B0649074A8B4201D3FFF7D6FDAB
S113059052F8040F43F8040BF6E700BF00100020E4
S11305A0AC100020DC3D00000048704700F0490218
S11305B0104AD2F8943003F00703023B032B13D8FC
S11305C0DFE803F00C14020E0B4B1B68D2F8000199
S11305D0C0F304200130B3FBF0F07047074BF4E79D
S11305E0074B1B685B08F1E7054BEEE74FF400434C
S11305F0ECE700BF00400E4020100020181000203F
S11306001C10002008B5FFF7D3FF054BD3F80831C1
S1130610C3F308230133B0FBF3F0024B186008BDA9
S113062000400E4014100020014B1868704700BFB2
S113063018100020054B1860054BD3F8943003F0D4
S11306400703022B01D1FFF7DDBF7047181000200C
S113065000400E40044B054A9A60D3F8882042F4C7
S11306607002C3F88820704700ED00E0000000002D
S11306704FF4004070474FF47A707047014B18688C
S1130680704700BF2010002043680BB10068184772
S11306902220704783680BB100681847FF20704719
S11306A038B50C460546D0B101281AD002281BD013
S11306B003281CD005280CBFFF2300232341DB079C
S11306C004D440F2B2310B4800F00EF930235D43FC
S11306D0094B2B4404EBC304A400206838BD3F231A
S11306E0ECE74FF47843E9E74FF47C63E6E74FF433
S11306F07E43E3E7203500001CA01042104B70B588
S11307001A78104E01460024E3B29A4200D870BD14
S113071056F824301D686B798B420FD12B78022B4D
S11307200CD02879FFF7BCFFB0FA80F0400928709C
S113073056F82400BDE8704002F0BEBC0134E3E783
S11307404A3D00003C10002013B504460121124824
S113075000F068F9002301226179207901F0C2FBDD
S113076061792079FFF79CFFA379B0FA80F0400902
S1130770022B20700DD100F077F80849607900F061
S113078081F8627920790123CDE90033114601F023
S113079035FB002002B010BD00350A00FD06000044
S11307A00078704710B50378022B044616D04179BF
S11307B00079FFF775FFA279012A17D163885B00DE
S11307C063F03F039BB200280CBF184643F00100BE
S11307D04FF6E073984202D12270608010BD4FF64C
S11307E0DF73984204BF00232370F6E7002AF5D193
S11307F0B0FA80F040092070F0E70278022A03D1B1
S113080000224280FFF7A0BF704713B50378022B84
S1130810044610D08379022B0BD10021407900F0DB
S113082031F8627920790023CDE90033114601F0D3
S1130830E5FA0223237002B010BD000070B5094E22
S11308400446012504B970BD94FAA4F0B0FA80F00E
S113085005FA00F324EA030456F82030002BF1D003
S11308609847EFE7F4100020054B4FF48022C3F8BB
S113087080211A604FF48062C3F880211A607047A7
S113088000E100E038B504460D4600F0B8FE034B25
S113089043F82450BDE8384000F0B7BEF4100020FF
S11308A0074BD3F82804D3F81C24104020F42A5012
S11308B020F02A004004400CC3F82404FFF7BEBF14
S11308C000A00040074BD3F82804D3F81C241040A0
S11308D020F4AA4020F055000004000CC3F82404BE
S11308E0FFF7ACBF00A00040FEE700000C4B9842AD
S11308F010D90C4B984210D9022201230A490B60EB
S11309000A49D1F8003123F0807343EA0263C1F845
S11309100031704700221346F0E70122FBE700BFD5
S11309200048E8010090D0034000C84300400E4056
S113093038B5104B104C5B68C9B2002304EBC302FA
S113094015798D4203D154F83350854210D20133C6
S1130950052BF3D141F22A210848FFF7C5FF0322F2
S113096004494B6823F0407343EA02634B6038BD8B
S11309705279F5E700000E40A83500007C350000F0
S11309801F2810B5044604D940F225110248FFF788
S1130990ABFF0120A04010BD4D35000038B5074C19
S11309A041F67133256C2364FFF7FEFD0021FFF748
S11309B0BFFF0DB10023236438BD00BF00000E400B
S11309C0044B1B685B0603D4034A1368002BFCD159
S11309D0704700BF3C300E40C800C64308B5FFF75F
S11309E0EFFF024B5868C0F3014008BD00300E40D1
S11309F0044BD3F84421D20703D4D3F84021104246
S1130A00FBD1704700400E4038B5054C41F67133B8
S1130A10256C2364FFF78CFF0DB10023236438BDDC
S1130A2000000E40C0F30322013A38B50546092AF6
S1130A3021D8DFE802F0272A202005131620191DEB
S1130A40134C0020C5F3043508B1FFF7D1FF04F1BE
S1130A50047405EBC404A400216038BD01200D4CCE
S1130A60F0E710200C4CEDE74FF480300B4CE9E735
S1130A7000200B4CE6E741F2C7710A48BDE8384054
S1130A80FFF732BF0020084CDCE70020074CD9E711
S1130A90B0400E40E0400E40E8400E40F0400E40B2
S1130AA050410E407C35000000400E40C0400E40D6
S1130AB008B5C0F30313013B092B60D8DFE803F04A
S1130AC0050B0F195F5F1F233C532E4BD3F8000116
S1130AD0C0F3042008BD2B4BD3F81401F8E7294BCD
S1130AE0D3F80001C0F300600130FFF749FF01387B
S1130AF0F0E7244BD3F80C01C0F30820EAE7214BBC
S1130B00D3F80801F8E7204B984209D01F4B9842CC
S1130B100CD041F66B111E48FFF7E6FE0020D9E722
S1130B20184BD3F8200100F00F00DEE7154BD3F883
S1130B302001C0F30110D8E7164B984208D003F502
S1130B40B01303F58053984206D041F68F11E2E7C3
S1130B500C4BD3F82801ECE70A4BD3F82801C0F377
S1130B6001200430C1E70C4B984205D1054BD3F862
S1130B70300100F00300ADE741F69E11CBE741F6EA
S1130B80C311C8E700400E408006160080162E00F0
S1130B907C35000090171A00A009140008B5FFF76F
S1130BA087FF013008BD000000F00F00013808B5D0
S1130BB0072856D8DFE800F004172455333D55457F
S1130BC02E4BD3F8943003F00703023B052B08D8CF
S1130BD0DFE803F04E2D500307050B2008BD0C2061
S1130BE0FCE70520FAE7254BD3F8803003F0070330
S1130BF0013B042B17D8DFE803F01A3D16183F0019
S1130C001E4BD3F8843003F00703013B042B0AD8AE
S1130C10DFE803F00D30030B32000620DEE7174B4C
S1130C20D3F88830E2E70120D8E70A20D6E703208A
S1130C30D4E7124B1B6F13F0010F14BF09200720D8
S1130C40CCE70E4BD3F85C3103F03003202B0FD0EC
S1130C50302B04D0102B0CBF07200120BEE7082046
S1130C60BCE7074841F61751FFF73EFE0020B5E701
S1130C700420B3E70220B1E70D20AFE700400E40A7
S1130C807C3500002C4B984210B504460AD02B4BFF
S1130C90984207D02A4B984204D041F22A3129487D
S1130CA0FFF722FE2046FFF77FFF234B9C4211D023
S1130CB0224B9C4212D0224B9C4213D1224BD3F89C
S1130CC0804004F00704052C2ED8DFE804F02B1232
S1130CD0161E1A121C4BD3F88440F2E71A4BD3F8B1
S1130CE08840EEE7044641F259311648FFF7FCFD0F
S1130CF0E9E7BDE81040FFF7BBBCBDE81040FFF7D3
S1130D00BDBCBDE81040FFF7B6BCFFF751FC0E4B6D
S1130D100446D3F80001C0F300600130FFF730FE51
S1130D20B4FBF0F4204610BD41F2AB310548FFF7A7
S1130D30DBFD0024F6E700BF0300200005002400CB
S1130D4002001E007C35000000400E4038B500F45F
S1130D507813B3F5B01F05467DD02AD8B3F5202FFC
S1130D6007D00AD8B3F5003F62D0B3F5802F54D032
S1130D705BB9BDE83840FFF71BBCB3F5602F00F04A
S1130D80878005D8B3F5402F58D041F6F70189E0A4
S1130D90B3F5801F00F0A480B3F5A01FF5D15A4825
S1130DA0FFF770FF594BD3F8303103F00303D840F9
S1130DB03DE0B3F5101F69D012D8B3F5F01F45D04C
S1130DC0B3F5001F55D0B3F5D01FDED15048FFF75F
S1130DD059FF4E4B0446D3F82801C0F3011043E0F9
S1130DE0B3F5401F47D00BD8B3F5381FCDD14948D0
S1130DF0FFF748FF454BD3F82031C3F30113D6E77F
S1130E00B3F5481F53D0B3F5781FBED1FFF7D0FB1D
S1130E1004462846FFF7C2FE28E0FFF7C9FB3B4B18
S1130E20D3F80C31C3F308230133B0FBF3F038BD1E
S1130E30FFF7BEFB354BD3F80831F3E7FFF7B8FBF8
S1130E40324BD3F81431C3F30423EDE73148BDE842
S1130E503840FFF717BF2F48FFF714FF2B4B04460A
S1130E60D3F8200100F00F00FFF78AFDB4FBF0F087
S1130E70DDE72748EBE72648FFF704FF234B04464A
S1130E80D3F82801C0F301200430EDE71E48DEE763
S1130E902148FFF789FE072822D009283FF469AFCB
S1130EA041F2EC011D48FFF71FFD0020BFE71C487D
S1130EB0FFF77AFE0138072823D801A353F820F05E
S1130EC0AB0E0000030F0000030F0000E70E00004C
S1130ED0030F0000030F0000E10E0000EF0E0000FE
S1130EE0104B1868A3E7BDE83840FFF79DBBFFF738
S1130EF05FFB064BD3F80031C3F3042303FB00006C
S1130F0095E741F22311CDE70500240000400E408F
S1130F100300200002001E0006000E007C350000C5
S1130F20B800320024100020014B1880704700BF25
S1130F3028100020013808B5032816D8DFE800F08F
S1130F40020F070C0C4B186AC0F3080008BD0A4BCB
S1130F50186900F07F00F9E7074B9869F9E7064B39
S1130F60D3F89C00C0F30A00F0E7044842F2F041D1
S1130F70FFF7BAFC0020E9E700400E407C35000092
S1130F80013838B50C46032861D8DFE800F0024187
S1130F90192DB1F5007F04D342F216512F48FFF703
S1130FA0A3FC2F4AC4F308041368002BFCD12D4A78
S1130FB0136A23F4FF7323F001032343136238BD40
S1130FC07F2904D942F223512448FFF78DFC264996
S1130FD004F07F020B68002BFCD1224B1C6924F027
S1130FE07F0414431C61EAE77F2904D942F23E518D
S1130FF01A48FFF779FC1D4904F07F020B68002BA7
S1131000FCD1184B9C6924F07F0414439C61D6E7FF
S1131010144DD5F890305B0704D542F24D510F487A
S1131020FFF762FC6B6A23F0300343F010036B623A
S1131030296B0F4BC4F3C31203320F2A03EA0103D3
S113104028BF0F221C4344EA02742C63B7E742F220
S113105067510248BDE83840FFF746BC7C350000C4
S11310606828C84300400E406028C8436428C84329
S113107000F8FF0F022838B50D4604D042F27F5124
S11310801248FFF731FC124C636A13F0300F04D09E
S1131090202D18D0302D00D015B94FF4400305E0B1
S11310A042F29A510948FFF71FFC0A4BD4F89020EA
S11310B033EA0202FAD15B024ABFD4F8A00001204D
S11310C0C0F3802038BD4FF40003EFE77C35000007
S11310D000400E40FFF3E17F022808B50CD129B18E
S11310E0094B4FF48060C3F8A80059664AB1022046
S11310F0BDE80840FFF7BEBF42F2D0510348FFF7F6
S1131100F3FB012008BD00BF00400E407C35000009
S1131110F7B506460F461546072827D8DFE800F03E
S113112004A3322D9E26260D4FF400714FF48074D3
S113113008230922002F7DD073E001A800F094FF5A
S11311409DF80530012B06D94FF400414FF480443B
S11311500E230F22EEE79DF80430022BF4D8444C02
S113116042F256412046FFF7BFFBF9E742F26441E1
S11311703F48FFF7B9FB03B0F0BD0124022100236F
S11311802246D7E7002952D03A4C636A13F0300F55
S113119044D1394BDB6B5A0504D442F273413448D1
S11311A0FFF7A2FB636ADB0705D5636A23F030030C
S11311B043F0100363620424022303222D490C66C6
S11311C02E490B449B0018680028FCD0002DD2D077
S11311D00A4495002B68002BFCD0022ECBD1002FA3
S11311E0C9D0244B596A11F001011CD001222021DD
S11311F03046FFF771FF0220FFF79CFE01220646EE
S113120000210220FFF784FF31460220FFF7B8FED9
S1131210184B1C662B68002BFCD0ACE7042402237B
S113122003220027CAE73046FFF724FFE3E708213B
S1131230022303220F480166012101FA03F3D0F8C7
S113124090101942FBD1002D95D00123094903FACE
S113125002F2D1F890301342FBD18CE72021102404
S11312600423052266E7802140240623072261E740
S11312707C35000000400E4000300E408004F21027
S1131280112870B506460C4630D1042917D1FFF752
S1131290CBF90546D0B10021284600F0A1FA06F0AA
S11312A00F06013E072E00F20381DFE816F021004D
S11312B07100AB0001018700CC000101DA000529AF
S11312C004D17F4B1D687F4B9D42E4D8023C0A2C1D
S11312D051D8DFE814F0180053003B0042005000DE
S11312E050005000500049005700F0000025D6E798
S11312F0023C0A2C3FD8DFE804F007422A313E3E84
S11313003E3E3746490000250020042401221146B0
S1131310FFF7FEFEFFF742FB0DB1FFF751FB6A4BEF
S11313205C67FFF76FF90446FFF742F9FFF7DEFA4F
S1131330FFF754FB01462046FFF766FB002D67D1FB
S113134028460121BDE8704000F04ABA00255F48F4
S1131350FFF7CCFA02200446D8E700255B48FFF7E4
S1131360C5FA01240320D1E741F6D8515848BDE815
S11313707040FFF7B9BA41F6DD51F7E700250120C7
S11313800324C3E7002503200524BFE70724C1E79E
S1131390062C39D141F61C614D484E4DFFF7A4FA95
S11313A041F62C614A48FFF79FFAFFF701F9FFF76E
S11313B09DFA494B01221A60032328E0062C474D6D
S11313C0EED0013C0C2C39D801A353F824F000BF13
S11313D04314000013140000211400003D14000005
S11313E03D140000AB1300003D1400003D14000048
S11313F03D1400000D1400003D1400003D140000D5
S11314002F140000364DDCE7324DDAE704232B605D
S113141070BD012211460020FFF77AFE0223F6E791
S1131420012211461046FFF773FE0123EFE7012264
S113143011460720FFF76CFE0523E8E741F65761E4
S113144094E70023E3E7072C04D0092C06D041F6E7
S1131450E1618BE71C4B00221A67D9E71A4B012282
S1131460FAE7013C072C1ED8DFE804F0201D1D1606
S11314701D1D0F0403221449D1F85C3123F03003FD
S113148043EA0213C1F85C31C2E701221146042089
S1131490FFF73EFE0122EEE7012211460220FFF78C
S11314A037FE0222E7E741F63F715FE70022E2E7F9
S11314B042F216015AE7FFF771FA002507242EE7D6
S11314C01C100020002D310100400E400148E801AD
S11314D07C35000080400E400816C84388400E400A
S11314E084400E4010B504461120FFF75DFB04282C
S11314F004D142F2FF212548FFF7F6F90122002129
S11315000220FFF705FE63781BB9A3780BB9E378D3
S113151023B142F23D311D48FFF7E6F9237C012B4C
S113152004D142F242311948FFF7DEF9184A217C0E
S1131530536A23F00103022908BF43F001035362F5
S1131540144B21781960637AA18843EAC123D362DA
S1131550136BA07A217A03F07F630343E08843EAA4
S1131560C02343EAC11303310F2928BF0F2143EAE3
S113157001731363A37B617B1B0143EA0133E17BAA
S11315800B43217B43EA0143536310BD7C350000C8
S113159000400E40A004C84370B505461120FFF773
S11315A003FB022804D142F2BD310E48FFF79CF937
S11315B00D4E0E4BB26B2C7813401C436B7844EAEF
S11315C0C324AB7844EA0364EB7844EA0324B36BA2
S11315D0A34205D0002101220846FFF799FDB46318
S11315E070BD00BF7C35000000400E4080E4FFF871
S11315F0EFF3108072B6704700B962B67047EFF32C
S11316001180602383F31188704780F31188704739
S1131610034B186880F04000C0F38010704700BF8F
S11316203C300E4038B542EA032340F201129342A3
S113163005460C4630D0B3F5817F0DD2012B22D064
S113164035D3B3F5807F36D040F639111E48FFF705
S11316504BF9002213461CE040F20122934222D0AF
S113166006D8B3F5007FEFD1184BD3F870310DE0F5
S1131670B3F5407F23D040F201329342E4D1134BBF
S1131680D3F878310BE0114BD3F87431C3F307224C
S1131690DBB22B60226038BD0C4BD3F874311A0EC8
S11316A0C3F30743F5E7094BD3F87831EEE7074B6B
S11316B0D3F86C31EAE7054BD3F86C31EFE7034B11
S11316C0D3F87031EBE700BFD0350000B081E00FF4
S11316D008B5FFF79DFF18B1024A1368002BFCD12F
S11316E008BD00BFC800C6431A4B022810B5D3F882
S11316F080310C4612D0032813D0012814BFDBB26A
S1131700C3F307231B0323F47042ECB95AB140F628
S1131710C8011148FFF7E8F8002010BDC3F30743E0
S1131720F0E71B0EEEE70D49CA6E22F47042134334
S1131730CB660120F1E70949D1F8E02022F4704298
S11317401343C1F8E030F4E7002AF4D040F6D401A2
S1131750DFE700BFB081E00FD035000000300E405D
S1131760F8B504460F46FFF753FF78B3FFF7B0FF11
S1131770174B5B68C3F301439C4227D0154BD3F846
S11317800051FEF715FF022C06460FD1C5F30425C0
S1131790114B05FB00059D4204D940F2DC510F4872
S11317A0FFF7A2F802213046FFF72EF9C4F1020236
S11317B010239340064A13610FB1FFF789FF2CB938
S11317C021463046BDE8F840FFF71EB9F8BD00BF1A
S11317D000300E4000400E40002D3101D035000095
S11317E038B502460D46FFF713FFB8B142B90C4BAA
S11317F0D3F80041FEF7DCFEC4F3042202FB00022E
S1131800084B1B7829463BB1074B9A4204D8022067
S1131810BDE83840FFF7A4BF0020F9E738BD00BF9A
S113182000400E403A110020002D31010378134A84
S1131830002B437870B514BF04260026002B837850
S1131840946914BF02250025002B037924F03F047A
S113185043EA0403C47814BF08210021012C08BF03
S113186043F0010333432B430B43936113684179E2
S113187023F4403343EA0143136070BD00300E404B
S1131880224B4AF6E85210B5596B5A639A6FD40743
S1131890FCD41B6C13F003031EBF1D4A0124146007
S11318A0834203D108B91A4B186010BD032B17D01B
S11318B0B3B1164A1446936FDB07FCD4136C23F0C0
S11318C0030303431364A36F13F00103FBD100303C
S11318D00F4A18BF01200129106008BF6363E4E7C1
S11318E0431E012BE5D8094B4FF40022DA629A6FAC
S11318F0D207FCD41A6C22F0030242F001021A64EB
S1131900024A536A1C03FCD5D3E700BF00300E40E3
S1131910B40AC6432DE9F04FA0F5E16389B000276E
S1131920B3F5966F054601919346CDE90277CDE96B
S11319300477CDE9067705D940F699215548FEF795
S1131940D3FF59E0544BB0F5E16F8CBF4FF0010A5F
S11319504FF0000AD3F8683152D01A0EC3F307438C
S1131960079204934FF496694FF4E164DFF82C81F5
S1131970D8F84C70C7F301773B46524605A902A834
S1131980FFF750FED8F8E060C6F30126334652460E
S113199006A903A8FFF746FE0798049A2C1B811A90
S11319A06143B1FBF9F3D1182CBF01230023884212
S11319B01CD3DBB9069A0398131A6343B3FBF9F3F8
S11319C010EB030A2CBF0123002352450ED36BB93D
S11319D0059B029A981A4443B4FBF9F912EB0909DE
S11319E02CBF012000204B4500D398B140F6E721DD
S11319F02848FEF779FF0027384609B0BDE8F08F84
S1131A00C3F30722DBB2079204934FF416794FF421
S1131A109664ABE7BBF1000F0ED0D8F85C3023F42A
S1131A20FE4323F00203B5F5E16F43EA012318BF37
S1131A3002200343C8F85C30019B43B338460021BD
S1131A40FFF752FE074610B940F6F62176E701216A
S1131A503046FFF749FE074610B940F6FE216DE710
S1131A600E4A536ED14538BFD14623F4FF73B9F102
S1131A70E70F23F0010328BF4FF0E709B5F5E16F45
S1131A8018BF43F0010343EA49035366B4E701274F
S1131A90B2E700BFD0350000B081E00F00300E4047
S1131AA0324A08B5136FD16CC90703F0070342D556
S1131AB0012B40D9132857D9143813288CBF10236D
S1131AC008232A49013BCA6C180322F47F4240EAE6
S1131AD003231343CB64264BCA6C1B88C2F3032233
S1131AE02833013202EB820003EB5303B3FBF0F320
S1131AF0C86C013B072B20F0EE6028BF072340F49D
S1131B00801040EA0363CB641A4BB3F90030002B16
S1131B1010DB2833500800EB420203EB5303B3FB02
S1131B20F2F30A6D072B28BF072322F0700242EA62
S1131B3003130B6508BDD26CD10706D4012B04D85E
S1131B40092811D90A380928B8E7084AD26CD207FB
S1131B5003D5012B01D82728B0E740F63C310648CD
S1131B60FEF7C2FE0023ACE70423AAE700300E40D0
S1131B703611002038110020D03500000B4B1B68B3
S1131B8010B5044633B9012804D940F65B3108483E
S1131B90FEF7AAFE074B186F20F0070020431867D2
S1131BA0054BBDE810401888FFF77ABF8009C6438B
S1131BB0D035000000300E403411002038B50389C0
S1131BC0C82B044604D94FF420614F48FEF78CFE1D
S1131BD0A28823899A4204D940F601214A48FEF793
S1131BE083FEB4F90C30C82B04DD40F602214648CC
S1131BF0FEF77AFE6378012B54D1A388C82B04D94D
S1131C0040F606214048FEF76FFEE28842F2107368
S1131C109A4204D940F613213B48FEF765FEE38857
S1131C204A2B47D9B3F5FA7F46D340F6C3118B420A
S1131C3094BF4FF000514FF040513448B4F90C5068
S1131C40C36CA28823F0405323F00103002DA8BFE6
S1131C5043F001030B43C364D0F8E03043F4407312
S1131C60C0F8E0302A4B1A80C36E43F08073C36619
S1131C70284B186800B10420FFF780FF264B218908
S1131C801980264BB4F90C20A0881A80FFF708FFAE
S1131C90A37BA3B1012B23D040F679011A48FEF7A8
S1131CA023FE0FE0022BB0D1A3880A2BADD940F656
S1131CB00B21A7E70021C0E74FF08051BDE7134B8C
S1131CC0174A9A65012211466088FFF723FE0546EC
S1131CD048B940F64A210C48FEF706FE284638BDAE
S1131CE00A4B104AEDE7094A6078D36B43F48063EA
S1131CF0D363FFF7C5FDA37AA3F1200253425341F6
S1131D00094A1360EAE700BFD035000000300E40F6
S1131D10341100208009C6433611002038110020F8
S1131D2077402057372110B79407C64338B50D467E
S1131D300446C0B1012818D0022819D003281AD0AB
S1131D4005280CBFFF2300232B41DB0704D44FF4E9
S1131D5082610A48FEF7C8FD30235C430121084B29
S1131D60A940195138BD3F23EEE74FF47843EBE720
S1131D704FF47C63E8E74FF47E43E5E72035000049
S1131D800CA0004638B50D460446C0B1012818D051
S1131D90022819D003281AD005280CBFFF230023DA
S1131DA02B41DB0704D440F2E1310A48FEF79CFDE5
S1131DB030235C430121084BA940195138BD3F230E
S1131DC0EEE74FF47843EBE74FF47C63E8E74FF436
S1131DD07E43E5E7203500000CA0004470B50546BD
S1131DE00E461446FFF704FC2A68544004EA060130
S1131DF051402960BDE87040FFF7FEBB2DE9F0417A
S1131E00884615461F460446002842D0012842D081
S1131E10022843D0032844D0052814BF0023FF23FD
S1131E2043FA08F3DB0703D4BF212748FEF75CFD20
S1131E3088EA050333F0030303D0C1212248FEF7E7
S1131E4053FD072D08F003084FF00F012CD8AE0006
S1131E5004FA06F2B1401D48FFF7C0FF03211C48F5
S1131E6008FA06F2B140FFF7B9FF1A4B9DF81820A3
S1131E702B449B001F60C3F88020012202FA05F561
S1131E80154AC2F824549DF81C20C3F80023BDE869
S1131E90F0813F23C4E74FF47843C1E74FF47C63F8
S1131EA0BEE74FF47E43BBE7A5F10806B60004FA8B
S1131EB006F2B1400948FFF791FF032108FA06F240
S1131EC0B1400748CFE700BFFC35000000A4004044
S1131ED008A400408020851000A0004004A4004015
S1131EE00CA40040F8B50C4615461E46074688B3B8
S1131EF0012831D0022832D0032833D0052814BF5A
S1131F000023FF232341DB0704D440F21D112248A0
S1131F10FEF7EAFC25B12146384636B3FFF706FF43
S1131F2030237B4303F18043072C03F520431FD860
S1131F305A68A1000F20884022EA000205FA01F144
S1131F400A435A6035BB21463846FEB1BDE8F84025
S1131F50FFF7ECBE3F23D5E74FF47843D2E74FF4C5
S1131F607C63CFE74FF47E43CCE7FFF70BFFD7E763
S1131F7004F18042083A996892000F20904021EAC7
S1131F80000105FA02F20A439A60DBE7BDE8F84073
S1131F90FFF7F8BEF8BD00BFFC350000022838B5D5
S1131FA004460D4603D94C211048FEF79DFC6B797D
S1131FB01F2B03D951210D48FEF796FCAB786A78A4
S1131FC09B0143EA82032A781343EA7843EA021323
S1131FD02A7943EAC2236A7943EA0233AA790434A8
S1131FE043EA42432401024A135138BD2936000012
S1131FF000200440014B1860704700BF0000844279
S1132000427801790378002A827870B514BF0426D7
S11320100026002AC27814BF10250025002A427920
S11320204FEA023242EA012242EA0302837914BFF0
S113203020240024002BC37942EA034343EA060325
S1132040027A43EA050314BF4FF4004100212343FD
S1132050002A14BF4FF4003200220B431343014AF9
S1132060136070BD0020044010B5044618B9412126
S11320700C48FEF739FC0C4A536911699B0003F0C4
S11320803C03C1F381110B43A370136903F03F03B5
S113209063709369D26903F0F003C2F3031213432C
S11320A0237010BD56360000D0FF0FE070B5064611
S11320B00C46154622B940F286210B48FEF714FC63
S11320C01CB90A48FEF742FE0446013C6D00B4FB0D
S11320D0F5F42402E30DDB0523B140F2A321024809
S11320E0FEF702FC746170BD8536000040410500B6
S11320F038B5184B184D984204460AD0A84208D067
S113210003F50063984204D040F22B411348FEF7D4
S1132110EBFB40F6AA63E36041F20502002323606F
S113212062600F4AA3606361E364A264094A2366A0
S113213094426367A367E36705D0AC4203D002F51A
S11321400062944200D123650023AC42A36508BF1A
S1132150E36538BD000001400004014085360000FD
S1132160F9FF010038B5284B984204460D460CD0BF
S113217003F58063984208D003F58063984204D045
S113218040F256312148FEF7AFFB2046FFF7B0FF7F
S1132190A97B2A8A2368002942F0010214BF4FF464
S11321A08061002113430B432A7D23602368002AA6
S11321B014BF4FF00052002213432360AB7C1BB1C9
S11321C0EB7C43F08003A3652B7B43F48053636073
S11321D0D5E901122046FFF769FF6B7B0BB1102391
S11321E0E3606B7D1BB1236843F480332360AB7DD4
S11321F0EA7D1B07120503F0E04302F4E0021343F7
S113220023662B78E36038BD00000140853600006A
S113221003695A06FCD5416303699B06FCD5C06972
S1132220C0B2704703695B06FCD541637047000088
S1132230044B1B681BB1044B036000207047012052
S1132240704700BF581900203C11002070B50D4C98
S1132250246884B10C4C26888518B5420DDC668848
S1132260CD18B54209DC52B14BB1A080E180228186
S11322706381002070BD0120FCE70420FAE70520FB
S1132280F8E700BF581900203C1100202DE9F04F59
S113229085B000934D4B0F9E1B68002B5AD04C4BBE
S11322A0DD885A892A4492B20292009A002A14BF05
S11322B04FF0FF0A4FF0000A4FFA8AF20D440192E0
S11322C0ADB298464FF001091FFA85FB1EB930469E
S11322D005B0BDE8F08F029B9B453DD2B8F808409D
S11322E03C4BB8F80420241AB44203EB0511009BBC
S11322F028BF34460244361B92B28BBB072C31D81C
S1132300144424E0D00802F007030F5C09FA03F335
S11323103B4301320B5492B2A242F3D368112E4ACA
S11323200BF01F0352F8201009FA03F30B4342F891
S1132330203001350020C7E7D70802F00700CB5D45
S113234009FA00F023EA00030132CB5592B2A2420B
S1132350F2D3E3E70120BBE70420B9E71444DBE749
S1132360072CFBD94FEAD20C12F0070201EB0C0741
S113237013D009FA02F3DBB211F80CE0581E0EEA8E
S11323800000C3F1000E019B03EA0E0E40EA0E00AA
S1132390083A01F80C0001371444E3080AD01A463D
S11323A038465146039301F07CF8039BB4EBC30415
S11323B01F44B3D009FA04F4E4B23B786242013C0E
S11323C013400AEA04041C433C70A7E75819002090
S11323D03C110020581100204811002037B5114D40
S11323E02B68EBB9FEF730F8044610B1012003B0B6
S11323F030BDFEF71DF828600028F7D00188428818
S1132400094B5A805A814A43198019819C80DC8087
S11324102146CDE90042234622462046FFF736FFF7
S11324200020E4E7581900203C1100202DE9F8436E
S11324301B4DDFF874802C68DFF8689000230126B8
S11324401A46D8F800004188D7188F4207D3FBB941
S113245010220021124801F024F8002011E0E107C5
S113246008D50133D118C9060ABF55F826406408B7
S11324700136E6E753B109EB0211FDF781FF10B114
S11324800720BDE8F8837A1C0346EBE70132E9E74D
S1132490044901EB0211FDF773FF0028D8D0EFE7E0
S11324A048110020581100205819002030B102684A
S11324B00021538812880846FFF7C8BE05207047DC
S11324C037B50546A8B14468FFF7F0FF014668B97F
S11324D02A68158953896B430193E3B20093C4F3CB
S11324E00742C4F30723FFF7D1FE0146084603B0B1
S11324F030BD0521FAE7024658B1118A9369526941
S11325008089013301325B1A121A9BB292B2FFF72F
S11325109DBE05207047F0B4D0B1C9B10E688C6877
S1132520A64218DA4D68CA68954214DA002E14DB04
S1132530002D12DB01680F88BC420EDA49888A42FA
S11325400BDAC0E90365C0E90542F0BCFFF7D3BF6D
S11325500520F0BC70470420FBE70320F9E70000E6
S113256030B5054687B000B300226FF07F43C0E961
S1132570012301A8FFF75CFE044698B9019B2B6078
S11325801A885B88CDE90200013A013B02A928467A
S113259004920593FFF7BFFF044618B9044928467F
S11325A000F01AF9204607B030BD0524FAE700BF51
S11325B0E439000073B50D461646044690B10C305C
S11325C000F02FF880B1A26801230193D3B20093E5
S11325D0B1B2C2F30723A8B2C2F30742FFF756FE13
S11325E002B070BD0520FBE70120F9E773B50D4685
S11325F016461C4688B10C3000F013F878B101235C
S11326000193E3B20093C4F30742C4F30723B1B2C6
S1132610A8B2FFF73BFE02B070BD0520FBE7012026
S1132620F9E778B103688B420BDC83688B4208DBE3
S11326304368934205DCC0689042B4BF0020012087
S11326407047002070472DE9F04F85B09346029300
S11326509DF838300393054600287CD0A1F120036F
S11326605E2B7AD890F82830022B8CB21BD13A29F1
S11326701BD020291BD0303CA4B22B8CA3426CD994
S1132680EB69DDF8088001930027029B95F825206B
S1132690A8EB03039BB29A420BD8B7FA87F0400920
S11326A005B0BDE8F08F203CE6E70A24E5E70B24FB
S11326B0E3E795F82230012B05D0022B1CD0019BB7
S11326C053F824A002E0019B13F804A0D946A9EB17
S11326D00B0695F82430B6B2B34211D895F82430DD
S11326E095F8272013449E4225DB95F823301C449B
S11326F0A4B208F10108C8E7019B33F814A0E5E788
S11327001AF0010F0DD0424649462846FFF752FF02
S11327100128C5D800B901374FEA5A0A09F101095D
S1132720D5E7039B002BF7D06B6842464946284601
S1132730FFF75CFFECE7039B53B16B6842460BEB7E
S113274006012846FFF752FF0128A9D800B901372E
S11327500136B6B2C2E70520A2E70220A0E72DE9C0
S1132760F74F0C9E9DF834B09A46054680B379B372
S113277090F8283073B30C4601EB020957464FF02A
S113278000084C4505D1B8FA88F0400903B0BDE80B
S1132790F08F14F8011B0A2907D195F825301E443F
S11327A095F8263057461E44EBE7CDF800B0334683
S11327B03A462846FFF747FF0128E7D808B908F149
S11327C0010895F8243095F8272013441F44D8E7CE
S11327D00520DBE70220D9E708B520B11C30102220
S11327E019B900F05EFE052002E000F04FFE002063
S11327F008BD2DE9F14F0546084692461C460F4692
S1132800DDE90A8B9DF8309000F053FE95F82560C1
S113281095F8262095F824301644012C00FB03F18A
S11328200AFB06B603D0022C10D0002303E02B6869
S11328301B885B1A5B080246434439462846CDE9A7
S11328400A6901B0BDE8F04FFFF789BF2B681C8807
S1132850631AF0E77FB5094B6A4603F11006154683
S113286018685968144603C40833B3422246F7D1A2
S11328702846FFF7A3F9002004B070BD143D000002
S113288013B5022300246846ADF8044000948DF883
S11328900530FEF7CBFF204602B010BD70B5154BD6
S11328A086B001AA03F11006154618685968144643
S11328B003C40833B3422246F7D11B8823800E4B4E
S11328C05A6812030DD49B68C3F308030B48ADF890
S11328D00A30FDF7AFFE2846FEF704FE002006B0DE
S11328E070BD074B1B884FF6FF72934208BF4FF42D
S11328F0A573EBE7243D0000B081E00F00F049022E
S11329000001E00F07B5084B18680190202301A8C7
S11329108DF80430FEF740FE6420FEF705FB00202E
S113292003B05DF804FB00BF363D000010B50C4851
S11329300C4C6FF00402A02112F0800FD3B21BBF25
S113294003F00F03043BA3181B1802F101020CBF90
S113295083F8001319762F2AEED1002010BD00BF92
S113296000ED00E000E100E0104A4161136830B579
S11329701546ABB91060836011E0091B9C68416186
S11329801A467CB123465C698C42F6D9002CF4D0FB
S113299052B19060836013B15A69511A596130BDC4
S11329A00022F0E72346F4E72860F3E774190020D7
S11329B010B500F0DBF9094B094A196831B1136805
S11329C0C41A4B69A34203D31B1B4B61106003E081
S11329D0C01A002310604B6110BD00BF74190020A1
S11329E06019002038B50F4D2B685C690E4B1B68CD
S11329F002201C4400F0F2F9204600F0C3F90B4910
S1132A002A6800230B70D088800702D501230B703D
S1132A1038BD9268002AFBD050690344012BF2D9D7
S1132A20F6E700BF7419002060190020681900201F
S1132A3070B59DF814500571002516468560049AFA
S1132A40BDF81850C58004460260C0E903360D463F
S1132A5029B961610BB11146984796B13546FEF725
S1132A60CEFD0646FFF7A4FF29462046FFF77CFF6C
S1132A70054B1B68A34201D1FFF7B4FF3046FEF7B4
S1132A80C4FD002070BD00BF741900200C4A1368F7
S1132A9000217BB183420AD1836879B18B6083685A
S1132AA01BB15A6941690A445A61002070471946AA
S1132AB09B68EEE70028EFD0022070471360EEE732
S1132AC07419002070B5154EFEF799FD347805464B
S1132AD0FCB9134B1C60134B1C60134B1C8000F09F
S1132AE001F9012000F07AF900F0B6F90F4B024623
S1132AF0186020B92846FEF788FD232070BD2346C0
S1132B000B4840F2E73100F009FB0A4B186001233F
S1132B1033702846FEF779FD0020EFE75C190020AA
S1132B2074190020601900206A190020701900200F
S1132B3018FCFFFF641900202DE9F0410546F8B1A7
S1132B40FEF75DFD0F4F0646FFF732FF2846D7F824
S1132B500080FFF79BFF044628B13046FEF755FD81
S1132B602046BDE8F081A8453B6803D123B1FFF7B7
S1132B7039FFF2E7002BF0D1022000F03DF9ECE739
S1132B802224EDE774190020F0B50D4685B01646F1
S1132B901F46044680B1FFF7CFFFBDF82C300293E7
S1132BA09DF828302A46CDE900732946334620464D
S1132BB0FFF73EFF05B0F0BD2220FBE7014B18688C
S1132BC0704700BF70190020C2072DE9F84F044672
S1132BD00BD53F4A138801339BB21380FFF7E8FEFD
S1132BE03C4B1B680BB1FFF7FDFEA3076DD53A4FB5
S1132BF000F0BCF83D688046451BFEF700FD00264A
S1132C0083463246B246334B1C6814B16369AB4207
S1132C1014D9012E314B51D1D288022A4ED11E70C3
S1132C20002C4ED06369C7F800805D1B6561FFF717
S1132C30D9FE5846BDE8F84FFEF7E7BCC7F8008058
S1132C4023462A465969914209D8187994F804C050
S1132C50844588BF1C469B68521A002BF2D1584603
S1132C60FEF7D3FCD4F814B0C4F814A0FEF7C7FCE4
S1132C7081462046FFF70AFF4846FEF7C6FC236953
S1132C804BB1FEF7BCFC216981462046FFF76CFE80
S1132C904846FEF7BAFCE36813B12168204698471A
S1132CA000F064F8D844A5EB080581460544FEF716
S1132CB0A6FC013683462246C846A4E700221A70C1
S1132CC0AEE7022000F098F8B3E7BDE8F88F00BF44
S1132CD06A19002074190020601900206C19002062
S1132CE00020704710B51D4B86B05968186803AAB8
S1132CF003C2197A53F8090F117000249A880190BD
S1132D009B791748ADF8082001218DF80A30FDF7AA
S1132D1089FE8DF80C40FFF7E3FF8DF8100003A83F
S1132D20FFF76EF901A901208DF80440FFF736F989
S1132D300C4A536A23F4FF6323F00703536240F2FF
S1132D40FF73136201209460FFF754F9064B4FF0B0
S1132D500042C3F880211A6006B010BD3A3D00005D
S1132D60A00914000020044000E100E0014B986831
S1132D70704700BF00200440014B586D704700BFEE
S1132D800020044010B5134C0246A168FFF7F4FF7D
S1132D90A3695B0704D4431A022B01D888420DD1DE
S1132DA0531A012B98BF8A1C0A4BB2F1FF3F28BF6C
S1132DB001325A655A6A42F004025A62064A13788A
S1132DC033B104490B6D43F002030B650023137008
S1132DD010BD00BF002004402A1000208207054ACD
S1132DE000F00103516A48BF43F004030B435362EC
S1132DF0704700BF00200440830700F0010209D59A
S1132E00074B0121197007490B6D23F0030342F0AE
S1132E1004020B6503494B6A23EA02034B627047C1
S1132E202A1000200020044010B5FEF7E8FB094AF0
S1132E3093690446590703F0010003F0070348BFF0
S1132E4040F002001362FFF7BFFE2046BDE81040C9
S1132E50FEF7DBBB0020044008B50448FDF776FF0D
S1132E600346FFF73DFF23FA00F008BDA009140054
S1132E7008B500F057F800F097F800F097F800F064
S1132E8097F8BDE8084000F094B808B500F092F84F
S1132E9000F091F800F090F8BDE8084000F08DB81B
S1132EA010B50446FDF7AEFB4FF47A735C43B0FBF8
S1132EB0F3F0064BB3FBF0F0B4FBF0F0800803D062
S1132EC0BDE8104000F004B810BD00BF40420F0040
S1132ED0013800D0FCE7704700F088B800F0EAB889
S1132EE0FDF766B908B504211120FEF7C9F90121DF
S1132EF00848FDF797FD02210748FEF7C1F90221B2
S1132F000648FEF7BDF902210548FEF7B9F900208D
S1132F1008BD00BF30253E0002001E000300200053
S1132F20050024001A4B07B501225A641A6842F4BA
S1132F3080721A6001A8FFF797F89DF80530012BFD
S1132F4003D89DF80430022B09D9124B4FF41872A0
S1132F501A60114A5A60114A5A66114ADA66114ACD
S1132F60136843F4F8431360FFF7E0FCFDF740F9FE
S1132F70FFF770FCFFF792FCFFF7C4FCFFF7B2FF0A
S1132F80FFF77EFCFDF726F903B05DF804FB00BFF4
S1132F9000000E408C420E409A6F05001801000498
S1132FA000843208A4310E4000F008B8FFF78ABD4F
S1132FB070477047704770477047704708B50448BA
S1132FC0FDF762FB0348BDE80840FDF75DBB00BFA9
S1132FD04C3D0000643D000008B5FFF749FFFFF7D2
S1132FE07BFFFFF752FFFFF779FFFAE72DE9FF4177
S1132FF0FDF7E7F818B138212748FDF775FC0020E4
S1133000FFF7ECF918B13C212348FDF76DFC234888
S1133010FFF7A6FA18B140211F48FDF765FC1F4CC5
S11330201F4E00276FF07F432046C4E90137FFF7A6
S113303047FA1C492046FFF7CFFB32681A49052599
S11330404FF00108531C3360CDE901583B4600950D
S1133050D2B22046FFF7CDFB3268009502EB08039D
S11330603360CDE901583B46D2B210492046FFF700
S1133070C0FB3268009502EB08033360CDE90158C8
S11330803B46D2B20A492046FFF7B3FB04B0BDE881
S1133090F041FFF7CBB900BF7C3D00007C19002054
S11330A078190020B4360000893D00009B3D0000E3
S11330B0B03D0000704700001FB50446FDF7EAFA72
S11330C001281FD1104B9C420AD1104B10480022FA
S11330D01A60FFF7F5F904B0BDE81040FFF7A6B990
S11330E00C4B9C42F7D1094B1A68511C19600523FB
S11330F00290CDE90033D2B2002307490448FFF718
S113310078FBE8E704B010BD4C3D000078190020BE
S11331107C190020643D0000C53D000053B94AB944
S1133120002908BF00281CBF4FF0FF314FF0FF30CB
S113313000F072B9ADF1080C6DE904CE00F006F8A8
S1133140DDF804E0DDE9022304B070472DE9F0471F
S1133150089E04468846002B4BD18A42154667D9FF
S1133160B2FA82F24AB1C2F1200701FA02F320FA5C
S113317007F7954047EA030894404FEA154E230C9D
S1133180B8FBFEF71FFA85FC0EFB178843EA0843D9
S113319007FB0CF1994209D9EB1807F1FF3080F0D5
S11331A01B81994240F21881023F2B445B1AA4B25E
S11331B0B3FBFEF00EFB103344EA034400FB0CFCAB
S11331C0A44509D92C1900F1FF3380F00781A445E7
S11331D040F2048102382C4440EA0740A4EB0C047A
S11331E000271EB1D4400023C6E900433946BDE898
S11331F0F0878B4209D9002E00F0EB800027C6E946
S1133200000138463946BDE8F087B3FA83F7002F4A
S113321047D18B4202D3824200F2FA80841A61EBD6
S1133220030301209846002EE0D0C6E90048DDE7FC
S113323002B9FFDEB2FA82F2002A40F08F80491B05
S11332404FEA154E1FFA85F80127B1FBFEFC230C4B
S11332500EFB1C1143EA014308FB0CF1994207D908
S1133260EB180CF1FF3002D2994200F2CD80844673
S1133270591AA3B2B1FBFEF00EFB101443EA044446
S113328008FB00F8A04507D92C1900F1FF3302D23E
S1133290A04500F2B6801846A4EB080440EA0C40AE
S11332A09FE7C7F1200CBB4022FA0CFE4EEA030E46
S11332B001FA07F420FA0CF521FA0CF34FEA1E4840
S11332C02543B3FBF8F92C0C08FB19331FFA8EFACB
S11332D044EA034309FB0AF49C4202FA07F200FAA7
S11332E007F10BD91EEB030309F1FF3080F087804F
S11332F09C4240F28480A9F1020973441B1BADB2C5
S1133300B3FBF8F008FB103345EA034400FB0AFA68
S1133310A24508D91EEB040400F1FF336BD2A24589
S113332069D90238744440EA0940A0FB0289A4EB3D
S11333300A044C45C2464B4654D351D0002E69D0A2
S1133340B1EB0A0564EB030404FA0CFCFD40FC40F9
S11333504CEA0505C6E90054002747E7C2F12003FB
S113336020FA03F7954001FA02F021FA03F34FEA39
S1133370154E3843010CB3FBFEF71FFA85F80EFB1C
S1133380173341EA034107FB08F38B4204FA02F4C2
S113339007D9691807F1FF3C2FD28B422DD9023F80
S11333A02944CB1A81B2B3FBFEF00EFB103341EA81
S11333B0034100FB08F38B4207D9691800F1FF3C75
S11333C017D28B4215D902382944C91A40EA074753
S11333D03BE73746304609E70746E7E61846FBE68B
S11333E04145ABD2B8EB020A69EB0E020138134631
S11333F0A4E76046E9E7184695E76746D1E78146C2
S11334007CE702382C4447E7ACF1020C2B442FE74D
S1133410384608E73746E9E6704700BF08B5074B6A
S1133420044613B10021AFF30080054B1868836A8A
S113343003B19847204600F045F800BF00000000A3
S1133440D43D000070B50D4E0D4CA41BA4100025F6
S1133450A54209D10B4E0C4C00F036F8A41BA41065
S11334600025A54205D170BD56F825309847013591
S1133470EEE756F8253098470135F2E7A41000200E
S1133480A4100020A4100020A810002010B5431E92
S11334900A44914200D110BD11F8014B03F8014FC9
S11334A0F7E702440346934200D1704703F8011B37
S11334B0F9E7034613F8012B002AFBD1181A013847
S11334C070470000FEE700BFF8B500BFF8BC08BCB9
S11334D09E467047F8B500BFF8BC08BC9E467047CE
S11334E0050000000000000040420F00050100003C
S11334F000000000000000008000800001010000C6
S1133500E0C810003C0602000500000000000000B6
S113351040420F0005010000000000000000000010
S11335206765636B6F5F73646B5F332E312E312F6E
S1133530706C6174666F726D2F656D6C69622F6952
S11335406E632F656D5F6770696F2E6800676563D2
S11335506B6F5F73646B5F332E312E312F706C6130
S113356074666F726D2F656D6C69622F696E632F5F
S1133570656D5F636F6D6D6F6E2E68006765636B5D
S11335806F5F73646B5F332E312E312F706C6174F7
S1133590666F726D2F656D6C69622F7372632F6530
S11335A06D5F636D752E630040787D01000000003F
S11335B0005A620200010000C0CF6A00020000004D
S11335C0809FD50002010000002D3101020200009D
S11335D06765636B6F5F73646B5F332E312E312FBE
S11335E0706C6174666F726D2F656D6C69622F7398
S11335F072632F656D5F656D752E63006765636B20
S11336006F5F73646B5F332E312E312F706C617476
S1133610666F726D2F656D6C69622F7372632F65AF
S11336206D5F6770696F2E63006765636B6F5F73AF
S1133630646B5F332E312E312F706C6174666F7240
S11336406D2F656D6C69622F7372632F656D5F7288
S11336507463632E63006765636B6F5F73646B5F92
S1133660332E312E312F706C6174666F726D2F653D
S11336706D6C69622F7372632F656D5F73797374F8
S1133680656D2E63006765636B6F5F73646B5F3397
S11336902E312E312F706C6174666F726D2F656DD3
S11336A06C69622F7372632F656D5F7573617274D9
S11336B02E630000C43600002003016406080200E3
S11336C00100000000040A0A0403060608020000C0
S11336D0000000000E040E1F081F0C1F0E0E000039
S11336E01000010E0E0E0F0E071F1F0E110E1C11DF
S11336F00111110E0F0E0F1E1F11111111111F0EAA
S1133700000E04000200010010000C000104080176
S11337100600000000000000020000000000000C91
S1133720040600000000000000040A0A1E13090435
S11337300404040400000000110611080C01021026
S113374011110606080002111011111109010111CD
S113375011040809011B1111111111010411111196
S11337601111100200080A00040001001000121ECA
S1133770010000010400000000000000020000003D
S113378000000002040802000000000000040A1FF8
S113379001080502020815040000001019041004B1
S11337A00A0F010811110606041F0410101111015B
S11337B01101010111040805011513111111110161
S11337C0041111110A11080201081100080E0D0E4E
S11337D0160E02110D060C09040B0D0E0F160D0E1C
S11337E00711111111111F02040815000000000037
S11337F00004000A0E04020002080E1F001F000845
S11338001504080809100F040E1E00000200080821
S113381016110F01110F0F1D1F04080301151511B7
S11338200F110F0E04111115040A040202080000FE
S113383000101301191107111304080504151311BD
S113384011191301021111110A11080104100800C1
S1133850000000000000001F1002150002081504FB
S113386006000004130404101F10110211100606B0
S1133870041F0404151F110111010111110408058D
S11338800111191101150510041111150A04020280
S113389004080000001E1101111F021E1104080378
S11338A0041511110F1E010E02111115041E04023C
S11338B004080000000000000000000A0F190900BD
S11338C00404040404000602110402110811110284
S11338D01108060408000200151111110901011153
S11338E011040909011111110109091004110A1522
S11338F01104010208080000001111111101021045
S113390011040905041111110110011012190A15ED
S11339100A10020204080000000000000004000A6B
S11339200418160008020000020006010E0E1F0E05
S1133930080E0E020E060002100001040E110F0EF6
S1133940071F010E110E06111F11110E0116110F82
S1133950040E040A11041F0E100E001F001E0F0E89
S11339601E0E020E110E06090E11110E0110010F8A
S11339700C16040A110E1F0C0406000000000000BF
S11339800000000000000000000000000000000033
S11339900000000000000000000000000000000023
S11339A00000000000000000000000000000000013
S11339B00000000000000000000000000000000003
S11339C000000000000000000000000000000000F3
S11339D000000000000000000000000000000000E3
S11339E000000000F439000020030164080802000C
S11339F00100000000186C6C10CE3808600C000048
S1133A00000000007C307C7CC6FE7CFE7C7C0000D8
S1133A1070001C7C7C7C7E7C7EFEFE7CC63C78C672
S1133A2006C6C67C7E7C7E7C7EC6C6C6C6C6FE7CBA
S1133A30007C10000C000600600038000600000640
S1133A400C00000000000000000000000000003036
S1133A5018188C000000000000186CFEFC6A2C187A
S1133A6030186C18000000C0C638C6C6C606C6C0EA
S1133A70C6C61818387C38C6C6C6C6C6C60606C624
S1133A80C618306606EECEC6C6C6C6C618C6C6C6B4
S1133A90C6C6C00C066038000C00060060000C00AE
S1133AA0061830060C00000000000000180000009A
S1133AB0000000181830D60000000000001848FE6E
S1133AC0162E2C181830381800000060C63060C05C
S1133AD0C6060660C6C618181C7C70C6F6C6C6069E
S1133AE0C6060606C618303606FEDEC6C6C6C606B6
S1133AF018C6C6C66CC6600C0C606C00043C3E3C28
S1133B007C3C3C3C3E0000660C6E3E3C3E3C363CFD
S1133B10186666C666667E181830620000000000EB
S1133B200018006C7C10DC001830FE7E1C7E003017
S1133B30C6303070FE7E7E307CFC00000E00E070EB
S1133B40F6FE7E06C61E1EF6FE18301E06D6F6C605
S1133B507EC67E7C18C6C6D638FC300C1860C600FB
S1133B600060660666660C66661830360CD66666B5
S1133B7066666E067C6666C63C66300C00600000B5
S1133B8000000000000000FED0E866001830387E17
S1133B901C7E1C18C63018C0C0C0C618C6C0181871
S1133BA01C7C703076C6C606C60606C6C6183036F5
S1133BB006C6E6C606B6C6C018C6C6FE6CC0180C55
S1133BC030600000007C6606667E0C7C6618301E41
S1133BD00CD666663E56063C186666D6187C1818DF
S1133BE01830000000000000001800FE7EAC6600E3
S1133BF030186C1818001C0CC6300CC6C0C6C60C95
S1133C00C6C61818387C380006C6C6C6C60606C618
S1133C10C618366606C6C6C60666C6C618C66CEE9E
S1133C20C6C00C0C606000FE0066660666060C608A
S1133C30661836360CC666660626066018663CD6D6
S1133C403C600C1818300000000000000018006CE4
S1133C5010E6DC00600C00180C001C067C78FE7C6E
S1133C60C07C7C067C7C000C70001C307CC67E7C96
S1133C707EFE06FCC63C1CC6FEC6C67C06DCC67CB4
S1133C80187C38C6C67EFE7CC07C00FE007C3E3CB0
S1133C907C3C0C3E66701C6638C6663C065C063E80
S1133CA0707C18FC663E7E3018180000000000008E
S1133CB00000000000000000000000000000000000
S1133CC000000000000000000000000000000000F0
S1133CD000000000000000000000000000000000E0
S1133CE000000000000000000000000000000000D0
S1133CF000000000000000000000000000000000C0
S1133D0000000000000000000000000000000000AF
S1133D1000000000000108070F000A00C80020008E
S1133D20A000010000000000A00068010A200706AE
S1133D30020A040700000002070001000000050059
S1133D400000000200000300000002002C1000200C
S1133D5049070000A1070000A5070000FB070000B9
S1133D600B0800003410002049070000A1070000E0
S1133D70A5070000FB0700000B0800006D656D6CD3
S1133D8063645F6170702E63004D454D4C43442065
S1133D9053616D706C6520417070002050726573C2
S1133DA0732042544E3020746F20636C656172003E
S1133DB02050726573732042544E3120746F20700A
S1133DC072696E740048656C6C6F20576F726C6416
S10B3DD0210000004410002052
S10B3DD864C3FF7F0100000039
S1133DE000040140004204000206FFFF02080BFF2A
S1133DF00B000000C0EA210100F04902C0EA2101E1
S1133E0000800000C0EA2101FFFF01000000000063
S1133E100506020000000000050702004C3D0000FA
S1133E20643D0000000000000000000000000000ED
S1133E30000000000000000000000000000000007E
S1133E40000000000000000000000000000000006E
S1133E50000000000000000000000000000000005E
S1133E60000000000000000000000000000000004E
S1133E70000000000000000000000000000000003E
S10F3E800000000021010000FD00000013
S903057D7A
